{"src/contracts/PolkadotAirSpaceNFT.sol":{"PolkadotAirSpaceNFT":{"abi":[{"inputs":[{"internalType":"address","name":"_treasury","type":"address"}],"stateMutability":"nonpayable","type":"constructor"},{"inputs":[],"name":"ERC721EnumerableForbiddenBatchMint","type":"error"},{"inputs":[{"internalType":"address","name":"sender","type":"address"},{"internalType":"uint256","name":"tokenId","type":"uint256"},{"internalType":"address","name":"owner","type":"address"}],"name":"ERC721IncorrectOwner","type":"error"},{"inputs":[{"internalType":"address","name":"operator","type":"address"},{"internalType":"uint256","name":"tokenId","type":"uint256"}],"name":"ERC721InsufficientApproval","type":"error"},{"inputs":[{"internalType":"address","name":"approver","type":"address"}],"name":"ERC721InvalidApprover","type":"error"},{"inputs":[{"internalType":"address","name":"operator","type":"address"}],"name":"ERC721InvalidOperator","type":"error"},{"inputs":[{"internalType":"address","name":"owner","type":"address"}],"name":"ERC721InvalidOwner","type":"error"},{"inputs":[{"internalType":"address","name":"receiver","type":"address"}],"name":"ERC721InvalidReceiver","type":"error"},{"inputs":[{"internalType":"address","name":"sender","type":"address"}],"name":"ERC721InvalidSender","type":"error"},{"inputs":[{"internalType":"uint256","name":"tokenId","type":"uint256"}],"name":"ERC721NonexistentToken","type":"error"},{"inputs":[{"internalType":"address","name":"owner","type":"address"},{"internalType":"uint256","name":"index","type":"uint256"}],"name":"ERC721OutOfBoundsIndex","type":"error"},{"inputs":[{"internalType":"address","name":"minter","type":"address"}],"name":"InvalidMinter","type":"error"},{"inputs":[{"internalType":"uint256","name":"provided","type":"uint256"},{"internalType":"uint256","name":"required","type":"uint256"}],"name":"InvalidPrice","type":"error"},{"inputs":[],"name":"InvalidPropertyData","type":"error"},{"inputs":[{"internalType":"address","name":"caller","type":"address"}],"name":"NotAuthorized","type":"error"},{"inputs":[{"internalType":"address","name":"owner","type":"address"}],"name":"OwnableInvalidOwner","type":"error"},{"inputs":[{"internalType":"address","name":"account","type":"address"}],"name":"OwnableUnauthorizedAccount","type":"error"},{"inputs":[{"internalType":"string","name":"propertyAddress","type":"string"}],"name":"PropertyAlreadyExists","type":"error"},{"inputs":[],"name":"ReentrancyGuardReentrantCall","type":"error"},{"inputs":[],"name":"TransferFailed","type":"error"},{"anonymous":false,"inputs":[{"indexed":true,"internalType":"uint256","name":"tokenId","type":"uint256"},{"indexed":true,"internalType":"address","name":"owner","type":"address"},{"indexed":false,"internalType":"string","name":"propertyAddress","type":"string"},{"indexed":false,"internalType":"uint256","name":"currentHeight","type":"uint256"},{"indexed":false,"internalType":"uint256","name":"maximumHeight","type":"uint256"},{"indexed":false,"internalType":"uint256","name":"availableFloors","type":"uint256"},{"indexed":false,"internalType":"uint256","name":"price","type":"uint256"},{"indexed":false,"internalType":"string","name":"metadataURI","type":"string"}],"name":"AirRightsNFTMinted","type":"event"},{"anonymous":false,"inputs":[{"indexed":true,"internalType":"address","name":"owner","type":"address"},{"indexed":true,"internalType":"address","name":"approved","type":"address"},{"indexed":true,"internalType":"uint256","name":"tokenId","type":"uint256"}],"name":"Approval","type":"event"},{"anonymous":false,"inputs":[{"indexed":true,"internalType":"address","name":"owner","type":"address"},{"indexed":true,"internalType":"address","name":"operator","type":"address"},{"indexed":false,"internalType":"bool","name":"approved","type":"bool"}],"name":"ApprovalForAll","type":"event"},{"anonymous":false,"inputs":[{"indexed":false,"internalType":"uint256","name":"_fromTokenId","type":"uint256"},{"indexed":false,"internalType":"uint256","name":"_toTokenId","type":"uint256"}],"name":"BatchMetadataUpdate","type":"event"},{"anonymous":false,"inputs":[{"indexed":true,"internalType":"uint256","name":"tokenId","type":"uint256"},{"indexed":true,"internalType":"address","name":"recipient","type":"address"},{"indexed":false,"internalType":"uint64","name":"sourceChainSelector","type":"uint64"},{"indexed":false,"internalType":"bytes32","name":"sourceMessageId","type":"bytes32"},{"indexed":false,"internalType":"string","name":"propertyAddress","type":"string"}],"name":"CrossChainNFTReceived","type":"event"},{"anonymous":false,"inputs":[{"indexed":false,"internalType":"uint256","name":"_tokenId","type":"uint256"}],"name":"MetadataUpdate","type":"event"},{"anonymous":false,"inputs":[{"indexed":true,"internalType":"address","name":"previousOwner","type":"address"},{"indexed":true,"internalType":"address","name":"newOwner","type":"address"}],"name":"OwnershipTransferred","type":"event"},{"anonymous":false,"inputs":[{"indexed":true,"internalType":"address","name":"payer","type":"address"},{"indexed":false,"internalType":"uint256","name":"amount","type":"uint256"},{"indexed":true,"internalType":"uint256","name":"tokenId","type":"uint256"},{"indexed":false,"internalType":"string","name":"paymentType","type":"string"}],"name":"PaymentReceived","type":"event"},{"anonymous":false,"inputs":[{"indexed":true,"internalType":"uint256","name":"tokenId","type":"uint256"},{"indexed":false,"internalType":"uint256","name":"oldPrice","type":"uint256"},{"indexed":false,"internalType":"uint256","name":"newPrice","type":"uint256"}],"name":"PropertyPriceUpdated","type":"event"},{"anonymous":false,"inputs":[{"indexed":true,"internalType":"address","name":"from","type":"address"},{"indexed":true,"internalType":"address","name":"to","type":"address"},{"indexed":true,"internalType":"uint256","name":"tokenId","type":"uint256"}],"name":"Transfer","type":"event"},{"stateMutability":"payable","type":"fallback"},{"inputs":[{"internalType":"address","name":"minter","type":"address"}],"name":"addAuthorizedMinter","outputs":[],"stateMutability":"nonpayable","type":"function"},{"inputs":[{"internalType":"address","name":"to","type":"address"},{"internalType":"uint256","name":"tokenId","type":"uint256"}],"name":"approve","outputs":[],"stateMutability":"nonpayable","type":"function"},{"inputs":[{"internalType":"address","name":"","type":"address"}],"name":"authorizedMinters","outputs":[{"internalType":"bool","name":"","type":"bool"}],"stateMutability":"view","type":"function"},{"inputs":[{"internalType":"address","name":"owner","type":"address"}],"name":"balanceOf","outputs":[{"internalType":"uint256","name":"","type":"uint256"}],"stateMutability":"view","type":"function"},{"inputs":[{"internalType":"bytes32","name":"","type":"bytes32"}],"name":"ccipMessageToTokenId","outputs":[{"internalType":"uint256","name":"","type":"uint256"}],"stateMutability":"view","type":"function"},{"inputs":[],"name":"emergencyWithdraw","outputs":[],"stateMutability":"nonpayable","type":"function"},{"inputs":[{"internalType":"uint256","name":"tokenId","type":"uint256"}],"name":"getApproved","outputs":[{"internalType":"address","name":"","type":"address"}],"stateMutability":"view","type":"function"},{"inputs":[{"internalType":"uint256","name":"tokenId","type":"uint256"}],"name":"getCrossChainInfo","outputs":[{"internalType":"uint64","name":"sourceChainSelector","type":"uint64"},{"internalType":"bytes32","name":"sourceMessageId","type":"bytes32"}],"stateMutability":"view","type":"function"},{"inputs":[],"name":"getCurrentTokenCounter","outputs":[{"internalType":"uint256","name":"counter","type":"uint256"}],"stateMutability":"view","type":"function"},{"inputs":[{"internalType":"uint256","name":"tokenId","type":"uint256"}],"name":"getPropertyData","outputs":[{"components":[{"internalType":"string","name":"propertyAddress","type":"string"},{"internalType":"uint256","name":"currentHeight","type":"uint256"},{"internalType":"uint256","name":"maximumHeight","type":"uint256"},{"internalType":"uint256","name":"availableFloors","type":"uint256"},{"internalType":"uint256","name":"price","type":"uint256"},{"internalType":"string","name":"metadataURI","type":"string"},{"internalType":"bool","name":"exists","type":"bool"},{"internalType":"uint64","name":"sourceChainSelector","type":"uint64"},{"internalType":"bytes32","name":"sourceMessageId","type":"bytes32"}],"internalType":"struct PolkadotAirSpaceNFT.PropertyData","name":"property","type":"tuple"}],"stateMutability":"view","type":"function"},{"inputs":[{"internalType":"string","name":"propertyAddress","type":"string"}],"name":"getTokenIdByProperty","outputs":[{"internalType":"uint256","name":"tokenId","type":"uint256"}],"stateMutability":"view","type":"function"},{"inputs":[{"internalType":"address","name":"owner","type":"address"}],"name":"getTokensByOwner","outputs":[{"internalType":"uint256[]","name":"tokenIds","type":"uint256[]"}],"stateMutability":"view","type":"function"},{"inputs":[{"internalType":"address","name":"owner","type":"address"},{"internalType":"address","name":"operator","type":"address"}],"name":"isApprovedForAll","outputs":[{"internalType":"bool","name":"","type":"bool"}],"stateMutability":"view","type":"function"},{"inputs":[{"internalType":"address","name":"to","type":"address"},{"internalType":"string","name":"propertyAddress","type":"string"},{"internalType":"uint256","name":"currentHeight","type":"uint256"},{"internalType":"uint256","name":"maximumHeight","type":"uint256"},{"internalType":"uint256","name":"price","type":"uint256"},{"internalType":"string","name":"metadataURI","type":"string"}],"name":"mintAirRightsNFT","outputs":[{"internalType":"uint256","name":"tokenId","type":"uint256"}],"stateMutability":"nonpayable","type":"function"},{"inputs":[{"internalType":"address","name":"to","type":"address"},{"internalType":"string","name":"propertyAddress","type":"string"},{"internalType":"uint256","name":"currentHeight","type":"uint256"},{"internalType":"uint256","name":"maximumHeight","type":"uint256"},{"internalType":"uint256","name":"price","type":"uint256"},{"internalType":"string","name":"metadataURI","type":"string"},{"internalType":"uint64","name":"sourceChainSelector","type":"uint64"},{"internalType":"bytes32","name":"sourceMessageId","type":"bytes32"}],"name":"mintCrossChainNFT","outputs":[{"internalType":"uint256","name":"tokenId","type":"uint256"}],"stateMutability":"nonpayable","type":"function"},{"inputs":[],"name":"name","outputs":[{"internalType":"string","name":"","type":"string"}],"stateMutability":"view","type":"function"},{"inputs":[],"name":"owner","outputs":[{"internalType":"address","name":"","type":"address"}],"stateMutability":"view","type":"function"},{"inputs":[{"internalType":"uint256","name":"tokenId","type":"uint256"}],"name":"ownerOf","outputs":[{"internalType":"address","name":"","type":"address"}],"stateMutability":"view","type":"function"},{"inputs":[],"name":"platformFeePercent","outputs":[{"internalType":"uint256","name":"","type":"uint256"}],"stateMutability":"view","type":"function"},{"inputs":[{"internalType":"string","name":"propertyAddress","type":"string"}],"name":"propertyExists","outputs":[{"internalType":"bool","name":"exists","type":"bool"}],"stateMutability":"view","type":"function"},{"inputs":[{"internalType":"string","name":"","type":"string"}],"name":"propertyToTokenId","outputs":[{"internalType":"uint256","name":"","type":"uint256"}],"stateMutability":"view","type":"function"},{"inputs":[{"internalType":"uint256","name":"tokenId","type":"uint256"}],"name":"purchaseWithNativeToken","outputs":[],"stateMutability":"payable","type":"function"},{"inputs":[{"internalType":"address","name":"minter","type":"address"}],"name":"removeAuthorizedMinter","outputs":[],"stateMutability":"nonpayable","type":"function"},{"inputs":[],"name":"renounceOwnership","outputs":[],"stateMutability":"nonpayable","type":"function"},{"inputs":[{"internalType":"address","name":"from","type":"address"},{"internalType":"address","name":"to","type":"address"},{"internalType":"uint256","name":"tokenId","type":"uint256"}],"name":"safeTransferFrom","outputs":[],"stateMutability":"nonpayable","type":"function"},{"inputs":[{"internalType":"address","name":"from","type":"address"},{"internalType":"address","name":"to","type":"address"},{"internalType":"uint256","name":"tokenId","type":"uint256"},{"internalType":"bytes","name":"data","type":"bytes"}],"name":"safeTransferFrom","outputs":[],"stateMutability":"nonpayable","type":"function"},{"inputs":[{"internalType":"address","name":"operator","type":"address"},{"internalType":"bool","name":"approved","type":"bool"}],"name":"setApprovalForAll","outputs":[],"stateMutability":"nonpayable","type":"function"},{"inputs":[{"internalType":"uint256","name":"_feePercent","type":"uint256"}],"name":"setPlatformFeePercent","outputs":[],"stateMutability":"nonpayable","type":"function"},{"inputs":[{"internalType":"address","name":"_treasury","type":"address"}],"name":"setTreasury","outputs":[],"stateMutability":"nonpayable","type":"function"},{"inputs":[{"internalType":"bytes4","name":"interfaceId","type":"bytes4"}],"name":"supportsInterface","outputs":[{"internalType":"bool","name":"","type":"bool"}],"stateMutability":"view","type":"function"},{"inputs":[],"name":"symbol","outputs":[{"internalType":"string","name":"","type":"string"}],"stateMutability":"view","type":"function"},{"inputs":[{"internalType":"uint256","name":"index","type":"uint256"}],"name":"tokenByIndex","outputs":[{"internalType":"uint256","name":"","type":"uint256"}],"stateMutability":"view","type":"function"},{"inputs":[{"internalType":"uint256","name":"","type":"uint256"}],"name":"tokenIdToProperty","outputs":[{"internalType":"string","name":"propertyAddress","type":"string"},{"internalType":"uint256","name":"currentHeight","type":"uint256"},{"internalType":"uint256","name":"maximumHeight","type":"uint256"},{"internalType":"uint256","name":"availableFloors","type":"uint256"},{"internalType":"uint256","name":"price","type":"uint256"},{"internalType":"string","name":"metadataURI","type":"string"},{"internalType":"bool","name":"exists","type":"bool"},{"internalType":"uint64","name":"sourceChainSelector","type":"uint64"},{"internalType":"bytes32","name":"sourceMessageId","type":"bytes32"}],"stateMutability":"view","type":"function"},{"inputs":[{"internalType":"address","name":"owner","type":"address"},{"internalType":"uint256","name":"index","type":"uint256"}],"name":"tokenOfOwnerByIndex","outputs":[{"internalType":"uint256","name":"","type":"uint256"}],"stateMutability":"view","type":"function"},{"inputs":[{"internalType":"uint256","name":"tokenId","type":"uint256"}],"name":"tokenURI","outputs":[{"internalType":"string","name":"","type":"string"}],"stateMutability":"view","type":"function"},{"inputs":[{"internalType":"uint256","name":"","type":"uint256"}],"name":"totalPaymentsReceived","outputs":[{"internalType":"uint256","name":"","type":"uint256"}],"stateMutability":"view","type":"function"},{"inputs":[],"name":"totalSupply","outputs":[{"internalType":"uint256","name":"","type":"uint256"}],"stateMutability":"view","type":"function"},{"inputs":[{"internalType":"address","name":"from","type":"address"},{"internalType":"address","name":"to","type":"address"},{"internalType":"uint256","name":"tokenId","type":"uint256"}],"name":"transferFrom","outputs":[],"stateMutability":"nonpayable","type":"function"},{"inputs":[{"internalType":"address","name":"newOwner","type":"address"}],"name":"transferOwnership","outputs":[],"stateMutability":"nonpayable","type":"function"},{"inputs":[],"name":"treasury","outputs":[{"internalType":"address","name":"","type":"address"}],"stateMutability":"view","type":"function"},{"inputs":[{"internalType":"uint256","name":"tokenId","type":"uint256"},{"internalType":"uint256","name":"newPrice","type":"uint256"}],"name":"updatePropertyPrice","outputs":[],"stateMutability":"nonpayable","type":"function"},{"stateMutability":"payable","type":"receive"}],"evm":{"bytecode":{"linkReferences":{},"object":"608034620003de57601f906001600160401b03601f1962002e7c388190038581018316850184811186821017620003c857859282916040528339602094859181010312620003de57516001600160a01b03948582169391849003620003de5762000068620003e3565b94601586527f506f6c6b61646f74204169725370616365204e46540000000000000000000000818701526200009c620003e3565b906006825265141054d3919560d21b81830152865194848611620003c8576000958654986001998a81811c91168015620003bd575b85821014620003a95790818784931162000356575b508490878311600114620002f5578992620002e9575b5050600019600383901b1c191690891b1786555b8251948511620002d55787548881811c91168015620002ca575b83821014620002b6579081858796959493116200025d575b5081938511600114620001f85750508492620001ec575b5050600019600383901b1c191690841b1783555b3315620001d457600b5460018060a01b0319913383831617600b557f8be0079c531659141344cd1fd0a4f28419497f9722a3daafe3b4186f6b6457e0604051963393169180a382600c5560fa600f55600e541617600e55600d55612a789081620004048239f35b60249060405190631e4fbdf760e01b82526004820152fd5b01519050388062000159565b889593929193168587528387209387905b82821062000243575050841162000229575b505050811b0183556200016d565b015160001960f88460031b161c191690553880806200021b565b8484015186558a9790950194938401939081019062000209565b9091929394508887528287208580880160051c820192858910620002ac575b9188978c9297969594930160051c01915b8281106200029d57505062000142565b8981558897508b91016200028d565b925081926200027c565b634e487b7160e01b87526022600452602487fd5b90607f16906200012a565b634e487b7160e01b86526041600452602486fd5b015190503880620000fc565b90848c9416918a8052868b20928b5b888282106200033f575050841162000325575b505050811b01865562000110565b015160001960f88460031b161c1916905538808062000317565b8385015186558f9790950194938401930162000304565b9091508880528489208780850160051c8201928786106200039f575b918d91869594930160051c01915b82811062000390575050620000e6565b8b81558594508d910162000380565b9250819262000372565b634e487b7160e01b89526022600452602489fd5b90607f1690620000d1565b634e487b7160e01b600052604160045260246000fd5b600080fd5b60408051919082016001600160401b03811183821017620003c85760405256fe608080604052600436101561001a575b50361561001857005b005b60003560e01c90816301ffc9a714611c6d5750806306fdde0314611bc2578063081812fc14611b84578063095ea7b314611a9d5780630c9b6f8b14611595578063118b47e5146114ea57806318160ddd146114cc5780631f7f31a4146114ae57806323b872dd14611497578063287283f11461144c5780632f745c591461142557806340398d671461134957806342842e0e1461131b578063475ae039146112d95780634f6ccce7146112835780635f710f5c1461123e57806361d027b3146112155780636352211e146111e557806370a08231146111ba578063715018a61461115d57806388fe0395146111315780638c639a85146111135780638da5cb5b146110ea57806395d89b41146110075780639972c82014610fdb578063a22cb46514610f2d578063aa2fe91b14610eee578063b88d4fde14610e83578063bb632ab814610d14578063c87b56dd14610cb7578063cab230d214610c50578063db2e21bc14610c08578063de050c4b14610bac578063de92c92614610bac578063e674a85114610af1578063e985e9c514610a9b578063f069f7f0146105ad578063f0f442601461056a578063f2fde38b146104dc578063fb66f25a1461027f5763fce401b2146101ea573861000f565b3461027a57604036600319011261027a5760043560243561020a82612346565b336001600160a01b03909116036102625760407fefc9487f4db026cf5f98bdd0a8207c757b77021fa330023425d46b0a65eecd04918360005260126020526004826000200190808254925582519182526020820152a2005b604051634a0bfec160e01b8152336004820152602490fd5b600080fd5b602036600319011261027a576004356002600c54146104ca576002600c55806000526012602052604060002060ff600682015416156104b857600401805480341061049a576102cd83612346565b90600f54808202908282041482151715610427576127106102f091048092611f6b565b60018060a01b0391600080808086881695865af161030c612316565b501561045a578015158061048d575b61046c575b5061032c845434611f6b565b8061043d575b508354856000526014602052604060002080549182018092116104275755331561040e5761036085336127bd565b9182168061038157604051637e27328960e01b815260048101879052602490fd5b036103d9575050546040519081526040602082015260066040820152654e415449564560d01b60608201527f237b94339b1dc667f5a951cf2ee33f00228f658a6ab811cc6afa6caaa4b80cfa60803392a36001600c55005b6040516364283d7b60e01b81526001600160a01b039283166004820152602481019490945216604483015250606490fd5b0390fd5b604051633250574960e11b815260006004820152602490fd5b634e487b7160e01b600052601160045260246000fd5b600080808093335af161044e612316565b501561045a5785610332565b6040516312171d8360e31b8152600490fd5b60008080809386600e54165af1610481612316565b501561045a5785610320565b5082600e5416151561031b565b6044906040519063af608abb60e01b82523460048301526024820152fd5b6040516336dc35e560e11b8152600490fd5b604051633ee5aeb560e01b8152600490fd5b3461027a57602036600319011261027a576104f5611d54565b6104fd612675565b6001600160a01b0390811690811561055157600b54826bffffffffffffffffffffffff60a01b821617600b55167f8be0079c531659141344cd1fd0a4f28419497f9722a3daafe3b4186f6b6457e0600080a3005b604051631e4fbdf760e01b815260006004820152602490fd5b3461027a57602036600319011261027a57610583611d54565b61058b612675565b600e80546001600160a01b0319166001600160a01b0392909216919091179055005b3461027a5761010036600319011261027a576105c7611d54565b6024356001600160401b03811161027a576105e6903690600401611e2a565b60a4356001600160401b03811161027a57610605903690600401611e2a565b9060c435926001600160401b038416840361027a5733600052601060205260ff604060002054161580610a86575b610a6f578151158015610a61575b6104b857600d549261065284611f5c565b600d55610663604435606435611f6b565b6040519061067082611d80565b84825260443560208301526064356040830152606082015260843560808201528160a0820152600160c08201526001600160401b03861660e082015260e43561010082015284600052601260205260406000209080518051906001600160401b03821161098a5781906106e38554611e7d565b601f8111610a11575b50602090601f83116001146109ab576000926109a0575b50508160011b916000199060031b1c19161782555b6020810151600183015560408101516002830155606081015160038301556080810151600483015560a08101518051906001600160401b03821161098a576107636005850154611e7d565b601f8111610943575b50918795939160209995938a90601f831160011461089c576101006001600160401b039794847f60eab9e5fcd5e416d1e880f64696e924c94cc67e1323d4e8b38ef949f8592c909a98956108769895600795600092610891575b50508160011b916000199060031b1c19161760058501555b600684016107fe60c08301511515829060ff801983541691151516179055565b60e082015168ffffffffffffffff0082549160081b169068ffffffffffffffff001916179055015191015560e43560005260138a52866040600020556108448783612381565b8051610881575b5060405193849316835260e435898401526060604084015260018060a01b0316956060830190611d2f565b0390a3604051908152f35b61088b9087612500565b8961084b565b0151905038806107c6565b90600585016000528b6000209160005b601f198516811061092957506001600160401b0397946001856108769895600795610100957f60eab9e5fcd5e416d1e880f64696e924c94cc67e1323d4e8b38ef949f8592c909e9c99601f19811610610910575b505050811b0160058501556107de565b015160001960f88460031b161c19169055388080610900565b8183015184558c9a50600190930192918d01918d016108ac565b600585016000526020600020601f840160051c810160208510610983575b601f830160051c8201811061097757505061076c565b60008155600101610961565b5080610961565b634e487b7160e01b600052604160045260246000fd5b015190508980610703565b6000868152602081209350601f198516905b8181106109f957509084600195949392106109e0575b505050811b018255610718565b015160001960f88460031b161c191690558980806109d3565b929360206001819287860151815501950193016109bd565b909150846000526020600020601f840160051c810160208510610a5a575b90849392915b601f830160051c82018110610a4b5750506106ec565b60008155859450600101610a35565b5080610a2f565b506044356064351115610641565b60405162f78d2360e81b8152336004820152602490fd5b50600b546001600160a01b0316331415610633565b3461027a57604036600319011261027a57610ab4611d54565b610abc611d6a565b9060018060a01b03809116600052600560205260406000209116600052602052602060ff604060002054166040519015158152f35b3461027a57602036600319011261027a576004356000526012602052610b6b6040600020610b1e81611eb7565b9060018101546001600160401b03610b8d60028401549260038501546004860154610b4b60058801611eb7565b9160076006890154980154966040519a8b9a610120808d528c0190611d2f565b9460208b015260408a01526060890152608088015286820360a0880152611d2f565b9260ff8116151560c086015260081c1660e08401526101008301520390f35b3461027a57602036600319011261027a576004356001600160401b03811161027a57610bf56020610be281933690600401611e2a565b8160405193828580945193849201611d0c565b8101601181520301902054604051908152f35b3461027a57600036600319011261027a57610c21612675565b4780610c2957005b600b546000918291829182916001600160a01b03165af1610c48612316565b501561045a57005b3461027a57602036600319011261027a57600435610c6c612675565b6103e88111610c7a57600f55005b60405162461bcd60e51b81526020600482015260156024820152744665652063616e6e6f74206578636565642031302560581b6044820152606490fd5b3461027a57602036600319011261027a57600435610cd481612346565b506000526006602052610d10610ced6040600020611eb7565b6000604051610cfb81611d9c565b52604051918291602083526020830190611d2f565b0390f35b3461027a5760208060031936011261027a5760405190610d3382611d80565b606082528082016000905260408201600090526060820160009052608082016000905260a082016060905260c082016000905260e08201600090526101008092016000905260043560005260128152604060002060405191610d9483611d80565b610d9d82611eb7565b835260018201549181840192835260028101549460408501958652600382015491606086019283526004810154946080870195865260058201610ddf90611eb7565b9060a0880191825260068301549160c089019760ff8416151589526001600160401b03948560e08c019560081c1685526007015496868b019788526040519b8c9b8a8d52518c6101209b8c9101526101408d01610e3b91611d2f565b945160408d01525160608c01525160808b01525160a08a015251888203601f190160c08a0152610e6b9190611d2f565b9551151560e088015251169085015251908301520390f35b3461027a57608036600319011261027a57610e9c611d54565b610ea4611d6a565b90604435606435926001600160401b03841161027a573660238501121561027a57610edc610018943690602481600401359101611df3565b92610ee8838383611f78565b336126a1565b3461027a57602036600319011261027a576001600160a01b03610f0f611d54565b166000526010602052602060ff604060002054166040519015158152f35b3461027a57604036600319011261027a57610f46611d54565b602435908115159081830361027a576001600160a01b0316918215610fc257610f949033600052600560205260406000208460005260205260406000209060ff801983541691151516179055565b6040519081527f17307eab39ab6107e8899845ad3d59bd9653f200f220920489ca2b5937696c3160203392a3005b604051630b61174360e31b815260048101849052602490fd5b3461027a57602036600319011261027a5760043560005260146020526020604060002054604051908152f35b3461027a57600036600319011261027a5760405160006001826001549261102d84611e7d565b92838352602094856001821691826000146110ca57505060011461106d575b5061105992500383611db7565b610d10604051928284938452830190611d2f565b84915060016000527fb10e2d527612073b26eecdfd717e6a320cf44b4afac2b0732d9fcbe2b7fa0cf6906000915b8583106110b257505061105993508201018561104c565b8054838901850152879450869390920191810161109b565b60ff19168582015261105995151560051b850101925087915061104c9050565b3461027a57600036600319011261027a57600b546040516001600160a01b039091168152602090f35b3461027a57600036600319011261027a576020600f54604051908152f35b3461027a57602036600319011261027a5760043560005260136020526020604060002054604051908152f35b3461027a57600036600319011261027a57611176612675565b600b80546001600160a01b031981169091556000906001600160a01b03167f8be0079c531659141344cd1fd0a4f28419497f9722a3daafe3b4186f6b6457e08280a3005b3461027a57602036600319011261027a5760206111dd6111d8611d54565b6122dd565b604051908152f35b3461027a57602036600319011261027a576020611203600435612346565b6040516001600160a01b039091168152f35b3461027a57600036600319011261027a57600e546040516001600160a01b039091168152602090f35b3461027a57602036600319011261027a57611257611d54565b61125f612675565b6001600160a01b03166000908152601060205260409020805460ff19166001179055005b3461027a57602036600319011261027a576004356009548110156112ba576112ac6020916122a6565b90546040519160031b1c8152f35b6044906040519063295f44f760e21b8252600060048301526024820152fd5b3461027a57602036600319011261027a576112f2611d54565b6112fa612675565b6001600160a01b03166000908152601060205260409020805460ff19169055005b3461027a5761001861132c36611e48565b906040519261133a84611d9c565b60008452610ee8838383611f78565b3461027a5760208060031936011261027a57611363611d54565b61136c816122dd565b6113758161228f565b906113836040519283611db7565b80825261138f8161228f565b8285019390601f190136853760005b8281106113e95750505090604051928392818401908285525180915260408401929160005b8281106113d257505050500390f35b8351855286955093810193928101926001016113c3565b6113f3818361222f565b90845181101561140f57600191878260051b870101520161139e565b634e487b7160e01b600052603260045260246000fd5b3461027a57604036600319011261027a5760206111dd611443611d54565b6024359061222f565b3461027a57602036600319011261027a576004356001600160401b03811161027a576114826020610be281933690600401611e2a565b81016011815203019020541515604051908152f35b3461027a576100186114a836611e48565b91611f78565b3461027a57600036600319011261027a576020600d54604051908152f35b3461027a57600036600319011261027a576020600954604051908152f35b3461027a57602036600319011261027a576004356000526012602052604080600020610100825161151a81611d80565b61152383611eb7565b815260018301546020820152600283015484820152600383015460608201526004830154608082015261155860058401611eb7565b60a082015260076001600160401b03600685015460ff8116151560c085015260081c16938460e08401520154918291015282519182526020820152f35b3461027a5760c036600319011261027a576115ae611d54565b6024356001600160401b03811161027a576115cd903690600401611e2a565b9060a4356001600160401b03811161027a576115ed903690600401611e2a565b33600052601060205260ff604060002054161580611a88575b610a6f578251158015611a7a575b6104b857604051602081855161162d8183858a01611d0c565b8101601181520301902054611a5857600d549161164983611f5c565b600d5561165a604435606435611f6b565b9060405161166781611d80565b8581526044356020820152606435604082015282606082015260843560808201528360a0820152600160c0820152600060e0820152600061010082015284600052601260205260406000209080518051906001600160401b03821161098a5781906116d28554611e7d565b601f8111611a08575b50602090601f831160011461199c57600092611991575b50508160011b916000199060031b1c19161782555b6020810151600183015560408101516002830155606081015160038301556080810151600483015560a08101518051906001600160401b03821161098a576117526005850154611e7d565b601f811161194a575b50918795939160209995938a90601f83116001146118a8576101006118589794847f1e46276e28486f32a881a8c30ab460add73ee6190a3abe384ef873462b9b71039a9895610876989560079560009261189d575b50508160011b916000199060031b1c19161760058501555b600684016117e860c08301511515829060ff801983541691151516179055565b60e082015168ffffffffffffffff0082549160081b169068ffffffffffffffff0019161790550151910155866040518b8187516118288183858c01611d0c565b810160118152030190205561183d8782612381565b875161188e575b60405194859460c0865260c0860190611d2f565b604435858c015260643560408601526060850192909252608435608085015283820360a08501526001600160a01b031696611d2f565b6118988888612500565b611844565b0151905038806117b0565b90600585016000528b6000209160005b601f1985168110611930575061185897946001856108769895600795610100957f1e46276e28486f32a881a8c30ab460add73ee6190a3abe384ef873462b9b71039e9c99601f19811610611917575b505050811b0160058501556117c8565b015160001960f88460031b161c19169055388080611907565b8183015184558c9a50600190930192918d01918d016118b8565b600585016000526020600020601f840160051c81016020851061198a575b601f830160051c8201811061197e57505061175b565b60008155600101611968565b5080611968565b0151905089806116f2565b9250846000526020600020906000935b601f19841685106119ed576001945083601f198116106119d4575b505050811b018255611707565b015160001960f88460031b161c191690558980806119c7565b818101518355602094850194600190930192909101906119ac565b909150846000526020600020601f840160051c810160208510611a51575b90849392915b601f830160051c82018110611a425750506116db565b60008155859450600101611a2c565b5080611a26565b604051636abeed4960e11b8152602060048201528061040a6024820186611d2f565b506044356064351115611614565b50600b546001600160a01b0316331415611606565b3461027a57604036600319011261027a57611ab6611d54565b602435611ac281612346565b33151580611b71575b80611b44575b611b2c576001600160a01b039283169282918491167f8c5be1e5ebec7d5bd14f71427d1e84f3dd0314c0f7b2291e5b200ac8c7c3b925600080a4600090815260046020526040902080546001600160a01b0319169091179055005b60405163a9fbf51f60e01b8152336004820152602490fd5b5060018060a01b038116600052600560205260406000203360005260205260ff6040600020541615611ad1565b506001600160a01b038116331415611acb565b3461027a57602036600319011261027a57600435611ba181612346565b506000526004602052602060018060a01b0360406000205416604051908152f35b3461027a57600036600319011261027a57604051600080549082611be583611e7d565b91828252602093600190856001821691826000146110ca575050600114611c13575061105992500383611db7565b6000808052859250907f290decd9548b62a8d60345a988386fc84ba6bc95484008f6362f93160ef3e5635b858310611c5557505061105993508201018561104c565b80548389018501528794508693909201918101611c3e565b3461027a57602036600319011261027a576004359063ffffffff60e01b821680920361027a5760209163780e9d6360e01b8114908115611caf575b5015158152f35b632483248360e11b811491508115611cc9575b5083611ca8565b6380ac58cd60e01b811491508115611cfb575b8115611cea575b5083611cc2565b6301ffc9a760e01b14905083611ce3565b635b5e139f60e01b81149150611cdc565b60005b838110611d1f5750506000910152565b8181015183820152602001611d0f565b90602091611d4881518092818552858086019101611d0c565b601f01601f1916010190565b600435906001600160a01b038216820361027a57565b602435906001600160a01b038216820361027a57565b61012081019081106001600160401b0382111761098a57604052565b602081019081106001600160401b0382111761098a57604052565b90601f801991011681019081106001600160401b0382111761098a57604052565b6001600160401b03811161098a57601f01601f191660200190565b929192611dff82611dd8565b91611e0d6040519384611db7565b82948184528183011161027a578281602093846000960137010152565b9080601f8301121561027a57816020611e4593359101611df3565b90565b606090600319011261027a576001600160a01b0390600435828116810361027a5791602435908116810361027a579060443590565b90600182811c92168015611ead575b6020831014611e9757565b634e487b7160e01b600052602260045260246000fd5b91607f1691611e8c565b90604051918260008254611eca81611e7d565b90818452602094600191600181169081600014611f3a5750600114611efb575b505050611ef992500383611db7565b565b600090815285812095935091905b818310611f22575050611ef99350820101388080611eea565b85548884018501529485019487945091830191611f09565b92505050611ef994925060ff191682840152151560051b820101388080611eea565b60001981146104275760010190565b9190820391821161042757565b906001600160a01b0380821690811561040e576000918583526020926002845260409383858320541695331515806121a1575b508615801561216e575b84845260038352868420805460010190558984526002835286842080546001600160a01b031916861790558985897fddf252ad1be2c89b69c2b068fc378daa952ba7f163c4a11628f55a4df523b3ef8780a41561210257600954898452600a83528087852055600160401b8110156120ee578961203b82600161205494016009556122a6565b90919082549060031b91821b91600019901b1916179055565b83870361209c575b505050508316820361206e5750505050565b516364283d7b60e01b81526001600160a01b0392831660048201526024810193909352166044820152606490fd5b6120a5906122dd565b6000198101939084116120da57829160089187945260078152838320858452815289848420558983525220553880808061205c565b634e487b7160e01b83526011600452602483fd5b634e487b7160e01b84526041600452602484fd5b86841461205457612112876122dd565b898452600883528684205490888552600784528785209181810361214c575b508a8552600884528488812055845282528286812055612054565b81865282855288862054818752808a8820558652600885528886205538612131565b60008a815260046020526040902080546001600160a01b0319169055878452600383528684208054600019019055611fb5565b806121ee575b156121b25738611fab565b8589886121cf576024915190637e27328960e01b82526004820152fd5b905163177e802f60e01b81523360048201526024810191909152604490fd5b503387148015612213575b806121a757508883526004825233858785205416146121a7565b5086835260058252858320338452825260ff86842054166121f9565b612238816122dd565b8210156122645760018060a01b0316600052600760205260406000209060005260205260406000205490565b60405163295f44f760e21b81526001600160a01b039190911660048201526024810191909152604490fd5b6001600160401b03811161098a5760051b60200190565b60095481101561140f5760096000527f6e1540171b6c0c960b71a7020d9f60077f6af931a8bbf590da0223dacf75c7af0190600090565b6001600160a01b031680156122fd57600052600360205260406000205490565b6040516322718ad960e21b815260006004820152602490fd5b3d15612341573d9061232782611dd8565b916123356040519384611db7565b82523d6000602084013e565b606090565b6000818152600260205260409020546001600160a01b0316908115612369575090565b60249060405190637e27328960e01b82526004820152fd5b604091825161238f81611d9c565b60008082526001600160a01b03848116949192919085156124e8576123b485836127bd565b166124d0573b6123c6575b5050505050565b602061240391869795965180938192630a85bd0160e11b978884523360048501528760248501526044840152608060648401526084830190611d2f565b038185895af190829082612480575b505061244b57505050612423612316565b8051929083612444578151633250574960e11b815260048101849052602490fd5b8390602001fd5b9193916001600160e01b0319160361246957505038808080806123bf565b602492505190633250574960e11b82526004820152fd5b909192506020813d6020116124c8575b8161249d60209383611db7565b810103126124c45751906001600160e01b0319821682036124c15750903880612412565b80fd5b5080fd5b3d9150612490565b85516339e3563760e11b815260048101849052602490fd5b8651633250574960e11b815260048101859052602490fd5b9190916000908082526020916006835260408120908551906001600160401b038211612661576125308354611e7d565b601f811161261e575b508490601f831160011461259a57907ff8e1a15aba9398e019f0b49df1a4fde98ee17ae345cb5f6b5e2c27f5033e8ce796978361258f575b50508160011b916000199060031b1c19161790555b604051908152a1565b015190503880612571565b9196601f198816848452868420935b81811061260757509160019391897ff8e1a15aba9398e019f0b49df1a4fde98ee17ae345cb5f6b5e2c27f5033e8ce7999a94106125ee575b505050811b019055612586565b015160001960f88460031b161c191690553880806125e1565b9293876001819287860151815501950193016125a9565b838252858220601f840160051c810191878510612657575b601f0160051c01905b81811061264c5750612539565b82815560010161263f565b9091508190612636565b634e487b7160e01b81526041600452602490fd5b600b546001600160a01b0316330361268957565b60405163118cdaa760e01b8152336004820152602490fd5b9293823b6126b0575050505050565b6126f49060018060a01b038094169560405194859481630a85bd0160e11b988988521660048701521660248501526044840152608060648401526084830190611d2f565b03906020816000938185885af190829082612774575b50506127425782612719612316565b805191908261273b57604051633250574960e11b815260048101839052602490fd5b9050602001fd5b6001600160e01b0319160361275c575038808080806123bf565b60249060405190633250574960e11b82526004820152fd5b909192506020813d6020116127b5575b8161279160209383611db7565b810103126124c45751906001600160e01b0319821682036124c1575090388061270a565b3d9150612784565b6000828152600260209081526040808320546001600160a01b039081169592949192918615918215612a0f575b81169182159081156129f9575b8487526002885285872080546001600160a01b0319168517905584848a7fddf252ad1be2c89b69c2b068fc378daa952ba7f163c4a11628f55a4df523b3ef8a80a41561298d57600954848752600a88528086882055600160401b811015612979578461203b82600161286c94016009556122a6565b15612910575050600954600019948582019182116128fc5790600a8392869594865281815261289e85872054936122a6565b90549060031b1c6128b28161203b866122a6565b8652528284205582528120556009549081156128e857508101906128d5826122a6565b909182549160031b1b1916905560095590565b634e487b7160e01b81526031600452602490fd5b634e487b7160e01b85526011600452602485fd5b81879693929695949503612928575b50505050505090565b612931906122dd565b600019810195908611612965578352600782528383208584528252838320819055825260089052205538808080808061291f565b634e487b7160e01b84526011600452602484fd5b634e487b7160e01b87526041600452602487fd5b87831461286c5761299d886122dd565b84875260088852858720549089885260078952868820918181036129d7575b5085885260088952878781205587528752858581205561286c565b818952828a5287892054818a5280898b2055895260088a5287892055386129bc565b83875260038852858720600181540190556127f7565b600084815260046020526040902080546001600160a01b03191690558786526003875284862080546000190190556127ea56fea264697066735822122097ba1096027e5dac6d8484f997a284afe758792b1d75eb454e7696a9a8433d6c64736f6c63430008180033","opcodes":"PUSH1 0x80 CALLVALUE PUSH3 0x3DE JUMPI PUSH1 0x1F SWAP1 PUSH1 0x1 PUSH1 0x1 PUSH1 0x40 SHL SUB PUSH1 0x1F NOT PUSH3 0x2E7C CODESIZE DUP2 SWAP1 SUB DUP6 DUP2 ADD DUP4 AND DUP6 ADD DUP5 DUP2 GT DUP7 DUP3 LT OR PUSH3 0x3C8 JUMPI DUP6 SWAP3 DUP3 SWAP2 PUSH1 0x40 MSTORE DUP4 CODECOPY PUSH1 0x20 SWAP5 DUP6 SWAP2 DUP2 ADD SUB SLT PUSH3 0x3DE JUMPI MLOAD PUSH1 0x1 PUSH1 0x1 PUSH1 0xA0 SHL SUB SWAP5 DUP6 DUP3 AND SWAP4 SWAP2 DUP5 SWAP1 SUB PUSH3 0x3DE JUMPI PUSH3 0x68 PUSH3 0x3E3 JUMP JUMPDEST SWAP5 PUSH1 0x15 DUP7 MSTORE PUSH32 0x506F6C6B61646F74204169725370616365204E46540000000000000000000000 DUP2 DUP8 ADD MSTORE PUSH3 0x9C PUSH3 0x3E3 JUMP JUMPDEST SWAP1 PUSH1 0x6 DUP3 MSTORE PUSH6 0x141054D39195 PUSH1 0xD2 SHL DUP2 DUP4 ADD MSTORE DUP7 MLOAD SWAP5 DUP5 DUP7 GT PUSH3 0x3C8 JUMPI PUSH1 0x0 SWAP6 DUP7 SLOAD SWAP9 PUSH1 0x1 SWAP10 DUP11 DUP2 DUP2 SHR SWAP2 AND DUP1 ISZERO PUSH3 0x3BD JUMPI JUMPDEST DUP6 DUP3 LT EQ PUSH3 0x3A9 JUMPI SWAP1 DUP2 DUP8 DUP5 SWAP4 GT PUSH3 0x356 JUMPI JUMPDEST POP DUP5 SWAP1 DUP8 DUP4 GT PUSH1 0x1 EQ PUSH3 0x2F5 JUMPI DUP10 SWAP3 PUSH3 0x2E9 JUMPI JUMPDEST POP POP PUSH1 0x0 NOT PUSH1 0x3 DUP4 SWAP1 SHL SHR NOT AND SWAP1 DUP10 SHL OR DUP7 SSTORE JUMPDEST DUP3 MLOAD SWAP5 DUP6 GT PUSH3 0x2D5 JUMPI DUP8 SLOAD DUP9 DUP2 DUP2 SHR SWAP2 AND DUP1 ISZERO PUSH3 0x2CA JUMPI JUMPDEST DUP4 DUP3 LT EQ PUSH3 0x2B6 JUMPI SWAP1 DUP2 DUP6 DUP8 SWAP7 SWAP6 SWAP5 SWAP4 GT PUSH3 0x25D JUMPI JUMPDEST POP DUP2 SWAP4 DUP6 GT PUSH1 0x1 EQ PUSH3 0x1F8 JUMPI POP POP DUP5 SWAP3 PUSH3 0x1EC JUMPI JUMPDEST POP POP PUSH1 0x0 NOT PUSH1 0x3 DUP4 SWAP1 SHL SHR NOT AND SWAP1 DUP5 SHL OR DUP4 SSTORE JUMPDEST CALLER ISZERO PUSH3 0x1D4 JUMPI PUSH1 0xB SLOAD PUSH1 0x1 DUP1 PUSH1 0xA0 SHL SUB NOT SWAP2 CALLER DUP4 DUP4 AND OR PUSH1 0xB SSTORE PUSH32 0x8BE0079C531659141344CD1FD0A4F28419497F9722A3DAAFE3B4186F6B6457E0 PUSH1 0x40 MLOAD SWAP7 CALLER SWAP4 AND SWAP2 DUP1 LOG3 DUP3 PUSH1 0xC SSTORE PUSH1 0xFA PUSH1 0xF SSTORE PUSH1 0xE SLOAD AND OR PUSH1 0xE SSTORE PUSH1 0xD SSTORE PUSH2 0x2A78 SWAP1 DUP2 PUSH3 0x404 DUP3 CODECOPY RETURN JUMPDEST PUSH1 0x24 SWAP1 PUSH1 0x40 MLOAD SWAP1 PUSH4 0x1E4FBDF7 PUSH1 0xE0 SHL DUP3 MSTORE PUSH1 0x4 DUP3 ADD MSTORE REVERT JUMPDEST ADD MLOAD SWAP1 POP CODESIZE DUP1 PUSH3 0x159 JUMP JUMPDEST DUP9 SWAP6 SWAP4 SWAP3 SWAP2 SWAP4 AND DUP6 DUP8 MSTORE DUP4 DUP8 KECCAK256 SWAP4 DUP8 SWAP1 JUMPDEST DUP3 DUP3 LT PUSH3 0x243 JUMPI POP POP DUP5 GT PUSH3 0x229 JUMPI JUMPDEST POP POP POP DUP2 SHL ADD DUP4 SSTORE PUSH3 0x16D JUMP JUMPDEST ADD MLOAD PUSH1 0x0 NOT PUSH1 0xF8 DUP5 PUSH1 0x3 SHL AND SHR NOT AND SWAP1 SSTORE CODESIZE DUP1 DUP1 PUSH3 0x21B JUMP JUMPDEST DUP5 DUP5 ADD MLOAD DUP7 SSTORE DUP11 SWAP8 SWAP1 SWAP6 ADD SWAP5 SWAP4 DUP5 ADD SWAP4 SWAP1 DUP2 ADD SWAP1 PUSH3 0x209 JUMP JUMPDEST SWAP1 SWAP2 SWAP3 SWAP4 SWAP5 POP DUP9 DUP8 MSTORE DUP3 DUP8 KECCAK256 DUP6 DUP1 DUP9 ADD PUSH1 0x5 SHR DUP3 ADD SWAP3 DUP6 DUP10 LT PUSH3 0x2AC JUMPI JUMPDEST SWAP2 DUP9 SWAP8 DUP13 SWAP3 SWAP8 SWAP7 SWAP6 SWAP5 SWAP4 ADD PUSH1 0x5 SHR ADD SWAP2 JUMPDEST DUP3 DUP2 LT PUSH3 0x29D JUMPI POP POP PUSH3 0x142 JUMP JUMPDEST DUP10 DUP2 SSTORE DUP9 SWAP8 POP DUP12 SWAP2 ADD PUSH3 0x28D JUMP JUMPDEST SWAP3 POP DUP2 SWAP3 PUSH3 0x27C JUMP JUMPDEST PUSH4 0x4E487B71 PUSH1 0xE0 SHL DUP8 MSTORE PUSH1 0x22 PUSH1 0x4 MSTORE PUSH1 0x24 DUP8 REVERT JUMPDEST SWAP1 PUSH1 0x7F AND SWAP1 PUSH3 0x12A JUMP JUMPDEST PUSH4 0x4E487B71 PUSH1 0xE0 SHL DUP7 MSTORE PUSH1 0x41 PUSH1 0x4 MSTORE PUSH1 0x24 DUP7 REVERT JUMPDEST ADD MLOAD SWAP1 POP CODESIZE DUP1 PUSH3 0xFC JUMP JUMPDEST SWAP1 DUP5 DUP13 SWAP5 AND SWAP2 DUP11 DUP1 MSTORE DUP7 DUP12 KECCAK256 SWAP3 DUP12 JUMPDEST DUP9 DUP3 DUP3 LT PUSH3 0x33F JUMPI POP POP DUP5 GT PUSH3 0x325 JUMPI JUMPDEST POP POP POP DUP2 SHL ADD DUP7 SSTORE PUSH3 0x110 JUMP JUMPDEST ADD MLOAD PUSH1 0x0 NOT PUSH1 0xF8 DUP5 PUSH1 0x3 SHL AND SHR NOT AND SWAP1 SSTORE CODESIZE DUP1 DUP1 PUSH3 0x317 JUMP JUMPDEST DUP4 DUP6 ADD MLOAD DUP7 SSTORE DUP16 SWAP8 SWAP1 SWAP6 ADD SWAP5 SWAP4 DUP5 ADD SWAP4 ADD PUSH3 0x304 JUMP JUMPDEST SWAP1 SWAP2 POP DUP9 DUP1 MSTORE DUP5 DUP10 KECCAK256 DUP8 DUP1 DUP6 ADD PUSH1 0x5 SHR DUP3 ADD SWAP3 DUP8 DUP7 LT PUSH3 0x39F JUMPI JUMPDEST SWAP2 DUP14 SWAP2 DUP7 SWAP6 SWAP5 SWAP4 ADD PUSH1 0x5 SHR ADD SWAP2 JUMPDEST DUP3 DUP2 LT PUSH3 0x390 JUMPI POP POP PUSH3 0xE6 JUMP JUMPDEST DUP12 DUP2 SSTORE DUP6 SWAP5 POP DUP14 SWAP2 ADD PUSH3 0x380 JUMP JUMPDEST SWAP3 POP DUP2 SWAP3 PUSH3 0x372 JUMP JUMPDEST PUSH4 0x4E487B71 PUSH1 0xE0 SHL DUP10 MSTORE PUSH1 0x22 PUSH1 0x4 MSTORE PUSH1 0x24 DUP10 REVERT JUMPDEST SWAP1 PUSH1 0x7F AND SWAP1 PUSH3 0xD1 JUMP JUMPDEST PUSH4 0x4E487B71 PUSH1 0xE0 SHL PUSH1 0x0 MSTORE PUSH1 0x41 PUSH1 0x4 MSTORE PUSH1 0x24 PUSH1 0x0 REVERT JUMPDEST PUSH1 0x0 DUP1 REVERT JUMPDEST PUSH1 0x40 DUP1 MLOAD SWAP2 SWAP1 DUP3 ADD PUSH1 0x1 PUSH1 0x1 PUSH1 0x40 SHL SUB DUP2 GT DUP4 DUP3 LT OR PUSH3 0x3C8 JUMPI PUSH1 0x40 MSTORE JUMP INVALID PUSH1 0x80 DUP1 PUSH1 0x40 MSTORE PUSH1 0x4 CALLDATASIZE LT ISZERO PUSH2 0x1A JUMPI JUMPDEST POP CALLDATASIZE ISZERO PUSH2 0x18 JUMPI STOP JUMPDEST STOP JUMPDEST PUSH1 0x0 CALLDATALOAD PUSH1 0xE0 SHR SWAP1 DUP2 PUSH4 0x1FFC9A7 EQ PUSH2 0x1C6D JUMPI POP DUP1 PUSH4 0x6FDDE03 EQ PUSH2 0x1BC2 JUMPI DUP1 PUSH4 0x81812FC EQ PUSH2 0x1B84 JUMPI DUP1 PUSH4 0x95EA7B3 EQ PUSH2 0x1A9D JUMPI DUP1 PUSH4 0xC9B6F8B EQ PUSH2 0x1595 JUMPI DUP1 PUSH4 0x118B47E5 EQ PUSH2 0x14EA JUMPI DUP1 PUSH4 0x18160DDD EQ PUSH2 0x14CC JUMPI DUP1 PUSH4 0x1F7F31A4 EQ PUSH2 0x14AE JUMPI DUP1 PUSH4 0x23B872DD EQ PUSH2 0x1497 JUMPI DUP1 PUSH4 0x287283F1 EQ PUSH2 0x144C JUMPI DUP1 PUSH4 0x2F745C59 EQ PUSH2 0x1425 JUMPI DUP1 PUSH4 0x40398D67 EQ PUSH2 0x1349 JUMPI DUP1 PUSH4 0x42842E0E EQ PUSH2 0x131B JUMPI DUP1 PUSH4 0x475AE039 EQ PUSH2 0x12D9 JUMPI DUP1 PUSH4 0x4F6CCCE7 EQ PUSH2 0x1283 JUMPI DUP1 PUSH4 0x5F710F5C EQ PUSH2 0x123E JUMPI DUP1 PUSH4 0x61D027B3 EQ PUSH2 0x1215 JUMPI DUP1 PUSH4 0x6352211E EQ PUSH2 0x11E5 JUMPI DUP1 PUSH4 0x70A08231 EQ PUSH2 0x11BA JUMPI DUP1 PUSH4 0x715018A6 EQ PUSH2 0x115D JUMPI DUP1 PUSH4 0x88FE0395 EQ PUSH2 0x1131 JUMPI DUP1 PUSH4 0x8C639A85 EQ PUSH2 0x1113 JUMPI DUP1 PUSH4 0x8DA5CB5B EQ PUSH2 0x10EA JUMPI DUP1 PUSH4 0x95D89B41 EQ PUSH2 0x1007 JUMPI DUP1 PUSH4 0x9972C820 EQ PUSH2 0xFDB JUMPI DUP1 PUSH4 0xA22CB465 EQ PUSH2 0xF2D JUMPI DUP1 PUSH4 0xAA2FE91B EQ PUSH2 0xEEE JUMPI DUP1 PUSH4 0xB88D4FDE EQ PUSH2 0xE83 JUMPI DUP1 PUSH4 0xBB632AB8 EQ PUSH2 0xD14 JUMPI DUP1 PUSH4 0xC87B56DD EQ PUSH2 0xCB7 JUMPI DUP1 PUSH4 0xCAB230D2 EQ PUSH2 0xC50 JUMPI DUP1 PUSH4 0xDB2E21BC EQ PUSH2 0xC08 JUMPI DUP1 PUSH4 0xDE050C4B EQ PUSH2 0xBAC JUMPI DUP1 PUSH4 0xDE92C926 EQ PUSH2 0xBAC JUMPI DUP1 PUSH4 0xE674A851 EQ PUSH2 0xAF1 JUMPI DUP1 PUSH4 0xE985E9C5 EQ PUSH2 0xA9B JUMPI DUP1 PUSH4 0xF069F7F0 EQ PUSH2 0x5AD JUMPI DUP1 PUSH4 0xF0F44260 EQ PUSH2 0x56A JUMPI DUP1 PUSH4 0xF2FDE38B EQ PUSH2 0x4DC JUMPI DUP1 PUSH4 0xFB66F25A EQ PUSH2 0x27F JUMPI PUSH4 0xFCE401B2 EQ PUSH2 0x1EA JUMPI CODESIZE PUSH2 0xF JUMP JUMPDEST CALLVALUE PUSH2 0x27A JUMPI PUSH1 0x40 CALLDATASIZE PUSH1 0x3 NOT ADD SLT PUSH2 0x27A JUMPI PUSH1 0x4 CALLDATALOAD PUSH1 0x24 CALLDATALOAD PUSH2 0x20A DUP3 PUSH2 0x2346 JUMP JUMPDEST CALLER PUSH1 0x1 PUSH1 0x1 PUSH1 0xA0 SHL SUB SWAP1 SWAP2 AND SUB PUSH2 0x262 JUMPI PUSH1 0x40 PUSH32 0xEFC9487F4DB026CF5F98BDD0A8207C757B77021FA330023425D46B0A65EECD04 SWAP2 DUP4 PUSH1 0x0 MSTORE PUSH1 0x12 PUSH1 0x20 MSTORE PUSH1 0x4 DUP3 PUSH1 0x0 KECCAK256 ADD SWAP1 DUP1 DUP3 SLOAD SWAP3 SSTORE DUP3 MLOAD SWAP2 DUP3 MSTORE PUSH1 0x20 DUP3 ADD MSTORE LOG2 STOP JUMPDEST PUSH1 0x40 MLOAD PUSH4 0x4A0BFEC1 PUSH1 0xE0 SHL DUP2 MSTORE CALLER PUSH1 0x4 DUP3 ADD MSTORE PUSH1 0x24 SWAP1 REVERT JUMPDEST PUSH1 0x0 DUP1 REVERT JUMPDEST PUSH1 0x20 CALLDATASIZE PUSH1 0x3 NOT ADD SLT PUSH2 0x27A JUMPI PUSH1 0x4 CALLDATALOAD PUSH1 0x2 PUSH1 0xC SLOAD EQ PUSH2 0x4CA JUMPI PUSH1 0x2 PUSH1 0xC SSTORE DUP1 PUSH1 0x0 MSTORE PUSH1 0x12 PUSH1 0x20 MSTORE PUSH1 0x40 PUSH1 0x0 KECCAK256 PUSH1 0xFF PUSH1 0x6 DUP3 ADD SLOAD AND ISZERO PUSH2 0x4B8 JUMPI PUSH1 0x4 ADD DUP1 SLOAD DUP1 CALLVALUE LT PUSH2 0x49A JUMPI PUSH2 0x2CD DUP4 PUSH2 0x2346 JUMP JUMPDEST SWAP1 PUSH1 0xF SLOAD DUP1 DUP3 MUL SWAP1 DUP3 DUP3 DIV EQ DUP3 ISZERO OR ISZERO PUSH2 0x427 JUMPI PUSH2 0x2710 PUSH2 0x2F0 SWAP2 DIV DUP1 SWAP3 PUSH2 0x1F6B JUMP JUMPDEST PUSH1 0x1 DUP1 PUSH1 0xA0 SHL SUB SWAP2 PUSH1 0x0 DUP1 DUP1 DUP1 DUP7 DUP9 AND SWAP6 DUP7 GAS CALL PUSH2 0x30C PUSH2 0x2316 JUMP JUMPDEST POP ISZERO PUSH2 0x45A JUMPI DUP1 ISZERO ISZERO DUP1 PUSH2 0x48D JUMPI JUMPDEST PUSH2 0x46C JUMPI JUMPDEST POP PUSH2 0x32C DUP5 SLOAD CALLVALUE PUSH2 0x1F6B JUMP JUMPDEST DUP1 PUSH2 0x43D JUMPI JUMPDEST POP DUP4 SLOAD DUP6 PUSH1 0x0 MSTORE PUSH1 0x14 PUSH1 0x20 MSTORE PUSH1 0x40 PUSH1 0x0 KECCAK256 DUP1 SLOAD SWAP2 DUP3 ADD DUP1 SWAP3 GT PUSH2 0x427 JUMPI SSTORE CALLER ISZERO PUSH2 0x40E JUMPI PUSH2 0x360 DUP6 CALLER PUSH2 0x27BD JUMP JUMPDEST SWAP2 DUP3 AND DUP1 PUSH2 0x381 JUMPI PUSH1 0x40 MLOAD PUSH4 0x7E273289 PUSH1 0xE0 SHL DUP2 MSTORE PUSH1 0x4 DUP2 ADD DUP8 SWAP1 MSTORE PUSH1 0x24 SWAP1 REVERT JUMPDEST SUB PUSH2 0x3D9 JUMPI POP POP SLOAD PUSH1 0x40 MLOAD SWAP1 DUP2 MSTORE PUSH1 0x40 PUSH1 0x20 DUP3 ADD MSTORE PUSH1 0x6 PUSH1 0x40 DUP3 ADD MSTORE PUSH6 0x4E4154495645 PUSH1 0xD0 SHL PUSH1 0x60 DUP3 ADD MSTORE PUSH32 0x237B94339B1DC667F5A951CF2EE33F00228F658A6AB811CC6AFA6CAAA4B80CFA PUSH1 0x80 CALLER SWAP3 LOG3 PUSH1 0x1 PUSH1 0xC SSTORE STOP JUMPDEST PUSH1 0x40 MLOAD PUSH4 0x64283D7B PUSH1 0xE0 SHL DUP2 MSTORE PUSH1 0x1 PUSH1 0x1 PUSH1 0xA0 SHL SUB SWAP3 DUP4 AND PUSH1 0x4 DUP3 ADD MSTORE PUSH1 0x24 DUP2 ADD SWAP5 SWAP1 SWAP5 MSTORE AND PUSH1 0x44 DUP4 ADD MSTORE POP PUSH1 0x64 SWAP1 REVERT JUMPDEST SUB SWAP1 REVERT JUMPDEST PUSH1 0x40 MLOAD PUSH4 0x32505749 PUSH1 0xE1 SHL DUP2 MSTORE PUSH1 0x0 PUSH1 0x4 DUP3 ADD MSTORE PUSH1 0x24 SWAP1 REVERT JUMPDEST PUSH4 0x4E487B71 PUSH1 0xE0 SHL PUSH1 0x0 MSTORE PUSH1 0x11 PUSH1 0x4 MSTORE PUSH1 0x24 PUSH1 0x0 REVERT JUMPDEST PUSH1 0x0 DUP1 DUP1 DUP1 SWAP4 CALLER GAS CALL PUSH2 0x44E PUSH2 0x2316 JUMP JUMPDEST POP ISZERO PUSH2 0x45A JUMPI DUP6 PUSH2 0x332 JUMP JUMPDEST PUSH1 0x40 MLOAD PUSH4 0x12171D83 PUSH1 0xE3 SHL DUP2 MSTORE PUSH1 0x4 SWAP1 REVERT JUMPDEST PUSH1 0x0 DUP1 DUP1 DUP1 SWAP4 DUP7 PUSH1 0xE SLOAD AND GAS CALL PUSH2 0x481 PUSH2 0x2316 JUMP JUMPDEST POP ISZERO PUSH2 0x45A JUMPI DUP6 PUSH2 0x320 JUMP JUMPDEST POP DUP3 PUSH1 0xE SLOAD AND ISZERO ISZERO PUSH2 0x31B JUMP JUMPDEST PUSH1 0x44 SWAP1 PUSH1 0x40 MLOAD SWAP1 PUSH4 0xAF608ABB PUSH1 0xE0 SHL DUP3 MSTORE CALLVALUE PUSH1 0x4 DUP4 ADD MSTORE PUSH1 0x24 DUP3 ADD MSTORE REVERT JUMPDEST PUSH1 0x40 MLOAD PUSH4 0x36DC35E5 PUSH1 0xE1 SHL DUP2 MSTORE PUSH1 0x4 SWAP1 REVERT JUMPDEST PUSH1 0x40 MLOAD PUSH4 0x3EE5AEB5 PUSH1 0xE0 SHL DUP2 MSTORE PUSH1 0x4 SWAP1 REVERT JUMPDEST CALLVALUE PUSH2 0x27A JUMPI PUSH1 0x20 CALLDATASIZE PUSH1 0x3 NOT ADD SLT PUSH2 0x27A JUMPI PUSH2 0x4F5 PUSH2 0x1D54 JUMP JUMPDEST PUSH2 0x4FD PUSH2 0x2675 JUMP JUMPDEST PUSH1 0x1 PUSH1 0x1 PUSH1 0xA0 SHL SUB SWAP1 DUP2 AND SWAP1 DUP2 ISZERO PUSH2 0x551 JUMPI PUSH1 0xB SLOAD DUP3 PUSH12 0xFFFFFFFFFFFFFFFFFFFFFFFF PUSH1 0xA0 SHL DUP3 AND OR PUSH1 0xB SSTORE AND PUSH32 0x8BE0079C531659141344CD1FD0A4F28419497F9722A3DAAFE3B4186F6B6457E0 PUSH1 0x0 DUP1 LOG3 STOP JUMPDEST PUSH1 0x40 MLOAD PUSH4 0x1E4FBDF7 PUSH1 0xE0 SHL DUP2 MSTORE PUSH1 0x0 PUSH1 0x4 DUP3 ADD MSTORE PUSH1 0x24 SWAP1 REVERT JUMPDEST CALLVALUE PUSH2 0x27A JUMPI PUSH1 0x20 CALLDATASIZE PUSH1 0x3 NOT ADD SLT PUSH2 0x27A JUMPI PUSH2 0x583 PUSH2 0x1D54 JUMP JUMPDEST PUSH2 0x58B PUSH2 0x2675 JUMP JUMPDEST PUSH1 0xE DUP1 SLOAD PUSH1 0x1 PUSH1 0x1 PUSH1 0xA0 SHL SUB NOT AND PUSH1 0x1 PUSH1 0x1 PUSH1 0xA0 SHL SUB SWAP3 SWAP1 SWAP3 AND SWAP2 SWAP1 SWAP2 OR SWAP1 SSTORE STOP JUMPDEST CALLVALUE PUSH2 0x27A JUMPI PUSH2 0x100 CALLDATASIZE PUSH1 0x3 NOT ADD SLT PUSH2 0x27A JUMPI PUSH2 0x5C7 PUSH2 0x1D54 JUMP JUMPDEST PUSH1 0x24 CALLDATALOAD PUSH1 0x1 PUSH1 0x1 PUSH1 0x40 SHL SUB DUP2 GT PUSH2 0x27A JUMPI PUSH2 0x5E6 SWAP1 CALLDATASIZE SWAP1 PUSH1 0x4 ADD PUSH2 0x1E2A JUMP JUMPDEST PUSH1 0xA4 CALLDATALOAD PUSH1 0x1 PUSH1 0x1 PUSH1 0x40 SHL SUB DUP2 GT PUSH2 0x27A JUMPI PUSH2 0x605 SWAP1 CALLDATASIZE SWAP1 PUSH1 0x4 ADD PUSH2 0x1E2A JUMP JUMPDEST SWAP1 PUSH1 0xC4 CALLDATALOAD SWAP3 PUSH1 0x1 PUSH1 0x1 PUSH1 0x40 SHL SUB DUP5 AND DUP5 SUB PUSH2 0x27A JUMPI CALLER PUSH1 0x0 MSTORE PUSH1 0x10 PUSH1 0x20 MSTORE PUSH1 0xFF PUSH1 0x40 PUSH1 0x0 KECCAK256 SLOAD AND ISZERO DUP1 PUSH2 0xA86 JUMPI JUMPDEST PUSH2 0xA6F JUMPI DUP2 MLOAD ISZERO DUP1 ISZERO PUSH2 0xA61 JUMPI JUMPDEST PUSH2 0x4B8 JUMPI PUSH1 0xD SLOAD SWAP3 PUSH2 0x652 DUP5 PUSH2 0x1F5C JUMP JUMPDEST PUSH1 0xD SSTORE PUSH2 0x663 PUSH1 0x44 CALLDATALOAD PUSH1 0x64 CALLDATALOAD PUSH2 0x1F6B JUMP JUMPDEST PUSH1 0x40 MLOAD SWAP1 PUSH2 0x670 DUP3 PUSH2 0x1D80 JUMP JUMPDEST DUP5 DUP3 MSTORE PUSH1 0x44 CALLDATALOAD PUSH1 0x20 DUP4 ADD MSTORE PUSH1 0x64 CALLDATALOAD PUSH1 0x40 DUP4 ADD MSTORE PUSH1 0x60 DUP3 ADD MSTORE PUSH1 0x84 CALLDATALOAD PUSH1 0x80 DUP3 ADD MSTORE DUP2 PUSH1 0xA0 DUP3 ADD MSTORE PUSH1 0x1 PUSH1 0xC0 DUP3 ADD MSTORE PUSH1 0x1 PUSH1 0x1 PUSH1 0x40 SHL SUB DUP7 AND PUSH1 0xE0 DUP3 ADD MSTORE PUSH1 0xE4 CALLDATALOAD PUSH2 0x100 DUP3 ADD MSTORE DUP5 PUSH1 0x0 MSTORE PUSH1 0x12 PUSH1 0x20 MSTORE PUSH1 0x40 PUSH1 0x0 KECCAK256 SWAP1 DUP1 MLOAD DUP1 MLOAD SWAP1 PUSH1 0x1 PUSH1 0x1 PUSH1 0x40 SHL SUB DUP3 GT PUSH2 0x98A JUMPI DUP2 SWAP1 PUSH2 0x6E3 DUP6 SLOAD PUSH2 0x1E7D JUMP JUMPDEST PUSH1 0x1F DUP2 GT PUSH2 0xA11 JUMPI JUMPDEST POP PUSH1 0x20 SWAP1 PUSH1 0x1F DUP4 GT PUSH1 0x1 EQ PUSH2 0x9AB JUMPI PUSH1 0x0 SWAP3 PUSH2 0x9A0 JUMPI JUMPDEST POP POP DUP2 PUSH1 0x1 SHL SWAP2 PUSH1 0x0 NOT SWAP1 PUSH1 0x3 SHL SHR NOT AND OR DUP3 SSTORE JUMPDEST PUSH1 0x20 DUP2 ADD MLOAD PUSH1 0x1 DUP4 ADD SSTORE PUSH1 0x40 DUP2 ADD MLOAD PUSH1 0x2 DUP4 ADD SSTORE PUSH1 0x60 DUP2 ADD MLOAD PUSH1 0x3 DUP4 ADD SSTORE PUSH1 0x80 DUP2 ADD MLOAD PUSH1 0x4 DUP4 ADD SSTORE PUSH1 0xA0 DUP2 ADD MLOAD DUP1 MLOAD SWAP1 PUSH1 0x1 PUSH1 0x1 PUSH1 0x40 SHL SUB DUP3 GT PUSH2 0x98A JUMPI PUSH2 0x763 PUSH1 0x5 DUP6 ADD SLOAD PUSH2 0x1E7D JUMP JUMPDEST PUSH1 0x1F DUP2 GT PUSH2 0x943 JUMPI JUMPDEST POP SWAP2 DUP8 SWAP6 SWAP4 SWAP2 PUSH1 0x20 SWAP10 SWAP6 SWAP4 DUP11 SWAP1 PUSH1 0x1F DUP4 GT PUSH1 0x1 EQ PUSH2 0x89C JUMPI PUSH2 0x100 PUSH1 0x1 PUSH1 0x1 PUSH1 0x40 SHL SUB SWAP8 SWAP5 DUP5 PUSH32 0x60EAB9E5FCD5E416D1E880F64696E924C94CC67E1323D4E8B38EF949F8592C90 SWAP11 SWAP9 SWAP6 PUSH2 0x876 SWAP9 SWAP6 PUSH1 0x7 SWAP6 PUSH1 0x0 SWAP3 PUSH2 0x891 JUMPI JUMPDEST POP POP DUP2 PUSH1 0x1 SHL SWAP2 PUSH1 0x0 NOT SWAP1 PUSH1 0x3 SHL SHR NOT AND OR PUSH1 0x5 DUP6 ADD SSTORE JUMPDEST PUSH1 0x6 DUP5 ADD PUSH2 0x7FE PUSH1 0xC0 DUP4 ADD MLOAD ISZERO ISZERO DUP3 SWAP1 PUSH1 0xFF DUP1 NOT DUP4 SLOAD AND SWAP2 ISZERO ISZERO AND OR SWAP1 SSTORE JUMP JUMPDEST PUSH1 0xE0 DUP3 ADD MLOAD PUSH9 0xFFFFFFFFFFFFFFFF00 DUP3 SLOAD SWAP2 PUSH1 0x8 SHL AND SWAP1 PUSH9 0xFFFFFFFFFFFFFFFF00 NOT AND OR SWAP1 SSTORE ADD MLOAD SWAP2 ADD SSTORE PUSH1 0xE4 CALLDATALOAD PUSH1 0x0 MSTORE PUSH1 0x13 DUP11 MSTORE DUP7 PUSH1 0x40 PUSH1 0x0 KECCAK256 SSTORE PUSH2 0x844 DUP8 DUP4 PUSH2 0x2381 JUMP JUMPDEST DUP1 MLOAD PUSH2 0x881 JUMPI JUMPDEST POP PUSH1 0x40 MLOAD SWAP4 DUP5 SWAP4 AND DUP4 MSTORE PUSH1 0xE4 CALLDATALOAD DUP10 DUP5 ADD MSTORE PUSH1 0x60 PUSH1 0x40 DUP5 ADD MSTORE PUSH1 0x1 DUP1 PUSH1 0xA0 SHL SUB AND SWAP6 PUSH1 0x60 DUP4 ADD SWAP1 PUSH2 0x1D2F JUMP JUMPDEST SUB SWAP1 LOG3 PUSH1 0x40 MLOAD SWAP1 DUP2 MSTORE RETURN JUMPDEST PUSH2 0x88B SWAP1 DUP8 PUSH2 0x2500 JUMP JUMPDEST DUP10 PUSH2 0x84B JUMP JUMPDEST ADD MLOAD SWAP1 POP CODESIZE DUP1 PUSH2 0x7C6 JUMP JUMPDEST SWAP1 PUSH1 0x5 DUP6 ADD PUSH1 0x0 MSTORE DUP12 PUSH1 0x0 KECCAK256 SWAP2 PUSH1 0x0 JUMPDEST PUSH1 0x1F NOT DUP6 AND DUP2 LT PUSH2 0x929 JUMPI POP PUSH1 0x1 PUSH1 0x1 PUSH1 0x40 SHL SUB SWAP8 SWAP5 PUSH1 0x1 DUP6 PUSH2 0x876 SWAP9 SWAP6 PUSH1 0x7 SWAP6 PUSH2 0x100 SWAP6 PUSH32 0x60EAB9E5FCD5E416D1E880F64696E924C94CC67E1323D4E8B38EF949F8592C90 SWAP15 SWAP13 SWAP10 PUSH1 0x1F NOT DUP2 AND LT PUSH2 0x910 JUMPI JUMPDEST POP POP POP DUP2 SHL ADD PUSH1 0x5 DUP6 ADD SSTORE PUSH2 0x7DE JUMP JUMPDEST ADD MLOAD PUSH1 0x0 NOT PUSH1 0xF8 DUP5 PUSH1 0x3 SHL AND SHR NOT AND SWAP1 SSTORE CODESIZE DUP1 DUP1 PUSH2 0x900 JUMP JUMPDEST DUP2 DUP4 ADD MLOAD DUP5 SSTORE DUP13 SWAP11 POP PUSH1 0x1 SWAP1 SWAP4 ADD SWAP3 SWAP2 DUP14 ADD SWAP2 DUP14 ADD PUSH2 0x8AC JUMP JUMPDEST PUSH1 0x5 DUP6 ADD PUSH1 0x0 MSTORE PUSH1 0x20 PUSH1 0x0 KECCAK256 PUSH1 0x1F DUP5 ADD PUSH1 0x5 SHR DUP2 ADD PUSH1 0x20 DUP6 LT PUSH2 0x983 JUMPI JUMPDEST PUSH1 0x1F DUP4 ADD PUSH1 0x5 SHR DUP3 ADD DUP2 LT PUSH2 0x977 JUMPI POP POP PUSH2 0x76C JUMP JUMPDEST PUSH1 0x0 DUP2 SSTORE PUSH1 0x1 ADD PUSH2 0x961 JUMP JUMPDEST POP DUP1 PUSH2 0x961 JUMP JUMPDEST PUSH4 0x4E487B71 PUSH1 0xE0 SHL PUSH1 0x0 MSTORE PUSH1 0x41 PUSH1 0x4 MSTORE PUSH1 0x24 PUSH1 0x0 REVERT JUMPDEST ADD MLOAD SWAP1 POP DUP10 DUP1 PUSH2 0x703 JUMP JUMPDEST PUSH1 0x0 DUP7 DUP2 MSTORE PUSH1 0x20 DUP2 KECCAK256 SWAP4 POP PUSH1 0x1F NOT DUP6 AND SWAP1 JUMPDEST DUP2 DUP2 LT PUSH2 0x9F9 JUMPI POP SWAP1 DUP5 PUSH1 0x1 SWAP6 SWAP5 SWAP4 SWAP3 LT PUSH2 0x9E0 JUMPI JUMPDEST POP POP POP DUP2 SHL ADD DUP3 SSTORE PUSH2 0x718 JUMP JUMPDEST ADD MLOAD PUSH1 0x0 NOT PUSH1 0xF8 DUP5 PUSH1 0x3 SHL AND SHR NOT AND SWAP1 SSTORE DUP10 DUP1 DUP1 PUSH2 0x9D3 JUMP JUMPDEST SWAP3 SWAP4 PUSH1 0x20 PUSH1 0x1 DUP2 SWAP3 DUP8 DUP7 ADD MLOAD DUP2 SSTORE ADD SWAP6 ADD SWAP4 ADD PUSH2 0x9BD JUMP JUMPDEST SWAP1 SWAP2 POP DUP5 PUSH1 0x0 MSTORE PUSH1 0x20 PUSH1 0x0 KECCAK256 PUSH1 0x1F DUP5 ADD PUSH1 0x5 SHR DUP2 ADD PUSH1 0x20 DUP6 LT PUSH2 0xA5A JUMPI JUMPDEST SWAP1 DUP5 SWAP4 SWAP3 SWAP2 JUMPDEST PUSH1 0x1F DUP4 ADD PUSH1 0x5 SHR DUP3 ADD DUP2 LT PUSH2 0xA4B JUMPI POP POP PUSH2 0x6EC JUMP JUMPDEST PUSH1 0x0 DUP2 SSTORE DUP6 SWAP5 POP PUSH1 0x1 ADD PUSH2 0xA35 JUMP JUMPDEST POP DUP1 PUSH2 0xA2F JUMP JUMPDEST POP PUSH1 0x44 CALLDATALOAD PUSH1 0x64 CALLDATALOAD GT ISZERO PUSH2 0x641 JUMP JUMPDEST PUSH1 0x40 MLOAD PUSH3 0xF78D23 PUSH1 0xE8 SHL DUP2 MSTORE CALLER PUSH1 0x4 DUP3 ADD MSTORE PUSH1 0x24 SWAP1 REVERT JUMPDEST POP PUSH1 0xB SLOAD PUSH1 0x1 PUSH1 0x1 PUSH1 0xA0 SHL SUB AND CALLER EQ ISZERO PUSH2 0x633 JUMP JUMPDEST CALLVALUE PUSH2 0x27A JUMPI PUSH1 0x40 CALLDATASIZE PUSH1 0x3 NOT ADD SLT PUSH2 0x27A JUMPI PUSH2 0xAB4 PUSH2 0x1D54 JUMP JUMPDEST PUSH2 0xABC PUSH2 0x1D6A JUMP JUMPDEST SWAP1 PUSH1 0x1 DUP1 PUSH1 0xA0 SHL SUB DUP1 SWAP2 AND PUSH1 0x0 MSTORE PUSH1 0x5 PUSH1 0x20 MSTORE PUSH1 0x40 PUSH1 0x0 KECCAK256 SWAP2 AND PUSH1 0x0 MSTORE PUSH1 0x20 MSTORE PUSH1 0x20 PUSH1 0xFF PUSH1 0x40 PUSH1 0x0 KECCAK256 SLOAD AND PUSH1 0x40 MLOAD SWAP1 ISZERO ISZERO DUP2 MSTORE RETURN JUMPDEST CALLVALUE PUSH2 0x27A JUMPI PUSH1 0x20 CALLDATASIZE PUSH1 0x3 NOT ADD SLT PUSH2 0x27A JUMPI PUSH1 0x4 CALLDATALOAD PUSH1 0x0 MSTORE PUSH1 0x12 PUSH1 0x20 MSTORE PUSH2 0xB6B PUSH1 0x40 PUSH1 0x0 KECCAK256 PUSH2 0xB1E DUP2 PUSH2 0x1EB7 JUMP JUMPDEST SWAP1 PUSH1 0x1 DUP2 ADD SLOAD PUSH1 0x1 PUSH1 0x1 PUSH1 0x40 SHL SUB PUSH2 0xB8D PUSH1 0x2 DUP5 ADD SLOAD SWAP3 PUSH1 0x3 DUP6 ADD SLOAD PUSH1 0x4 DUP7 ADD SLOAD PUSH2 0xB4B PUSH1 0x5 DUP9 ADD PUSH2 0x1EB7 JUMP JUMPDEST SWAP2 PUSH1 0x7 PUSH1 0x6 DUP10 ADD SLOAD SWAP9 ADD SLOAD SWAP7 PUSH1 0x40 MLOAD SWAP11 DUP12 SWAP11 PUSH2 0x120 DUP1 DUP14 MSTORE DUP13 ADD SWAP1 PUSH2 0x1D2F JUMP JUMPDEST SWAP5 PUSH1 0x20 DUP12 ADD MSTORE PUSH1 0x40 DUP11 ADD MSTORE PUSH1 0x60 DUP10 ADD MSTORE PUSH1 0x80 DUP9 ADD MSTORE DUP7 DUP3 SUB PUSH1 0xA0 DUP9 ADD MSTORE PUSH2 0x1D2F JUMP JUMPDEST SWAP3 PUSH1 0xFF DUP2 AND ISZERO ISZERO PUSH1 0xC0 DUP7 ADD MSTORE PUSH1 0x8 SHR AND PUSH1 0xE0 DUP5 ADD MSTORE PUSH2 0x100 DUP4 ADD MSTORE SUB SWAP1 RETURN JUMPDEST CALLVALUE PUSH2 0x27A JUMPI PUSH1 0x20 CALLDATASIZE PUSH1 0x3 NOT ADD SLT PUSH2 0x27A JUMPI PUSH1 0x4 CALLDATALOAD PUSH1 0x1 PUSH1 0x1 PUSH1 0x40 SHL SUB DUP2 GT PUSH2 0x27A JUMPI PUSH2 0xBF5 PUSH1 0x20 PUSH2 0xBE2 DUP2 SWAP4 CALLDATASIZE SWAP1 PUSH1 0x4 ADD PUSH2 0x1E2A JUMP JUMPDEST DUP2 PUSH1 0x40 MLOAD SWAP4 DUP3 DUP6 DUP1 SWAP5 MLOAD SWAP4 DUP5 SWAP3 ADD PUSH2 0x1D0C JUMP JUMPDEST DUP2 ADD PUSH1 0x11 DUP2 MSTORE SUB ADD SWAP1 KECCAK256 SLOAD PUSH1 0x40 MLOAD SWAP1 DUP2 MSTORE RETURN JUMPDEST CALLVALUE PUSH2 0x27A JUMPI PUSH1 0x0 CALLDATASIZE PUSH1 0x3 NOT ADD SLT PUSH2 0x27A JUMPI PUSH2 0xC21 PUSH2 0x2675 JUMP JUMPDEST SELFBALANCE DUP1 PUSH2 0xC29 JUMPI STOP JUMPDEST PUSH1 0xB SLOAD PUSH1 0x0 SWAP2 DUP3 SWAP2 DUP3 SWAP2 DUP3 SWAP2 PUSH1 0x1 PUSH1 0x1 PUSH1 0xA0 SHL SUB AND GAS CALL PUSH2 0xC48 PUSH2 0x2316 JUMP JUMPDEST POP ISZERO PUSH2 0x45A JUMPI STOP JUMPDEST CALLVALUE PUSH2 0x27A JUMPI PUSH1 0x20 CALLDATASIZE PUSH1 0x3 NOT ADD SLT PUSH2 0x27A JUMPI PUSH1 0x4 CALLDATALOAD PUSH2 0xC6C PUSH2 0x2675 JUMP JUMPDEST PUSH2 0x3E8 DUP2 GT PUSH2 0xC7A JUMPI PUSH1 0xF SSTORE STOP JUMPDEST PUSH1 0x40 MLOAD PUSH3 0x461BCD PUSH1 0xE5 SHL DUP2 MSTORE PUSH1 0x20 PUSH1 0x4 DUP3 ADD MSTORE PUSH1 0x15 PUSH1 0x24 DUP3 ADD MSTORE PUSH21 0x4665652063616E6E6F742065786365656420313025 PUSH1 0x58 SHL PUSH1 0x44 DUP3 ADD MSTORE PUSH1 0x64 SWAP1 REVERT JUMPDEST CALLVALUE PUSH2 0x27A JUMPI PUSH1 0x20 CALLDATASIZE PUSH1 0x3 NOT ADD SLT PUSH2 0x27A JUMPI PUSH1 0x4 CALLDATALOAD PUSH2 0xCD4 DUP2 PUSH2 0x2346 JUMP JUMPDEST POP PUSH1 0x0 MSTORE PUSH1 0x6 PUSH1 0x20 MSTORE PUSH2 0xD10 PUSH2 0xCED PUSH1 0x40 PUSH1 0x0 KECCAK256 PUSH2 0x1EB7 JUMP JUMPDEST PUSH1 0x0 PUSH1 0x40 MLOAD PUSH2 0xCFB DUP2 PUSH2 0x1D9C JUMP JUMPDEST MSTORE PUSH1 0x40 MLOAD SWAP2 DUP3 SWAP2 PUSH1 0x20 DUP4 MSTORE PUSH1 0x20 DUP4 ADD SWAP1 PUSH2 0x1D2F JUMP JUMPDEST SUB SWAP1 RETURN JUMPDEST CALLVALUE PUSH2 0x27A JUMPI PUSH1 0x20 DUP1 PUSH1 0x3 NOT CALLDATASIZE ADD SLT PUSH2 0x27A JUMPI PUSH1 0x40 MLOAD SWAP1 PUSH2 0xD33 DUP3 PUSH2 0x1D80 JUMP JUMPDEST PUSH1 0x60 DUP3 MSTORE DUP1 DUP3 ADD PUSH1 0x0 SWAP1 MSTORE PUSH1 0x40 DUP3 ADD PUSH1 0x0 SWAP1 MSTORE PUSH1 0x60 DUP3 ADD PUSH1 0x0 SWAP1 MSTORE PUSH1 0x80 DUP3 ADD PUSH1 0x0 SWAP1 MSTORE PUSH1 0xA0 DUP3 ADD PUSH1 0x60 SWAP1 MSTORE PUSH1 0xC0 DUP3 ADD PUSH1 0x0 SWAP1 MSTORE PUSH1 0xE0 DUP3 ADD PUSH1 0x0 SWAP1 MSTORE PUSH2 0x100 DUP1 SWAP3 ADD PUSH1 0x0 SWAP1 MSTORE PUSH1 0x4 CALLDATALOAD PUSH1 0x0 MSTORE PUSH1 0x12 DUP2 MSTORE PUSH1 0x40 PUSH1 0x0 KECCAK256 PUSH1 0x40 MLOAD SWAP2 PUSH2 0xD94 DUP4 PUSH2 0x1D80 JUMP JUMPDEST PUSH2 0xD9D DUP3 PUSH2 0x1EB7 JUMP JUMPDEST DUP4 MSTORE PUSH1 0x1 DUP3 ADD SLOAD SWAP2 DUP2 DUP5 ADD SWAP3 DUP4 MSTORE PUSH1 0x2 DUP2 ADD SLOAD SWAP5 PUSH1 0x40 DUP6 ADD SWAP6 DUP7 MSTORE PUSH1 0x3 DUP3 ADD SLOAD SWAP2 PUSH1 0x60 DUP7 ADD SWAP3 DUP4 MSTORE PUSH1 0x4 DUP2 ADD SLOAD SWAP5 PUSH1 0x80 DUP8 ADD SWAP6 DUP7 MSTORE PUSH1 0x5 DUP3 ADD PUSH2 0xDDF SWAP1 PUSH2 0x1EB7 JUMP JUMPDEST SWAP1 PUSH1 0xA0 DUP9 ADD SWAP2 DUP3 MSTORE PUSH1 0x6 DUP4 ADD SLOAD SWAP2 PUSH1 0xC0 DUP10 ADD SWAP8 PUSH1 0xFF DUP5 AND ISZERO ISZERO DUP10 MSTORE PUSH1 0x1 PUSH1 0x1 PUSH1 0x40 SHL SUB SWAP5 DUP6 PUSH1 0xE0 DUP13 ADD SWAP6 PUSH1 0x8 SHR AND DUP6 MSTORE PUSH1 0x7 ADD SLOAD SWAP7 DUP7 DUP12 ADD SWAP8 DUP9 MSTORE PUSH1 0x40 MLOAD SWAP12 DUP13 SWAP12 DUP11 DUP14 MSTORE MLOAD DUP13 PUSH2 0x120 SWAP12 DUP13 SWAP2 ADD MSTORE PUSH2 0x140 DUP14 ADD PUSH2 0xE3B SWAP2 PUSH2 0x1D2F JUMP JUMPDEST SWAP5 MLOAD PUSH1 0x40 DUP14 ADD MSTORE MLOAD PUSH1 0x60 DUP13 ADD MSTORE MLOAD PUSH1 0x80 DUP12 ADD MSTORE MLOAD PUSH1 0xA0 DUP11 ADD MSTORE MLOAD DUP9 DUP3 SUB PUSH1 0x1F NOT ADD PUSH1 0xC0 DUP11 ADD MSTORE PUSH2 0xE6B SWAP2 SWAP1 PUSH2 0x1D2F JUMP JUMPDEST SWAP6 MLOAD ISZERO ISZERO PUSH1 0xE0 DUP9 ADD MSTORE MLOAD AND SWAP1 DUP6 ADD MSTORE MLOAD SWAP1 DUP4 ADD MSTORE SUB SWAP1 RETURN JUMPDEST CALLVALUE PUSH2 0x27A JUMPI PUSH1 0x80 CALLDATASIZE PUSH1 0x3 NOT ADD SLT PUSH2 0x27A JUMPI PUSH2 0xE9C PUSH2 0x1D54 JUMP JUMPDEST PUSH2 0xEA4 PUSH2 0x1D6A JUMP JUMPDEST SWAP1 PUSH1 0x44 CALLDATALOAD PUSH1 0x64 CALLDATALOAD SWAP3 PUSH1 0x1 PUSH1 0x1 PUSH1 0x40 SHL SUB DUP5 GT PUSH2 0x27A JUMPI CALLDATASIZE PUSH1 0x23 DUP6 ADD SLT ISZERO PUSH2 0x27A JUMPI PUSH2 0xEDC PUSH2 0x18 SWAP5 CALLDATASIZE SWAP1 PUSH1 0x24 DUP2 PUSH1 0x4 ADD CALLDATALOAD SWAP2 ADD PUSH2 0x1DF3 JUMP JUMPDEST SWAP3 PUSH2 0xEE8 DUP4 DUP4 DUP4 PUSH2 0x1F78 JUMP JUMPDEST CALLER PUSH2 0x26A1 JUMP JUMPDEST CALLVALUE PUSH2 0x27A JUMPI PUSH1 0x20 CALLDATASIZE PUSH1 0x3 NOT ADD SLT PUSH2 0x27A JUMPI PUSH1 0x1 PUSH1 0x1 PUSH1 0xA0 SHL SUB PUSH2 0xF0F PUSH2 0x1D54 JUMP JUMPDEST AND PUSH1 0x0 MSTORE PUSH1 0x10 PUSH1 0x20 MSTORE PUSH1 0x20 PUSH1 0xFF PUSH1 0x40 PUSH1 0x0 KECCAK256 SLOAD AND PUSH1 0x40 MLOAD SWAP1 ISZERO ISZERO DUP2 MSTORE RETURN JUMPDEST CALLVALUE PUSH2 0x27A JUMPI PUSH1 0x40 CALLDATASIZE PUSH1 0x3 NOT ADD SLT PUSH2 0x27A JUMPI PUSH2 0xF46 PUSH2 0x1D54 JUMP JUMPDEST PUSH1 0x24 CALLDATALOAD SWAP1 DUP2 ISZERO ISZERO SWAP1 DUP2 DUP4 SUB PUSH2 0x27A JUMPI PUSH1 0x1 PUSH1 0x1 PUSH1 0xA0 SHL SUB AND SWAP2 DUP3 ISZERO PUSH2 0xFC2 JUMPI PUSH2 0xF94 SWAP1 CALLER PUSH1 0x0 MSTORE PUSH1 0x5 PUSH1 0x20 MSTORE PUSH1 0x40 PUSH1 0x0 KECCAK256 DUP5 PUSH1 0x0 MSTORE PUSH1 0x20 MSTORE PUSH1 0x40 PUSH1 0x0 KECCAK256 SWAP1 PUSH1 0xFF DUP1 NOT DUP4 SLOAD AND SWAP2 ISZERO ISZERO AND OR SWAP1 SSTORE JUMP JUMPDEST PUSH1 0x40 MLOAD SWAP1 DUP2 MSTORE PUSH32 0x17307EAB39AB6107E8899845AD3D59BD9653F200F220920489CA2B5937696C31 PUSH1 0x20 CALLER SWAP3 LOG3 STOP JUMPDEST PUSH1 0x40 MLOAD PUSH4 0xB611743 PUSH1 0xE3 SHL DUP2 MSTORE PUSH1 0x4 DUP2 ADD DUP5 SWAP1 MSTORE PUSH1 0x24 SWAP1 REVERT JUMPDEST CALLVALUE PUSH2 0x27A JUMPI PUSH1 0x20 CALLDATASIZE PUSH1 0x3 NOT ADD SLT PUSH2 0x27A JUMPI PUSH1 0x4 CALLDATALOAD PUSH1 0x0 MSTORE PUSH1 0x14 PUSH1 0x20 MSTORE PUSH1 0x20 PUSH1 0x40 PUSH1 0x0 KECCAK256 SLOAD PUSH1 0x40 MLOAD SWAP1 DUP2 MSTORE RETURN JUMPDEST CALLVALUE PUSH2 0x27A JUMPI PUSH1 0x0 CALLDATASIZE PUSH1 0x3 NOT ADD SLT PUSH2 0x27A JUMPI PUSH1 0x40 MLOAD PUSH1 0x0 PUSH1 0x1 DUP3 PUSH1 0x1 SLOAD SWAP3 PUSH2 0x102D DUP5 PUSH2 0x1E7D JUMP JUMPDEST SWAP3 DUP4 DUP4 MSTORE PUSH1 0x20 SWAP5 DUP6 PUSH1 0x1 DUP3 AND SWAP2 DUP3 PUSH1 0x0 EQ PUSH2 0x10CA JUMPI POP POP PUSH1 0x1 EQ PUSH2 0x106D JUMPI JUMPDEST POP PUSH2 0x1059 SWAP3 POP SUB DUP4 PUSH2 0x1DB7 JUMP JUMPDEST PUSH2 0xD10 PUSH1 0x40 MLOAD SWAP3 DUP3 DUP5 SWAP4 DUP5 MSTORE DUP4 ADD SWAP1 PUSH2 0x1D2F JUMP JUMPDEST DUP5 SWAP2 POP PUSH1 0x1 PUSH1 0x0 MSTORE PUSH32 0xB10E2D527612073B26EECDFD717E6A320CF44B4AFAC2B0732D9FCBE2B7FA0CF6 SWAP1 PUSH1 0x0 SWAP2 JUMPDEST DUP6 DUP4 LT PUSH2 0x10B2 JUMPI POP POP PUSH2 0x1059 SWAP4 POP DUP3 ADD ADD DUP6 PUSH2 0x104C JUMP JUMPDEST DUP1 SLOAD DUP4 DUP10 ADD DUP6 ADD MSTORE DUP8 SWAP5 POP DUP7 SWAP4 SWAP1 SWAP3 ADD SWAP2 DUP2 ADD PUSH2 0x109B JUMP JUMPDEST PUSH1 0xFF NOT AND DUP6 DUP3 ADD MSTORE PUSH2 0x1059 SWAP6 ISZERO ISZERO PUSH1 0x5 SHL DUP6 ADD ADD SWAP3 POP DUP8 SWAP2 POP PUSH2 0x104C SWAP1 POP JUMP JUMPDEST CALLVALUE PUSH2 0x27A JUMPI PUSH1 0x0 CALLDATASIZE PUSH1 0x3 NOT ADD SLT PUSH2 0x27A JUMPI PUSH1 0xB SLOAD PUSH1 0x40 MLOAD PUSH1 0x1 PUSH1 0x1 PUSH1 0xA0 SHL SUB SWAP1 SWAP2 AND DUP2 MSTORE PUSH1 0x20 SWAP1 RETURN JUMPDEST CALLVALUE PUSH2 0x27A JUMPI PUSH1 0x0 CALLDATASIZE PUSH1 0x3 NOT ADD SLT PUSH2 0x27A JUMPI PUSH1 0x20 PUSH1 0xF SLOAD PUSH1 0x40 MLOAD SWAP1 DUP2 MSTORE RETURN JUMPDEST CALLVALUE PUSH2 0x27A JUMPI PUSH1 0x20 CALLDATASIZE PUSH1 0x3 NOT ADD SLT PUSH2 0x27A JUMPI PUSH1 0x4 CALLDATALOAD PUSH1 0x0 MSTORE PUSH1 0x13 PUSH1 0x20 MSTORE PUSH1 0x20 PUSH1 0x40 PUSH1 0x0 KECCAK256 SLOAD PUSH1 0x40 MLOAD SWAP1 DUP2 MSTORE RETURN JUMPDEST CALLVALUE PUSH2 0x27A JUMPI PUSH1 0x0 CALLDATASIZE PUSH1 0x3 NOT ADD SLT PUSH2 0x27A JUMPI PUSH2 0x1176 PUSH2 0x2675 JUMP JUMPDEST PUSH1 0xB DUP1 SLOAD PUSH1 0x1 PUSH1 0x1 PUSH1 0xA0 SHL SUB NOT DUP2 AND SWAP1 SWAP2 SSTORE PUSH1 0x0 SWAP1 PUSH1 0x1 PUSH1 0x1 PUSH1 0xA0 SHL SUB AND PUSH32 0x8BE0079C531659141344CD1FD0A4F28419497F9722A3DAAFE3B4186F6B6457E0 DUP3 DUP1 LOG3 STOP JUMPDEST CALLVALUE PUSH2 0x27A JUMPI PUSH1 0x20 CALLDATASIZE PUSH1 0x3 NOT ADD SLT PUSH2 0x27A JUMPI PUSH1 0x20 PUSH2 0x11DD PUSH2 0x11D8 PUSH2 0x1D54 JUMP JUMPDEST PUSH2 0x22DD JUMP JUMPDEST PUSH1 0x40 MLOAD SWAP1 DUP2 MSTORE RETURN JUMPDEST CALLVALUE PUSH2 0x27A JUMPI PUSH1 0x20 CALLDATASIZE PUSH1 0x3 NOT ADD SLT PUSH2 0x27A JUMPI PUSH1 0x20 PUSH2 0x1203 PUSH1 0x4 CALLDATALOAD PUSH2 0x2346 JUMP JUMPDEST PUSH1 0x40 MLOAD PUSH1 0x1 PUSH1 0x1 PUSH1 0xA0 SHL SUB SWAP1 SWAP2 AND DUP2 MSTORE RETURN JUMPDEST CALLVALUE PUSH2 0x27A JUMPI PUSH1 0x0 CALLDATASIZE PUSH1 0x3 NOT ADD SLT PUSH2 0x27A JUMPI PUSH1 0xE SLOAD PUSH1 0x40 MLOAD PUSH1 0x1 PUSH1 0x1 PUSH1 0xA0 SHL SUB SWAP1 SWAP2 AND DUP2 MSTORE PUSH1 0x20 SWAP1 RETURN JUMPDEST CALLVALUE PUSH2 0x27A JUMPI PUSH1 0x20 CALLDATASIZE PUSH1 0x3 NOT ADD SLT PUSH2 0x27A JUMPI PUSH2 0x1257 PUSH2 0x1D54 JUMP JUMPDEST PUSH2 0x125F PUSH2 0x2675 JUMP JUMPDEST PUSH1 0x1 PUSH1 0x1 PUSH1 0xA0 SHL SUB AND PUSH1 0x0 SWAP1 DUP2 MSTORE PUSH1 0x10 PUSH1 0x20 MSTORE PUSH1 0x40 SWAP1 KECCAK256 DUP1 SLOAD PUSH1 0xFF NOT AND PUSH1 0x1 OR SWAP1 SSTORE STOP JUMPDEST CALLVALUE PUSH2 0x27A JUMPI PUSH1 0x20 CALLDATASIZE PUSH1 0x3 NOT ADD SLT PUSH2 0x27A JUMPI PUSH1 0x4 CALLDATALOAD PUSH1 0x9 SLOAD DUP2 LT ISZERO PUSH2 0x12BA JUMPI PUSH2 0x12AC PUSH1 0x20 SWAP2 PUSH2 0x22A6 JUMP JUMPDEST SWAP1 SLOAD PUSH1 0x40 MLOAD SWAP2 PUSH1 0x3 SHL SHR DUP2 MSTORE RETURN JUMPDEST PUSH1 0x44 SWAP1 PUSH1 0x40 MLOAD SWAP1 PUSH4 0x295F44F7 PUSH1 0xE2 SHL DUP3 MSTORE PUSH1 0x0 PUSH1 0x4 DUP4 ADD MSTORE PUSH1 0x24 DUP3 ADD MSTORE REVERT JUMPDEST CALLVALUE PUSH2 0x27A JUMPI PUSH1 0x20 CALLDATASIZE PUSH1 0x3 NOT ADD SLT PUSH2 0x27A JUMPI PUSH2 0x12F2 PUSH2 0x1D54 JUMP JUMPDEST PUSH2 0x12FA PUSH2 0x2675 JUMP JUMPDEST PUSH1 0x1 PUSH1 0x1 PUSH1 0xA0 SHL SUB AND PUSH1 0x0 SWAP1 DUP2 MSTORE PUSH1 0x10 PUSH1 0x20 MSTORE PUSH1 0x40 SWAP1 KECCAK256 DUP1 SLOAD PUSH1 0xFF NOT AND SWAP1 SSTORE STOP JUMPDEST CALLVALUE PUSH2 0x27A JUMPI PUSH2 0x18 PUSH2 0x132C CALLDATASIZE PUSH2 0x1E48 JUMP JUMPDEST SWAP1 PUSH1 0x40 MLOAD SWAP3 PUSH2 0x133A DUP5 PUSH2 0x1D9C JUMP JUMPDEST PUSH1 0x0 DUP5 MSTORE PUSH2 0xEE8 DUP4 DUP4 DUP4 PUSH2 0x1F78 JUMP JUMPDEST CALLVALUE PUSH2 0x27A JUMPI PUSH1 0x20 DUP1 PUSH1 0x3 NOT CALLDATASIZE ADD SLT PUSH2 0x27A JUMPI PUSH2 0x1363 PUSH2 0x1D54 JUMP JUMPDEST PUSH2 0x136C DUP2 PUSH2 0x22DD JUMP JUMPDEST PUSH2 0x1375 DUP2 PUSH2 0x228F JUMP JUMPDEST SWAP1 PUSH2 0x1383 PUSH1 0x40 MLOAD SWAP3 DUP4 PUSH2 0x1DB7 JUMP JUMPDEST DUP1 DUP3 MSTORE PUSH2 0x138F DUP2 PUSH2 0x228F JUMP JUMPDEST DUP3 DUP6 ADD SWAP4 SWAP1 PUSH1 0x1F NOT ADD CALLDATASIZE DUP6 CALLDATACOPY PUSH1 0x0 JUMPDEST DUP3 DUP2 LT PUSH2 0x13E9 JUMPI POP POP POP SWAP1 PUSH1 0x40 MLOAD SWAP3 DUP4 SWAP3 DUP2 DUP5 ADD SWAP1 DUP3 DUP6 MSTORE MLOAD DUP1 SWAP2 MSTORE PUSH1 0x40 DUP5 ADD SWAP3 SWAP2 PUSH1 0x0 JUMPDEST DUP3 DUP2 LT PUSH2 0x13D2 JUMPI POP POP POP POP SUB SWAP1 RETURN JUMPDEST DUP4 MLOAD DUP6 MSTORE DUP7 SWAP6 POP SWAP4 DUP2 ADD SWAP4 SWAP3 DUP2 ADD SWAP3 PUSH1 0x1 ADD PUSH2 0x13C3 JUMP JUMPDEST PUSH2 0x13F3 DUP2 DUP4 PUSH2 0x222F JUMP JUMPDEST SWAP1 DUP5 MLOAD DUP2 LT ISZERO PUSH2 0x140F JUMPI PUSH1 0x1 SWAP2 DUP8 DUP3 PUSH1 0x5 SHL DUP8 ADD ADD MSTORE ADD PUSH2 0x139E JUMP JUMPDEST PUSH4 0x4E487B71 PUSH1 0xE0 SHL PUSH1 0x0 MSTORE PUSH1 0x32 PUSH1 0x4 MSTORE PUSH1 0x24 PUSH1 0x0 REVERT JUMPDEST CALLVALUE PUSH2 0x27A JUMPI PUSH1 0x40 CALLDATASIZE PUSH1 0x3 NOT ADD SLT PUSH2 0x27A JUMPI PUSH1 0x20 PUSH2 0x11DD PUSH2 0x1443 PUSH2 0x1D54 JUMP JUMPDEST PUSH1 0x24 CALLDATALOAD SWAP1 PUSH2 0x222F JUMP JUMPDEST CALLVALUE PUSH2 0x27A JUMPI PUSH1 0x20 CALLDATASIZE PUSH1 0x3 NOT ADD SLT PUSH2 0x27A JUMPI PUSH1 0x4 CALLDATALOAD PUSH1 0x1 PUSH1 0x1 PUSH1 0x40 SHL SUB DUP2 GT PUSH2 0x27A JUMPI PUSH2 0x1482 PUSH1 0x20 PUSH2 0xBE2 DUP2 SWAP4 CALLDATASIZE SWAP1 PUSH1 0x4 ADD PUSH2 0x1E2A JUMP JUMPDEST DUP2 ADD PUSH1 0x11 DUP2 MSTORE SUB ADD SWAP1 KECCAK256 SLOAD ISZERO ISZERO PUSH1 0x40 MLOAD SWAP1 DUP2 MSTORE RETURN JUMPDEST CALLVALUE PUSH2 0x27A JUMPI PUSH2 0x18 PUSH2 0x14A8 CALLDATASIZE PUSH2 0x1E48 JUMP JUMPDEST SWAP2 PUSH2 0x1F78 JUMP JUMPDEST CALLVALUE PUSH2 0x27A JUMPI PUSH1 0x0 CALLDATASIZE PUSH1 0x3 NOT ADD SLT PUSH2 0x27A JUMPI PUSH1 0x20 PUSH1 0xD SLOAD PUSH1 0x40 MLOAD SWAP1 DUP2 MSTORE RETURN JUMPDEST CALLVALUE PUSH2 0x27A JUMPI PUSH1 0x0 CALLDATASIZE PUSH1 0x3 NOT ADD SLT PUSH2 0x27A JUMPI PUSH1 0x20 PUSH1 0x9 SLOAD PUSH1 0x40 MLOAD SWAP1 DUP2 MSTORE RETURN JUMPDEST CALLVALUE PUSH2 0x27A JUMPI PUSH1 0x20 CALLDATASIZE PUSH1 0x3 NOT ADD SLT PUSH2 0x27A JUMPI PUSH1 0x4 CALLDATALOAD PUSH1 0x0 MSTORE PUSH1 0x12 PUSH1 0x20 MSTORE PUSH1 0x40 DUP1 PUSH1 0x0 KECCAK256 PUSH2 0x100 DUP3 MLOAD PUSH2 0x151A DUP2 PUSH2 0x1D80 JUMP JUMPDEST PUSH2 0x1523 DUP4 PUSH2 0x1EB7 JUMP JUMPDEST DUP2 MSTORE PUSH1 0x1 DUP4 ADD SLOAD PUSH1 0x20 DUP3 ADD MSTORE PUSH1 0x2 DUP4 ADD SLOAD DUP5 DUP3 ADD MSTORE PUSH1 0x3 DUP4 ADD SLOAD PUSH1 0x60 DUP3 ADD MSTORE PUSH1 0x4 DUP4 ADD SLOAD PUSH1 0x80 DUP3 ADD MSTORE PUSH2 0x1558 PUSH1 0x5 DUP5 ADD PUSH2 0x1EB7 JUMP JUMPDEST PUSH1 0xA0 DUP3 ADD MSTORE PUSH1 0x7 PUSH1 0x1 PUSH1 0x1 PUSH1 0x40 SHL SUB PUSH1 0x6 DUP6 ADD SLOAD PUSH1 0xFF DUP2 AND ISZERO ISZERO PUSH1 0xC0 DUP6 ADD MSTORE PUSH1 0x8 SHR AND SWAP4 DUP5 PUSH1 0xE0 DUP5 ADD MSTORE ADD SLOAD SWAP2 DUP3 SWAP2 ADD MSTORE DUP3 MLOAD SWAP2 DUP3 MSTORE PUSH1 0x20 DUP3 ADD MSTORE RETURN JUMPDEST CALLVALUE PUSH2 0x27A JUMPI PUSH1 0xC0 CALLDATASIZE PUSH1 0x3 NOT ADD SLT PUSH2 0x27A JUMPI PUSH2 0x15AE PUSH2 0x1D54 JUMP JUMPDEST PUSH1 0x24 CALLDATALOAD PUSH1 0x1 PUSH1 0x1 PUSH1 0x40 SHL SUB DUP2 GT PUSH2 0x27A JUMPI PUSH2 0x15CD SWAP1 CALLDATASIZE SWAP1 PUSH1 0x4 ADD PUSH2 0x1E2A JUMP JUMPDEST SWAP1 PUSH1 0xA4 CALLDATALOAD PUSH1 0x1 PUSH1 0x1 PUSH1 0x40 SHL SUB DUP2 GT PUSH2 0x27A JUMPI PUSH2 0x15ED SWAP1 CALLDATASIZE SWAP1 PUSH1 0x4 ADD PUSH2 0x1E2A JUMP JUMPDEST CALLER PUSH1 0x0 MSTORE PUSH1 0x10 PUSH1 0x20 MSTORE PUSH1 0xFF PUSH1 0x40 PUSH1 0x0 KECCAK256 SLOAD AND ISZERO DUP1 PUSH2 0x1A88 JUMPI JUMPDEST PUSH2 0xA6F JUMPI DUP3 MLOAD ISZERO DUP1 ISZERO PUSH2 0x1A7A JUMPI JUMPDEST PUSH2 0x4B8 JUMPI PUSH1 0x40 MLOAD PUSH1 0x20 DUP2 DUP6 MLOAD PUSH2 0x162D DUP2 DUP4 DUP6 DUP11 ADD PUSH2 0x1D0C JUMP JUMPDEST DUP2 ADD PUSH1 0x11 DUP2 MSTORE SUB ADD SWAP1 KECCAK256 SLOAD PUSH2 0x1A58 JUMPI PUSH1 0xD SLOAD SWAP2 PUSH2 0x1649 DUP4 PUSH2 0x1F5C JUMP JUMPDEST PUSH1 0xD SSTORE PUSH2 0x165A PUSH1 0x44 CALLDATALOAD PUSH1 0x64 CALLDATALOAD PUSH2 0x1F6B JUMP JUMPDEST SWAP1 PUSH1 0x40 MLOAD PUSH2 0x1667 DUP2 PUSH2 0x1D80 JUMP JUMPDEST DUP6 DUP2 MSTORE PUSH1 0x44 CALLDATALOAD PUSH1 0x20 DUP3 ADD MSTORE PUSH1 0x64 CALLDATALOAD PUSH1 0x40 DUP3 ADD MSTORE DUP3 PUSH1 0x60 DUP3 ADD MSTORE PUSH1 0x84 CALLDATALOAD PUSH1 0x80 DUP3 ADD MSTORE DUP4 PUSH1 0xA0 DUP3 ADD MSTORE PUSH1 0x1 PUSH1 0xC0 DUP3 ADD MSTORE PUSH1 0x0 PUSH1 0xE0 DUP3 ADD MSTORE PUSH1 0x0 PUSH2 0x100 DUP3 ADD MSTORE DUP5 PUSH1 0x0 MSTORE PUSH1 0x12 PUSH1 0x20 MSTORE PUSH1 0x40 PUSH1 0x0 KECCAK256 SWAP1 DUP1 MLOAD DUP1 MLOAD SWAP1 PUSH1 0x1 PUSH1 0x1 PUSH1 0x40 SHL SUB DUP3 GT PUSH2 0x98A JUMPI DUP2 SWAP1 PUSH2 0x16D2 DUP6 SLOAD PUSH2 0x1E7D JUMP JUMPDEST PUSH1 0x1F DUP2 GT PUSH2 0x1A08 JUMPI JUMPDEST POP PUSH1 0x20 SWAP1 PUSH1 0x1F DUP4 GT PUSH1 0x1 EQ PUSH2 0x199C JUMPI PUSH1 0x0 SWAP3 PUSH2 0x1991 JUMPI JUMPDEST POP POP DUP2 PUSH1 0x1 SHL SWAP2 PUSH1 0x0 NOT SWAP1 PUSH1 0x3 SHL SHR NOT AND OR DUP3 SSTORE JUMPDEST PUSH1 0x20 DUP2 ADD MLOAD PUSH1 0x1 DUP4 ADD SSTORE PUSH1 0x40 DUP2 ADD MLOAD PUSH1 0x2 DUP4 ADD SSTORE PUSH1 0x60 DUP2 ADD MLOAD PUSH1 0x3 DUP4 ADD SSTORE PUSH1 0x80 DUP2 ADD MLOAD PUSH1 0x4 DUP4 ADD SSTORE PUSH1 0xA0 DUP2 ADD MLOAD DUP1 MLOAD SWAP1 PUSH1 0x1 PUSH1 0x1 PUSH1 0x40 SHL SUB DUP3 GT PUSH2 0x98A JUMPI PUSH2 0x1752 PUSH1 0x5 DUP6 ADD SLOAD PUSH2 0x1E7D JUMP JUMPDEST PUSH1 0x1F DUP2 GT PUSH2 0x194A JUMPI JUMPDEST POP SWAP2 DUP8 SWAP6 SWAP4 SWAP2 PUSH1 0x20 SWAP10 SWAP6 SWAP4 DUP11 SWAP1 PUSH1 0x1F DUP4 GT PUSH1 0x1 EQ PUSH2 0x18A8 JUMPI PUSH2 0x100 PUSH2 0x1858 SWAP8 SWAP5 DUP5 PUSH32 0x1E46276E28486F32A881A8C30AB460ADD73EE6190A3ABE384EF873462B9B7103 SWAP11 SWAP9 SWAP6 PUSH2 0x876 SWAP9 SWAP6 PUSH1 0x7 SWAP6 PUSH1 0x0 SWAP3 PUSH2 0x189D JUMPI JUMPDEST POP POP DUP2 PUSH1 0x1 SHL SWAP2 PUSH1 0x0 NOT SWAP1 PUSH1 0x3 SHL SHR NOT AND OR PUSH1 0x5 DUP6 ADD SSTORE JUMPDEST PUSH1 0x6 DUP5 ADD PUSH2 0x17E8 PUSH1 0xC0 DUP4 ADD MLOAD ISZERO ISZERO DUP3 SWAP1 PUSH1 0xFF DUP1 NOT DUP4 SLOAD AND SWAP2 ISZERO ISZERO AND OR SWAP1 SSTORE JUMP JUMPDEST PUSH1 0xE0 DUP3 ADD MLOAD PUSH9 0xFFFFFFFFFFFFFFFF00 DUP3 SLOAD SWAP2 PUSH1 0x8 SHL AND SWAP1 PUSH9 0xFFFFFFFFFFFFFFFF00 NOT AND OR SWAP1 SSTORE ADD MLOAD SWAP2 ADD SSTORE DUP7 PUSH1 0x40 MLOAD DUP12 DUP2 DUP8 MLOAD PUSH2 0x1828 DUP2 DUP4 DUP6 DUP13 ADD PUSH2 0x1D0C JUMP JUMPDEST DUP2 ADD PUSH1 0x11 DUP2 MSTORE SUB ADD SWAP1 KECCAK256 SSTORE PUSH2 0x183D DUP8 DUP3 PUSH2 0x2381 JUMP JUMPDEST DUP8 MLOAD PUSH2 0x188E JUMPI JUMPDEST PUSH1 0x40 MLOAD SWAP5 DUP6 SWAP5 PUSH1 0xC0 DUP7 MSTORE PUSH1 0xC0 DUP7 ADD SWAP1 PUSH2 0x1D2F JUMP JUMPDEST PUSH1 0x44 CALLDATALOAD DUP6 DUP13 ADD MSTORE PUSH1 0x64 CALLDATALOAD PUSH1 0x40 DUP7 ADD MSTORE PUSH1 0x60 DUP6 ADD SWAP3 SWAP1 SWAP3 MSTORE PUSH1 0x84 CALLDATALOAD PUSH1 0x80 DUP6 ADD MSTORE DUP4 DUP3 SUB PUSH1 0xA0 DUP6 ADD MSTORE PUSH1 0x1 PUSH1 0x1 PUSH1 0xA0 SHL SUB AND SWAP7 PUSH2 0x1D2F JUMP JUMPDEST PUSH2 0x1898 DUP9 DUP9 PUSH2 0x2500 JUMP JUMPDEST PUSH2 0x1844 JUMP JUMPDEST ADD MLOAD SWAP1 POP CODESIZE DUP1 PUSH2 0x17B0 JUMP JUMPDEST SWAP1 PUSH1 0x5 DUP6 ADD PUSH1 0x0 MSTORE DUP12 PUSH1 0x0 KECCAK256 SWAP2 PUSH1 0x0 JUMPDEST PUSH1 0x1F NOT DUP6 AND DUP2 LT PUSH2 0x1930 JUMPI POP PUSH2 0x1858 SWAP8 SWAP5 PUSH1 0x1 DUP6 PUSH2 0x876 SWAP9 SWAP6 PUSH1 0x7 SWAP6 PUSH2 0x100 SWAP6 PUSH32 0x1E46276E28486F32A881A8C30AB460ADD73EE6190A3ABE384EF873462B9B7103 SWAP15 SWAP13 SWAP10 PUSH1 0x1F NOT DUP2 AND LT PUSH2 0x1917 JUMPI JUMPDEST POP POP POP DUP2 SHL ADD PUSH1 0x5 DUP6 ADD SSTORE PUSH2 0x17C8 JUMP JUMPDEST ADD MLOAD PUSH1 0x0 NOT PUSH1 0xF8 DUP5 PUSH1 0x3 SHL AND SHR NOT AND SWAP1 SSTORE CODESIZE DUP1 DUP1 PUSH2 0x1907 JUMP JUMPDEST DUP2 DUP4 ADD MLOAD DUP5 SSTORE DUP13 SWAP11 POP PUSH1 0x1 SWAP1 SWAP4 ADD SWAP3 SWAP2 DUP14 ADD SWAP2 DUP14 ADD PUSH2 0x18B8 JUMP JUMPDEST PUSH1 0x5 DUP6 ADD PUSH1 0x0 MSTORE PUSH1 0x20 PUSH1 0x0 KECCAK256 PUSH1 0x1F DUP5 ADD PUSH1 0x5 SHR DUP2 ADD PUSH1 0x20 DUP6 LT PUSH2 0x198A JUMPI JUMPDEST PUSH1 0x1F DUP4 ADD PUSH1 0x5 SHR DUP3 ADD DUP2 LT PUSH2 0x197E JUMPI POP POP PUSH2 0x175B JUMP JUMPDEST PUSH1 0x0 DUP2 SSTORE PUSH1 0x1 ADD PUSH2 0x1968 JUMP JUMPDEST POP DUP1 PUSH2 0x1968 JUMP JUMPDEST ADD MLOAD SWAP1 POP DUP10 DUP1 PUSH2 0x16F2 JUMP JUMPDEST SWAP3 POP DUP5 PUSH1 0x0 MSTORE PUSH1 0x20 PUSH1 0x0 KECCAK256 SWAP1 PUSH1 0x0 SWAP4 JUMPDEST PUSH1 0x1F NOT DUP5 AND DUP6 LT PUSH2 0x19ED JUMPI PUSH1 0x1 SWAP5 POP DUP4 PUSH1 0x1F NOT DUP2 AND LT PUSH2 0x19D4 JUMPI JUMPDEST POP POP POP DUP2 SHL ADD DUP3 SSTORE PUSH2 0x1707 JUMP JUMPDEST ADD MLOAD PUSH1 0x0 NOT PUSH1 0xF8 DUP5 PUSH1 0x3 SHL AND SHR NOT AND SWAP1 SSTORE DUP10 DUP1 DUP1 PUSH2 0x19C7 JUMP JUMPDEST DUP2 DUP2 ADD MLOAD DUP4 SSTORE PUSH1 0x20 SWAP5 DUP6 ADD SWAP5 PUSH1 0x1 SWAP1 SWAP4 ADD SWAP3 SWAP1 SWAP2 ADD SWAP1 PUSH2 0x19AC JUMP JUMPDEST SWAP1 SWAP2 POP DUP5 PUSH1 0x0 MSTORE PUSH1 0x20 PUSH1 0x0 KECCAK256 PUSH1 0x1F DUP5 ADD PUSH1 0x5 SHR DUP2 ADD PUSH1 0x20 DUP6 LT PUSH2 0x1A51 JUMPI JUMPDEST SWAP1 DUP5 SWAP4 SWAP3 SWAP2 JUMPDEST PUSH1 0x1F DUP4 ADD PUSH1 0x5 SHR DUP3 ADD DUP2 LT PUSH2 0x1A42 JUMPI POP POP PUSH2 0x16DB JUMP JUMPDEST PUSH1 0x0 DUP2 SSTORE DUP6 SWAP5 POP PUSH1 0x1 ADD PUSH2 0x1A2C JUMP JUMPDEST POP DUP1 PUSH2 0x1A26 JUMP JUMPDEST PUSH1 0x40 MLOAD PUSH4 0x6ABEED49 PUSH1 0xE1 SHL DUP2 MSTORE PUSH1 0x20 PUSH1 0x4 DUP3 ADD MSTORE DUP1 PUSH2 0x40A PUSH1 0x24 DUP3 ADD DUP7 PUSH2 0x1D2F JUMP JUMPDEST POP PUSH1 0x44 CALLDATALOAD PUSH1 0x64 CALLDATALOAD GT ISZERO PUSH2 0x1614 JUMP JUMPDEST POP PUSH1 0xB SLOAD PUSH1 0x1 PUSH1 0x1 PUSH1 0xA0 SHL SUB AND CALLER EQ ISZERO PUSH2 0x1606 JUMP JUMPDEST CALLVALUE PUSH2 0x27A JUMPI PUSH1 0x40 CALLDATASIZE PUSH1 0x3 NOT ADD SLT PUSH2 0x27A JUMPI PUSH2 0x1AB6 PUSH2 0x1D54 JUMP JUMPDEST PUSH1 0x24 CALLDATALOAD PUSH2 0x1AC2 DUP2 PUSH2 0x2346 JUMP JUMPDEST CALLER ISZERO ISZERO DUP1 PUSH2 0x1B71 JUMPI JUMPDEST DUP1 PUSH2 0x1B44 JUMPI JUMPDEST PUSH2 0x1B2C JUMPI PUSH1 0x1 PUSH1 0x1 PUSH1 0xA0 SHL SUB SWAP3 DUP4 AND SWAP3 DUP3 SWAP2 DUP5 SWAP2 AND PUSH32 0x8C5BE1E5EBEC7D5BD14F71427D1E84F3DD0314C0F7B2291E5B200AC8C7C3B925 PUSH1 0x0 DUP1 LOG4 PUSH1 0x0 SWAP1 DUP2 MSTORE PUSH1 0x4 PUSH1 0x20 MSTORE PUSH1 0x40 SWAP1 KECCAK256 DUP1 SLOAD PUSH1 0x1 PUSH1 0x1 PUSH1 0xA0 SHL SUB NOT AND SWAP1 SWAP2 OR SWAP1 SSTORE STOP JUMPDEST PUSH1 0x40 MLOAD PUSH4 0xA9FBF51F PUSH1 0xE0 SHL DUP2 MSTORE CALLER PUSH1 0x4 DUP3 ADD MSTORE PUSH1 0x24 SWAP1 REVERT JUMPDEST POP PUSH1 0x1 DUP1 PUSH1 0xA0 SHL SUB DUP2 AND PUSH1 0x0 MSTORE PUSH1 0x5 PUSH1 0x20 MSTORE PUSH1 0x40 PUSH1 0x0 KECCAK256 CALLER PUSH1 0x0 MSTORE PUSH1 0x20 MSTORE PUSH1 0xFF PUSH1 0x40 PUSH1 0x0 KECCAK256 SLOAD AND ISZERO PUSH2 0x1AD1 JUMP JUMPDEST POP PUSH1 0x1 PUSH1 0x1 PUSH1 0xA0 SHL SUB DUP2 AND CALLER EQ ISZERO PUSH2 0x1ACB JUMP JUMPDEST CALLVALUE PUSH2 0x27A JUMPI PUSH1 0x20 CALLDATASIZE PUSH1 0x3 NOT ADD SLT PUSH2 0x27A JUMPI PUSH1 0x4 CALLDATALOAD PUSH2 0x1BA1 DUP2 PUSH2 0x2346 JUMP JUMPDEST POP PUSH1 0x0 MSTORE PUSH1 0x4 PUSH1 0x20 MSTORE PUSH1 0x20 PUSH1 0x1 DUP1 PUSH1 0xA0 SHL SUB PUSH1 0x40 PUSH1 0x0 KECCAK256 SLOAD AND PUSH1 0x40 MLOAD SWAP1 DUP2 MSTORE RETURN JUMPDEST CALLVALUE PUSH2 0x27A JUMPI PUSH1 0x0 CALLDATASIZE PUSH1 0x3 NOT ADD SLT PUSH2 0x27A JUMPI PUSH1 0x40 MLOAD PUSH1 0x0 DUP1 SLOAD SWAP1 DUP3 PUSH2 0x1BE5 DUP4 PUSH2 0x1E7D JUMP JUMPDEST SWAP2 DUP3 DUP3 MSTORE PUSH1 0x20 SWAP4 PUSH1 0x1 SWAP1 DUP6 PUSH1 0x1 DUP3 AND SWAP2 DUP3 PUSH1 0x0 EQ PUSH2 0x10CA JUMPI POP POP PUSH1 0x1 EQ PUSH2 0x1C13 JUMPI POP PUSH2 0x1059 SWAP3 POP SUB DUP4 PUSH2 0x1DB7 JUMP JUMPDEST PUSH1 0x0 DUP1 DUP1 MSTORE DUP6 SWAP3 POP SWAP1 PUSH32 0x290DECD9548B62A8D60345A988386FC84BA6BC95484008F6362F93160EF3E563 JUMPDEST DUP6 DUP4 LT PUSH2 0x1C55 JUMPI POP POP PUSH2 0x1059 SWAP4 POP DUP3 ADD ADD DUP6 PUSH2 0x104C JUMP JUMPDEST DUP1 SLOAD DUP4 DUP10 ADD DUP6 ADD MSTORE DUP8 SWAP5 POP DUP7 SWAP4 SWAP1 SWAP3 ADD SWAP2 DUP2 ADD PUSH2 0x1C3E JUMP JUMPDEST CALLVALUE PUSH2 0x27A JUMPI PUSH1 0x20 CALLDATASIZE PUSH1 0x3 NOT ADD SLT PUSH2 0x27A JUMPI PUSH1 0x4 CALLDATALOAD SWAP1 PUSH4 0xFFFFFFFF PUSH1 0xE0 SHL DUP3 AND DUP1 SWAP3 SUB PUSH2 0x27A JUMPI PUSH1 0x20 SWAP2 PUSH4 0x780E9D63 PUSH1 0xE0 SHL DUP2 EQ SWAP1 DUP2 ISZERO PUSH2 0x1CAF JUMPI JUMPDEST POP ISZERO ISZERO DUP2 MSTORE RETURN JUMPDEST PUSH4 0x24832483 PUSH1 0xE1 SHL DUP2 EQ SWAP2 POP DUP2 ISZERO PUSH2 0x1CC9 JUMPI JUMPDEST POP DUP4 PUSH2 0x1CA8 JUMP JUMPDEST PUSH4 0x80AC58CD PUSH1 0xE0 SHL DUP2 EQ SWAP2 POP DUP2 ISZERO PUSH2 0x1CFB JUMPI JUMPDEST DUP2 ISZERO PUSH2 0x1CEA JUMPI JUMPDEST POP DUP4 PUSH2 0x1CC2 JUMP JUMPDEST PUSH4 0x1FFC9A7 PUSH1 0xE0 SHL EQ SWAP1 POP DUP4 PUSH2 0x1CE3 JUMP JUMPDEST PUSH4 0x5B5E139F PUSH1 0xE0 SHL DUP2 EQ SWAP2 POP PUSH2 0x1CDC JUMP JUMPDEST PUSH1 0x0 JUMPDEST DUP4 DUP2 LT PUSH2 0x1D1F JUMPI POP POP PUSH1 0x0 SWAP2 ADD MSTORE JUMP JUMPDEST DUP2 DUP2 ADD MLOAD DUP4 DUP3 ADD MSTORE PUSH1 0x20 ADD PUSH2 0x1D0F JUMP JUMPDEST SWAP1 PUSH1 0x20 SWAP2 PUSH2 0x1D48 DUP2 MLOAD DUP1 SWAP3 DUP2 DUP6 MSTORE DUP6 DUP1 DUP7 ADD SWAP2 ADD PUSH2 0x1D0C JUMP JUMPDEST PUSH1 0x1F ADD PUSH1 0x1F NOT AND ADD ADD SWAP1 JUMP JUMPDEST PUSH1 0x4 CALLDATALOAD SWAP1 PUSH1 0x1 PUSH1 0x1 PUSH1 0xA0 SHL SUB DUP3 AND DUP3 SUB PUSH2 0x27A JUMPI JUMP JUMPDEST PUSH1 0x24 CALLDATALOAD SWAP1 PUSH1 0x1 PUSH1 0x1 PUSH1 0xA0 SHL SUB DUP3 AND DUP3 SUB PUSH2 0x27A JUMPI JUMP JUMPDEST PUSH2 0x120 DUP2 ADD SWAP1 DUP2 LT PUSH1 0x1 PUSH1 0x1 PUSH1 0x40 SHL SUB DUP3 GT OR PUSH2 0x98A JUMPI PUSH1 0x40 MSTORE JUMP JUMPDEST PUSH1 0x20 DUP2 ADD SWAP1 DUP2 LT PUSH1 0x1 PUSH1 0x1 PUSH1 0x40 SHL SUB DUP3 GT OR PUSH2 0x98A JUMPI PUSH1 0x40 MSTORE JUMP JUMPDEST SWAP1 PUSH1 0x1F DUP1 NOT SWAP2 ADD AND DUP2 ADD SWAP1 DUP2 LT PUSH1 0x1 PUSH1 0x1 PUSH1 0x40 SHL SUB DUP3 GT OR PUSH2 0x98A JUMPI PUSH1 0x40 MSTORE JUMP JUMPDEST PUSH1 0x1 PUSH1 0x1 PUSH1 0x40 SHL SUB DUP2 GT PUSH2 0x98A JUMPI PUSH1 0x1F ADD PUSH1 0x1F NOT AND PUSH1 0x20 ADD SWAP1 JUMP JUMPDEST SWAP3 SWAP2 SWAP3 PUSH2 0x1DFF DUP3 PUSH2 0x1DD8 JUMP JUMPDEST SWAP2 PUSH2 0x1E0D PUSH1 0x40 MLOAD SWAP4 DUP5 PUSH2 0x1DB7 JUMP JUMPDEST DUP3 SWAP5 DUP2 DUP5 MSTORE DUP2 DUP4 ADD GT PUSH2 0x27A JUMPI DUP3 DUP2 PUSH1 0x20 SWAP4 DUP5 PUSH1 0x0 SWAP7 ADD CALLDATACOPY ADD ADD MSTORE JUMP JUMPDEST SWAP1 DUP1 PUSH1 0x1F DUP4 ADD SLT ISZERO PUSH2 0x27A JUMPI DUP2 PUSH1 0x20 PUSH2 0x1E45 SWAP4 CALLDATALOAD SWAP2 ADD PUSH2 0x1DF3 JUMP JUMPDEST SWAP1 JUMP JUMPDEST PUSH1 0x60 SWAP1 PUSH1 0x3 NOT ADD SLT PUSH2 0x27A JUMPI PUSH1 0x1 PUSH1 0x1 PUSH1 0xA0 SHL SUB SWAP1 PUSH1 0x4 CALLDATALOAD DUP3 DUP2 AND DUP2 SUB PUSH2 0x27A JUMPI SWAP2 PUSH1 0x24 CALLDATALOAD SWAP1 DUP2 AND DUP2 SUB PUSH2 0x27A JUMPI SWAP1 PUSH1 0x44 CALLDATALOAD SWAP1 JUMP JUMPDEST SWAP1 PUSH1 0x1 DUP3 DUP2 SHR SWAP3 AND DUP1 ISZERO PUSH2 0x1EAD JUMPI JUMPDEST PUSH1 0x20 DUP4 LT EQ PUSH2 0x1E97 JUMPI JUMP JUMPDEST PUSH4 0x4E487B71 PUSH1 0xE0 SHL PUSH1 0x0 MSTORE PUSH1 0x22 PUSH1 0x4 MSTORE PUSH1 0x24 PUSH1 0x0 REVERT JUMPDEST SWAP2 PUSH1 0x7F AND SWAP2 PUSH2 0x1E8C JUMP JUMPDEST SWAP1 PUSH1 0x40 MLOAD SWAP2 DUP3 PUSH1 0x0 DUP3 SLOAD PUSH2 0x1ECA DUP2 PUSH2 0x1E7D JUMP JUMPDEST SWAP1 DUP2 DUP5 MSTORE PUSH1 0x20 SWAP5 PUSH1 0x1 SWAP2 PUSH1 0x1 DUP2 AND SWAP1 DUP2 PUSH1 0x0 EQ PUSH2 0x1F3A JUMPI POP PUSH1 0x1 EQ PUSH2 0x1EFB JUMPI JUMPDEST POP POP POP PUSH2 0x1EF9 SWAP3 POP SUB DUP4 PUSH2 0x1DB7 JUMP JUMPDEST JUMP JUMPDEST PUSH1 0x0 SWAP1 DUP2 MSTORE DUP6 DUP2 KECCAK256 SWAP6 SWAP4 POP SWAP2 SWAP1 JUMPDEST DUP2 DUP4 LT PUSH2 0x1F22 JUMPI POP POP PUSH2 0x1EF9 SWAP4 POP DUP3 ADD ADD CODESIZE DUP1 DUP1 PUSH2 0x1EEA JUMP JUMPDEST DUP6 SLOAD DUP9 DUP5 ADD DUP6 ADD MSTORE SWAP5 DUP6 ADD SWAP5 DUP8 SWAP5 POP SWAP2 DUP4 ADD SWAP2 PUSH2 0x1F09 JUMP JUMPDEST SWAP3 POP POP POP PUSH2 0x1EF9 SWAP5 SWAP3 POP PUSH1 0xFF NOT AND DUP3 DUP5 ADD MSTORE ISZERO ISZERO PUSH1 0x5 SHL DUP3 ADD ADD CODESIZE DUP1 DUP1 PUSH2 0x1EEA JUMP JUMPDEST PUSH1 0x0 NOT DUP2 EQ PUSH2 0x427 JUMPI PUSH1 0x1 ADD SWAP1 JUMP JUMPDEST SWAP2 SWAP1 DUP3 SUB SWAP2 DUP3 GT PUSH2 0x427 JUMPI JUMP JUMPDEST SWAP1 PUSH1 0x1 PUSH1 0x1 PUSH1 0xA0 SHL SUB DUP1 DUP3 AND SWAP1 DUP2 ISZERO PUSH2 0x40E JUMPI PUSH1 0x0 SWAP2 DUP6 DUP4 MSTORE PUSH1 0x20 SWAP3 PUSH1 0x2 DUP5 MSTORE PUSH1 0x40 SWAP4 DUP4 DUP6 DUP4 KECCAK256 SLOAD AND SWAP6 CALLER ISZERO ISZERO DUP1 PUSH2 0x21A1 JUMPI JUMPDEST POP DUP7 ISZERO DUP1 ISZERO PUSH2 0x216E JUMPI JUMPDEST DUP5 DUP5 MSTORE PUSH1 0x3 DUP4 MSTORE DUP7 DUP5 KECCAK256 DUP1 SLOAD PUSH1 0x1 ADD SWAP1 SSTORE DUP10 DUP5 MSTORE PUSH1 0x2 DUP4 MSTORE DUP7 DUP5 KECCAK256 DUP1 SLOAD PUSH1 0x1 PUSH1 0x1 PUSH1 0xA0 SHL SUB NOT AND DUP7 OR SWAP1 SSTORE DUP10 DUP6 DUP10 PUSH32 0xDDF252AD1BE2C89B69C2B068FC378DAA952BA7F163C4A11628F55A4DF523B3EF DUP8 DUP1 LOG4 ISZERO PUSH2 0x2102 JUMPI PUSH1 0x9 SLOAD DUP10 DUP5 MSTORE PUSH1 0xA DUP4 MSTORE DUP1 DUP8 DUP6 KECCAK256 SSTORE PUSH1 0x1 PUSH1 0x40 SHL DUP2 LT ISZERO PUSH2 0x20EE JUMPI DUP10 PUSH2 0x203B DUP3 PUSH1 0x1 PUSH2 0x2054 SWAP5 ADD PUSH1 0x9 SSTORE PUSH2 0x22A6 JUMP JUMPDEST SWAP1 SWAP2 SWAP1 DUP3 SLOAD SWAP1 PUSH1 0x3 SHL SWAP2 DUP3 SHL SWAP2 PUSH1 0x0 NOT SWAP1 SHL NOT AND OR SWAP1 SSTORE JUMP JUMPDEST DUP4 DUP8 SUB PUSH2 0x209C JUMPI JUMPDEST POP POP POP POP DUP4 AND DUP3 SUB PUSH2 0x206E JUMPI POP POP POP POP JUMP JUMPDEST MLOAD PUSH4 0x64283D7B PUSH1 0xE0 SHL DUP2 MSTORE PUSH1 0x1 PUSH1 0x1 PUSH1 0xA0 SHL SUB SWAP3 DUP4 AND PUSH1 0x4 DUP3 ADD MSTORE PUSH1 0x24 DUP2 ADD SWAP4 SWAP1 SWAP4 MSTORE AND PUSH1 0x44 DUP3 ADD MSTORE PUSH1 0x64 SWAP1 REVERT JUMPDEST PUSH2 0x20A5 SWAP1 PUSH2 0x22DD JUMP JUMPDEST PUSH1 0x0 NOT DUP2 ADD SWAP4 SWAP1 DUP5 GT PUSH2 0x20DA JUMPI DUP3 SWAP2 PUSH1 0x8 SWAP2 DUP8 SWAP5 MSTORE PUSH1 0x7 DUP2 MSTORE DUP4 DUP4 KECCAK256 DUP6 DUP5 MSTORE DUP2 MSTORE DUP10 DUP5 DUP5 KECCAK256 SSTORE DUP10 DUP4 MSTORE MSTORE KECCAK256 SSTORE CODESIZE DUP1 DUP1 DUP1 PUSH2 0x205C JUMP JUMPDEST PUSH4 0x4E487B71 PUSH1 0xE0 SHL DUP4 MSTORE PUSH1 0x11 PUSH1 0x4 MSTORE PUSH1 0x24 DUP4 REVERT JUMPDEST PUSH4 0x4E487B71 PUSH1 0xE0 SHL DUP5 MSTORE PUSH1 0x41 PUSH1 0x4 MSTORE PUSH1 0x24 DUP5 REVERT JUMPDEST DUP7 DUP5 EQ PUSH2 0x2054 JUMPI PUSH2 0x2112 DUP8 PUSH2 0x22DD JUMP JUMPDEST DUP10 DUP5 MSTORE PUSH1 0x8 DUP4 MSTORE DUP7 DUP5 KECCAK256 SLOAD SWAP1 DUP9 DUP6 MSTORE PUSH1 0x7 DUP5 MSTORE DUP8 DUP6 KECCAK256 SWAP2 DUP2 DUP2 SUB PUSH2 0x214C JUMPI JUMPDEST POP DUP11 DUP6 MSTORE PUSH1 0x8 DUP5 MSTORE DUP5 DUP9 DUP2 KECCAK256 SSTORE DUP5 MSTORE DUP3 MSTORE DUP3 DUP7 DUP2 KECCAK256 SSTORE PUSH2 0x2054 JUMP JUMPDEST DUP2 DUP7 MSTORE DUP3 DUP6 MSTORE DUP9 DUP7 KECCAK256 SLOAD DUP2 DUP8 MSTORE DUP1 DUP11 DUP9 KECCAK256 SSTORE DUP7 MSTORE PUSH1 0x8 DUP6 MSTORE DUP9 DUP7 KECCAK256 SSTORE CODESIZE PUSH2 0x2131 JUMP JUMPDEST PUSH1 0x0 DUP11 DUP2 MSTORE PUSH1 0x4 PUSH1 0x20 MSTORE PUSH1 0x40 SWAP1 KECCAK256 DUP1 SLOAD PUSH1 0x1 PUSH1 0x1 PUSH1 0xA0 SHL SUB NOT AND SWAP1 SSTORE DUP8 DUP5 MSTORE PUSH1 0x3 DUP4 MSTORE DUP7 DUP5 KECCAK256 DUP1 SLOAD PUSH1 0x0 NOT ADD SWAP1 SSTORE PUSH2 0x1FB5 JUMP JUMPDEST DUP1 PUSH2 0x21EE JUMPI JUMPDEST ISZERO PUSH2 0x21B2 JUMPI CODESIZE PUSH2 0x1FAB JUMP JUMPDEST DUP6 DUP10 DUP9 PUSH2 0x21CF JUMPI PUSH1 0x24 SWAP2 MLOAD SWAP1 PUSH4 0x7E273289 PUSH1 0xE0 SHL DUP3 MSTORE PUSH1 0x4 DUP3 ADD MSTORE REVERT JUMPDEST SWAP1 MLOAD PUSH4 0x177E802F PUSH1 0xE0 SHL DUP2 MSTORE CALLER PUSH1 0x4 DUP3 ADD MSTORE PUSH1 0x24 DUP2 ADD SWAP2 SWAP1 SWAP2 MSTORE PUSH1 0x44 SWAP1 REVERT JUMPDEST POP CALLER DUP8 EQ DUP1 ISZERO PUSH2 0x2213 JUMPI JUMPDEST DUP1 PUSH2 0x21A7 JUMPI POP DUP9 DUP4 MSTORE PUSH1 0x4 DUP3 MSTORE CALLER DUP6 DUP8 DUP6 KECCAK256 SLOAD AND EQ PUSH2 0x21A7 JUMP JUMPDEST POP DUP7 DUP4 MSTORE PUSH1 0x5 DUP3 MSTORE DUP6 DUP4 KECCAK256 CALLER DUP5 MSTORE DUP3 MSTORE PUSH1 0xFF DUP7 DUP5 KECCAK256 SLOAD AND PUSH2 0x21F9 JUMP JUMPDEST PUSH2 0x2238 DUP2 PUSH2 0x22DD JUMP JUMPDEST DUP3 LT ISZERO PUSH2 0x2264 JUMPI PUSH1 0x1 DUP1 PUSH1 0xA0 SHL SUB AND PUSH1 0x0 MSTORE PUSH1 0x7 PUSH1 0x20 MSTORE PUSH1 0x40 PUSH1 0x0 KECCAK256 SWAP1 PUSH1 0x0 MSTORE PUSH1 0x20 MSTORE PUSH1 0x40 PUSH1 0x0 KECCAK256 SLOAD SWAP1 JUMP JUMPDEST PUSH1 0x40 MLOAD PUSH4 0x295F44F7 PUSH1 0xE2 SHL DUP2 MSTORE PUSH1 0x1 PUSH1 0x1 PUSH1 0xA0 SHL SUB SWAP2 SWAP1 SWAP2 AND PUSH1 0x4 DUP3 ADD MSTORE PUSH1 0x24 DUP2 ADD SWAP2 SWAP1 SWAP2 MSTORE PUSH1 0x44 SWAP1 REVERT JUMPDEST PUSH1 0x1 PUSH1 0x1 PUSH1 0x40 SHL SUB DUP2 GT PUSH2 0x98A JUMPI PUSH1 0x5 SHL PUSH1 0x20 ADD SWAP1 JUMP JUMPDEST PUSH1 0x9 SLOAD DUP2 LT ISZERO PUSH2 0x140F JUMPI PUSH1 0x9 PUSH1 0x0 MSTORE PUSH32 0x6E1540171B6C0C960B71A7020D9F60077F6AF931A8BBF590DA0223DACF75C7AF ADD SWAP1 PUSH1 0x0 SWAP1 JUMP JUMPDEST PUSH1 0x1 PUSH1 0x1 PUSH1 0xA0 SHL SUB AND DUP1 ISZERO PUSH2 0x22FD JUMPI PUSH1 0x0 MSTORE PUSH1 0x3 PUSH1 0x20 MSTORE PUSH1 0x40 PUSH1 0x0 KECCAK256 SLOAD SWAP1 JUMP JUMPDEST PUSH1 0x40 MLOAD PUSH4 0x22718AD9 PUSH1 0xE2 SHL DUP2 MSTORE PUSH1 0x0 PUSH1 0x4 DUP3 ADD MSTORE PUSH1 0x24 SWAP1 REVERT JUMPDEST RETURNDATASIZE ISZERO PUSH2 0x2341 JUMPI RETURNDATASIZE SWAP1 PUSH2 0x2327 DUP3 PUSH2 0x1DD8 JUMP JUMPDEST SWAP2 PUSH2 0x2335 PUSH1 0x40 MLOAD SWAP4 DUP5 PUSH2 0x1DB7 JUMP JUMPDEST DUP3 MSTORE RETURNDATASIZE PUSH1 0x0 PUSH1 0x20 DUP5 ADD RETURNDATACOPY JUMP JUMPDEST PUSH1 0x60 SWAP1 JUMP JUMPDEST PUSH1 0x0 DUP2 DUP2 MSTORE PUSH1 0x2 PUSH1 0x20 MSTORE PUSH1 0x40 SWAP1 KECCAK256 SLOAD PUSH1 0x1 PUSH1 0x1 PUSH1 0xA0 SHL SUB AND SWAP1 DUP2 ISZERO PUSH2 0x2369 JUMPI POP SWAP1 JUMP JUMPDEST PUSH1 0x24 SWAP1 PUSH1 0x40 MLOAD SWAP1 PUSH4 0x7E273289 PUSH1 0xE0 SHL DUP3 MSTORE PUSH1 0x4 DUP3 ADD MSTORE REVERT JUMPDEST PUSH1 0x40 SWAP2 DUP3 MLOAD PUSH2 0x238F DUP2 PUSH2 0x1D9C JUMP JUMPDEST PUSH1 0x0 DUP1 DUP3 MSTORE PUSH1 0x1 PUSH1 0x1 PUSH1 0xA0 SHL SUB DUP5 DUP2 AND SWAP5 SWAP2 SWAP3 SWAP2 SWAP1 DUP6 ISZERO PUSH2 0x24E8 JUMPI PUSH2 0x23B4 DUP6 DUP4 PUSH2 0x27BD JUMP JUMPDEST AND PUSH2 0x24D0 JUMPI EXTCODESIZE PUSH2 0x23C6 JUMPI JUMPDEST POP POP POP POP POP JUMP JUMPDEST PUSH1 0x20 PUSH2 0x2403 SWAP2 DUP7 SWAP8 SWAP6 SWAP7 MLOAD DUP1 SWAP4 DUP2 SWAP3 PUSH4 0xA85BD01 PUSH1 0xE1 SHL SWAP8 DUP9 DUP5 MSTORE CALLER PUSH1 0x4 DUP6 ADD MSTORE DUP8 PUSH1 0x24 DUP6 ADD MSTORE PUSH1 0x44 DUP5 ADD MSTORE PUSH1 0x80 PUSH1 0x64 DUP5 ADD MSTORE PUSH1 0x84 DUP4 ADD SWAP1 PUSH2 0x1D2F JUMP JUMPDEST SUB DUP2 DUP6 DUP10 GAS CALL SWAP1 DUP3 SWAP1 DUP3 PUSH2 0x2480 JUMPI JUMPDEST POP POP PUSH2 0x244B JUMPI POP POP POP PUSH2 0x2423 PUSH2 0x2316 JUMP JUMPDEST DUP1 MLOAD SWAP3 SWAP1 DUP4 PUSH2 0x2444 JUMPI DUP2 MLOAD PUSH4 0x32505749 PUSH1 0xE1 SHL DUP2 MSTORE PUSH1 0x4 DUP2 ADD DUP5 SWAP1 MSTORE PUSH1 0x24 SWAP1 REVERT JUMPDEST DUP4 SWAP1 PUSH1 0x20 ADD REVERT JUMPDEST SWAP2 SWAP4 SWAP2 PUSH1 0x1 PUSH1 0x1 PUSH1 0xE0 SHL SUB NOT AND SUB PUSH2 0x2469 JUMPI POP POP CODESIZE DUP1 DUP1 DUP1 DUP1 PUSH2 0x23BF JUMP JUMPDEST PUSH1 0x24 SWAP3 POP MLOAD SWAP1 PUSH4 0x32505749 PUSH1 0xE1 SHL DUP3 MSTORE PUSH1 0x4 DUP3 ADD MSTORE REVERT JUMPDEST SWAP1 SWAP2 SWAP3 POP PUSH1 0x20 DUP2 RETURNDATASIZE PUSH1 0x20 GT PUSH2 0x24C8 JUMPI JUMPDEST DUP2 PUSH2 0x249D PUSH1 0x20 SWAP4 DUP4 PUSH2 0x1DB7 JUMP JUMPDEST DUP2 ADD SUB SLT PUSH2 0x24C4 JUMPI MLOAD SWAP1 PUSH1 0x1 PUSH1 0x1 PUSH1 0xE0 SHL SUB NOT DUP3 AND DUP3 SUB PUSH2 0x24C1 JUMPI POP SWAP1 CODESIZE DUP1 PUSH2 0x2412 JUMP JUMPDEST DUP1 REVERT JUMPDEST POP DUP1 REVERT JUMPDEST RETURNDATASIZE SWAP2 POP PUSH2 0x2490 JUMP JUMPDEST DUP6 MLOAD PUSH4 0x39E35637 PUSH1 0xE1 SHL DUP2 MSTORE PUSH1 0x4 DUP2 ADD DUP5 SWAP1 MSTORE PUSH1 0x24 SWAP1 REVERT JUMPDEST DUP7 MLOAD PUSH4 0x32505749 PUSH1 0xE1 SHL DUP2 MSTORE PUSH1 0x4 DUP2 ADD DUP6 SWAP1 MSTORE PUSH1 0x24 SWAP1 REVERT JUMPDEST SWAP2 SWAP1 SWAP2 PUSH1 0x0 SWAP1 DUP1 DUP3 MSTORE PUSH1 0x20 SWAP2 PUSH1 0x6 DUP4 MSTORE PUSH1 0x40 DUP2 KECCAK256 SWAP1 DUP6 MLOAD SWAP1 PUSH1 0x1 PUSH1 0x1 PUSH1 0x40 SHL SUB DUP3 GT PUSH2 0x2661 JUMPI PUSH2 0x2530 DUP4 SLOAD PUSH2 0x1E7D JUMP JUMPDEST PUSH1 0x1F DUP2 GT PUSH2 0x261E JUMPI JUMPDEST POP DUP5 SWAP1 PUSH1 0x1F DUP4 GT PUSH1 0x1 EQ PUSH2 0x259A JUMPI SWAP1 PUSH32 0xF8E1A15ABA9398E019F0B49DF1A4FDE98EE17AE345CB5F6B5E2C27F5033E8CE7 SWAP7 SWAP8 DUP4 PUSH2 0x258F JUMPI JUMPDEST POP POP DUP2 PUSH1 0x1 SHL SWAP2 PUSH1 0x0 NOT SWAP1 PUSH1 0x3 SHL SHR NOT AND OR SWAP1 SSTORE JUMPDEST PUSH1 0x40 MLOAD SWAP1 DUP2 MSTORE LOG1 JUMP JUMPDEST ADD MLOAD SWAP1 POP CODESIZE DUP1 PUSH2 0x2571 JUMP JUMPDEST SWAP2 SWAP7 PUSH1 0x1F NOT DUP9 AND DUP5 DUP5 MSTORE DUP7 DUP5 KECCAK256 SWAP4 JUMPDEST DUP2 DUP2 LT PUSH2 0x2607 JUMPI POP SWAP2 PUSH1 0x1 SWAP4 SWAP2 DUP10 PUSH32 0xF8E1A15ABA9398E019F0B49DF1A4FDE98EE17AE345CB5F6B5E2C27F5033E8CE7 SWAP10 SWAP11 SWAP5 LT PUSH2 0x25EE JUMPI JUMPDEST POP POP POP DUP2 SHL ADD SWAP1 SSTORE PUSH2 0x2586 JUMP JUMPDEST ADD MLOAD PUSH1 0x0 NOT PUSH1 0xF8 DUP5 PUSH1 0x3 SHL AND SHR NOT AND SWAP1 SSTORE CODESIZE DUP1 DUP1 PUSH2 0x25E1 JUMP JUMPDEST SWAP3 SWAP4 DUP8 PUSH1 0x1 DUP2 SWAP3 DUP8 DUP7 ADD MLOAD DUP2 SSTORE ADD SWAP6 ADD SWAP4 ADD PUSH2 0x25A9 JUMP JUMPDEST DUP4 DUP3 MSTORE DUP6 DUP3 KECCAK256 PUSH1 0x1F DUP5 ADD PUSH1 0x5 SHR DUP2 ADD SWAP2 DUP8 DUP6 LT PUSH2 0x2657 JUMPI JUMPDEST PUSH1 0x1F ADD PUSH1 0x5 SHR ADD SWAP1 JUMPDEST DUP2 DUP2 LT PUSH2 0x264C JUMPI POP PUSH2 0x2539 JUMP JUMPDEST DUP3 DUP2 SSTORE PUSH1 0x1 ADD PUSH2 0x263F JUMP JUMPDEST SWAP1 SWAP2 POP DUP2 SWAP1 PUSH2 0x2636 JUMP JUMPDEST PUSH4 0x4E487B71 PUSH1 0xE0 SHL DUP2 MSTORE PUSH1 0x41 PUSH1 0x4 MSTORE PUSH1 0x24 SWAP1 REVERT JUMPDEST PUSH1 0xB SLOAD PUSH1 0x1 PUSH1 0x1 PUSH1 0xA0 SHL SUB AND CALLER SUB PUSH2 0x2689 JUMPI JUMP JUMPDEST PUSH1 0x40 MLOAD PUSH4 0x118CDAA7 PUSH1 0xE0 SHL DUP2 MSTORE CALLER PUSH1 0x4 DUP3 ADD MSTORE PUSH1 0x24 SWAP1 REVERT JUMPDEST SWAP3 SWAP4 DUP3 EXTCODESIZE PUSH2 0x26B0 JUMPI POP POP POP POP POP JUMP JUMPDEST PUSH2 0x26F4 SWAP1 PUSH1 0x1 DUP1 PUSH1 0xA0 SHL SUB DUP1 SWAP5 AND SWAP6 PUSH1 0x40 MLOAD SWAP5 DUP6 SWAP5 DUP2 PUSH4 0xA85BD01 PUSH1 0xE1 SHL SWAP9 DUP10 DUP9 MSTORE AND PUSH1 0x4 DUP8 ADD MSTORE AND PUSH1 0x24 DUP6 ADD MSTORE PUSH1 0x44 DUP5 ADD MSTORE PUSH1 0x80 PUSH1 0x64 DUP5 ADD MSTORE PUSH1 0x84 DUP4 ADD SWAP1 PUSH2 0x1D2F JUMP JUMPDEST SUB SWAP1 PUSH1 0x20 DUP2 PUSH1 0x0 SWAP4 DUP2 DUP6 DUP9 GAS CALL SWAP1 DUP3 SWAP1 DUP3 PUSH2 0x2774 JUMPI JUMPDEST POP POP PUSH2 0x2742 JUMPI DUP3 PUSH2 0x2719 PUSH2 0x2316 JUMP JUMPDEST DUP1 MLOAD SWAP2 SWAP1 DUP3 PUSH2 0x273B JUMPI PUSH1 0x40 MLOAD PUSH4 0x32505749 PUSH1 0xE1 SHL DUP2 MSTORE PUSH1 0x4 DUP2 ADD DUP4 SWAP1 MSTORE PUSH1 0x24 SWAP1 REVERT JUMPDEST SWAP1 POP PUSH1 0x20 ADD REVERT JUMPDEST PUSH1 0x1 PUSH1 0x1 PUSH1 0xE0 SHL SUB NOT AND SUB PUSH2 0x275C JUMPI POP CODESIZE DUP1 DUP1 DUP1 DUP1 PUSH2 0x23BF JUMP JUMPDEST PUSH1 0x24 SWAP1 PUSH1 0x40 MLOAD SWAP1 PUSH4 0x32505749 PUSH1 0xE1 SHL DUP3 MSTORE PUSH1 0x4 DUP3 ADD MSTORE REVERT JUMPDEST SWAP1 SWAP2 SWAP3 POP PUSH1 0x20 DUP2 RETURNDATASIZE PUSH1 0x20 GT PUSH2 0x27B5 JUMPI JUMPDEST DUP2 PUSH2 0x2791 PUSH1 0x20 SWAP4 DUP4 PUSH2 0x1DB7 JUMP JUMPDEST DUP2 ADD SUB SLT PUSH2 0x24C4 JUMPI MLOAD SWAP1 PUSH1 0x1 PUSH1 0x1 PUSH1 0xE0 SHL SUB NOT DUP3 AND DUP3 SUB PUSH2 0x24C1 JUMPI POP SWAP1 CODESIZE DUP1 PUSH2 0x270A JUMP JUMPDEST RETURNDATASIZE SWAP2 POP PUSH2 0x2784 JUMP JUMPDEST PUSH1 0x0 DUP3 DUP2 MSTORE PUSH1 0x2 PUSH1 0x20 SWAP1 DUP2 MSTORE PUSH1 0x40 DUP1 DUP4 KECCAK256 SLOAD PUSH1 0x1 PUSH1 0x1 PUSH1 0xA0 SHL SUB SWAP1 DUP2 AND SWAP6 SWAP3 SWAP5 SWAP2 SWAP3 SWAP2 DUP7 ISZERO SWAP2 DUP3 ISZERO PUSH2 0x2A0F JUMPI JUMPDEST DUP2 AND SWAP2 DUP3 ISZERO SWAP1 DUP2 ISZERO PUSH2 0x29F9 JUMPI JUMPDEST DUP5 DUP8 MSTORE PUSH1 0x2 DUP9 MSTORE DUP6 DUP8 KECCAK256 DUP1 SLOAD PUSH1 0x1 PUSH1 0x1 PUSH1 0xA0 SHL SUB NOT AND DUP6 OR SWAP1 SSTORE DUP5 DUP5 DUP11 PUSH32 0xDDF252AD1BE2C89B69C2B068FC378DAA952BA7F163C4A11628F55A4DF523B3EF DUP11 DUP1 LOG4 ISZERO PUSH2 0x298D JUMPI PUSH1 0x9 SLOAD DUP5 DUP8 MSTORE PUSH1 0xA DUP9 MSTORE DUP1 DUP7 DUP9 KECCAK256 SSTORE PUSH1 0x1 PUSH1 0x40 SHL DUP2 LT ISZERO PUSH2 0x2979 JUMPI DUP5 PUSH2 0x203B DUP3 PUSH1 0x1 PUSH2 0x286C SWAP5 ADD PUSH1 0x9 SSTORE PUSH2 0x22A6 JUMP JUMPDEST ISZERO PUSH2 0x2910 JUMPI POP POP PUSH1 0x9 SLOAD PUSH1 0x0 NOT SWAP5 DUP6 DUP3 ADD SWAP2 DUP3 GT PUSH2 0x28FC JUMPI SWAP1 PUSH1 0xA DUP4 SWAP3 DUP7 SWAP6 SWAP5 DUP7 MSTORE DUP2 DUP2 MSTORE PUSH2 0x289E DUP6 DUP8 KECCAK256 SLOAD SWAP4 PUSH2 0x22A6 JUMP JUMPDEST SWAP1 SLOAD SWAP1 PUSH1 0x3 SHL SHR PUSH2 0x28B2 DUP2 PUSH2 0x203B DUP7 PUSH2 0x22A6 JUMP JUMPDEST DUP7 MSTORE MSTORE DUP3 DUP5 KECCAK256 SSTORE DUP3 MSTORE DUP2 KECCAK256 SSTORE PUSH1 0x9 SLOAD SWAP1 DUP2 ISZERO PUSH2 0x28E8 JUMPI POP DUP2 ADD SWAP1 PUSH2 0x28D5 DUP3 PUSH2 0x22A6 JUMP JUMPDEST SWAP1 SWAP2 DUP3 SLOAD SWAP2 PUSH1 0x3 SHL SHL NOT AND SWAP1 SSTORE PUSH1 0x9 SSTORE SWAP1 JUMP JUMPDEST PUSH4 0x4E487B71 PUSH1 0xE0 SHL DUP2 MSTORE PUSH1 0x31 PUSH1 0x4 MSTORE PUSH1 0x24 SWAP1 REVERT JUMPDEST PUSH4 0x4E487B71 PUSH1 0xE0 SHL DUP6 MSTORE PUSH1 0x11 PUSH1 0x4 MSTORE PUSH1 0x24 DUP6 REVERT JUMPDEST DUP2 DUP8 SWAP7 SWAP4 SWAP3 SWAP7 SWAP6 SWAP5 SWAP6 SUB PUSH2 0x2928 JUMPI JUMPDEST POP POP POP POP POP POP SWAP1 JUMP JUMPDEST PUSH2 0x2931 SWAP1 PUSH2 0x22DD JUMP JUMPDEST PUSH1 0x0 NOT DUP2 ADD SWAP6 SWAP1 DUP7 GT PUSH2 0x2965 JUMPI DUP4 MSTORE PUSH1 0x7 DUP3 MSTORE DUP4 DUP4 KECCAK256 DUP6 DUP5 MSTORE DUP3 MSTORE DUP4 DUP4 KECCAK256 DUP2 SWAP1 SSTORE DUP3 MSTORE PUSH1 0x8 SWAP1 MSTORE KECCAK256 SSTORE CODESIZE DUP1 DUP1 DUP1 DUP1 DUP1 PUSH2 0x291F JUMP JUMPDEST PUSH4 0x4E487B71 PUSH1 0xE0 SHL DUP5 MSTORE PUSH1 0x11 PUSH1 0x4 MSTORE PUSH1 0x24 DUP5 REVERT JUMPDEST PUSH4 0x4E487B71 PUSH1 0xE0 SHL DUP8 MSTORE PUSH1 0x41 PUSH1 0x4 MSTORE PUSH1 0x24 DUP8 REVERT JUMPDEST DUP8 DUP4 EQ PUSH2 0x286C JUMPI PUSH2 0x299D DUP9 PUSH2 0x22DD JUMP JUMPDEST DUP5 DUP8 MSTORE PUSH1 0x8 DUP9 MSTORE DUP6 DUP8 KECCAK256 SLOAD SWAP1 DUP10 DUP9 MSTORE PUSH1 0x7 DUP10 MSTORE DUP7 DUP9 KECCAK256 SWAP2 DUP2 DUP2 SUB PUSH2 0x29D7 JUMPI JUMPDEST POP DUP6 DUP9 MSTORE PUSH1 0x8 DUP10 MSTORE DUP8 DUP8 DUP2 KECCAK256 SSTORE DUP8 MSTORE DUP8 MSTORE DUP6 DUP6 DUP2 KECCAK256 SSTORE PUSH2 0x286C JUMP JUMPDEST DUP2 DUP10 MSTORE DUP3 DUP11 MSTORE DUP8 DUP10 KECCAK256 SLOAD DUP2 DUP11 MSTORE DUP1 DUP10 DUP12 KECCAK256 SSTORE DUP10 MSTORE PUSH1 0x8 DUP11 MSTORE DUP8 DUP10 KECCAK256 SSTORE CODESIZE PUSH2 0x29BC JUMP JUMPDEST DUP4 DUP8 MSTORE PUSH1 0x3 DUP9 MSTORE DUP6 DUP8 KECCAK256 PUSH1 0x1 DUP2 SLOAD ADD SWAP1 SSTORE PUSH2 0x27F7 JUMP JUMPDEST PUSH1 0x0 DUP5 DUP2 MSTORE PUSH1 0x4 PUSH1 0x20 MSTORE PUSH1 0x40 SWAP1 KECCAK256 DUP1 SLOAD PUSH1 0x1 PUSH1 0x1 PUSH1 0xA0 SHL SUB NOT AND SWAP1 SSTORE DUP8 DUP7 MSTORE PUSH1 0x3 DUP8 MSTORE DUP5 DUP7 KECCAK256 DUP1 SLOAD PUSH1 0x0 NOT ADD SWAP1 SSTORE PUSH2 0x27EA JUMP INVALID LOG2 PUSH5 0x6970667358 0x22 SLT KECCAK256 SWAP8 0xBA LT SWAP7 MUL PUSH31 0x5DAC6D8484F997A284AFE758792B1D75EB454E7696A9A8433D6C64736F6C63 NUMBER STOP ADDMOD XOR STOP CALLER "},"methodIdentifiers":{"addAuthorizedMinter(address)":"5f710f5c","approve(address,uint256)":"095ea7b3","authorizedMinters(address)":"aa2fe91b","balanceOf(address)":"70a08231","ccipMessageToTokenId(bytes32)":"88fe0395","emergencyWithdraw()":"db2e21bc","getApproved(uint256)":"081812fc","getCrossChainInfo(uint256)":"118b47e5","getCurrentTokenCounter()":"1f7f31a4","getPropertyData(uint256)":"bb632ab8","getTokenIdByProperty(string)":"de050c4b","getTokensByOwner(address)":"40398d67","isApprovedForAll(address,address)":"e985e9c5","mintAirRightsNFT(address,string,uint256,uint256,uint256,string)":"0c9b6f8b","mintCrossChainNFT(address,string,uint256,uint256,uint256,string,uint64,bytes32)":"f069f7f0","name()":"06fdde03","owner()":"8da5cb5b","ownerOf(uint256)":"6352211e","platformFeePercent()":"8c639a85","propertyExists(string)":"287283f1","propertyToTokenId(string)":"de92c926","purchaseWithNativeToken(uint256)":"fb66f25a","removeAuthorizedMinter(address)":"475ae039","renounceOwnership()":"715018a6","safeTransferFrom(address,address,uint256)":"42842e0e","safeTransferFrom(address,address,uint256,bytes)":"b88d4fde","setApprovalForAll(address,bool)":"a22cb465","setPlatformFeePercent(uint256)":"cab230d2","setTreasury(address)":"f0f44260","supportsInterface(bytes4)":"01ffc9a7","symbol()":"95d89b41","tokenByIndex(uint256)":"4f6ccce7","tokenIdToProperty(uint256)":"e674a851","tokenOfOwnerByIndex(address,uint256)":"2f745c59","tokenURI(uint256)":"c87b56dd","totalPaymentsReceived(uint256)":"9972c820","totalSupply()":"18160ddd","transferFrom(address,address,uint256)":"23b872dd","transferOwnership(address)":"f2fde38b","treasury()":"61d027b3","updatePropertyPrice(uint256,uint256)":"fce401b2"}}}}}