{"src/contracts/ZkSyncETHTransfer.sol":{"ZkSyncETHTransfer":{"abi":[{"anonymous":false,"inputs":[{"indexed":true,"internalType":"address","name":"from","type":"address"},{"indexed":true,"internalType":"address","name":"to","type":"address"},{"indexed":false,"internalType":"uint256","name":"amount","type":"uint256"}],"name":"ETHTransferred","type":"event"},{"inputs":[],"name":"RECIPIENT","outputs":[{"internalType":"address","name":"","type":"address"}],"stateMutability":"view","type":"function"},{"inputs":[],"name":"TRANSFER_AMOUNT","outputs":[{"internalType":"uint256","name":"","type":"uint256"}],"stateMutability":"view","type":"function"},{"inputs":[],"name":"checkTransactionStatus","outputs":[{"internalType":"bool","name":"status","type":"bool"}],"stateMutability":"pure","type":"function"},{"inputs":[],"name":"transferETH","outputs":[{"internalType":"bool","name":"success","type":"bool"}],"stateMutability":"payable","type":"function"}],"evm":{"bytecode":{"linkReferences":{},"object":"60808060405234610016576102ce908161001c8239f35b600080fdfe60806040818152600436101561001457600080fd5b600091823560e01c9081630d4142281461021c575080630d9019e1146101ee57806375b3d573146101ce5763e28d717b1461004e57600080fd5b816003193601126101ca57655af3107a40009182341061018e5773ba23cfbaa92b5cc853cb57e1521aa99ee9b117b9908080808087865af161008e610237565b501561015557655af3107a3fff19340134811161014157806100e1575b505060209282519081527f8dec4e7cfc87eced5c05eafa206697292193ede25a52287bf5fc6cbb0fd84cfa843392a35160018152f35b81808092335af16100f0610237565b50156100fd5738806100ab565b815162461bcd60e51b815260206004820152601b60248201527f4661696c656420746f20726566756e64206578636573732045544800000000006044820152606490fd5b634e487b7160e01b82526011600452602482fd5b825162461bcd60e51b815260206004820152601260248201527108cc2d2d8cac840e8de40e6cadcc8408aa8960731b6044820152606490fd5b815162461bcd60e51b8152602060048201526015602482015274125b9cdd59999a58da595b9d08115512081cd95b9d605a1b6044820152606490fd5b5080fd5b50346101ca57816003193601126101ca5760209051655af3107a40008152f35b50346101ca57816003193601126101ca576020905173ba23cfbaa92b5cc853cb57e1521aa99ee9b117b98152f35b8390346101ca57816003193601126101ca5780600160209252f35b3d156102935767ffffffffffffffff903d82811161027d5760405192601f8201601f19908116603f011684019081118482101761027d5760405282523d6000602084013e565b634e487b7160e01b600052604160045260246000fd5b60609056fea26469706673582212208d1b3097181673fada01dc2e8920753340597d59ba31a7fe8b135037ed8f7db264736f6c63430008180033","opcodes":"PUSH1 0x80 DUP1 PUSH1 0x40 MSTORE CALLVALUE PUSH2 0x16 JUMPI PUSH2 0x2CE SWAP1 DUP2 PUSH2 0x1C DUP3 CODECOPY RETURN JUMPDEST PUSH1 0x0 DUP1 REVERT INVALID PUSH1 0x80 PUSH1 0x40 DUP2 DUP2 MSTORE PUSH1 0x4 CALLDATASIZE LT ISZERO PUSH2 0x14 JUMPI PUSH1 0x0 DUP1 REVERT JUMPDEST PUSH1 0x0 SWAP2 DUP3 CALLDATALOAD PUSH1 0xE0 SHR SWAP1 DUP2 PUSH4 0xD414228 EQ PUSH2 0x21C JUMPI POP DUP1 PUSH4 0xD9019E1 EQ PUSH2 0x1EE JUMPI DUP1 PUSH4 0x75B3D573 EQ PUSH2 0x1CE JUMPI PUSH4 0xE28D717B EQ PUSH2 0x4E JUMPI PUSH1 0x0 DUP1 REVERT JUMPDEST DUP2 PUSH1 0x3 NOT CALLDATASIZE ADD SLT PUSH2 0x1CA JUMPI PUSH6 0x5AF3107A4000 SWAP2 DUP3 CALLVALUE LT PUSH2 0x18E JUMPI PUSH20 0xBA23CFBAA92B5CC853CB57E1521AA99EE9B117B9 SWAP1 DUP1 DUP1 DUP1 DUP1 DUP8 DUP7 GAS CALL PUSH2 0x8E PUSH2 0x237 JUMP JUMPDEST POP ISZERO PUSH2 0x155 JUMPI PUSH6 0x5AF3107A3FFF NOT CALLVALUE ADD CALLVALUE DUP2 GT PUSH2 0x141 JUMPI DUP1 PUSH2 0xE1 JUMPI JUMPDEST POP POP PUSH1 0x20 SWAP3 DUP3 MLOAD SWAP1 DUP2 MSTORE PUSH32 0x8DEC4E7CFC87ECED5C05EAFA206697292193EDE25A52287BF5FC6CBB0FD84CFA DUP5 CALLER SWAP3 LOG3 MLOAD PUSH1 0x1 DUP2 MSTORE RETURN JUMPDEST DUP2 DUP1 DUP1 SWAP3 CALLER GAS CALL PUSH2 0xF0 PUSH2 0x237 JUMP JUMPDEST POP ISZERO PUSH2 0xFD JUMPI CODESIZE DUP1 PUSH2 0xAB JUMP JUMPDEST DUP2 MLOAD PUSH3 0x461BCD PUSH1 0xE5 SHL DUP2 MSTORE PUSH1 0x20 PUSH1 0x4 DUP3 ADD MSTORE PUSH1 0x1B PUSH1 0x24 DUP3 ADD MSTORE PUSH32 0x4661696C656420746F20726566756E6420657863657373204554480000000000 PUSH1 0x44 DUP3 ADD MSTORE PUSH1 0x64 SWAP1 REVERT JUMPDEST PUSH4 0x4E487B71 PUSH1 0xE0 SHL DUP3 MSTORE PUSH1 0x11 PUSH1 0x4 MSTORE PUSH1 0x24 DUP3 REVERT JUMPDEST DUP3 MLOAD PUSH3 0x461BCD PUSH1 0xE5 SHL DUP2 MSTORE PUSH1 0x20 PUSH1 0x4 DUP3 ADD MSTORE PUSH1 0x12 PUSH1 0x24 DUP3 ADD MSTORE PUSH18 0x8CC2D2D8CAC840E8DE40E6CADCC8408AA89 PUSH1 0x73 SHL PUSH1 0x44 DUP3 ADD MSTORE PUSH1 0x64 SWAP1 REVERT JUMPDEST DUP2 MLOAD PUSH3 0x461BCD PUSH1 0xE5 SHL DUP2 MSTORE PUSH1 0x20 PUSH1 0x4 DUP3 ADD MSTORE PUSH1 0x15 PUSH1 0x24 DUP3 ADD MSTORE PUSH21 0x125B9CDD59999A58DA595B9D08115512081CD95B9D PUSH1 0x5A SHL PUSH1 0x44 DUP3 ADD MSTORE PUSH1 0x64 SWAP1 REVERT JUMPDEST POP DUP1 REVERT JUMPDEST POP CALLVALUE PUSH2 0x1CA JUMPI DUP2 PUSH1 0x3 NOT CALLDATASIZE ADD SLT PUSH2 0x1CA JUMPI PUSH1 0x20 SWAP1 MLOAD PUSH6 0x5AF3107A4000 DUP2 MSTORE RETURN JUMPDEST POP CALLVALUE PUSH2 0x1CA JUMPI DUP2 PUSH1 0x3 NOT CALLDATASIZE ADD SLT PUSH2 0x1CA JUMPI PUSH1 0x20 SWAP1 MLOAD PUSH20 0xBA23CFBAA92B5CC853CB57E1521AA99EE9B117B9 DUP2 MSTORE RETURN JUMPDEST DUP4 SWAP1 CALLVALUE PUSH2 0x1CA JUMPI DUP2 PUSH1 0x3 NOT CALLDATASIZE ADD SLT PUSH2 0x1CA JUMPI DUP1 PUSH1 0x1 PUSH1 0x20 SWAP3 MSTORE RETURN JUMPDEST RETURNDATASIZE ISZERO PUSH2 0x293 JUMPI PUSH8 0xFFFFFFFFFFFFFFFF SWAP1 RETURNDATASIZE DUP3 DUP2 GT PUSH2 0x27D JUMPI PUSH1 0x40 MLOAD SWAP3 PUSH1 0x1F DUP3 ADD PUSH1 0x1F NOT SWAP1 DUP2 AND PUSH1 0x3F ADD AND DUP5 ADD SWAP1 DUP2 GT DUP5 DUP3 LT OR PUSH2 0x27D JUMPI PUSH1 0x40 MSTORE DUP3 MSTORE RETURNDATASIZE PUSH1 0x0 PUSH1 0x20 DUP5 ADD RETURNDATACOPY JUMP JUMPDEST PUSH4 0x4E487B71 PUSH1 0xE0 SHL PUSH1 0x0 MSTORE PUSH1 0x41 PUSH1 0x4 MSTORE PUSH1 0x24 PUSH1 0x0 REVERT JUMPDEST PUSH1 0x60 SWAP1 JUMP INVALID LOG2 PUSH5 0x6970667358 0x22 SLT KECCAK256 DUP14 SHL ADDRESS SWAP8 XOR AND PUSH20 0xFADA01DC2E8920753340597D59BA31A7FE8B1350 CALLDATACOPY 0xED DUP16 PUSH30 0xB264736F6C63430008180033000000000000000000000000000000000000 "},"methodIdentifiers":{"RECIPIENT()":"0d9019e1","TRANSFER_AMOUNT()":"75b3d573","checkTransactionStatus()":"0d414228","transferETH()":"e28d717b"}}}}}