{"src/contracts/AirSpaceCCIPSender.sol":{"AirSpaceCCIPSender":{"abi":[{"inputs":[{"internalType":"address","name":"_router","type":"address"},{"internalType":"address","name":"_link","type":"address"}],"stateMutability":"nonpayable","type":"constructor"},{"inputs":[{"internalType":"uint64","name":"destinationChainSelector","type":"uint64"}],"name":"InvalidDestinationChain","type":"error"},{"inputs":[{"internalType":"address","name":"nftContract","type":"address"}],"name":"InvalidNFTContract","type":"error"},{"inputs":[{"internalType":"address","name":"caller","type":"address"},{"internalType":"address","name":"owner","type":"address"}],"name":"InvalidNFTOwner","type":"error"},{"inputs":[{"internalType":"uint256","name":"currentBalance","type":"uint256"},{"internalType":"uint256","name":"calculatedFees","type":"uint256"}],"name":"NotEnoughBalance","type":"error"},{"anonymous":false,"inputs":[{"indexed":true,"internalType":"bytes32","name":"messageId","type":"bytes32"},{"indexed":true,"internalType":"uint64","name":"sourceChainSelector","type":"uint64"},{"indexed":true,"internalType":"address","name":"sender","type":"address"},{"indexed":false,"internalType":"address","name":"paymentToken","type":"address"},{"indexed":false,"internalType":"uint256","name":"amount","type":"uint256"},{"indexed":false,"internalType":"uint256","name":"nftTokenId","type":"uint256"}],"name":"CrossChainPaymentReceived","type":"event"},{"anonymous":false,"inputs":[{"indexed":true,"internalType":"bytes32","name":"messageId","type":"bytes32"},{"indexed":true,"internalType":"uint64","name":"destinationChainSelector","type":"uint64"},{"indexed":true,"internalType":"address","name":"receiver","type":"address"},{"indexed":false,"internalType":"address","name":"nftContract","type":"address"},{"indexed":false,"internalType":"uint256","name":"tokenId","type":"uint256"},{"indexed":false,"internalType":"address","name":"originalOwner","type":"address"},{"indexed":false,"internalType":"string","name":"propertyAddress","type":"string"},{"indexed":false,"internalType":"address","name":"feeToken","type":"address"},{"indexed":false,"internalType":"uint256","name":"fees","type":"uint256"}],"name":"NFTDataSent","type":"event"},{"anonymous":false,"inputs":[{"indexed":true,"internalType":"address","name":"from","type":"address"},{"indexed":true,"internalType":"address","name":"to","type":"address"}],"name":"OwnershipTransferRequested","type":"event"},{"anonymous":false,"inputs":[{"indexed":true,"internalType":"address","name":"from","type":"address"},{"indexed":true,"internalType":"address","name":"to","type":"address"}],"name":"OwnershipTransferred","type":"event"},{"stateMutability":"payable","type":"fallback"},{"inputs":[],"name":"acceptOwnership","outputs":[],"stateMutability":"nonpayable","type":"function"},{"inputs":[{"internalType":"uint64","name":"destinationChainSelector","type":"uint64"}],"name":"addSupportedChain","outputs":[],"stateMutability":"nonpayable","type":"function"},{"inputs":[{"internalType":"address","name":"nftContract","type":"address"}],"name":"addSupportedNFTContract","outputs":[],"stateMutability":"nonpayable","type":"function"},{"inputs":[{"internalType":"uint64","name":"destinationChainSelector","type":"uint64"},{"components":[{"internalType":"address","name":"nftContract","type":"address"},{"internalType":"uint256","name":"tokenId","type":"uint256"},{"internalType":"address","name":"originalOwner","type":"address"},{"internalType":"string","name":"propertyAddress","type":"string"},{"internalType":"uint256","name":"currentHeight","type":"uint256"},{"internalType":"uint256","name":"maximumHeight","type":"uint256"},{"internalType":"uint256","name":"availableFloors","type":"uint256"},{"internalType":"uint256","name":"price","type":"uint256"},{"internalType":"string","name":"metadataURI","type":"string"}],"internalType":"struct AirSpaceCCIPSender.NFTData","name":"nftData","type":"tuple"}],"name":"getFee","outputs":[{"internalType":"uint256","name":"fee","type":"uint256"}],"stateMutability":"view","type":"function"},{"inputs":[{"internalType":"bytes32","name":"messageId","type":"bytes32"}],"name":"getPendingTransfer","outputs":[{"components":[{"internalType":"address","name":"nftContract","type":"address"},{"internalType":"uint256","name":"tokenId","type":"uint256"},{"internalType":"address","name":"originalOwner","type":"address"},{"internalType":"string","name":"propertyAddress","type":"string"},{"internalType":"uint256","name":"currentHeight","type":"uint256"},{"internalType":"uint256","name":"maximumHeight","type":"uint256"},{"internalType":"uint256","name":"availableFloors","type":"uint256"},{"internalType":"uint256","name":"price","type":"uint256"},{"internalType":"string","name":"metadataURI","type":"string"}],"internalType":"struct AirSpaceCCIPSender.NFTData","name":"nftData","type":"tuple"}],"stateMutability":"view","type":"function"},{"inputs":[{"internalType":"uint64","name":"destinationChainSelector","type":"uint64"}],"name":"isChainSupported","outputs":[{"internalType":"bool","name":"supported","type":"bool"}],"stateMutability":"view","type":"function"},{"inputs":[{"internalType":"address","name":"nftContract","type":"address"}],"name":"isNFTContractSupported","outputs":[{"internalType":"bool","name":"supported","type":"bool"}],"stateMutability":"view","type":"function"},{"inputs":[{"internalType":"uint256","name":"","type":"uint256"}],"name":"nftPrices","outputs":[{"internalType":"uint256","name":"","type":"uint256"}],"stateMutability":"view","type":"function"},{"inputs":[],"name":"owner","outputs":[{"internalType":"address","name":"","type":"address"}],"stateMutability":"view","type":"function"},{"inputs":[{"internalType":"bytes32","name":"","type":"bytes32"}],"name":"pendingNFTTransfers","outputs":[{"internalType":"address","name":"nftContract","type":"address"},{"internalType":"uint256","name":"tokenId","type":"uint256"},{"internalType":"address","name":"originalOwner","type":"address"},{"internalType":"string","name":"propertyAddress","type":"string"},{"internalType":"uint256","name":"currentHeight","type":"uint256"},{"internalType":"uint256","name":"maximumHeight","type":"uint256"},{"internalType":"uint256","name":"availableFloors","type":"uint256"},{"internalType":"uint256","name":"price","type":"uint256"},{"internalType":"string","name":"metadataURI","type":"string"}],"stateMutability":"view","type":"function"},{"inputs":[{"internalType":"uint64","name":"destinationChainSelector","type":"uint64"}],"name":"removeSupportedChain","outputs":[],"stateMutability":"nonpayable","type":"function"},{"inputs":[{"internalType":"address","name":"nftContract","type":"address"}],"name":"removeSupportedNFTContract","outputs":[],"stateMutability":"nonpayable","type":"function"},{"inputs":[{"internalType":"uint64","name":"destinationChainSelector","type":"uint64"},{"internalType":"address","name":"receiver","type":"address"},{"components":[{"internalType":"address","name":"nftContract","type":"address"},{"internalType":"uint256","name":"tokenId","type":"uint256"},{"internalType":"address","name":"originalOwner","type":"address"},{"internalType":"string","name":"propertyAddress","type":"string"},{"internalType":"uint256","name":"currentHeight","type":"uint256"},{"internalType":"uint256","name":"maximumHeight","type":"uint256"},{"internalType":"uint256","name":"availableFloors","type":"uint256"},{"internalType":"uint256","name":"price","type":"uint256"},{"internalType":"string","name":"metadataURI","type":"string"}],"internalType":"struct AirSpaceCCIPSender.NFTData","name":"nftData","type":"tuple"}],"name":"sendNFTData","outputs":[{"internalType":"bytes32","name":"messageId","type":"bytes32"}],"stateMutability":"nonpayable","type":"function"},{"inputs":[{"internalType":"uint64","name":"destinationChainSelector","type":"uint64"},{"internalType":"address","name":"receiver","type":"address"},{"components":[{"internalType":"address","name":"nftContract","type":"address"},{"internalType":"uint256","name":"tokenId","type":"uint256"},{"internalType":"address","name":"originalOwner","type":"address"},{"internalType":"string","name":"propertyAddress","type":"string"},{"internalType":"uint256","name":"currentHeight","type":"uint256"},{"internalType":"uint256","name":"maximumHeight","type":"uint256"},{"internalType":"uint256","name":"availableFloors","type":"uint256"},{"internalType":"uint256","name":"price","type":"uint256"},{"internalType":"string","name":"metadataURI","type":"string"}],"internalType":"struct AirSpaceCCIPSender.NFTData","name":"nftData","type":"tuple"},{"internalType":"address","name":"paymentToken","type":"address"},{"internalType":"uint256","name":"paymentAmount","type":"uint256"}],"name":"sendNFTDataWithPayment","outputs":[{"internalType":"bytes32","name":"messageId","type":"bytes32"}],"stateMutability":"payable","type":"function"},{"inputs":[{"internalType":"uint256","name":"tokenId","type":"uint256"},{"internalType":"uint256","name":"priceInWei","type":"uint256"}],"name":"setNFTPrice","outputs":[],"stateMutability":"nonpayable","type":"function"},{"inputs":[{"internalType":"uint64","name":"","type":"uint64"}],"name":"supportedDestinationChains","outputs":[{"internalType":"bool","name":"","type":"bool"}],"stateMutability":"view","type":"function"},{"inputs":[{"internalType":"address","name":"","type":"address"}],"name":"supportedNFTContracts","outputs":[{"internalType":"bool","name":"","type":"bool"}],"stateMutability":"view","type":"function"},{"inputs":[{"internalType":"address","name":"to","type":"address"}],"name":"transferOwnership","outputs":[],"stateMutability":"nonpayable","type":"function"},{"inputs":[{"internalType":"address","name":"to","type":"address"},{"internalType":"uint256","name":"amount","type":"uint256"}],"name":"withdrawLink","outputs":[],"stateMutability":"nonpayable","type":"function"},{"inputs":[{"internalType":"address payable","name":"to","type":"address"},{"internalType":"uint256","name":"amount","type":"uint256"}],"name":"withdrawNative","outputs":[],"stateMutability":"nonpayable","type":"function"},{"inputs":[{"internalType":"address","name":"token","type":"address"},{"internalType":"address","name":"to","type":"address"},{"internalType":"uint256","name":"amount","type":"uint256"}],"name":"withdrawToken","outputs":[],"stateMutability":"nonpayable","type":"function"},{"stateMutability":"payable","type":"receive"}],"evm":{"bytecode":{"linkReferences":{},"object":"6080346200011e57620020af90601f38839003908101601f19168201906001600160401b038211838310176200012357808391604095869485528339810103126200011e576200005d6020620000558362000139565b920162000139565b903315620000da5760018060a01b031990600092338385541617845560018060a01b038092168360025416176002551690600354161760035567de41ba4fc9d91ad9815260046020526001828083209260ff1993838582541617905567ccf0a31a221f3c9b8152209182541617905551611f6090816200014f8239f35b825162461bcd60e51b815260206004820152601860248201527f43616e6e6f7420736574206f776e657220746f207a65726f00000000000000006044820152606490fd5b600080fd5b634e487b7160e01b600052604160045260246000fd5b51906001600160a01b03821682036200011e5756fe60806040526004361015610018575b361561001657005b005b60003560e01c806301e336671461193557806305a2730a146117d057806307b18bde1461177f5780633380a2f414610c1b5780633c1d31d6146116215780634d9fb4f6146115df5780634ec99ba71461145a57806354b7faae1461155457806366c8dbb314611499578063730a28f41461145a57806379ba5097146113b15780638c27f0d814610c835780638da5cb5b14610c5a578063a48a905814610c1b578063a80a57ff14610bd6578063d365c7c614610b94578063d9f10a2b14610b68578063e740655814610b36578063f2fde38b14610a7e578063f702146a1461014e5763fb5c33120361000e5734610149576020366003190112610149576001600160401b036101256119f2565b61012d611e76565b166000908152600460205260409020805460ff19166001179055005b600080fd5b60a0366003190112610149576101626119f2565b61016a6119c8565b906044356001600160401b0381116101495761018a903690600401611ad1565b60643591906001600160a01b0383168303610149576001600160401b038216600052600460205260ff6040600020541615610a5d576001600160a01b0383166109175760843534106108d2576101de611d20565b925b6102a960018060a01b0383511660208401519261027a60018060a01b0360408701511660608701519060808801519160a089015160c08a01519061025260e08c0151936101008d0151956040519c8d9b60208d015260408c015260608b015261018060808b01526101a08a0190611b7f565b9460a089015260c088015260e0870152610100860152601f1985830301610120860152611b7f565b336101408401526001600160a01b0390911661016083015260843561018083015203601f198101835282611a5a565b6040516001600160a01b0386166020808301919091528152936102cb85611a08565b6102ec6040516102da81611a08565b620927c0815260016020820152611ec8565b9060018060a01b0360035416926040519661030688611a23565b875260208701526040860152816060860152608085015260018060a01b036002541690604051916320487ded60e01b835260208380610349898960048401611d43565b0381845afa9283156107b45760009361089e575b506040516370a0823160e01b8152306004820152602081602481865afa9081156107b45760009161086c575b5083116107ed5760405163095ea7b360e01b81526001600160a01b039190911660048201526024810183905290602090829060449082906000905af180156107b457600095602092610408926107c0575b506002546040516396f4e9f960e01b81529788936001600160a01b0390921692849283918a60048401611d43565b03925af19384156107b457600094610780575b50836000526006602052604060002060018060a01b038351166001600160601b0360a01b908183541617825560208401516001830155600282019060018060a01b036040860151169082541617905560608301518051906001600160401b03821161069a57819061048f6003850154611bbf565b601f811161072d575b50602090601f83116001146106bb576000926106b0575b50508160011b916000199060031b1c19161760038201555b6080830151600482015560a0830151600582015560c0830151600682015560e083015160078201556101008301518051906001600160401b03821161069a576105136008840154611bbf565b601f8111610653575b5091869391602098938990601f83116001146105c557926008836105af946001600160401b039794600080516020611f0b83398151915299976000926105ba575b50508160011b916000199060031b1c1916179101555b86518a8801516040808a01516060909a015160035491516001600160a01b039788169c9098169a88979283169491939083169290911687611e12565b0390a4604051908152f35b015190508e8061055d565b90600884016000528a6000209160005b601f198516811061063957506001846001600160401b039794600080516020611f0b8339815191529997946008946105af98601f19811610610620575b505050811b01910155610573565b015160001960f88460031b161c191690558e8080610612565b8183015184558b9850600190930192918c01918c016105d5565b600884016000526020600020601f840160051c810160208510610693575b601f830160051c8201811061068757505061051c565b60008155600101610671565b5080610671565b634e487b7160e01b600052604160045260246000fd5b0151905088806104af565b9250600384016000526020600020906000935b601f1984168510610712576001945083601f198116106106f9575b505050811b0160038201556104c7565b015160001960f88460031b161c191690558880806106e9565b818101518355602094850194600190930192909101906106ce565b909150600384016000526020600020601f840160051c810160208510610779575b90849392915b601f830160051c8201811061076a575050610498565b60008155859450600101610754565b508061074e565b9093506020813d6020116107ac575b8161079c60209383611a5a565b810103126101495751928561041b565b3d915061078f565b6040513d6000823e3d90fd5b6107df90843d86116107e6575b6107d78183611a5a565b810190611c9e565b50886103da565b503d6107cd565b6040516370a0823160e01b815230600482015283602082602481875afa9081156107b457600091610837575b6044925060405191634787a10360e11b835260048301526024820152fd5b90506020823d602011610864575b8161085260209383611a5a565b81010312610149576044915190610819565b3d9150610845565b90506020813d602011610896575b8161088760209383611a5a565b81010312610149575188610389565b3d915061087a565b9092506020813d6020116108ca575b816108ba60209383611a5a565b810103126101495751918761035d565b3d91506108ad565b60405162461bcd60e51b815260206004820152601e60248201527f496e73756666696369656e74206e617469766520746f6b656e2073656e7400006044820152606490fd5b6040519261092484611a08565b6001845260005b60208110610a3857506109678460405161094481611a08565b6001600160a01b0384168152608435602082015261096182611e53565b52611e53565b506040516323b872dd60e01b8152336004820152306024820152608435604482015260208160648160006001600160a01b0387165af180156107b457610a19575b5060025460405163095ea7b360e01b81526001600160a01b03909116600482015260843560248201526020818060448101038160006001600160a01b0387165af180156107b4576109fa575b506101e0565b610a129060203d6020116107e6576107d78183611a5a565b50856109f4565b610a319060203d6020116107e6576107d78183611a5a565b50856109a8565b602090604051610a4781611a08565b600081526000838201528282880101520161092b565b60405163b70edb6160e01b81526001600160401b0383166004820152602490fd5b3461014957602036600319011261014957610a976119b2565b610a9f611e76565b6001600160a01b0390811690338214610af157816001600160601b0360a01b6001541617600155600054167fed8889f560326eb138920d842192f0eb3dd22b4f139c87a2c57538e05bae1278600080a3005b60405162461bcd60e51b815260206004820152601760248201527f43616e6e6f74207472616e7366657220746f2073656c660000000000000000006044820152606490fd5b3461014957604036600319011261014957610b4f611e76565b6004356000526007602052602435604060002055600080f35b346101495760203660031901126101495760043560005260076020526020604060002054604051908152f35b3461014957602036600319011261014957610bad6119b2565b610bb5611e76565b6001600160a01b03166000908152600560205260409020805460ff19169055005b3461014957602036600319011261014957610bef6119b2565b610bf7611e76565b6001600160a01b03166000908152600560205260409020805460ff19166001179055005b34610149576020366003190112610149576001600160401b03610c3c6119f2565b166000526004602052602060ff604060002054166040519015158152f35b34610149576000366003190112610149576000546040516001600160a01b039091168152602090f35b3461014957606036600319011261014957610c9c6119f2565b610ca46119c8565b906044356001600160401b03811161014957610cc4903690600401611ad1565b906001600160401b038116600052600460205260ff604060002054161561138f5781516001600160a01b031660009081526005602052604090205460ff161561136b5781516020808401516040516331a9108f60e11b8152600481019190915291829060249082906001600160a01b03165afa9081156107b457600091611329575b506001600160a01b03163381141580611312575b6112f4575060018060a01b0382511691610dc46020820151610db660018060a01b03604085015116956060850151608086015160a087015160c08801519060e0890151926101008a0151946040519c8d99339860208c01611cb6565b03601f198101855284611a5a565b6040516001600160a01b038516602080830191909152815292610de684611a08565b610dee611d20565b610e0f604051610dfd81611a08565b6207a120815260016020820152611ec8565b9060018060a01b03600354169260405196610e2988611a23565b875260208701526040860152816060860152608085015260018060a01b036002541690604051916320487ded60e01b835260208380610e6c898960048401611d43565b0381845afa9283156107b4576000936112c0575b506040516370a0823160e01b8152306004820152602081602481865afa9081156107b45760009161128e575b5083116107ed5760405163095ea7b360e01b81526001600160a01b039190911660048201526024810183905290602090829060449082906000905af180156107b457600095602092610f2a926107c057506002546040516396f4e9f960e01b81529788936001600160a01b0390921692849283918a60048401611d43565b03925af19384156107b45760009461125a575b50836000526006602052604060002060018060a01b038351166001600160601b0360a01b908183541617825560208401516001830155600282019060018060a01b036040860151169082541617905560608301518051906001600160401b03821161069a578190610fb16003850154611bbf565b601f8111611207575b50602090601f83116001146111955760009261118a575b50508160011b916000199060031b1c19161760038201555b6080830151600482015560a0830151600582015560c0830151600682015560e083015160078201556101008301518051906001600160401b03821161069a576110356008840154611bbf565b601f8111611143575b5091869391602098938990601f83116001146110cf57926008836105af946001600160401b039794600080516020611f0b83398151915299976000926105ba5750508160011b916000199060031b1c19161791015586518a8801516040808a01516060909a015160035491516001600160a01b039788169c9098169a88979283169491939083169290911687611e12565b90600884016000528a6000209160005b601f198516811061112957506001846001600160401b039794600080516020611f0b8339815191529997946008946105af98601f1981161061062057505050811b01910155610573565b8183015184558b9850600190930192918c01918c016110df565b600884016000526020600020601f840160051c810160208510611183575b601f830160051c8201811061117757505061103e565b60008155600101611161565b5080611161565b015190508880610fd1565b9250600384016000526020600020906000935b601f19841685106111ec576001945083601f198116106111d3575b505050811b016003820155610fe9565b015160001960f88460031b161c191690558880806111c3565b818101518355602094850194600190930192909101906111a8565b909150600384016000526020600020601f840160051c810160208510611253575b90849392915b601f830160051c82018110611244575050610fba565b6000815585945060010161122e565b5080611228565b9093506020813d602011611286575b8161127660209383611a5a565b8101031261014957519285610f3d565b3d9150611269565b90506020813d6020116112b8575b816112a960209383611a5a565b81010312610149575188610eac565b3d915061129c565b9092506020813d6020116112ec575b816112dc60209383611a5a565b8101031261014957519187610e80565b3d91506112cf565b604490604051906362bac6ef60e01b82523360048301526024820152fd5b5060408301516001600160a01b0316811415610d5a565b90506020813d602011611363575b8161134460209383611a5a565b8101031261014957516001600160a01b03811681036101495784610d46565b3d9150611337565b815160405163071463f960e01b81526001600160a01b039091166004820152602490fd5b60405163b70edb6160e01b81526001600160401b039091166004820152602490fd5b34610149576000366003190112610149576001546001600160a01b03808216330361141c57600054916001600160601b0360a01b903382851617600055166001553391167f8be0079c531659141344cd1fd0a4f28419497f9722a3daafe3b4186f6b6457e0600080a3005b60405162461bcd60e51b815260206004820152601660248201527526bab9ba10313290383937b837b9b2b21037bbb732b960511b6044820152606490fd5b34610149576020366003190112610149576001600160a01b0361147b6119b2565b166000526005602052602060ff604060002054166040519015158152f35b34610149576020366003190112610149576004356000526006602052604060002060018060a01b036115508183541692600181015492600282015416936114e260038301611bf9565b91600481015492600582015461152d600684015492611508600860078701549601611bf9565b956040519a8b9a610120928c5260208c015260408b01528060608b0152890190611b7f565b94608088015260a087015260c086015260e0850152838203610100850152611b7f565b0390f35b3461014957604036600319011261014957600060206115b76115746119b2565b61157c611e76565b60035460405163a9059cbb60e01b81526001600160a01b03928316600482015260248035908201529485939190921691839182906044820190565b03925af180156107b4576115c757005b6100169060203d6020116107e6576107d78183611a5a565b34610149576020366003190112610149576001600160401b036116006119f2565b611608611e76565b166000908152600460205260409020805460ff19169055005b3461014957602080600319360112610149576040519061164082611a3e565b600082526000818301526000604083015260608083015260006080830152600060a0830152600060c0830152600060e0830152606061010080930152600435600052600681526115506040600020926040519361169c85611a3e565b60018060a01b0391828254168652600182015490858701918252868460028501541693604082019485526116d260038201611bf9565b606083019081526004820154966080840197885260058301549660a08501978852611717600860068601549560c0880196875260e06007820154980197885201611bf9565b96868d019788528b836040519e8f9e8f525116908d01525160408c0152511660608a01525194611755610120968760808c01526101408b0190611b7f565b965160a08a01525160c08901525160e088015251908601525190601f198584030190850152611b7f565b34610149576040366003190112610149576004356001600160a01b0381169081900361014957600080808093602435906117b7611e76565b8282156117c7575bf1156107b457005b506108fc6117bf565b34610149576040366003190112610149576117e96119f2565b6024356001600160401b038111610149576118639161180f6118ec923690600401611ad1565b60018060a01b039182825116926020958694610db686808701519685604082015116906060810151608082015160a08301519060c08401519261010060e0860151950151956040519d8e9a33998c01611cb6565b6040519260008585015284845261187984611a08565b611881611d20565b906118a260405161189181611a08565b6207a1208152600188820152611ec8565b91836003541691604051966118b688611a23565b87528787015260408601526060850152608084015260025416906040518095819482936320487ded60e01b845260048401611d43565b03915afa9081156107b457600091611908575b50604051908152f35b90508181813d831161192e575b61191f8183611a5a565b810103126101495751826118ff565b503d611915565b3461014957606036600319011261014957600060206119996119556119b2565b61195d6119c8565b611965611e76565b60405163a9059cbb60e01b81526001600160a01b039091166004820152604480356024830152909485938492839190820190565b03926001600160a01b03165af180156107b4576115c757005b600435906001600160a01b038216820361014957565b602435906001600160a01b038216820361014957565b35906001600160a01b038216820361014957565b600435906001600160401b038216820361014957565b604081019081106001600160401b0382111761069a57604052565b60a081019081106001600160401b0382111761069a57604052565b61012081019081106001600160401b0382111761069a57604052565b90601f801991011681019081106001600160401b0382111761069a57604052565b81601f82011215610149578035906001600160401b03821161069a5760405192611aaf601f8401601f191660200185611a5a565b8284526020838301011161014957816000926020809301838601378301015290565b9190610120838203126101495760405190611aeb82611a3e565b8193611af6816119de565b835260208101356020840152611b0e604082016119de565b60408401526001600160401b039160608201358381116101495781611b34918401611a7b565b60608501526080820135608085015260a082013560a085015260c082013560c085015260e082013560e0850152610100928383013590811161014957611b7a9201611a7b565b910152565b919082519283825260005b848110611bab575050826000602080949584010152601f8019910116010190565b602081830181015184830182015201611b8a565b90600182811c92168015611bef575b6020831014611bd957565b634e487b7160e01b600052602260045260246000fd5b91607f1691611bce565b90604051918260008254611c0c81611bbf565b90818452602094600191600181169081600014611c7c5750600114611c3d575b505050611c3b92500383611a5a565b565b600090815285812095935091905b818310611c64575050611c3b9350820101388080611c2c565b85548884018501529485019487945091830191611c4b565b92505050611c3b94925060ff191682840152151560051b820101388080611c2c565b90816020910312610149575180151581036101495790565b9893611cf6908a9893611d1998936101209b969e9d9e61014092602060018060a01b039d8e809516815201521660408d01528060608d01528b0190611b7f565b9460808a015260a089015260c088015260e0870152858203610100870152611b7f565b9416910152565b604051602081018181106001600160401b0382111761069a576040526000815290565b909291926001600160401b03604091168252602091604083820152611d74855160a0604084015260e0830190611b7f565b91611d908487015193603f199485858303016060860152611b7f565b604087015194848483030160808501528080875193848152019601926000905b838210611de957505050505060c06080611de6959660018060a01b0360608201511660a085015201519282850301910152611b7f565b90565b845180516001600160a01b03168952830151888401529687019693820193600190910190611db0565b9293611e489160a09598979698600180881b0394858093168752602087015216604085015260c0606085015260c0840190611b7f565b951660808201520152565b805115611e605760200190565b634e487b7160e01b600052603260045260246000fd5b6000546001600160a01b03163303611e8a57565b60405162461bcd60e51b815260206004820152601660248201527527b7363c9031b0b63630b1363290313c9037bbb732b960511b6044820152606490fd5b602060405191630181dcf160e41b828401528051602484015201511515604482015260448152608081018181106001600160401b0382111761069a576040529056fe711051a1045106448ca14e0beffa136ead2a5654e5c5159a956799daea8793eca26469706673582212200bfc0f05d60e8dc792373f9a3b54bfceb423ba7c577ea6f66d1347ed30de796164736f6c63430008180033","opcodes":"PUSH1 0x80 CALLVALUE PUSH3 0x11E JUMPI PUSH3 0x20AF SWAP1 PUSH1 0x1F CODESIZE DUP4 SWAP1 SUB SWAP1 DUP2 ADD PUSH1 0x1F NOT AND DUP3 ADD SWAP1 PUSH1 0x1 PUSH1 0x1 PUSH1 0x40 SHL SUB DUP3 GT DUP4 DUP4 LT OR PUSH3 0x123 JUMPI DUP1 DUP4 SWAP2 PUSH1 0x40 SWAP6 DUP7 SWAP5 DUP6 MSTORE DUP4 CODECOPY DUP2 ADD SUB SLT PUSH3 0x11E JUMPI PUSH3 0x5D PUSH1 0x20 PUSH3 0x55 DUP4 PUSH3 0x139 JUMP JUMPDEST SWAP3 ADD PUSH3 0x139 JUMP JUMPDEST SWAP1 CALLER ISZERO PUSH3 0xDA JUMPI PUSH1 0x1 DUP1 PUSH1 0xA0 SHL SUB NOT SWAP1 PUSH1 0x0 SWAP3 CALLER DUP4 DUP6 SLOAD AND OR DUP5 SSTORE PUSH1 0x1 DUP1 PUSH1 0xA0 SHL SUB DUP1 SWAP3 AND DUP4 PUSH1 0x2 SLOAD AND OR PUSH1 0x2 SSTORE AND SWAP1 PUSH1 0x3 SLOAD AND OR PUSH1 0x3 SSTORE PUSH8 0xDE41BA4FC9D91AD9 DUP2 MSTORE PUSH1 0x4 PUSH1 0x20 MSTORE PUSH1 0x1 DUP3 DUP1 DUP4 KECCAK256 SWAP3 PUSH1 0xFF NOT SWAP4 DUP4 DUP6 DUP3 SLOAD AND OR SWAP1 SSTORE PUSH8 0xCCF0A31A221F3C9B DUP2 MSTORE KECCAK256 SWAP2 DUP3 SLOAD AND OR SWAP1 SSTORE MLOAD PUSH2 0x1F60 SWAP1 DUP2 PUSH3 0x14F DUP3 CODECOPY RETURN JUMPDEST DUP3 MLOAD PUSH3 0x461BCD PUSH1 0xE5 SHL DUP2 MSTORE PUSH1 0x20 PUSH1 0x4 DUP3 ADD MSTORE PUSH1 0x18 PUSH1 0x24 DUP3 ADD MSTORE PUSH32 0x43616E6E6F7420736574206F776E657220746F207A65726F0000000000000000 PUSH1 0x44 DUP3 ADD MSTORE PUSH1 0x64 SWAP1 REVERT JUMPDEST PUSH1 0x0 DUP1 REVERT JUMPDEST PUSH4 0x4E487B71 PUSH1 0xE0 SHL PUSH1 0x0 MSTORE PUSH1 0x41 PUSH1 0x4 MSTORE PUSH1 0x24 PUSH1 0x0 REVERT JUMPDEST MLOAD SWAP1 PUSH1 0x1 PUSH1 0x1 PUSH1 0xA0 SHL SUB DUP3 AND DUP3 SUB PUSH3 0x11E JUMPI JUMP INVALID PUSH1 0x80 PUSH1 0x40 MSTORE PUSH1 0x4 CALLDATASIZE LT ISZERO PUSH2 0x18 JUMPI JUMPDEST CALLDATASIZE ISZERO PUSH2 0x16 JUMPI STOP JUMPDEST STOP JUMPDEST PUSH1 0x0 CALLDATALOAD PUSH1 0xE0 SHR DUP1 PUSH4 0x1E33667 EQ PUSH2 0x1935 JUMPI DUP1 PUSH4 0x5A2730A EQ PUSH2 0x17D0 JUMPI DUP1 PUSH4 0x7B18BDE EQ PUSH2 0x177F JUMPI DUP1 PUSH4 0x3380A2F4 EQ PUSH2 0xC1B JUMPI DUP1 PUSH4 0x3C1D31D6 EQ PUSH2 0x1621 JUMPI DUP1 PUSH4 0x4D9FB4F6 EQ PUSH2 0x15DF JUMPI DUP1 PUSH4 0x4EC99BA7 EQ PUSH2 0x145A JUMPI DUP1 PUSH4 0x54B7FAAE EQ PUSH2 0x1554 JUMPI DUP1 PUSH4 0x66C8DBB3 EQ PUSH2 0x1499 JUMPI DUP1 PUSH4 0x730A28F4 EQ PUSH2 0x145A JUMPI DUP1 PUSH4 0x79BA5097 EQ PUSH2 0x13B1 JUMPI DUP1 PUSH4 0x8C27F0D8 EQ PUSH2 0xC83 JUMPI DUP1 PUSH4 0x8DA5CB5B EQ PUSH2 0xC5A JUMPI DUP1 PUSH4 0xA48A9058 EQ PUSH2 0xC1B JUMPI DUP1 PUSH4 0xA80A57FF EQ PUSH2 0xBD6 JUMPI DUP1 PUSH4 0xD365C7C6 EQ PUSH2 0xB94 JUMPI DUP1 PUSH4 0xD9F10A2B EQ PUSH2 0xB68 JUMPI DUP1 PUSH4 0xE7406558 EQ PUSH2 0xB36 JUMPI DUP1 PUSH4 0xF2FDE38B EQ PUSH2 0xA7E JUMPI DUP1 PUSH4 0xF702146A EQ PUSH2 0x14E JUMPI PUSH4 0xFB5C3312 SUB PUSH2 0xE JUMPI CALLVALUE PUSH2 0x149 JUMPI PUSH1 0x20 CALLDATASIZE PUSH1 0x3 NOT ADD SLT PUSH2 0x149 JUMPI PUSH1 0x1 PUSH1 0x1 PUSH1 0x40 SHL SUB PUSH2 0x125 PUSH2 0x19F2 JUMP JUMPDEST PUSH2 0x12D PUSH2 0x1E76 JUMP JUMPDEST AND PUSH1 0x0 SWAP1 DUP2 MSTORE PUSH1 0x4 PUSH1 0x20 MSTORE PUSH1 0x40 SWAP1 KECCAK256 DUP1 SLOAD PUSH1 0xFF NOT AND PUSH1 0x1 OR SWAP1 SSTORE STOP JUMPDEST PUSH1 0x0 DUP1 REVERT JUMPDEST PUSH1 0xA0 CALLDATASIZE PUSH1 0x3 NOT ADD SLT PUSH2 0x149 JUMPI PUSH2 0x162 PUSH2 0x19F2 JUMP JUMPDEST PUSH2 0x16A PUSH2 0x19C8 JUMP JUMPDEST SWAP1 PUSH1 0x44 CALLDATALOAD PUSH1 0x1 PUSH1 0x1 PUSH1 0x40 SHL SUB DUP2 GT PUSH2 0x149 JUMPI PUSH2 0x18A SWAP1 CALLDATASIZE SWAP1 PUSH1 0x4 ADD PUSH2 0x1AD1 JUMP JUMPDEST PUSH1 0x64 CALLDATALOAD SWAP2 SWAP1 PUSH1 0x1 PUSH1 0x1 PUSH1 0xA0 SHL SUB DUP4 AND DUP4 SUB PUSH2 0x149 JUMPI PUSH1 0x1 PUSH1 0x1 PUSH1 0x40 SHL SUB DUP3 AND PUSH1 0x0 MSTORE PUSH1 0x4 PUSH1 0x20 MSTORE PUSH1 0xFF PUSH1 0x40 PUSH1 0x0 KECCAK256 SLOAD AND ISZERO PUSH2 0xA5D JUMPI PUSH1 0x1 PUSH1 0x1 PUSH1 0xA0 SHL SUB DUP4 AND PUSH2 0x917 JUMPI PUSH1 0x84 CALLDATALOAD CALLVALUE LT PUSH2 0x8D2 JUMPI PUSH2 0x1DE PUSH2 0x1D20 JUMP JUMPDEST SWAP3 JUMPDEST PUSH2 0x2A9 PUSH1 0x1 DUP1 PUSH1 0xA0 SHL SUB DUP4 MLOAD AND PUSH1 0x20 DUP5 ADD MLOAD SWAP3 PUSH2 0x27A PUSH1 0x1 DUP1 PUSH1 0xA0 SHL SUB PUSH1 0x40 DUP8 ADD MLOAD AND PUSH1 0x60 DUP8 ADD MLOAD SWAP1 PUSH1 0x80 DUP9 ADD MLOAD SWAP2 PUSH1 0xA0 DUP10 ADD MLOAD PUSH1 0xC0 DUP11 ADD MLOAD SWAP1 PUSH2 0x252 PUSH1 0xE0 DUP13 ADD MLOAD SWAP4 PUSH2 0x100 DUP14 ADD MLOAD SWAP6 PUSH1 0x40 MLOAD SWAP13 DUP14 SWAP12 PUSH1 0x20 DUP14 ADD MSTORE PUSH1 0x40 DUP13 ADD MSTORE PUSH1 0x60 DUP12 ADD MSTORE PUSH2 0x180 PUSH1 0x80 DUP12 ADD MSTORE PUSH2 0x1A0 DUP11 ADD SWAP1 PUSH2 0x1B7F JUMP JUMPDEST SWAP5 PUSH1 0xA0 DUP10 ADD MSTORE PUSH1 0xC0 DUP9 ADD MSTORE PUSH1 0xE0 DUP8 ADD MSTORE PUSH2 0x100 DUP7 ADD MSTORE PUSH1 0x1F NOT DUP6 DUP4 SUB ADD PUSH2 0x120 DUP7 ADD MSTORE PUSH2 0x1B7F JUMP JUMPDEST CALLER PUSH2 0x140 DUP5 ADD MSTORE PUSH1 0x1 PUSH1 0x1 PUSH1 0xA0 SHL SUB SWAP1 SWAP2 AND PUSH2 0x160 DUP4 ADD MSTORE PUSH1 0x84 CALLDATALOAD PUSH2 0x180 DUP4 ADD MSTORE SUB PUSH1 0x1F NOT DUP2 ADD DUP4 MSTORE DUP3 PUSH2 0x1A5A JUMP JUMPDEST PUSH1 0x40 MLOAD PUSH1 0x1 PUSH1 0x1 PUSH1 0xA0 SHL SUB DUP7 AND PUSH1 0x20 DUP1 DUP4 ADD SWAP2 SWAP1 SWAP2 MSTORE DUP2 MSTORE SWAP4 PUSH2 0x2CB DUP6 PUSH2 0x1A08 JUMP JUMPDEST PUSH2 0x2EC PUSH1 0x40 MLOAD PUSH2 0x2DA DUP2 PUSH2 0x1A08 JUMP JUMPDEST PUSH3 0x927C0 DUP2 MSTORE PUSH1 0x1 PUSH1 0x20 DUP3 ADD MSTORE PUSH2 0x1EC8 JUMP JUMPDEST SWAP1 PUSH1 0x1 DUP1 PUSH1 0xA0 SHL SUB PUSH1 0x3 SLOAD AND SWAP3 PUSH1 0x40 MLOAD SWAP7 PUSH2 0x306 DUP9 PUSH2 0x1A23 JUMP JUMPDEST DUP8 MSTORE PUSH1 0x20 DUP8 ADD MSTORE PUSH1 0x40 DUP7 ADD MSTORE DUP2 PUSH1 0x60 DUP7 ADD MSTORE PUSH1 0x80 DUP6 ADD MSTORE PUSH1 0x1 DUP1 PUSH1 0xA0 SHL SUB PUSH1 0x2 SLOAD AND SWAP1 PUSH1 0x40 MLOAD SWAP2 PUSH4 0x20487DED PUSH1 0xE0 SHL DUP4 MSTORE PUSH1 0x20 DUP4 DUP1 PUSH2 0x349 DUP10 DUP10 PUSH1 0x4 DUP5 ADD PUSH2 0x1D43 JUMP JUMPDEST SUB DUP2 DUP5 GAS STATICCALL SWAP3 DUP4 ISZERO PUSH2 0x7B4 JUMPI PUSH1 0x0 SWAP4 PUSH2 0x89E JUMPI JUMPDEST POP PUSH1 0x40 MLOAD PUSH4 0x70A08231 PUSH1 0xE0 SHL DUP2 MSTORE ADDRESS PUSH1 0x4 DUP3 ADD MSTORE PUSH1 0x20 DUP2 PUSH1 0x24 DUP2 DUP7 GAS STATICCALL SWAP1 DUP2 ISZERO PUSH2 0x7B4 JUMPI PUSH1 0x0 SWAP2 PUSH2 0x86C JUMPI JUMPDEST POP DUP4 GT PUSH2 0x7ED JUMPI PUSH1 0x40 MLOAD PUSH4 0x95EA7B3 PUSH1 0xE0 SHL DUP2 MSTORE PUSH1 0x1 PUSH1 0x1 PUSH1 0xA0 SHL SUB SWAP2 SWAP1 SWAP2 AND PUSH1 0x4 DUP3 ADD MSTORE PUSH1 0x24 DUP2 ADD DUP4 SWAP1 MSTORE SWAP1 PUSH1 0x20 SWAP1 DUP3 SWAP1 PUSH1 0x44 SWAP1 DUP3 SWAP1 PUSH1 0x0 SWAP1 GAS CALL DUP1 ISZERO PUSH2 0x7B4 JUMPI PUSH1 0x0 SWAP6 PUSH1 0x20 SWAP3 PUSH2 0x408 SWAP3 PUSH2 0x7C0 JUMPI JUMPDEST POP PUSH1 0x2 SLOAD PUSH1 0x40 MLOAD PUSH4 0x96F4E9F9 PUSH1 0xE0 SHL DUP2 MSTORE SWAP8 DUP9 SWAP4 PUSH1 0x1 PUSH1 0x1 PUSH1 0xA0 SHL SUB SWAP1 SWAP3 AND SWAP3 DUP5 SWAP3 DUP4 SWAP2 DUP11 PUSH1 0x4 DUP5 ADD PUSH2 0x1D43 JUMP JUMPDEST SUB SWAP3 GAS CALL SWAP4 DUP5 ISZERO PUSH2 0x7B4 JUMPI PUSH1 0x0 SWAP5 PUSH2 0x780 JUMPI JUMPDEST POP DUP4 PUSH1 0x0 MSTORE PUSH1 0x6 PUSH1 0x20 MSTORE PUSH1 0x40 PUSH1 0x0 KECCAK256 PUSH1 0x1 DUP1 PUSH1 0xA0 SHL SUB DUP4 MLOAD AND PUSH1 0x1 PUSH1 0x1 PUSH1 0x60 SHL SUB PUSH1 0xA0 SHL SWAP1 DUP2 DUP4 SLOAD AND OR DUP3 SSTORE PUSH1 0x20 DUP5 ADD MLOAD PUSH1 0x1 DUP4 ADD SSTORE PUSH1 0x2 DUP3 ADD SWAP1 PUSH1 0x1 DUP1 PUSH1 0xA0 SHL SUB PUSH1 0x40 DUP7 ADD MLOAD AND SWAP1 DUP3 SLOAD AND OR SWAP1 SSTORE PUSH1 0x60 DUP4 ADD MLOAD DUP1 MLOAD SWAP1 PUSH1 0x1 PUSH1 0x1 PUSH1 0x40 SHL SUB DUP3 GT PUSH2 0x69A JUMPI DUP2 SWAP1 PUSH2 0x48F PUSH1 0x3 DUP6 ADD SLOAD PUSH2 0x1BBF JUMP JUMPDEST PUSH1 0x1F DUP2 GT PUSH2 0x72D JUMPI JUMPDEST POP PUSH1 0x20 SWAP1 PUSH1 0x1F DUP4 GT PUSH1 0x1 EQ PUSH2 0x6BB JUMPI PUSH1 0x0 SWAP3 PUSH2 0x6B0 JUMPI JUMPDEST POP POP DUP2 PUSH1 0x1 SHL SWAP2 PUSH1 0x0 NOT SWAP1 PUSH1 0x3 SHL SHR NOT AND OR PUSH1 0x3 DUP3 ADD SSTORE JUMPDEST PUSH1 0x80 DUP4 ADD MLOAD PUSH1 0x4 DUP3 ADD SSTORE PUSH1 0xA0 DUP4 ADD MLOAD PUSH1 0x5 DUP3 ADD SSTORE PUSH1 0xC0 DUP4 ADD MLOAD PUSH1 0x6 DUP3 ADD SSTORE PUSH1 0xE0 DUP4 ADD MLOAD PUSH1 0x7 DUP3 ADD SSTORE PUSH2 0x100 DUP4 ADD MLOAD DUP1 MLOAD SWAP1 PUSH1 0x1 PUSH1 0x1 PUSH1 0x40 SHL SUB DUP3 GT PUSH2 0x69A JUMPI PUSH2 0x513 PUSH1 0x8 DUP5 ADD SLOAD PUSH2 0x1BBF JUMP JUMPDEST PUSH1 0x1F DUP2 GT PUSH2 0x653 JUMPI JUMPDEST POP SWAP2 DUP7 SWAP4 SWAP2 PUSH1 0x20 SWAP9 SWAP4 DUP10 SWAP1 PUSH1 0x1F DUP4 GT PUSH1 0x1 EQ PUSH2 0x5C5 JUMPI SWAP3 PUSH1 0x8 DUP4 PUSH2 0x5AF SWAP5 PUSH1 0x1 PUSH1 0x1 PUSH1 0x40 SHL SUB SWAP8 SWAP5 PUSH1 0x0 DUP1 MLOAD PUSH1 0x20 PUSH2 0x1F0B DUP4 CODECOPY DUP2 MLOAD SWAP2 MSTORE SWAP10 SWAP8 PUSH1 0x0 SWAP3 PUSH2 0x5BA JUMPI JUMPDEST POP POP DUP2 PUSH1 0x1 SHL SWAP2 PUSH1 0x0 NOT SWAP1 PUSH1 0x3 SHL SHR NOT AND OR SWAP2 ADD SSTORE JUMPDEST DUP7 MLOAD DUP11 DUP9 ADD MLOAD PUSH1 0x40 DUP1 DUP11 ADD MLOAD PUSH1 0x60 SWAP1 SWAP11 ADD MLOAD PUSH1 0x3 SLOAD SWAP2 MLOAD PUSH1 0x1 PUSH1 0x1 PUSH1 0xA0 SHL SUB SWAP8 DUP9 AND SWAP13 SWAP1 SWAP9 AND SWAP11 DUP9 SWAP8 SWAP3 DUP4 AND SWAP5 SWAP2 SWAP4 SWAP1 DUP4 AND SWAP3 SWAP1 SWAP2 AND DUP8 PUSH2 0x1E12 JUMP JUMPDEST SUB SWAP1 LOG4 PUSH1 0x40 MLOAD SWAP1 DUP2 MSTORE RETURN JUMPDEST ADD MLOAD SWAP1 POP DUP15 DUP1 PUSH2 0x55D JUMP JUMPDEST SWAP1 PUSH1 0x8 DUP5 ADD PUSH1 0x0 MSTORE DUP11 PUSH1 0x0 KECCAK256 SWAP2 PUSH1 0x0 JUMPDEST PUSH1 0x1F NOT DUP6 AND DUP2 LT PUSH2 0x639 JUMPI POP PUSH1 0x1 DUP5 PUSH1 0x1 PUSH1 0x1 PUSH1 0x40 SHL SUB SWAP8 SWAP5 PUSH1 0x0 DUP1 MLOAD PUSH1 0x20 PUSH2 0x1F0B DUP4 CODECOPY DUP2 MLOAD SWAP2 MSTORE SWAP10 SWAP8 SWAP5 PUSH1 0x8 SWAP5 PUSH2 0x5AF SWAP9 PUSH1 0x1F NOT DUP2 AND LT PUSH2 0x620 JUMPI JUMPDEST POP POP POP DUP2 SHL ADD SWAP2 ADD SSTORE PUSH2 0x573 JUMP JUMPDEST ADD MLOAD PUSH1 0x0 NOT PUSH1 0xF8 DUP5 PUSH1 0x3 SHL AND SHR NOT AND SWAP1 SSTORE DUP15 DUP1 DUP1 PUSH2 0x612 JUMP JUMPDEST DUP2 DUP4 ADD MLOAD DUP5 SSTORE DUP12 SWAP9 POP PUSH1 0x1 SWAP1 SWAP4 ADD SWAP3 SWAP2 DUP13 ADD SWAP2 DUP13 ADD PUSH2 0x5D5 JUMP JUMPDEST PUSH1 0x8 DUP5 ADD PUSH1 0x0 MSTORE PUSH1 0x20 PUSH1 0x0 KECCAK256 PUSH1 0x1F DUP5 ADD PUSH1 0x5 SHR DUP2 ADD PUSH1 0x20 DUP6 LT PUSH2 0x693 JUMPI JUMPDEST PUSH1 0x1F DUP4 ADD PUSH1 0x5 SHR DUP3 ADD DUP2 LT PUSH2 0x687 JUMPI POP POP PUSH2 0x51C JUMP JUMPDEST PUSH1 0x0 DUP2 SSTORE PUSH1 0x1 ADD PUSH2 0x671 JUMP JUMPDEST POP DUP1 PUSH2 0x671 JUMP JUMPDEST PUSH4 0x4E487B71 PUSH1 0xE0 SHL PUSH1 0x0 MSTORE PUSH1 0x41 PUSH1 0x4 MSTORE PUSH1 0x24 PUSH1 0x0 REVERT JUMPDEST ADD MLOAD SWAP1 POP DUP9 DUP1 PUSH2 0x4AF JUMP JUMPDEST SWAP3 POP PUSH1 0x3 DUP5 ADD PUSH1 0x0 MSTORE PUSH1 0x20 PUSH1 0x0 KECCAK256 SWAP1 PUSH1 0x0 SWAP4 JUMPDEST PUSH1 0x1F NOT DUP5 AND DUP6 LT PUSH2 0x712 JUMPI PUSH1 0x1 SWAP5 POP DUP4 PUSH1 0x1F NOT DUP2 AND LT PUSH2 0x6F9 JUMPI JUMPDEST POP POP POP DUP2 SHL ADD PUSH1 0x3 DUP3 ADD SSTORE PUSH2 0x4C7 JUMP JUMPDEST ADD MLOAD PUSH1 0x0 NOT PUSH1 0xF8 DUP5 PUSH1 0x3 SHL AND SHR NOT AND SWAP1 SSTORE DUP9 DUP1 DUP1 PUSH2 0x6E9 JUMP JUMPDEST DUP2 DUP2 ADD MLOAD DUP4 SSTORE PUSH1 0x20 SWAP5 DUP6 ADD SWAP5 PUSH1 0x1 SWAP1 SWAP4 ADD SWAP3 SWAP1 SWAP2 ADD SWAP1 PUSH2 0x6CE JUMP JUMPDEST SWAP1 SWAP2 POP PUSH1 0x3 DUP5 ADD PUSH1 0x0 MSTORE PUSH1 0x20 PUSH1 0x0 KECCAK256 PUSH1 0x1F DUP5 ADD PUSH1 0x5 SHR DUP2 ADD PUSH1 0x20 DUP6 LT PUSH2 0x779 JUMPI JUMPDEST SWAP1 DUP5 SWAP4 SWAP3 SWAP2 JUMPDEST PUSH1 0x1F DUP4 ADD PUSH1 0x5 SHR DUP3 ADD DUP2 LT PUSH2 0x76A JUMPI POP POP PUSH2 0x498 JUMP JUMPDEST PUSH1 0x0 DUP2 SSTORE DUP6 SWAP5 POP PUSH1 0x1 ADD PUSH2 0x754 JUMP JUMPDEST POP DUP1 PUSH2 0x74E JUMP JUMPDEST SWAP1 SWAP4 POP PUSH1 0x20 DUP2 RETURNDATASIZE PUSH1 0x20 GT PUSH2 0x7AC JUMPI JUMPDEST DUP2 PUSH2 0x79C PUSH1 0x20 SWAP4 DUP4 PUSH2 0x1A5A JUMP JUMPDEST DUP2 ADD SUB SLT PUSH2 0x149 JUMPI MLOAD SWAP3 DUP6 PUSH2 0x41B JUMP JUMPDEST RETURNDATASIZE SWAP2 POP PUSH2 0x78F JUMP JUMPDEST PUSH1 0x40 MLOAD RETURNDATASIZE PUSH1 0x0 DUP3 RETURNDATACOPY RETURNDATASIZE SWAP1 REVERT JUMPDEST PUSH2 0x7DF SWAP1 DUP5 RETURNDATASIZE DUP7 GT PUSH2 0x7E6 JUMPI JUMPDEST PUSH2 0x7D7 DUP2 DUP4 PUSH2 0x1A5A JUMP JUMPDEST DUP2 ADD SWAP1 PUSH2 0x1C9E JUMP JUMPDEST POP DUP9 PUSH2 0x3DA JUMP JUMPDEST POP RETURNDATASIZE PUSH2 0x7CD JUMP JUMPDEST PUSH1 0x40 MLOAD PUSH4 0x70A08231 PUSH1 0xE0 SHL DUP2 MSTORE ADDRESS PUSH1 0x4 DUP3 ADD MSTORE DUP4 PUSH1 0x20 DUP3 PUSH1 0x24 DUP2 DUP8 GAS STATICCALL SWAP1 DUP2 ISZERO PUSH2 0x7B4 JUMPI PUSH1 0x0 SWAP2 PUSH2 0x837 JUMPI JUMPDEST PUSH1 0x44 SWAP3 POP PUSH1 0x40 MLOAD SWAP2 PUSH4 0x4787A103 PUSH1 0xE1 SHL DUP4 MSTORE PUSH1 0x4 DUP4 ADD MSTORE PUSH1 0x24 DUP3 ADD MSTORE REVERT JUMPDEST SWAP1 POP PUSH1 0x20 DUP3 RETURNDATASIZE PUSH1 0x20 GT PUSH2 0x864 JUMPI JUMPDEST DUP2 PUSH2 0x852 PUSH1 0x20 SWAP4 DUP4 PUSH2 0x1A5A JUMP JUMPDEST DUP2 ADD SUB SLT PUSH2 0x149 JUMPI PUSH1 0x44 SWAP2 MLOAD SWAP1 PUSH2 0x819 JUMP JUMPDEST RETURNDATASIZE SWAP2 POP PUSH2 0x845 JUMP JUMPDEST SWAP1 POP PUSH1 0x20 DUP2 RETURNDATASIZE PUSH1 0x20 GT PUSH2 0x896 JUMPI JUMPDEST DUP2 PUSH2 0x887 PUSH1 0x20 SWAP4 DUP4 PUSH2 0x1A5A JUMP JUMPDEST DUP2 ADD SUB SLT PUSH2 0x149 JUMPI MLOAD DUP9 PUSH2 0x389 JUMP JUMPDEST RETURNDATASIZE SWAP2 POP PUSH2 0x87A JUMP JUMPDEST SWAP1 SWAP3 POP PUSH1 0x20 DUP2 RETURNDATASIZE PUSH1 0x20 GT PUSH2 0x8CA JUMPI JUMPDEST DUP2 PUSH2 0x8BA PUSH1 0x20 SWAP4 DUP4 PUSH2 0x1A5A JUMP JUMPDEST DUP2 ADD SUB SLT PUSH2 0x149 JUMPI MLOAD SWAP2 DUP8 PUSH2 0x35D JUMP JUMPDEST RETURNDATASIZE SWAP2 POP PUSH2 0x8AD JUMP JUMPDEST PUSH1 0x40 MLOAD PUSH3 0x461BCD PUSH1 0xE5 SHL DUP2 MSTORE PUSH1 0x20 PUSH1 0x4 DUP3 ADD MSTORE PUSH1 0x1E PUSH1 0x24 DUP3 ADD MSTORE PUSH32 0x496E73756666696369656E74206E617469766520746F6B656E2073656E740000 PUSH1 0x44 DUP3 ADD MSTORE PUSH1 0x64 SWAP1 REVERT JUMPDEST PUSH1 0x40 MLOAD SWAP3 PUSH2 0x924 DUP5 PUSH2 0x1A08 JUMP JUMPDEST PUSH1 0x1 DUP5 MSTORE PUSH1 0x0 JUMPDEST PUSH1 0x20 DUP2 LT PUSH2 0xA38 JUMPI POP PUSH2 0x967 DUP5 PUSH1 0x40 MLOAD PUSH2 0x944 DUP2 PUSH2 0x1A08 JUMP JUMPDEST PUSH1 0x1 PUSH1 0x1 PUSH1 0xA0 SHL SUB DUP5 AND DUP2 MSTORE PUSH1 0x84 CALLDATALOAD PUSH1 0x20 DUP3 ADD MSTORE PUSH2 0x961 DUP3 PUSH2 0x1E53 JUMP JUMPDEST MSTORE PUSH2 0x1E53 JUMP JUMPDEST POP PUSH1 0x40 MLOAD PUSH4 0x23B872DD PUSH1 0xE0 SHL DUP2 MSTORE CALLER PUSH1 0x4 DUP3 ADD MSTORE ADDRESS PUSH1 0x24 DUP3 ADD MSTORE PUSH1 0x84 CALLDATALOAD PUSH1 0x44 DUP3 ADD MSTORE PUSH1 0x20 DUP2 PUSH1 0x64 DUP2 PUSH1 0x0 PUSH1 0x1 PUSH1 0x1 PUSH1 0xA0 SHL SUB DUP8 AND GAS CALL DUP1 ISZERO PUSH2 0x7B4 JUMPI PUSH2 0xA19 JUMPI JUMPDEST POP PUSH1 0x2 SLOAD PUSH1 0x40 MLOAD PUSH4 0x95EA7B3 PUSH1 0xE0 SHL DUP2 MSTORE PUSH1 0x1 PUSH1 0x1 PUSH1 0xA0 SHL SUB SWAP1 SWAP2 AND PUSH1 0x4 DUP3 ADD MSTORE PUSH1 0x84 CALLDATALOAD PUSH1 0x24 DUP3 ADD MSTORE PUSH1 0x20 DUP2 DUP1 PUSH1 0x44 DUP2 ADD SUB DUP2 PUSH1 0x0 PUSH1 0x1 PUSH1 0x1 PUSH1 0xA0 SHL SUB DUP8 AND GAS CALL DUP1 ISZERO PUSH2 0x7B4 JUMPI PUSH2 0x9FA JUMPI JUMPDEST POP PUSH2 0x1E0 JUMP JUMPDEST PUSH2 0xA12 SWAP1 PUSH1 0x20 RETURNDATASIZE PUSH1 0x20 GT PUSH2 0x7E6 JUMPI PUSH2 0x7D7 DUP2 DUP4 PUSH2 0x1A5A JUMP JUMPDEST POP DUP6 PUSH2 0x9F4 JUMP JUMPDEST PUSH2 0xA31 SWAP1 PUSH1 0x20 RETURNDATASIZE PUSH1 0x20 GT PUSH2 0x7E6 JUMPI PUSH2 0x7D7 DUP2 DUP4 PUSH2 0x1A5A JUMP JUMPDEST POP DUP6 PUSH2 0x9A8 JUMP JUMPDEST PUSH1 0x20 SWAP1 PUSH1 0x40 MLOAD PUSH2 0xA47 DUP2 PUSH2 0x1A08 JUMP JUMPDEST PUSH1 0x0 DUP2 MSTORE PUSH1 0x0 DUP4 DUP3 ADD MSTORE DUP3 DUP3 DUP9 ADD ADD MSTORE ADD PUSH2 0x92B JUMP JUMPDEST PUSH1 0x40 MLOAD PUSH4 0xB70EDB61 PUSH1 0xE0 SHL DUP2 MSTORE PUSH1 0x1 PUSH1 0x1 PUSH1 0x40 SHL SUB DUP4 AND PUSH1 0x4 DUP3 ADD MSTORE PUSH1 0x24 SWAP1 REVERT JUMPDEST CALLVALUE PUSH2 0x149 JUMPI PUSH1 0x20 CALLDATASIZE PUSH1 0x3 NOT ADD SLT PUSH2 0x149 JUMPI PUSH2 0xA97 PUSH2 0x19B2 JUMP JUMPDEST PUSH2 0xA9F PUSH2 0x1E76 JUMP JUMPDEST PUSH1 0x1 PUSH1 0x1 PUSH1 0xA0 SHL SUB SWAP1 DUP2 AND SWAP1 CALLER DUP3 EQ PUSH2 0xAF1 JUMPI DUP2 PUSH1 0x1 PUSH1 0x1 PUSH1 0x60 SHL SUB PUSH1 0xA0 SHL PUSH1 0x1 SLOAD AND OR PUSH1 0x1 SSTORE PUSH1 0x0 SLOAD AND PUSH32 0xED8889F560326EB138920D842192F0EB3DD22B4F139C87A2C57538E05BAE1278 PUSH1 0x0 DUP1 LOG3 STOP JUMPDEST PUSH1 0x40 MLOAD PUSH3 0x461BCD PUSH1 0xE5 SHL DUP2 MSTORE PUSH1 0x20 PUSH1 0x4 DUP3 ADD MSTORE PUSH1 0x17 PUSH1 0x24 DUP3 ADD MSTORE PUSH32 0x43616E6E6F74207472616E7366657220746F2073656C66000000000000000000 PUSH1 0x44 DUP3 ADD MSTORE PUSH1 0x64 SWAP1 REVERT JUMPDEST CALLVALUE PUSH2 0x149 JUMPI PUSH1 0x40 CALLDATASIZE PUSH1 0x3 NOT ADD SLT PUSH2 0x149 JUMPI PUSH2 0xB4F PUSH2 0x1E76 JUMP JUMPDEST PUSH1 0x4 CALLDATALOAD PUSH1 0x0 MSTORE PUSH1 0x7 PUSH1 0x20 MSTORE PUSH1 0x24 CALLDATALOAD PUSH1 0x40 PUSH1 0x0 KECCAK256 SSTORE PUSH1 0x0 DUP1 RETURN JUMPDEST CALLVALUE PUSH2 0x149 JUMPI PUSH1 0x20 CALLDATASIZE PUSH1 0x3 NOT ADD SLT PUSH2 0x149 JUMPI PUSH1 0x4 CALLDATALOAD PUSH1 0x0 MSTORE PUSH1 0x7 PUSH1 0x20 MSTORE PUSH1 0x20 PUSH1 0x40 PUSH1 0x0 KECCAK256 SLOAD PUSH1 0x40 MLOAD SWAP1 DUP2 MSTORE RETURN JUMPDEST CALLVALUE PUSH2 0x149 JUMPI PUSH1 0x20 CALLDATASIZE PUSH1 0x3 NOT ADD SLT PUSH2 0x149 JUMPI PUSH2 0xBAD PUSH2 0x19B2 JUMP JUMPDEST PUSH2 0xBB5 PUSH2 0x1E76 JUMP JUMPDEST PUSH1 0x1 PUSH1 0x1 PUSH1 0xA0 SHL SUB AND PUSH1 0x0 SWAP1 DUP2 MSTORE PUSH1 0x5 PUSH1 0x20 MSTORE PUSH1 0x40 SWAP1 KECCAK256 DUP1 SLOAD PUSH1 0xFF NOT AND SWAP1 SSTORE STOP JUMPDEST CALLVALUE PUSH2 0x149 JUMPI PUSH1 0x20 CALLDATASIZE PUSH1 0x3 NOT ADD SLT PUSH2 0x149 JUMPI PUSH2 0xBEF PUSH2 0x19B2 JUMP JUMPDEST PUSH2 0xBF7 PUSH2 0x1E76 JUMP JUMPDEST PUSH1 0x1 PUSH1 0x1 PUSH1 0xA0 SHL SUB AND PUSH1 0x0 SWAP1 DUP2 MSTORE PUSH1 0x5 PUSH1 0x20 MSTORE PUSH1 0x40 SWAP1 KECCAK256 DUP1 SLOAD PUSH1 0xFF NOT AND PUSH1 0x1 OR SWAP1 SSTORE STOP JUMPDEST CALLVALUE PUSH2 0x149 JUMPI PUSH1 0x20 CALLDATASIZE PUSH1 0x3 NOT ADD SLT PUSH2 0x149 JUMPI PUSH1 0x1 PUSH1 0x1 PUSH1 0x40 SHL SUB PUSH2 0xC3C PUSH2 0x19F2 JUMP JUMPDEST AND PUSH1 0x0 MSTORE PUSH1 0x4 PUSH1 0x20 MSTORE PUSH1 0x20 PUSH1 0xFF PUSH1 0x40 PUSH1 0x0 KECCAK256 SLOAD AND PUSH1 0x40 MLOAD SWAP1 ISZERO ISZERO DUP2 MSTORE RETURN JUMPDEST CALLVALUE PUSH2 0x149 JUMPI PUSH1 0x0 CALLDATASIZE PUSH1 0x3 NOT ADD SLT PUSH2 0x149 JUMPI PUSH1 0x0 SLOAD PUSH1 0x40 MLOAD PUSH1 0x1 PUSH1 0x1 PUSH1 0xA0 SHL SUB SWAP1 SWAP2 AND DUP2 MSTORE PUSH1 0x20 SWAP1 RETURN JUMPDEST CALLVALUE PUSH2 0x149 JUMPI PUSH1 0x60 CALLDATASIZE PUSH1 0x3 NOT ADD SLT PUSH2 0x149 JUMPI PUSH2 0xC9C PUSH2 0x19F2 JUMP JUMPDEST PUSH2 0xCA4 PUSH2 0x19C8 JUMP JUMPDEST SWAP1 PUSH1 0x44 CALLDATALOAD PUSH1 0x1 PUSH1 0x1 PUSH1 0x40 SHL SUB DUP2 GT PUSH2 0x149 JUMPI PUSH2 0xCC4 SWAP1 CALLDATASIZE SWAP1 PUSH1 0x4 ADD PUSH2 0x1AD1 JUMP JUMPDEST SWAP1 PUSH1 0x1 PUSH1 0x1 PUSH1 0x40 SHL SUB DUP2 AND PUSH1 0x0 MSTORE PUSH1 0x4 PUSH1 0x20 MSTORE PUSH1 0xFF PUSH1 0x40 PUSH1 0x0 KECCAK256 SLOAD AND ISZERO PUSH2 0x138F JUMPI DUP2 MLOAD PUSH1 0x1 PUSH1 0x1 PUSH1 0xA0 SHL SUB AND PUSH1 0x0 SWAP1 DUP2 MSTORE PUSH1 0x5 PUSH1 0x20 MSTORE PUSH1 0x40 SWAP1 KECCAK256 SLOAD PUSH1 0xFF AND ISZERO PUSH2 0x136B JUMPI DUP2 MLOAD PUSH1 0x20 DUP1 DUP5 ADD MLOAD PUSH1 0x40 MLOAD PUSH4 0x31A9108F PUSH1 0xE1 SHL DUP2 MSTORE PUSH1 0x4 DUP2 ADD SWAP2 SWAP1 SWAP2 MSTORE SWAP2 DUP3 SWAP1 PUSH1 0x24 SWAP1 DUP3 SWAP1 PUSH1 0x1 PUSH1 0x1 PUSH1 0xA0 SHL SUB AND GAS STATICCALL SWAP1 DUP2 ISZERO PUSH2 0x7B4 JUMPI PUSH1 0x0 SWAP2 PUSH2 0x1329 JUMPI JUMPDEST POP PUSH1 0x1 PUSH1 0x1 PUSH1 0xA0 SHL SUB AND CALLER DUP2 EQ ISZERO DUP1 PUSH2 0x1312 JUMPI JUMPDEST PUSH2 0x12F4 JUMPI POP PUSH1 0x1 DUP1 PUSH1 0xA0 SHL SUB DUP3 MLOAD AND SWAP2 PUSH2 0xDC4 PUSH1 0x20 DUP3 ADD MLOAD PUSH2 0xDB6 PUSH1 0x1 DUP1 PUSH1 0xA0 SHL SUB PUSH1 0x40 DUP6 ADD MLOAD AND SWAP6 PUSH1 0x60 DUP6 ADD MLOAD PUSH1 0x80 DUP7 ADD MLOAD PUSH1 0xA0 DUP8 ADD MLOAD PUSH1 0xC0 DUP9 ADD MLOAD SWAP1 PUSH1 0xE0 DUP10 ADD MLOAD SWAP3 PUSH2 0x100 DUP11 ADD MLOAD SWAP5 PUSH1 0x40 MLOAD SWAP13 DUP14 SWAP10 CALLER SWAP9 PUSH1 0x20 DUP13 ADD PUSH2 0x1CB6 JUMP JUMPDEST SUB PUSH1 0x1F NOT DUP2 ADD DUP6 MSTORE DUP5 PUSH2 0x1A5A JUMP JUMPDEST PUSH1 0x40 MLOAD PUSH1 0x1 PUSH1 0x1 PUSH1 0xA0 SHL SUB DUP6 AND PUSH1 0x20 DUP1 DUP4 ADD SWAP2 SWAP1 SWAP2 MSTORE DUP2 MSTORE SWAP3 PUSH2 0xDE6 DUP5 PUSH2 0x1A08 JUMP JUMPDEST PUSH2 0xDEE PUSH2 0x1D20 JUMP JUMPDEST PUSH2 0xE0F PUSH1 0x40 MLOAD PUSH2 0xDFD DUP2 PUSH2 0x1A08 JUMP JUMPDEST PUSH3 0x7A120 DUP2 MSTORE PUSH1 0x1 PUSH1 0x20 DUP3 ADD MSTORE PUSH2 0x1EC8 JUMP JUMPDEST SWAP1 PUSH1 0x1 DUP1 PUSH1 0xA0 SHL SUB PUSH1 0x3 SLOAD AND SWAP3 PUSH1 0x40 MLOAD SWAP7 PUSH2 0xE29 DUP9 PUSH2 0x1A23 JUMP JUMPDEST DUP8 MSTORE PUSH1 0x20 DUP8 ADD MSTORE PUSH1 0x40 DUP7 ADD MSTORE DUP2 PUSH1 0x60 DUP7 ADD MSTORE PUSH1 0x80 DUP6 ADD MSTORE PUSH1 0x1 DUP1 PUSH1 0xA0 SHL SUB PUSH1 0x2 SLOAD AND SWAP1 PUSH1 0x40 MLOAD SWAP2 PUSH4 0x20487DED PUSH1 0xE0 SHL DUP4 MSTORE PUSH1 0x20 DUP4 DUP1 PUSH2 0xE6C DUP10 DUP10 PUSH1 0x4 DUP5 ADD PUSH2 0x1D43 JUMP JUMPDEST SUB DUP2 DUP5 GAS STATICCALL SWAP3 DUP4 ISZERO PUSH2 0x7B4 JUMPI PUSH1 0x0 SWAP4 PUSH2 0x12C0 JUMPI JUMPDEST POP PUSH1 0x40 MLOAD PUSH4 0x70A08231 PUSH1 0xE0 SHL DUP2 MSTORE ADDRESS PUSH1 0x4 DUP3 ADD MSTORE PUSH1 0x20 DUP2 PUSH1 0x24 DUP2 DUP7 GAS STATICCALL SWAP1 DUP2 ISZERO PUSH2 0x7B4 JUMPI PUSH1 0x0 SWAP2 PUSH2 0x128E JUMPI JUMPDEST POP DUP4 GT PUSH2 0x7ED JUMPI PUSH1 0x40 MLOAD PUSH4 0x95EA7B3 PUSH1 0xE0 SHL DUP2 MSTORE PUSH1 0x1 PUSH1 0x1 PUSH1 0xA0 SHL SUB SWAP2 SWAP1 SWAP2 AND PUSH1 0x4 DUP3 ADD MSTORE PUSH1 0x24 DUP2 ADD DUP4 SWAP1 MSTORE SWAP1 PUSH1 0x20 SWAP1 DUP3 SWAP1 PUSH1 0x44 SWAP1 DUP3 SWAP1 PUSH1 0x0 SWAP1 GAS CALL DUP1 ISZERO PUSH2 0x7B4 JUMPI PUSH1 0x0 SWAP6 PUSH1 0x20 SWAP3 PUSH2 0xF2A SWAP3 PUSH2 0x7C0 JUMPI POP PUSH1 0x2 SLOAD PUSH1 0x40 MLOAD PUSH4 0x96F4E9F9 PUSH1 0xE0 SHL DUP2 MSTORE SWAP8 DUP9 SWAP4 PUSH1 0x1 PUSH1 0x1 PUSH1 0xA0 SHL SUB SWAP1 SWAP3 AND SWAP3 DUP5 SWAP3 DUP4 SWAP2 DUP11 PUSH1 0x4 DUP5 ADD PUSH2 0x1D43 JUMP JUMPDEST SUB SWAP3 GAS CALL SWAP4 DUP5 ISZERO PUSH2 0x7B4 JUMPI PUSH1 0x0 SWAP5 PUSH2 0x125A JUMPI JUMPDEST POP DUP4 PUSH1 0x0 MSTORE PUSH1 0x6 PUSH1 0x20 MSTORE PUSH1 0x40 PUSH1 0x0 KECCAK256 PUSH1 0x1 DUP1 PUSH1 0xA0 SHL SUB DUP4 MLOAD AND PUSH1 0x1 PUSH1 0x1 PUSH1 0x60 SHL SUB PUSH1 0xA0 SHL SWAP1 DUP2 DUP4 SLOAD AND OR DUP3 SSTORE PUSH1 0x20 DUP5 ADD MLOAD PUSH1 0x1 DUP4 ADD SSTORE PUSH1 0x2 DUP3 ADD SWAP1 PUSH1 0x1 DUP1 PUSH1 0xA0 SHL SUB PUSH1 0x40 DUP7 ADD MLOAD AND SWAP1 DUP3 SLOAD AND OR SWAP1 SSTORE PUSH1 0x60 DUP4 ADD MLOAD DUP1 MLOAD SWAP1 PUSH1 0x1 PUSH1 0x1 PUSH1 0x40 SHL SUB DUP3 GT PUSH2 0x69A JUMPI DUP2 SWAP1 PUSH2 0xFB1 PUSH1 0x3 DUP6 ADD SLOAD PUSH2 0x1BBF JUMP JUMPDEST PUSH1 0x1F DUP2 GT PUSH2 0x1207 JUMPI JUMPDEST POP PUSH1 0x20 SWAP1 PUSH1 0x1F DUP4 GT PUSH1 0x1 EQ PUSH2 0x1195 JUMPI PUSH1 0x0 SWAP3 PUSH2 0x118A JUMPI JUMPDEST POP POP DUP2 PUSH1 0x1 SHL SWAP2 PUSH1 0x0 NOT SWAP1 PUSH1 0x3 SHL SHR NOT AND OR PUSH1 0x3 DUP3 ADD SSTORE JUMPDEST PUSH1 0x80 DUP4 ADD MLOAD PUSH1 0x4 DUP3 ADD SSTORE PUSH1 0xA0 DUP4 ADD MLOAD PUSH1 0x5 DUP3 ADD SSTORE PUSH1 0xC0 DUP4 ADD MLOAD PUSH1 0x6 DUP3 ADD SSTORE PUSH1 0xE0 DUP4 ADD MLOAD PUSH1 0x7 DUP3 ADD SSTORE PUSH2 0x100 DUP4 ADD MLOAD DUP1 MLOAD SWAP1 PUSH1 0x1 PUSH1 0x1 PUSH1 0x40 SHL SUB DUP3 GT PUSH2 0x69A JUMPI PUSH2 0x1035 PUSH1 0x8 DUP5 ADD SLOAD PUSH2 0x1BBF JUMP JUMPDEST PUSH1 0x1F DUP2 GT PUSH2 0x1143 JUMPI JUMPDEST POP SWAP2 DUP7 SWAP4 SWAP2 PUSH1 0x20 SWAP9 SWAP4 DUP10 SWAP1 PUSH1 0x1F DUP4 GT PUSH1 0x1 EQ PUSH2 0x10CF JUMPI SWAP3 PUSH1 0x8 DUP4 PUSH2 0x5AF SWAP5 PUSH1 0x1 PUSH1 0x1 PUSH1 0x40 SHL SUB SWAP8 SWAP5 PUSH1 0x0 DUP1 MLOAD PUSH1 0x20 PUSH2 0x1F0B DUP4 CODECOPY DUP2 MLOAD SWAP2 MSTORE SWAP10 SWAP8 PUSH1 0x0 SWAP3 PUSH2 0x5BA JUMPI POP POP DUP2 PUSH1 0x1 SHL SWAP2 PUSH1 0x0 NOT SWAP1 PUSH1 0x3 SHL SHR NOT AND OR SWAP2 ADD SSTORE DUP7 MLOAD DUP11 DUP9 ADD MLOAD PUSH1 0x40 DUP1 DUP11 ADD MLOAD PUSH1 0x60 SWAP1 SWAP11 ADD MLOAD PUSH1 0x3 SLOAD SWAP2 MLOAD PUSH1 0x1 PUSH1 0x1 PUSH1 0xA0 SHL SUB SWAP8 DUP9 AND SWAP13 SWAP1 SWAP9 AND SWAP11 DUP9 SWAP8 SWAP3 DUP4 AND SWAP5 SWAP2 SWAP4 SWAP1 DUP4 AND SWAP3 SWAP1 SWAP2 AND DUP8 PUSH2 0x1E12 JUMP JUMPDEST SWAP1 PUSH1 0x8 DUP5 ADD PUSH1 0x0 MSTORE DUP11 PUSH1 0x0 KECCAK256 SWAP2 PUSH1 0x0 JUMPDEST PUSH1 0x1F NOT DUP6 AND DUP2 LT PUSH2 0x1129 JUMPI POP PUSH1 0x1 DUP5 PUSH1 0x1 PUSH1 0x1 PUSH1 0x40 SHL SUB SWAP8 SWAP5 PUSH1 0x0 DUP1 MLOAD PUSH1 0x20 PUSH2 0x1F0B DUP4 CODECOPY DUP2 MLOAD SWAP2 MSTORE SWAP10 SWAP8 SWAP5 PUSH1 0x8 SWAP5 PUSH2 0x5AF SWAP9 PUSH1 0x1F NOT DUP2 AND LT PUSH2 0x620 JUMPI POP POP POP DUP2 SHL ADD SWAP2 ADD SSTORE PUSH2 0x573 JUMP JUMPDEST DUP2 DUP4 ADD MLOAD DUP5 SSTORE DUP12 SWAP9 POP PUSH1 0x1 SWAP1 SWAP4 ADD SWAP3 SWAP2 DUP13 ADD SWAP2 DUP13 ADD PUSH2 0x10DF JUMP JUMPDEST PUSH1 0x8 DUP5 ADD PUSH1 0x0 MSTORE PUSH1 0x20 PUSH1 0x0 KECCAK256 PUSH1 0x1F DUP5 ADD PUSH1 0x5 SHR DUP2 ADD PUSH1 0x20 DUP6 LT PUSH2 0x1183 JUMPI JUMPDEST PUSH1 0x1F DUP4 ADD PUSH1 0x5 SHR DUP3 ADD DUP2 LT PUSH2 0x1177 JUMPI POP POP PUSH2 0x103E JUMP JUMPDEST PUSH1 0x0 DUP2 SSTORE PUSH1 0x1 ADD PUSH2 0x1161 JUMP JUMPDEST POP DUP1 PUSH2 0x1161 JUMP JUMPDEST ADD MLOAD SWAP1 POP DUP9 DUP1 PUSH2 0xFD1 JUMP JUMPDEST SWAP3 POP PUSH1 0x3 DUP5 ADD PUSH1 0x0 MSTORE PUSH1 0x20 PUSH1 0x0 KECCAK256 SWAP1 PUSH1 0x0 SWAP4 JUMPDEST PUSH1 0x1F NOT DUP5 AND DUP6 LT PUSH2 0x11EC JUMPI PUSH1 0x1 SWAP5 POP DUP4 PUSH1 0x1F NOT DUP2 AND LT PUSH2 0x11D3 JUMPI JUMPDEST POP POP POP DUP2 SHL ADD PUSH1 0x3 DUP3 ADD SSTORE PUSH2 0xFE9 JUMP JUMPDEST ADD MLOAD PUSH1 0x0 NOT PUSH1 0xF8 DUP5 PUSH1 0x3 SHL AND SHR NOT AND SWAP1 SSTORE DUP9 DUP1 DUP1 PUSH2 0x11C3 JUMP JUMPDEST DUP2 DUP2 ADD MLOAD DUP4 SSTORE PUSH1 0x20 SWAP5 DUP6 ADD SWAP5 PUSH1 0x1 SWAP1 SWAP4 ADD SWAP3 SWAP1 SWAP2 ADD SWAP1 PUSH2 0x11A8 JUMP JUMPDEST SWAP1 SWAP2 POP PUSH1 0x3 DUP5 ADD PUSH1 0x0 MSTORE PUSH1 0x20 PUSH1 0x0 KECCAK256 PUSH1 0x1F DUP5 ADD PUSH1 0x5 SHR DUP2 ADD PUSH1 0x20 DUP6 LT PUSH2 0x1253 JUMPI JUMPDEST SWAP1 DUP5 SWAP4 SWAP3 SWAP2 JUMPDEST PUSH1 0x1F DUP4 ADD PUSH1 0x5 SHR DUP3 ADD DUP2 LT PUSH2 0x1244 JUMPI POP POP PUSH2 0xFBA JUMP JUMPDEST PUSH1 0x0 DUP2 SSTORE DUP6 SWAP5 POP PUSH1 0x1 ADD PUSH2 0x122E JUMP JUMPDEST POP DUP1 PUSH2 0x1228 JUMP JUMPDEST SWAP1 SWAP4 POP PUSH1 0x20 DUP2 RETURNDATASIZE PUSH1 0x20 GT PUSH2 0x1286 JUMPI JUMPDEST DUP2 PUSH2 0x1276 PUSH1 0x20 SWAP4 DUP4 PUSH2 0x1A5A JUMP JUMPDEST DUP2 ADD SUB SLT PUSH2 0x149 JUMPI MLOAD SWAP3 DUP6 PUSH2 0xF3D JUMP JUMPDEST RETURNDATASIZE SWAP2 POP PUSH2 0x1269 JUMP JUMPDEST SWAP1 POP PUSH1 0x20 DUP2 RETURNDATASIZE PUSH1 0x20 GT PUSH2 0x12B8 JUMPI JUMPDEST DUP2 PUSH2 0x12A9 PUSH1 0x20 SWAP4 DUP4 PUSH2 0x1A5A JUMP JUMPDEST DUP2 ADD SUB SLT PUSH2 0x149 JUMPI MLOAD DUP9 PUSH2 0xEAC JUMP JUMPDEST RETURNDATASIZE SWAP2 POP PUSH2 0x129C JUMP JUMPDEST SWAP1 SWAP3 POP PUSH1 0x20 DUP2 RETURNDATASIZE PUSH1 0x20 GT PUSH2 0x12EC JUMPI JUMPDEST DUP2 PUSH2 0x12DC PUSH1 0x20 SWAP4 DUP4 PUSH2 0x1A5A JUMP JUMPDEST DUP2 ADD SUB SLT PUSH2 0x149 JUMPI MLOAD SWAP2 DUP8 PUSH2 0xE80 JUMP JUMPDEST RETURNDATASIZE SWAP2 POP PUSH2 0x12CF JUMP JUMPDEST PUSH1 0x44 SWAP1 PUSH1 0x40 MLOAD SWAP1 PUSH4 0x62BAC6EF PUSH1 0xE0 SHL DUP3 MSTORE CALLER PUSH1 0x4 DUP4 ADD MSTORE PUSH1 0x24 DUP3 ADD MSTORE REVERT JUMPDEST POP PUSH1 0x40 DUP4 ADD MLOAD PUSH1 0x1 PUSH1 0x1 PUSH1 0xA0 SHL SUB AND DUP2 EQ ISZERO PUSH2 0xD5A JUMP JUMPDEST SWAP1 POP PUSH1 0x20 DUP2 RETURNDATASIZE PUSH1 0x20 GT PUSH2 0x1363 JUMPI JUMPDEST DUP2 PUSH2 0x1344 PUSH1 0x20 SWAP4 DUP4 PUSH2 0x1A5A JUMP JUMPDEST DUP2 ADD SUB SLT PUSH2 0x149 JUMPI MLOAD PUSH1 0x1 PUSH1 0x1 PUSH1 0xA0 SHL SUB DUP2 AND DUP2 SUB PUSH2 0x149 JUMPI DUP5 PUSH2 0xD46 JUMP JUMPDEST RETURNDATASIZE SWAP2 POP PUSH2 0x1337 JUMP JUMPDEST DUP2 MLOAD PUSH1 0x40 MLOAD PUSH4 0x71463F9 PUSH1 0xE0 SHL DUP2 MSTORE PUSH1 0x1 PUSH1 0x1 PUSH1 0xA0 SHL SUB SWAP1 SWAP2 AND PUSH1 0x4 DUP3 ADD MSTORE PUSH1 0x24 SWAP1 REVERT JUMPDEST PUSH1 0x40 MLOAD PUSH4 0xB70EDB61 PUSH1 0xE0 SHL DUP2 MSTORE PUSH1 0x1 PUSH1 0x1 PUSH1 0x40 SHL SUB SWAP1 SWAP2 AND PUSH1 0x4 DUP3 ADD MSTORE PUSH1 0x24 SWAP1 REVERT JUMPDEST CALLVALUE PUSH2 0x149 JUMPI PUSH1 0x0 CALLDATASIZE PUSH1 0x3 NOT ADD SLT PUSH2 0x149 JUMPI PUSH1 0x1 SLOAD PUSH1 0x1 PUSH1 0x1 PUSH1 0xA0 SHL SUB DUP1 DUP3 AND CALLER SUB PUSH2 0x141C JUMPI PUSH1 0x0 SLOAD SWAP2 PUSH1 0x1 PUSH1 0x1 PUSH1 0x60 SHL SUB PUSH1 0xA0 SHL SWAP1 CALLER DUP3 DUP6 AND OR PUSH1 0x0 SSTORE AND PUSH1 0x1 SSTORE CALLER SWAP2 AND PUSH32 0x8BE0079C531659141344CD1FD0A4F28419497F9722A3DAAFE3B4186F6B6457E0 PUSH1 0x0 DUP1 LOG3 STOP JUMPDEST PUSH1 0x40 MLOAD PUSH3 0x461BCD PUSH1 0xE5 SHL DUP2 MSTORE PUSH1 0x20 PUSH1 0x4 DUP3 ADD MSTORE PUSH1 0x16 PUSH1 0x24 DUP3 ADD MSTORE PUSH22 0x26BAB9BA10313290383937B837B9B2B21037BBB732B9 PUSH1 0x51 SHL PUSH1 0x44 DUP3 ADD MSTORE PUSH1 0x64 SWAP1 REVERT JUMPDEST CALLVALUE PUSH2 0x149 JUMPI PUSH1 0x20 CALLDATASIZE PUSH1 0x3 NOT ADD SLT PUSH2 0x149 JUMPI PUSH1 0x1 PUSH1 0x1 PUSH1 0xA0 SHL SUB PUSH2 0x147B PUSH2 0x19B2 JUMP JUMPDEST AND PUSH1 0x0 MSTORE PUSH1 0x5 PUSH1 0x20 MSTORE PUSH1 0x20 PUSH1 0xFF PUSH1 0x40 PUSH1 0x0 KECCAK256 SLOAD AND PUSH1 0x40 MLOAD SWAP1 ISZERO ISZERO DUP2 MSTORE RETURN JUMPDEST CALLVALUE PUSH2 0x149 JUMPI PUSH1 0x20 CALLDATASIZE PUSH1 0x3 NOT ADD SLT PUSH2 0x149 JUMPI PUSH1 0x4 CALLDATALOAD PUSH1 0x0 MSTORE PUSH1 0x6 PUSH1 0x20 MSTORE PUSH1 0x40 PUSH1 0x0 KECCAK256 PUSH1 0x1 DUP1 PUSH1 0xA0 SHL SUB PUSH2 0x1550 DUP2 DUP4 SLOAD AND SWAP3 PUSH1 0x1 DUP2 ADD SLOAD SWAP3 PUSH1 0x2 DUP3 ADD SLOAD AND SWAP4 PUSH2 0x14E2 PUSH1 0x3 DUP4 ADD PUSH2 0x1BF9 JUMP JUMPDEST SWAP2 PUSH1 0x4 DUP2 ADD SLOAD SWAP3 PUSH1 0x5 DUP3 ADD SLOAD PUSH2 0x152D PUSH1 0x6 DUP5 ADD SLOAD SWAP3 PUSH2 0x1508 PUSH1 0x8 PUSH1 0x7 DUP8 ADD SLOAD SWAP7 ADD PUSH2 0x1BF9 JUMP JUMPDEST SWAP6 PUSH1 0x40 MLOAD SWAP11 DUP12 SWAP11 PUSH2 0x120 SWAP3 DUP13 MSTORE PUSH1 0x20 DUP13 ADD MSTORE PUSH1 0x40 DUP12 ADD MSTORE DUP1 PUSH1 0x60 DUP12 ADD MSTORE DUP10 ADD SWAP1 PUSH2 0x1B7F JUMP JUMPDEST SWAP5 PUSH1 0x80 DUP9 ADD MSTORE PUSH1 0xA0 DUP8 ADD MSTORE PUSH1 0xC0 DUP7 ADD MSTORE PUSH1 0xE0 DUP6 ADD MSTORE DUP4 DUP3 SUB PUSH2 0x100 DUP6 ADD MSTORE PUSH2 0x1B7F JUMP JUMPDEST SUB SWAP1 RETURN JUMPDEST CALLVALUE PUSH2 0x149 JUMPI PUSH1 0x40 CALLDATASIZE PUSH1 0x3 NOT ADD SLT PUSH2 0x149 JUMPI PUSH1 0x0 PUSH1 0x20 PUSH2 0x15B7 PUSH2 0x1574 PUSH2 0x19B2 JUMP JUMPDEST PUSH2 0x157C PUSH2 0x1E76 JUMP JUMPDEST PUSH1 0x3 SLOAD PUSH1 0x40 MLOAD PUSH4 0xA9059CBB PUSH1 0xE0 SHL DUP2 MSTORE PUSH1 0x1 PUSH1 0x1 PUSH1 0xA0 SHL SUB SWAP3 DUP4 AND PUSH1 0x4 DUP3 ADD MSTORE PUSH1 0x24 DUP1 CALLDATALOAD SWAP1 DUP3 ADD MSTORE SWAP5 DUP6 SWAP4 SWAP2 SWAP1 SWAP3 AND SWAP2 DUP4 SWAP2 DUP3 SWAP1 PUSH1 0x44 DUP3 ADD SWAP1 JUMP JUMPDEST SUB SWAP3 GAS CALL DUP1 ISZERO PUSH2 0x7B4 JUMPI PUSH2 0x15C7 JUMPI STOP JUMPDEST PUSH2 0x16 SWAP1 PUSH1 0x20 RETURNDATASIZE PUSH1 0x20 GT PUSH2 0x7E6 JUMPI PUSH2 0x7D7 DUP2 DUP4 PUSH2 0x1A5A JUMP JUMPDEST CALLVALUE PUSH2 0x149 JUMPI PUSH1 0x20 CALLDATASIZE PUSH1 0x3 NOT ADD SLT PUSH2 0x149 JUMPI PUSH1 0x1 PUSH1 0x1 PUSH1 0x40 SHL SUB PUSH2 0x1600 PUSH2 0x19F2 JUMP JUMPDEST PUSH2 0x1608 PUSH2 0x1E76 JUMP JUMPDEST AND PUSH1 0x0 SWAP1 DUP2 MSTORE PUSH1 0x4 PUSH1 0x20 MSTORE PUSH1 0x40 SWAP1 KECCAK256 DUP1 SLOAD PUSH1 0xFF NOT AND SWAP1 SSTORE STOP JUMPDEST CALLVALUE PUSH2 0x149 JUMPI PUSH1 0x20 DUP1 PUSH1 0x3 NOT CALLDATASIZE ADD SLT PUSH2 0x149 JUMPI PUSH1 0x40 MLOAD SWAP1 PUSH2 0x1640 DUP3 PUSH2 0x1A3E JUMP JUMPDEST PUSH1 0x0 DUP3 MSTORE PUSH1 0x0 DUP2 DUP4 ADD MSTORE PUSH1 0x0 PUSH1 0x40 DUP4 ADD MSTORE PUSH1 0x60 DUP1 DUP4 ADD MSTORE PUSH1 0x0 PUSH1 0x80 DUP4 ADD MSTORE PUSH1 0x0 PUSH1 0xA0 DUP4 ADD MSTORE PUSH1 0x0 PUSH1 0xC0 DUP4 ADD MSTORE PUSH1 0x0 PUSH1 0xE0 DUP4 ADD MSTORE PUSH1 0x60 PUSH2 0x100 DUP1 SWAP4 ADD MSTORE PUSH1 0x4 CALLDATALOAD PUSH1 0x0 MSTORE PUSH1 0x6 DUP2 MSTORE PUSH2 0x1550 PUSH1 0x40 PUSH1 0x0 KECCAK256 SWAP3 PUSH1 0x40 MLOAD SWAP4 PUSH2 0x169C DUP6 PUSH2 0x1A3E JUMP JUMPDEST PUSH1 0x1 DUP1 PUSH1 0xA0 SHL SUB SWAP2 DUP3 DUP3 SLOAD AND DUP7 MSTORE PUSH1 0x1 DUP3 ADD SLOAD SWAP1 DUP6 DUP8 ADD SWAP2 DUP3 MSTORE DUP7 DUP5 PUSH1 0x2 DUP6 ADD SLOAD AND SWAP4 PUSH1 0x40 DUP3 ADD SWAP5 DUP6 MSTORE PUSH2 0x16D2 PUSH1 0x3 DUP3 ADD PUSH2 0x1BF9 JUMP JUMPDEST PUSH1 0x60 DUP4 ADD SWAP1 DUP2 MSTORE PUSH1 0x4 DUP3 ADD SLOAD SWAP7 PUSH1 0x80 DUP5 ADD SWAP8 DUP9 MSTORE PUSH1 0x5 DUP4 ADD SLOAD SWAP7 PUSH1 0xA0 DUP6 ADD SWAP8 DUP9 MSTORE PUSH2 0x1717 PUSH1 0x8 PUSH1 0x6 DUP7 ADD SLOAD SWAP6 PUSH1 0xC0 DUP9 ADD SWAP7 DUP8 MSTORE PUSH1 0xE0 PUSH1 0x7 DUP3 ADD SLOAD SWAP9 ADD SWAP8 DUP9 MSTORE ADD PUSH2 0x1BF9 JUMP JUMPDEST SWAP7 DUP7 DUP14 ADD SWAP8 DUP9 MSTORE DUP12 DUP4 PUSH1 0x40 MLOAD SWAP15 DUP16 SWAP15 DUP16 MSTORE MLOAD AND SWAP1 DUP14 ADD MSTORE MLOAD PUSH1 0x40 DUP13 ADD MSTORE MLOAD AND PUSH1 0x60 DUP11 ADD MSTORE MLOAD SWAP5 PUSH2 0x1755 PUSH2 0x120 SWAP7 DUP8 PUSH1 0x80 DUP13 ADD MSTORE PUSH2 0x140 DUP12 ADD SWAP1 PUSH2 0x1B7F JUMP JUMPDEST SWAP7 MLOAD PUSH1 0xA0 DUP11 ADD MSTORE MLOAD PUSH1 0xC0 DUP10 ADD MSTORE MLOAD PUSH1 0xE0 DUP9 ADD MSTORE MLOAD SWAP1 DUP7 ADD MSTORE MLOAD SWAP1 PUSH1 0x1F NOT DUP6 DUP5 SUB ADD SWAP1 DUP6 ADD MSTORE PUSH2 0x1B7F JUMP JUMPDEST CALLVALUE PUSH2 0x149 JUMPI PUSH1 0x40 CALLDATASIZE PUSH1 0x3 NOT ADD SLT PUSH2 0x149 JUMPI PUSH1 0x4 CALLDATALOAD PUSH1 0x1 PUSH1 0x1 PUSH1 0xA0 SHL SUB DUP2 AND SWAP1 DUP2 SWAP1 SUB PUSH2 0x149 JUMPI PUSH1 0x0 DUP1 DUP1 DUP1 SWAP4 PUSH1 0x24 CALLDATALOAD SWAP1 PUSH2 0x17B7 PUSH2 0x1E76 JUMP JUMPDEST DUP3 DUP3 ISZERO PUSH2 0x17C7 JUMPI JUMPDEST CALL ISZERO PUSH2 0x7B4 JUMPI STOP JUMPDEST POP PUSH2 0x8FC PUSH2 0x17BF JUMP JUMPDEST CALLVALUE PUSH2 0x149 JUMPI PUSH1 0x40 CALLDATASIZE PUSH1 0x3 NOT ADD SLT PUSH2 0x149 JUMPI PUSH2 0x17E9 PUSH2 0x19F2 JUMP JUMPDEST PUSH1 0x24 CALLDATALOAD PUSH1 0x1 PUSH1 0x1 PUSH1 0x40 SHL SUB DUP2 GT PUSH2 0x149 JUMPI PUSH2 0x1863 SWAP2 PUSH2 0x180F PUSH2 0x18EC SWAP3 CALLDATASIZE SWAP1 PUSH1 0x4 ADD PUSH2 0x1AD1 JUMP JUMPDEST PUSH1 0x1 DUP1 PUSH1 0xA0 SHL SUB SWAP2 DUP3 DUP3 MLOAD AND SWAP3 PUSH1 0x20 SWAP6 DUP7 SWAP5 PUSH2 0xDB6 DUP7 DUP1 DUP8 ADD MLOAD SWAP7 DUP6 PUSH1 0x40 DUP3 ADD MLOAD AND SWAP1 PUSH1 0x60 DUP2 ADD MLOAD PUSH1 0x80 DUP3 ADD MLOAD PUSH1 0xA0 DUP4 ADD MLOAD SWAP1 PUSH1 0xC0 DUP5 ADD MLOAD SWAP3 PUSH2 0x100 PUSH1 0xE0 DUP7 ADD MLOAD SWAP6 ADD MLOAD SWAP6 PUSH1 0x40 MLOAD SWAP14 DUP15 SWAP11 CALLER SWAP10 DUP13 ADD PUSH2 0x1CB6 JUMP JUMPDEST PUSH1 0x40 MLOAD SWAP3 PUSH1 0x0 DUP6 DUP6 ADD MSTORE DUP5 DUP5 MSTORE PUSH2 0x1879 DUP5 PUSH2 0x1A08 JUMP JUMPDEST PUSH2 0x1881 PUSH2 0x1D20 JUMP JUMPDEST SWAP1 PUSH2 0x18A2 PUSH1 0x40 MLOAD PUSH2 0x1891 DUP2 PUSH2 0x1A08 JUMP JUMPDEST PUSH3 0x7A120 DUP2 MSTORE PUSH1 0x1 DUP9 DUP3 ADD MSTORE PUSH2 0x1EC8 JUMP JUMPDEST SWAP2 DUP4 PUSH1 0x3 SLOAD AND SWAP2 PUSH1 0x40 MLOAD SWAP7 PUSH2 0x18B6 DUP9 PUSH2 0x1A23 JUMP JUMPDEST DUP8 MSTORE DUP8 DUP8 ADD MSTORE PUSH1 0x40 DUP7 ADD MSTORE PUSH1 0x60 DUP6 ADD MSTORE PUSH1 0x80 DUP5 ADD MSTORE PUSH1 0x2 SLOAD AND SWAP1 PUSH1 0x40 MLOAD DUP1 SWAP6 DUP2 SWAP5 DUP3 SWAP4 PUSH4 0x20487DED PUSH1 0xE0 SHL DUP5 MSTORE PUSH1 0x4 DUP5 ADD PUSH2 0x1D43 JUMP JUMPDEST SUB SWAP2 GAS STATICCALL SWAP1 DUP2 ISZERO PUSH2 0x7B4 JUMPI PUSH1 0x0 SWAP2 PUSH2 0x1908 JUMPI JUMPDEST POP PUSH1 0x40 MLOAD SWAP1 DUP2 MSTORE RETURN JUMPDEST SWAP1 POP DUP2 DUP2 DUP2 RETURNDATASIZE DUP4 GT PUSH2 0x192E JUMPI JUMPDEST PUSH2 0x191F DUP2 DUP4 PUSH2 0x1A5A JUMP JUMPDEST DUP2 ADD SUB SLT PUSH2 0x149 JUMPI MLOAD DUP3 PUSH2 0x18FF JUMP JUMPDEST POP RETURNDATASIZE PUSH2 0x1915 JUMP JUMPDEST CALLVALUE PUSH2 0x149 JUMPI PUSH1 0x60 CALLDATASIZE PUSH1 0x3 NOT ADD SLT PUSH2 0x149 JUMPI PUSH1 0x0 PUSH1 0x20 PUSH2 0x1999 PUSH2 0x1955 PUSH2 0x19B2 JUMP JUMPDEST PUSH2 0x195D PUSH2 0x19C8 JUMP JUMPDEST PUSH2 0x1965 PUSH2 0x1E76 JUMP JUMPDEST PUSH1 0x40 MLOAD PUSH4 0xA9059CBB PUSH1 0xE0 SHL DUP2 MSTORE PUSH1 0x1 PUSH1 0x1 PUSH1 0xA0 SHL SUB SWAP1 SWAP2 AND PUSH1 0x4 DUP3 ADD MSTORE PUSH1 0x44 DUP1 CALLDATALOAD PUSH1 0x24 DUP4 ADD MSTORE SWAP1 SWAP5 DUP6 SWAP4 DUP5 SWAP3 DUP4 SWAP2 SWAP1 DUP3 ADD SWAP1 JUMP JUMPDEST SUB SWAP3 PUSH1 0x1 PUSH1 0x1 PUSH1 0xA0 SHL SUB AND GAS CALL DUP1 ISZERO PUSH2 0x7B4 JUMPI PUSH2 0x15C7 JUMPI STOP JUMPDEST PUSH1 0x4 CALLDATALOAD SWAP1 PUSH1 0x1 PUSH1 0x1 PUSH1 0xA0 SHL SUB DUP3 AND DUP3 SUB PUSH2 0x149 JUMPI JUMP JUMPDEST PUSH1 0x24 CALLDATALOAD SWAP1 PUSH1 0x1 PUSH1 0x1 PUSH1 0xA0 SHL SUB DUP3 AND DUP3 SUB PUSH2 0x149 JUMPI JUMP JUMPDEST CALLDATALOAD SWAP1 PUSH1 0x1 PUSH1 0x1 PUSH1 0xA0 SHL SUB DUP3 AND DUP3 SUB PUSH2 0x149 JUMPI JUMP JUMPDEST PUSH1 0x4 CALLDATALOAD SWAP1 PUSH1 0x1 PUSH1 0x1 PUSH1 0x40 SHL SUB DUP3 AND DUP3 SUB PUSH2 0x149 JUMPI JUMP JUMPDEST PUSH1 0x40 DUP2 ADD SWAP1 DUP2 LT PUSH1 0x1 PUSH1 0x1 PUSH1 0x40 SHL SUB DUP3 GT OR PUSH2 0x69A JUMPI PUSH1 0x40 MSTORE JUMP JUMPDEST PUSH1 0xA0 DUP2 ADD SWAP1 DUP2 LT PUSH1 0x1 PUSH1 0x1 PUSH1 0x40 SHL SUB DUP3 GT OR PUSH2 0x69A JUMPI PUSH1 0x40 MSTORE JUMP JUMPDEST PUSH2 0x120 DUP2 ADD SWAP1 DUP2 LT PUSH1 0x1 PUSH1 0x1 PUSH1 0x40 SHL SUB DUP3 GT OR PUSH2 0x69A JUMPI PUSH1 0x40 MSTORE JUMP JUMPDEST SWAP1 PUSH1 0x1F DUP1 NOT SWAP2 ADD AND DUP2 ADD SWAP1 DUP2 LT PUSH1 0x1 PUSH1 0x1 PUSH1 0x40 SHL SUB DUP3 GT OR PUSH2 0x69A JUMPI PUSH1 0x40 MSTORE JUMP JUMPDEST DUP2 PUSH1 0x1F DUP3 ADD SLT ISZERO PUSH2 0x149 JUMPI DUP1 CALLDATALOAD SWAP1 PUSH1 0x1 PUSH1 0x1 PUSH1 0x40 SHL SUB DUP3 GT PUSH2 0x69A JUMPI PUSH1 0x40 MLOAD SWAP3 PUSH2 0x1AAF PUSH1 0x1F DUP5 ADD PUSH1 0x1F NOT AND PUSH1 0x20 ADD DUP6 PUSH2 0x1A5A JUMP JUMPDEST DUP3 DUP5 MSTORE PUSH1 0x20 DUP4 DUP4 ADD ADD GT PUSH2 0x149 JUMPI DUP2 PUSH1 0x0 SWAP3 PUSH1 0x20 DUP1 SWAP4 ADD DUP4 DUP7 ADD CALLDATACOPY DUP4 ADD ADD MSTORE SWAP1 JUMP JUMPDEST SWAP2 SWAP1 PUSH2 0x120 DUP4 DUP3 SUB SLT PUSH2 0x149 JUMPI PUSH1 0x40 MLOAD SWAP1 PUSH2 0x1AEB DUP3 PUSH2 0x1A3E JUMP JUMPDEST DUP2 SWAP4 PUSH2 0x1AF6 DUP2 PUSH2 0x19DE JUMP JUMPDEST DUP4 MSTORE PUSH1 0x20 DUP2 ADD CALLDATALOAD PUSH1 0x20 DUP5 ADD MSTORE PUSH2 0x1B0E PUSH1 0x40 DUP3 ADD PUSH2 0x19DE JUMP JUMPDEST PUSH1 0x40 DUP5 ADD MSTORE PUSH1 0x1 PUSH1 0x1 PUSH1 0x40 SHL SUB SWAP2 PUSH1 0x60 DUP3 ADD CALLDATALOAD DUP4 DUP2 GT PUSH2 0x149 JUMPI DUP2 PUSH2 0x1B34 SWAP2 DUP5 ADD PUSH2 0x1A7B JUMP JUMPDEST PUSH1 0x60 DUP6 ADD MSTORE PUSH1 0x80 DUP3 ADD CALLDATALOAD PUSH1 0x80 DUP6 ADD MSTORE PUSH1 0xA0 DUP3 ADD CALLDATALOAD PUSH1 0xA0 DUP6 ADD MSTORE PUSH1 0xC0 DUP3 ADD CALLDATALOAD PUSH1 0xC0 DUP6 ADD MSTORE PUSH1 0xE0 DUP3 ADD CALLDATALOAD PUSH1 0xE0 DUP6 ADD MSTORE PUSH2 0x100 SWAP3 DUP4 DUP4 ADD CALLDATALOAD SWAP1 DUP2 GT PUSH2 0x149 JUMPI PUSH2 0x1B7A SWAP3 ADD PUSH2 0x1A7B JUMP JUMPDEST SWAP2 ADD MSTORE JUMP JUMPDEST SWAP2 SWAP1 DUP3 MLOAD SWAP3 DUP4 DUP3 MSTORE PUSH1 0x0 JUMPDEST DUP5 DUP2 LT PUSH2 0x1BAB JUMPI POP POP DUP3 PUSH1 0x0 PUSH1 0x20 DUP1 SWAP5 SWAP6 DUP5 ADD ADD MSTORE PUSH1 0x1F DUP1 NOT SWAP2 ADD AND ADD ADD SWAP1 JUMP JUMPDEST PUSH1 0x20 DUP2 DUP4 ADD DUP2 ADD MLOAD DUP5 DUP4 ADD DUP3 ADD MSTORE ADD PUSH2 0x1B8A JUMP JUMPDEST SWAP1 PUSH1 0x1 DUP3 DUP2 SHR SWAP3 AND DUP1 ISZERO PUSH2 0x1BEF JUMPI JUMPDEST PUSH1 0x20 DUP4 LT EQ PUSH2 0x1BD9 JUMPI JUMP JUMPDEST PUSH4 0x4E487B71 PUSH1 0xE0 SHL PUSH1 0x0 MSTORE PUSH1 0x22 PUSH1 0x4 MSTORE PUSH1 0x24 PUSH1 0x0 REVERT JUMPDEST SWAP2 PUSH1 0x7F AND SWAP2 PUSH2 0x1BCE JUMP JUMPDEST SWAP1 PUSH1 0x40 MLOAD SWAP2 DUP3 PUSH1 0x0 DUP3 SLOAD PUSH2 0x1C0C DUP2 PUSH2 0x1BBF JUMP JUMPDEST SWAP1 DUP2 DUP5 MSTORE PUSH1 0x20 SWAP5 PUSH1 0x1 SWAP2 PUSH1 0x1 DUP2 AND SWAP1 DUP2 PUSH1 0x0 EQ PUSH2 0x1C7C JUMPI POP PUSH1 0x1 EQ PUSH2 0x1C3D JUMPI JUMPDEST POP POP POP PUSH2 0x1C3B SWAP3 POP SUB DUP4 PUSH2 0x1A5A JUMP JUMPDEST JUMP JUMPDEST PUSH1 0x0 SWAP1 DUP2 MSTORE DUP6 DUP2 KECCAK256 SWAP6 SWAP4 POP SWAP2 SWAP1 JUMPDEST DUP2 DUP4 LT PUSH2 0x1C64 JUMPI POP POP PUSH2 0x1C3B SWAP4 POP DUP3 ADD ADD CODESIZE DUP1 DUP1 PUSH2 0x1C2C JUMP JUMPDEST DUP6 SLOAD DUP9 DUP5 ADD DUP6 ADD MSTORE SWAP5 DUP6 ADD SWAP5 DUP8 SWAP5 POP SWAP2 DUP4 ADD SWAP2 PUSH2 0x1C4B JUMP JUMPDEST SWAP3 POP POP POP PUSH2 0x1C3B SWAP5 SWAP3 POP PUSH1 0xFF NOT AND DUP3 DUP5 ADD MSTORE ISZERO ISZERO PUSH1 0x5 SHL DUP3 ADD ADD CODESIZE DUP1 DUP1 PUSH2 0x1C2C JUMP JUMPDEST SWAP1 DUP2 PUSH1 0x20 SWAP2 SUB SLT PUSH2 0x149 JUMPI MLOAD DUP1 ISZERO ISZERO DUP2 SUB PUSH2 0x149 JUMPI SWAP1 JUMP JUMPDEST SWAP9 SWAP4 PUSH2 0x1CF6 SWAP1 DUP11 SWAP9 SWAP4 PUSH2 0x1D19 SWAP9 SWAP4 PUSH2 0x120 SWAP12 SWAP7 SWAP15 SWAP14 SWAP15 PUSH2 0x140 SWAP3 PUSH1 0x20 PUSH1 0x1 DUP1 PUSH1 0xA0 SHL SUB SWAP14 DUP15 DUP1 SWAP6 AND DUP2 MSTORE ADD MSTORE AND PUSH1 0x40 DUP14 ADD MSTORE DUP1 PUSH1 0x60 DUP14 ADD MSTORE DUP12 ADD SWAP1 PUSH2 0x1B7F JUMP JUMPDEST SWAP5 PUSH1 0x80 DUP11 ADD MSTORE PUSH1 0xA0 DUP10 ADD MSTORE PUSH1 0xC0 DUP9 ADD MSTORE PUSH1 0xE0 DUP8 ADD MSTORE DUP6 DUP3 SUB PUSH2 0x100 DUP8 ADD MSTORE PUSH2 0x1B7F JUMP JUMPDEST SWAP5 AND SWAP2 ADD MSTORE JUMP JUMPDEST PUSH1 0x40 MLOAD PUSH1 0x20 DUP2 ADD DUP2 DUP2 LT PUSH1 0x1 PUSH1 0x1 PUSH1 0x40 SHL SUB DUP3 GT OR PUSH2 0x69A JUMPI PUSH1 0x40 MSTORE PUSH1 0x0 DUP2 MSTORE SWAP1 JUMP JUMPDEST SWAP1 SWAP3 SWAP2 SWAP3 PUSH1 0x1 PUSH1 0x1 PUSH1 0x40 SHL SUB PUSH1 0x40 SWAP2 AND DUP3 MSTORE PUSH1 0x20 SWAP2 PUSH1 0x40 DUP4 DUP3 ADD MSTORE PUSH2 0x1D74 DUP6 MLOAD PUSH1 0xA0 PUSH1 0x40 DUP5 ADD MSTORE PUSH1 0xE0 DUP4 ADD SWAP1 PUSH2 0x1B7F JUMP JUMPDEST SWAP2 PUSH2 0x1D90 DUP5 DUP8 ADD MLOAD SWAP4 PUSH1 0x3F NOT SWAP5 DUP6 DUP6 DUP4 SUB ADD PUSH1 0x60 DUP7 ADD MSTORE PUSH2 0x1B7F JUMP JUMPDEST PUSH1 0x40 DUP8 ADD MLOAD SWAP5 DUP5 DUP5 DUP4 SUB ADD PUSH1 0x80 DUP6 ADD MSTORE DUP1 DUP1 DUP8 MLOAD SWAP4 DUP5 DUP2 MSTORE ADD SWAP7 ADD SWAP3 PUSH1 0x0 SWAP1 JUMPDEST DUP4 DUP3 LT PUSH2 0x1DE9 JUMPI POP POP POP POP POP PUSH1 0xC0 PUSH1 0x80 PUSH2 0x1DE6 SWAP6 SWAP7 PUSH1 0x1 DUP1 PUSH1 0xA0 SHL SUB PUSH1 0x60 DUP3 ADD MLOAD AND PUSH1 0xA0 DUP6 ADD MSTORE ADD MLOAD SWAP3 DUP3 DUP6 SUB ADD SWAP2 ADD MSTORE PUSH2 0x1B7F JUMP JUMPDEST SWAP1 JUMP JUMPDEST DUP5 MLOAD DUP1 MLOAD PUSH1 0x1 PUSH1 0x1 PUSH1 0xA0 SHL SUB AND DUP10 MSTORE DUP4 ADD MLOAD DUP9 DUP5 ADD MSTORE SWAP7 DUP8 ADD SWAP7 SWAP4 DUP3 ADD SWAP4 PUSH1 0x1 SWAP1 SWAP2 ADD SWAP1 PUSH2 0x1DB0 JUMP JUMPDEST SWAP3 SWAP4 PUSH2 0x1E48 SWAP2 PUSH1 0xA0 SWAP6 SWAP9 SWAP8 SWAP7 SWAP9 PUSH1 0x1 DUP1 DUP9 SHL SUB SWAP5 DUP6 DUP1 SWAP4 AND DUP8 MSTORE PUSH1 0x20 DUP8 ADD MSTORE AND PUSH1 0x40 DUP6 ADD MSTORE PUSH1 0xC0 PUSH1 0x60 DUP6 ADD MSTORE PUSH1 0xC0 DUP5 ADD SWAP1 PUSH2 0x1B7F JUMP JUMPDEST SWAP6 AND PUSH1 0x80 DUP3 ADD MSTORE ADD MSTORE JUMP JUMPDEST DUP1 MLOAD ISZERO PUSH2 0x1E60 JUMPI PUSH1 0x20 ADD SWAP1 JUMP JUMPDEST PUSH4 0x4E487B71 PUSH1 0xE0 SHL PUSH1 0x0 MSTORE PUSH1 0x32 PUSH1 0x4 MSTORE PUSH1 0x24 PUSH1 0x0 REVERT JUMPDEST PUSH1 0x0 SLOAD PUSH1 0x1 PUSH1 0x1 PUSH1 0xA0 SHL SUB AND CALLER SUB PUSH2 0x1E8A JUMPI JUMP JUMPDEST PUSH1 0x40 MLOAD PUSH3 0x461BCD PUSH1 0xE5 SHL DUP2 MSTORE PUSH1 0x20 PUSH1 0x4 DUP3 ADD MSTORE PUSH1 0x16 PUSH1 0x24 DUP3 ADD MSTORE PUSH22 0x27B7363C9031B0B63630B1363290313C9037BBB732B9 PUSH1 0x51 SHL PUSH1 0x44 DUP3 ADD MSTORE PUSH1 0x64 SWAP1 REVERT JUMPDEST PUSH1 0x20 PUSH1 0x40 MLOAD SWAP2 PUSH4 0x181DCF1 PUSH1 0xE4 SHL DUP3 DUP5 ADD MSTORE DUP1 MLOAD PUSH1 0x24 DUP5 ADD MSTORE ADD MLOAD ISZERO ISZERO PUSH1 0x44 DUP3 ADD MSTORE PUSH1 0x44 DUP2 MSTORE PUSH1 0x80 DUP2 ADD DUP2 DUP2 LT PUSH1 0x1 PUSH1 0x1 PUSH1 0x40 SHL SUB DUP3 GT OR PUSH2 0x69A JUMPI PUSH1 0x40 MSTORE SWAP1 JUMP INVALID PUSH18 0x1051A1045106448CA14E0BEFFA136EAD2A56 SLOAD 0xE5 0xC5 ISZERO SWAP11 SWAP6 PUSH8 0x99DAEA8793ECA264 PUSH10 0x706673582212200BFC0F SDIV 0xD6 0xE DUP14 0xC7 SWAP3 CALLDATACOPY EXTCODEHASH SWAP11 EXTCODESIZE SLOAD 0xBF 0xCE 0xB4 0x23 0xBA PUSH29 0x577EA6F66D1347ED30DE796164736F6C63430008180033000000000000 "},"methodIdentifiers":{"acceptOwnership()":"79ba5097","addSupportedChain(uint64)":"fb5c3312","addSupportedNFTContract(address)":"a80a57ff","getFee(uint64,(address,uint256,address,string,uint256,uint256,uint256,uint256,string))":"05a2730a","getPendingTransfer(bytes32)":"3c1d31d6","isChainSupported(uint64)":"a48a9058","isNFTContractSupported(address)":"4ec99ba7","nftPrices(uint256)":"d9f10a2b","owner()":"8da5cb5b","pendingNFTTransfers(bytes32)":"66c8dbb3","removeSupportedChain(uint64)":"4d9fb4f6","removeSupportedNFTContract(address)":"d365c7c6","sendNFTData(uint64,address,(address,uint256,address,string,uint256,uint256,uint256,uint256,string))":"8c27f0d8","sendNFTDataWithPayment(uint64,address,(address,uint256,address,string,uint256,uint256,uint256,uint256,string),address,uint256)":"f702146a","setNFTPrice(uint256,uint256)":"e7406558","supportedDestinationChains(uint64)":"3380a2f4","supportedNFTContracts(address)":"730a28f4","transferOwnership(address)":"f2fde38b","withdrawLink(address,uint256)":"54b7faae","withdrawNative(address,uint256)":"07b18bde","withdrawToken(address,address,uint256)":"01e33667"}}}}}