{"src/contracts/AirSpaceCCIPReceiver.sol":{"AirSpaceCCIPReceiver":{"abi":[{"inputs":[{"internalType":"address","name":"router","type":"address"},{"internalType":"address","name":"_paymentRecipient","type":"address"}],"stateMutability":"nonpayable","type":"constructor"},{"inputs":[{"internalType":"address","name":"sender","type":"address"},{"internalType":"uint256","name":"tokenId","type":"uint256"},{"internalType":"address","name":"owner","type":"address"}],"name":"ERC721IncorrectOwner","type":"error"},{"inputs":[{"internalType":"address","name":"operator","type":"address"},{"internalType":"uint256","name":"tokenId","type":"uint256"}],"name":"ERC721InsufficientApproval","type":"error"},{"inputs":[{"internalType":"address","name":"approver","type":"address"}],"name":"ERC721InvalidApprover","type":"error"},{"inputs":[{"internalType":"address","name":"operator","type":"address"}],"name":"ERC721InvalidOperator","type":"error"},{"inputs":[{"internalType":"address","name":"owner","type":"address"}],"name":"ERC721InvalidOwner","type":"error"},{"inputs":[{"internalType":"address","name":"receiver","type":"address"}],"name":"ERC721InvalidReceiver","type":"error"},{"inputs":[{"internalType":"address","name":"sender","type":"address"}],"name":"ERC721InvalidSender","type":"error"},{"inputs":[{"internalType":"uint256","name":"tokenId","type":"uint256"}],"name":"ERC721NonexistentToken","type":"error"},{"inputs":[{"internalType":"address","name":"router","type":"address"}],"name":"InvalidRouter","type":"error"},{"inputs":[{"internalType":"address","name":"sender","type":"address"}],"name":"InvalidSender","type":"error"},{"inputs":[{"internalType":"uint64","name":"sourceChainSelector","type":"uint64"}],"name":"InvalidSourceChain","type":"error"},{"inputs":[{"internalType":"address","name":"to","type":"address"},{"internalType":"uint256","name":"tokenId","type":"uint256"}],"name":"NFTMintingFailed","type":"error"},{"inputs":[{"internalType":"address","name":"owner","type":"address"}],"name":"OwnableInvalidOwner","type":"error"},{"inputs":[{"internalType":"address","name":"account","type":"address"}],"name":"OwnableUnauthorizedAccount","type":"error"},{"inputs":[{"internalType":"address","name":"token","type":"address"},{"internalType":"uint256","name":"amount","type":"uint256"}],"name":"PaymentProcessingFailed","type":"error"},{"anonymous":false,"inputs":[{"indexed":true,"internalType":"address","name":"owner","type":"address"},{"indexed":true,"internalType":"address","name":"approved","type":"address"},{"indexed":true,"internalType":"uint256","name":"tokenId","type":"uint256"}],"name":"Approval","type":"event"},{"anonymous":false,"inputs":[{"indexed":true,"internalType":"address","name":"owner","type":"address"},{"indexed":true,"internalType":"address","name":"operator","type":"address"},{"indexed":false,"internalType":"bool","name":"approved","type":"bool"}],"name":"ApprovalForAll","type":"event"},{"anonymous":false,"inputs":[{"indexed":false,"internalType":"uint256","name":"_fromTokenId","type":"uint256"},{"indexed":false,"internalType":"uint256","name":"_toTokenId","type":"uint256"}],"name":"BatchMetadataUpdate","type":"event"},{"anonymous":false,"inputs":[{"indexed":true,"internalType":"bytes32","name":"messageId","type":"bytes32"},{"indexed":true,"internalType":"address","name":"buyer","type":"address"},{"indexed":false,"internalType":"address","name":"paymentToken","type":"address"},{"indexed":false,"internalType":"uint256","name":"amount","type":"uint256"},{"indexed":false,"internalType":"uint256","name":"nftTokenId","type":"uint256"}],"name":"CrossChainPaymentProcessed","type":"event"},{"anonymous":false,"inputs":[{"indexed":false,"internalType":"uint256","name":"_tokenId","type":"uint256"}],"name":"MetadataUpdate","type":"event"},{"anonymous":false,"inputs":[{"indexed":true,"internalType":"bytes32","name":"messageId","type":"bytes32"},{"indexed":true,"internalType":"uint64","name":"sourceChainSelector","type":"uint64"},{"indexed":true,"internalType":"address","name":"sender","type":"address"},{"indexed":false,"internalType":"address","name":"nftContract","type":"address"},{"indexed":false,"internalType":"uint256","name":"sourceTokenId","type":"uint256"},{"indexed":false,"internalType":"uint256","name":"newTokenId","type":"uint256"},{"indexed":false,"internalType":"address","name":"originalOwner","type":"address"},{"indexed":false,"internalType":"string","name":"propertyAddress","type":"string"}],"name":"NFTDataReceived","type":"event"},{"anonymous":false,"inputs":[{"indexed":true,"internalType":"uint256","name":"tokenId","type":"uint256"},{"indexed":true,"internalType":"address","name":"to","type":"address"},{"indexed":false,"internalType":"string","name":"propertyAddress","type":"string"},{"indexed":true,"internalType":"bytes32","name":"sourceMessageId","type":"bytes32"}],"name":"NFTMinted","type":"event"},{"anonymous":false,"inputs":[{"indexed":true,"internalType":"address","name":"previousOwner","type":"address"},{"indexed":true,"internalType":"address","name":"newOwner","type":"address"}],"name":"OwnershipTransferred","type":"event"},{"anonymous":false,"inputs":[{"indexed":true,"internalType":"address","name":"from","type":"address"},{"indexed":true,"internalType":"address","name":"to","type":"address"},{"indexed":true,"internalType":"uint256","name":"tokenId","type":"uint256"}],"name":"Transfer","type":"event"},{"stateMutability":"payable","type":"fallback"},{"inputs":[{"internalType":"address","name":"sender","type":"address"}],"name":"addSupportedSender","outputs":[],"stateMutability":"nonpayable","type":"function"},{"inputs":[{"internalType":"uint64","name":"sourceChainSelector","type":"uint64"}],"name":"addSupportedSourceChain","outputs":[],"stateMutability":"nonpayable","type":"function"},{"inputs":[{"internalType":"address","name":"to","type":"address"},{"internalType":"uint256","name":"tokenId","type":"uint256"}],"name":"approve","outputs":[],"stateMutability":"nonpayable","type":"function"},{"inputs":[{"internalType":"address","name":"owner","type":"address"}],"name":"balanceOf","outputs":[{"internalType":"uint256","name":"","type":"uint256"}],"stateMutability":"view","type":"function"},{"inputs":[{"components":[{"internalType":"bytes32","name":"messageId","type":"bytes32"},{"internalType":"uint64","name":"sourceChainSelector","type":"uint64"},{"internalType":"bytes","name":"sender","type":"bytes"},{"internalType":"bytes","name":"data","type":"bytes"},{"components":[{"internalType":"address","name":"token","type":"address"},{"internalType":"uint256","name":"amount","type":"uint256"}],"internalType":"struct Client.EVMTokenAmount[]","name":"destTokenAmounts","type":"tuple[]"}],"internalType":"struct Client.Any2EVMMessage","name":"message","type":"tuple"}],"name":"ccipReceive","outputs":[],"stateMutability":"nonpayable","type":"function"},{"inputs":[{"internalType":"bytes","name":"data","type":"bytes"}],"name":"decodeNFTDataOnly","outputs":[{"internalType":"address","name":"sourceNftContract","type":"address"},{"internalType":"uint256","name":"sourceTokenId","type":"uint256"},{"internalType":"address","name":"originalOwner","type":"address"},{"internalType":"string","name":"propertyAddress","type":"string"},{"internalType":"uint256","name":"currentHeight","type":"uint256"},{"internalType":"uint256","name":"maximumHeight","type":"uint256"},{"internalType":"uint256","name":"availableFloors","type":"uint256"},{"internalType":"uint256","name":"price","type":"uint256"},{"internalType":"string","name":"metadataURI","type":"string"},{"internalType":"address","name":"caller","type":"address"}],"stateMutability":"pure","type":"function"},{"inputs":[{"internalType":"bytes","name":"data","type":"bytes"}],"name":"decodeNFTDataWithPayment","outputs":[{"internalType":"address","name":"sourceNftContract","type":"address"},{"internalType":"uint256","name":"sourceTokenId","type":"uint256"},{"internalType":"address","name":"originalOwner","type":"address"},{"internalType":"string","name":"propertyAddress","type":"string"},{"internalType":"uint256","name":"currentHeight","type":"uint256"},{"internalType":"uint256","name":"maximumHeight","type":"uint256"},{"internalType":"uint256","name":"availableFloors","type":"uint256"},{"internalType":"uint256","name":"price","type":"uint256"},{"internalType":"string","name":"metadataURI","type":"string"},{"internalType":"address","name":"caller","type":"address"},{"internalType":"address","name":"paymentToken","type":"address"},{"internalType":"uint256","name":"paymentAmount","type":"uint256"}],"stateMutability":"pure","type":"function"},{"inputs":[{"internalType":"uint256","name":"tokenId","type":"uint256"}],"name":"getApproved","outputs":[{"internalType":"address","name":"","type":"address"}],"stateMutability":"view","type":"function"},{"inputs":[],"name":"getCurrentTokenCounter","outputs":[{"internalType":"uint256","name":"counter","type":"uint256"}],"stateMutability":"view","type":"function"},{"inputs":[{"internalType":"uint64","name":"sourceChainSelector","type":"uint64"},{"internalType":"uint256","name":"sourceTokenId","type":"uint256"}],"name":"getLocalTokenId","outputs":[{"internalType":"uint256","name":"localTokenId","type":"uint256"}],"stateMutability":"view","type":"function"},{"inputs":[{"internalType":"bytes32","name":"messageId","type":"bytes32"}],"name":"getReceivedNFTData","outputs":[{"components":[{"internalType":"address","name":"sourceNftContract","type":"address"},{"internalType":"uint256","name":"sourceTokenId","type":"uint256"},{"internalType":"address","name":"originalOwner","type":"address"},{"internalType":"string","name":"propertyAddress","type":"string"},{"internalType":"uint256","name":"currentHeight","type":"uint256"},{"internalType":"uint256","name":"maximumHeight","type":"uint256"},{"internalType":"uint256","name":"availableFloors","type":"uint256"},{"internalType":"uint256","name":"price","type":"uint256"},{"internalType":"string","name":"metadataURI","type":"string"},{"internalType":"address","name":"caller","type":"address"},{"internalType":"address","name":"paymentToken","type":"address"},{"internalType":"uint256","name":"paymentAmount","type":"uint256"},{"internalType":"uint64","name":"sourceChainSelector","type":"uint64"},{"internalType":"bool","name":"processed","type":"bool"}],"internalType":"struct AirSpaceCCIPReceiver.ReceivedNFTData","name":"nftData","type":"tuple"}],"stateMutability":"view","type":"function"},{"inputs":[],"name":"getRouter","outputs":[{"internalType":"address","name":"","type":"address"}],"stateMutability":"view","type":"function"},{"inputs":[{"internalType":"uint256","name":"localTokenId","type":"uint256"}],"name":"getSourceMessageId","outputs":[{"internalType":"bytes32","name":"messageId","type":"bytes32"}],"stateMutability":"view","type":"function"},{"inputs":[{"internalType":"address","name":"owner","type":"address"},{"internalType":"address","name":"operator","type":"address"}],"name":"isApprovedForAll","outputs":[{"internalType":"bool","name":"","type":"bool"}],"stateMutability":"view","type":"function"},{"inputs":[{"internalType":"address","name":"sender","type":"address"}],"name":"isSenderSupported","outputs":[{"internalType":"bool","name":"supported","type":"bool"}],"stateMutability":"view","type":"function"},{"inputs":[{"internalType":"uint64","name":"sourceChainSelector","type":"uint64"}],"name":"isSourceChainSupported","outputs":[{"internalType":"bool","name":"supported","type":"bool"}],"stateMutability":"view","type":"function"},{"inputs":[{"internalType":"uint256","name":"","type":"uint256"}],"name":"localTokenIdToMessageId","outputs":[{"internalType":"bytes32","name":"","type":"bytes32"}],"stateMutability":"view","type":"function"},{"inputs":[],"name":"name","outputs":[{"internalType":"string","name":"","type":"string"}],"stateMutability":"view","type":"function"},{"inputs":[],"name":"owner","outputs":[{"internalType":"address","name":"","type":"address"}],"stateMutability":"view","type":"function"},{"inputs":[{"internalType":"uint256","name":"tokenId","type":"uint256"}],"name":"ownerOf","outputs":[{"internalType":"address","name":"","type":"address"}],"stateMutability":"view","type":"function"},{"inputs":[],"name":"paymentRecipient","outputs":[{"internalType":"address","name":"","type":"address"}],"stateMutability":"view","type":"function"},{"inputs":[{"internalType":"bytes32","name":"","type":"bytes32"}],"name":"receivedNFTData","outputs":[{"internalType":"address","name":"sourceNftContract","type":"address"},{"internalType":"uint256","name":"sourceTokenId","type":"uint256"},{"internalType":"address","name":"originalOwner","type":"address"},{"internalType":"string","name":"propertyAddress","type":"string"},{"internalType":"uint256","name":"currentHeight","type":"uint256"},{"internalType":"uint256","name":"maximumHeight","type":"uint256"},{"internalType":"uint256","name":"availableFloors","type":"uint256"},{"internalType":"uint256","name":"price","type":"uint256"},{"internalType":"string","name":"metadataURI","type":"string"},{"internalType":"address","name":"caller","type":"address"},{"internalType":"address","name":"paymentToken","type":"address"},{"internalType":"uint256","name":"paymentAmount","type":"uint256"},{"internalType":"uint64","name":"sourceChainSelector","type":"uint64"},{"internalType":"bool","name":"processed","type":"bool"}],"stateMutability":"view","type":"function"},{"inputs":[{"internalType":"address","name":"sender","type":"address"}],"name":"removeSupportedSender","outputs":[],"stateMutability":"nonpayable","type":"function"},{"inputs":[{"internalType":"uint64","name":"sourceChainSelector","type":"uint64"}],"name":"removeSupportedSourceChain","outputs":[],"stateMutability":"nonpayable","type":"function"},{"inputs":[],"name":"renounceOwnership","outputs":[],"stateMutability":"nonpayable","type":"function"},{"inputs":[{"internalType":"address","name":"from","type":"address"},{"internalType":"address","name":"to","type":"address"},{"internalType":"uint256","name":"tokenId","type":"uint256"}],"name":"safeTransferFrom","outputs":[],"stateMutability":"nonpayable","type":"function"},{"inputs":[{"internalType":"address","name":"from","type":"address"},{"internalType":"address","name":"to","type":"address"},{"internalType":"uint256","name":"tokenId","type":"uint256"},{"internalType":"bytes","name":"data","type":"bytes"}],"name":"safeTransferFrom","outputs":[],"stateMutability":"nonpayable","type":"function"},{"inputs":[{"internalType":"address","name":"operator","type":"address"},{"internalType":"bool","name":"approved","type":"bool"}],"name":"setApprovalForAll","outputs":[],"stateMutability":"nonpayable","type":"function"},{"inputs":[{"internalType":"address","name":"_paymentRecipient","type":"address"}],"name":"setPaymentRecipient","outputs":[],"stateMutability":"nonpayable","type":"function"},{"inputs":[{"internalType":"uint64","name":"","type":"uint64"},{"internalType":"uint256","name":"","type":"uint256"}],"name":"sourceToLocalTokenId","outputs":[{"internalType":"uint256","name":"","type":"uint256"}],"stateMutability":"view","type":"function"},{"inputs":[{"internalType":"address","name":"","type":"address"}],"name":"supportedSenders","outputs":[{"internalType":"bool","name":"","type":"bool"}],"stateMutability":"view","type":"function"},{"inputs":[{"internalType":"uint64","name":"","type":"uint64"}],"name":"supportedSourceChains","outputs":[{"internalType":"bool","name":"","type":"bool"}],"stateMutability":"view","type":"function"},{"inputs":[{"internalType":"bytes4","name":"interfaceId","type":"bytes4"}],"name":"supportsInterface","outputs":[{"internalType":"bool","name":"","type":"bool"}],"stateMutability":"view","type":"function"},{"inputs":[],"name":"symbol","outputs":[{"internalType":"string","name":"","type":"string"}],"stateMutability":"view","type":"function"},{"inputs":[{"internalType":"uint256","name":"tokenId","type":"uint256"}],"name":"tokenURI","outputs":[{"internalType":"string","name":"","type":"string"}],"stateMutability":"view","type":"function"},{"inputs":[{"internalType":"address","name":"from","type":"address"},{"internalType":"address","name":"to","type":"address"},{"internalType":"uint256","name":"tokenId","type":"uint256"}],"name":"transferFrom","outputs":[],"stateMutability":"nonpayable","type":"function"},{"inputs":[{"internalType":"address","name":"newOwner","type":"address"}],"name":"transferOwnership","outputs":[],"stateMutability":"nonpayable","type":"function"},{"inputs":[{"internalType":"address payable","name":"to","type":"address"},{"internalType":"uint256","name":"amount","type":"uint256"}],"name":"withdrawNative","outputs":[],"stateMutability":"nonpayable","type":"function"},{"inputs":[{"internalType":"address","name":"token","type":"address"},{"internalType":"address","name":"to","type":"address"},{"internalType":"uint256","name":"amount","type":"uint256"}],"name":"withdrawToken","outputs":[],"stateMutability":"nonpayable","type":"function"},{"stateMutability":"payable","type":"receive"}],"evm":{"bytecode":{"linkReferences":{},"object":"604060a08152346200042757620031e8818138039182620000208162000462565b9384928339810103126200042757620000398162000488565b9162000049602080930162000488565b90600092620000576200042c565b92601884527f41697253706163652043726f73732d436861696e204e46540000000000000000828501526200008b6200042c565b60078152661054d0d0d3919560ca1b838201526001600160a01b0396808816156200040f5760805284516001600160401b039182821162000319578754916001978884811c9416801562000404575b87851014620003f0578190601f948581116200039d575b50879085831160011462000339578b926200032d575b5050600019600383901b1c191690881b1788555b8051928311620003195786548781811c911680156200030e575b86821014620002fa5790818385949311620002a5575b50859183116001146200024157889262000235575b5050600019600383901b1c191690851b1784555b33156200021d57600780546001600160a01b031980821633908117909355855198600995949193909283167f8be0079c531659141344cd1fd0a4f28419497f9722a3daafe3b4186f6b6457e08a80a31690600e541617600e558360085567ccf0a31a221f3c9b8552528083209260ff1993838582541617905567de41ba4fc9d91ad981522091825416179055612d4a90816200049e82396080518181816105e0015261095e0152f35b8251631e4fbdf760e01b815260048101869052602490fd5b01519050388062000160565b8789528589208894509190601f1984168a5b888282106200028e575050841162000274575b505050811b01845562000174565b015160001960f88460031b161c1916905538808062000266565b8385015186558b9790950194938401930162000253565b909192508789528589208380860160051c820192888710620002f0575b9186958b929594930160051c01915b828110620002e15750506200014b565b8b81558695508a9101620002d1565b92508192620002c2565b634e487b7160e01b89526022600452602489fd5b90607f169062000135565b634e487b7160e01b88526041600452602488fd5b01519050388062000107565b8b8052888c208b94509190601f1984168d5b8b8282106200038657505084116200036c575b505050811b0188556200011b565b015160001960f88460031b161c191690553880806200035e565b8385015186558e979095019493840193016200034b565b9091508a8052878b208580850160051c8201928a8610620003e6575b918c91869594930160051c01915b828110620003d7575050620000f1565b8d81558594508c9101620003c7565b92508192620003b9565b634e487b7160e01b8a52602260045260248afd5b93607f1693620000da565b84516335fdcccd60e21b815260048101889052602490fd5b600080fd5b60408051919082016001600160401b038111838210176200044c57604052565b634e487b7160e01b600052604160045260246000fd5b6040519190601f01601f191682016001600160401b038111838210176200044c57604052565b51906001600160a01b0382168203620004275756fe60806040526004361015610018575b361561001657005b005b60003560e01c806301e33667146121b057806301ffc9a71461212857806306fdde031461207d57806307b18bde1461202c578063081812fc14611fee578063095ea7b314611f075780631478585a14611cb55780631f7f31a414611c9757806323b872dd14611c805780632753c73c14611bd55780632983c4b814611c3d5780632b1eaf2914611c145780633873168514611bd557806342842e0e14611ba757806354ff3c2314610320578063563046cf14611a705780636352211e14611a40578063652ad8d0146107e157806368511549146119fe57806368794fe2146119b957806370a0823114611960578063715018a61461190357806385572ffb1461092c5780638da5cb5b1461090357806395d89b41146108205780639884c2b0146107e15780639ec0f4d4146106b4578063a22cb4651461060f578063b0f479a1146105ca578063b88d4fde14610570578063ba9c81f2146101cb578063c0273d2f14610418578063c7eee0ee146103d6578063c87b56dd14610368578063cd32d95a14610320578063d1806047146102db578063e985e9c514610285578063f2fde38b146101fc5763f63310150361000e575b346101f75760203660031901126101f757600435600052600d6020526020604060002054604051908152f35b600080fd5b346101f75760203660031901126101f757610215612236565b61021d612692565b6001600160a01b0390811690811561026c57600754826001600160601b0360a01b821617600755167f8be0079c531659141344cd1fd0a4f28419497f9722a3daafe3b4186f6b6457e0600080a3005b604051631e4fbdf760e01b815260006004820152602490fd5b346101f75760403660031901126101f75761029e612236565b6102a661224c565b9060018060a01b03809116600052600560205260406000209116600052602052602060ff604060002054166040519015158152f35b346101f75760203660031901126101f7576001600160401b036102fc6122df565b610304612692565b166000908152600960205260409020805460ff19166001179055005b346101f75760403660031901126101f7576001600160401b036103416122df565b16600052600c60205260406000206024356000526020526020604060002054604051908152f35b346101f75760203660031901126101f757600435610385816126be565b5060005260066020526103d26103a86103af6040600020604051928380926123e9565b038261232c565b60006040516103bd81612311565b526040519182916020835260208301906122ba565b0390f35b346101f75760203660031901126101f7576001600160401b036103f76122df565b6103ff612692565b166000908152600960205260409020805460ff19169055005b346101f75760203660031901126101f7576001600160401b036004358181116101f757610449903690600401612368565b80518101610180828203126101f75761046460208301612639565b9160408101519061047760608201612639565b9260808201518681116101f7576104969060208084019185010161264d565b60a08301519060c084015160e0850151610100860151916101208701519a8b116101f75761052a6104d360209c8d8061054d9a01918b010161264d565b946104e16101408a01612639565b9a6101806104f26101608c01612639565b9a01519a6040519e8f9e8f9060018060a01b03168152015260018060a01b031660408d015261018060608d01526101808c01906122ba565b9460808b015260a08a015260c089015260e08801528682036101008801526122ba565b6001600160a01b0393841661012086015292166101408401526101608301520390f35b346101f75760803660031901126101f757610589612236565b61059161224c565b90604435606435926001600160401b0384116101f7576105b8610016943690600401612368565b926105c4838383612497565b336126f9565b346101f75760003660031901126101f7576040517f00000000000000000000000000000000000000000000000000000000000000006001600160a01b03168152602090f35b346101f75760403660031901126101f757610628612236565b602435908115158092036101f7576001600160a01b031690811561069b57336000526005602052604060002082600052602052604060002060ff1981541660ff83161790556040519081527f17307eab39ab6107e8899845ad3d59bd9653f200f220920489ca2b5937696c3160203392a3005b604051630b61174360e31b815260048101839052602490fd5b346101f75760203660031901126101f757600435600052600b6020526040600020600160a01b600190038082541690600183015491816002850154169360405180806003840190610704916123e9565b0361070f908261232c565b600482015460058301549060068401546007850154906040519384806008890190610739916123e9565b03610744908661232c565b8860098801541698600a8801541695600b88015497600c0154986040519c8d9c8d6101c09381526020015260408d01528060608d01528b01610785916122ba565b9360808b015260a08a015260c089015260e08801528681036101008801526107ac916122ba565b936101208601526101408501526101608401526001600160401b03811661018084015260401c60ff1615156101a08301520390f35b346101f75760203660031901126101f7576001600160401b036108026122df565b166000526009602052602060ff604060002054166040519015158152f35b346101f75760003660031901126101f757604051600060018260015492610846846123af565b92838352602094856001821691826000146108e3575050600114610886575b506108729250038361232c565b6103d26040519282849384528301906122ba565b84915060016000527fb10e2d527612073b26eecdfd717e6a320cf44b4afac2b0732d9fcbe2b7fa0cf6906000915b8583106108cb575050610872935082010185610865565b805483890185015287945086939092019181016108b4565b60ff19168582015261087295151560051b85010192508791506108659050565b346101f75760003660031901126101f7576007546040516001600160a01b039091168152602090f35b346101f7576003196020368201126101f757600435906001600160401b0382116101f75760a09082360301126101f7577f00000000000000000000000000000000000000000000000000000000000000006001600160a01b031633036118eb576040519060a082018281106001600160401b038211176110c1576040528060040135825260248101356001600160401b03811681036101f757602083015260448101356001600160401b0381116101f7576109ed9060043691840101612368565b604083015260648101356001600160401b0381116101f757610a159060043691840101612368565b60608301526084810135906001600160401b0382116101f7573660238383010112156101f757600482820101356001600160401b0381116110c15760405192610a6460208360051b018561232c565b81845260208401923660248460061b8484010101116101f75780820160240193915b60248460061b8284010101851061188b57868660808201526001600160401b03602082015116600052600960205260ff60406000205416156118665760408101516020818051810103126101f7576020610ae09101612639565b50606081015160405163c0273d2f60e01b815260206004820152919060008380610b0d60248201856122ba565b0381305afa92600093600094600080600090600091600090600080926000958960009b60009b611792575b50611265575050505050505050505050610b7292506000906040518094819263563046cf60e01b83526020600484015260248301906122ba565b0381305afa91600080600092600095600090600090600080826000966000946111a7575b50610be05760405162461bcd60e51b815260206004820152601960248201527f4661696c656420746f206465636f6465204e46542064617461000000000000006044820152606490fd5b6001600160401b0360208b0151169360405195610bfc876122f5565b60018060a01b038a16875288602088015260018060a01b038b1660408801528c6060880152608087015260a086015260c085015260e08401528361010084015260018060a01b03166101208301526000610140830152600061016083015261018082015260006101a08201528551600052600b602052604060002060018060a01b038251166001600160601b0360a01b825416178155602082015160018201556002810160018060a01b036040840151166001600160601b0360a01b82541617905560608201518051906001600160401b0382116110c1578190610ce360038501546123af565b601f8111611154575b50602090601f83116001146110e2576000926110d7575b50508160011b916000199060031b1c19161760038201555b6080820151600482015560a0820151600582015560c0820151600682015560e082015160078201556101008201518051906001600160401b0382116110c157610d6760088401546123af565b601f811161107a575b50602090601f8311600114610ffc57610e359383610e3e9796946101a094600c94600092610ff1575b50508160011b916000199060031b1c19161760088201555b6101208401516009820180546001600160a01b03199081166001600160a01b0393841617909155610140860151600a840180549092169216919091179055610160840151600b82015561018084015191018054929093015168ffffffffffffffffff199092166001600160401b03919091161790151560401b60ff60401b16179055565b855190856128a3565b926001600160401b03602086015116600052600c60205260406000208260005260205283604060002055845184600052600d6020526040600020558451916001600160401b036020870151169360408701516020818051810103126101f7576080987fcddd5b08fdb6f103d1b4022b24593d484a667789de0c0c458f396877873f9f0d94610ee9926001600160a01b0390610edb90602001612639565b169860405195869586612847565b0390a48051600052600b602052600c604060002001600160401b60ff60401b198254161790555b01518051610f1a57005b60005b8151811015610016576001600160a01b03610f388284612879565b515116906020610f488285612879565b510151600e549092906001600160a01b031680610f6c575b50506001915001610f1d565b60405163a9059cbb60e01b81526001600160a01b039190911660048201526024810193909352602090839060449082906000905af1918215610fe557600192610fb6575b80610f60565b610fd79060203d602011610fde575b610fcf818361232c565b81019061247f565b5083610fb0565b503d610fc5565b6040513d6000823e3d90fd5b015190508e80610d99565b906008840160005260206000209160005b601f19851681106110625750936001846101a094600c94610e3598610e3e9b9a98601f19811610611049575b505050811b016008820155610db1565b015160001960f88460031b161c191690558e8080611039565b9192602060018192868501518155019401920161100d565b600884016000526020600020601f840160051c8101602085106110ba575b601f830160051c820181106110ae575050610d70565b60008155600101611098565b5080611098565b634e487b7160e01b600052604160045260246000fd5b015190508a80610d03565b9250600384016000526020600020906000935b601f1984168510611139576001945083601f19811610611120575b505050811b016003820155610d1b565b015160001960f88460031b161c191690558a8080611110565b818101518355602094850194600190930192909101906110f5565b909150600384016000526020600020601f840160051c8101602085106111a0575b90849392915b601f830160051c82018110611191575050610cec565b6000815585945060010161117b565b5080611175565b99509a5050505050505050503d806000833e6111c3818361232c565b810190610140818303126101f7576111da81612639565b906020810151916111ed60408301612639565b9160608101516001600160401b0381116101f7578561120d91830161264d565b9460808201519760a08301519260c08101519260e082015190610100830151906001600160401b0382116101f75761124d6101209161125493860161264d565b9301612639565b959796989a9493909195928c610b96565b8d9495969798999a9b506001600160401b0360208e015116936040519561128b876122f5565b60018060a01b038c168752602087015260018060a01b0388166040870152896060870152608086015260a085015260c084015260e08301528261010083015260018060a01b03851661012083015260018060a01b0389166101408301528761016083015261018082015260006101a08201528851600052600b602052604060002060018060a01b038251166001600160601b0360a01b825416178155602082015160018201556002810160018060a01b036040840151166001600160601b0360a01b82541617905560608201518051906001600160401b0382116110c157819061137860038501546123af565b601f811161173f575b50602090601f83116001146116cd576000926116c2575b50508160011b916000199060031b1c19161760038201555b6080820151600482015560a0820151600582015560c0820151600682015560e082015160078201556101008201518051906001600160401b0382116110c1576113fc60088401546123af565b601f811161167b575b50602090601f83116001146115fe576114c893836114d19796946101a094600c946000926115f35750508160011b916000199060031b1c19161760088201556101208401516009820180546001600160a01b03199081166001600160a01b0393841617909155610140860151600a840180549092169216919091179055610160840151600b82015561018084015191018054929093015168ffffffffffffffffff199092166001600160401b03919091161790151560401b60ff60401b16179055565b885190846128a3565b906001600160401b03602089015116600052600c60205260406000208960005260205281604060002055875182600052600d60205260406000205587516001600160401b0360208a0151169060408a0151956020878051810103126101f75760809b7fc7a82a501dbab9b410ba61b497f9d8c4219797eb9eb0fb7007d5736f5d2e2b9f986060987fcddd5b08fdb6f103d1b4022b24593d484a667789de0c0c458f396877873f9f0d936115a2916001600160a01b039061159390602001612639565b16978960405195869586612847565b0390a48651604080516001600160a01b039889168152602081019790975286019190915294169392a38051600052600b602052600c604060002001600160401b60ff60401b19825416179055610f10565b015190503880610d99565b906008840160005260206000209160005b601f19851681106116635750936001846101a094600c946114c8986114d19b9a98601f1981161061164a57505050811b016008820155610db1565b015160001960f88460031b161c19169055388080611039565b9192602060018192868501518155019401920161160f565b600884016000526020600020601f840160051c8101602085106116bb575b601f830160051c820181106116af575050611405565b60008155600101611699565b5080611699565b015190508d80611398565b9250600384016000526020600020906000935b601f1984168510611724576001945083601f1981161061170b575b505050811b0160038201556113b0565b015160001960f88460031b161c191690558d80806116fb565b818101518355602094850194600190930192909101906116e0565b909150600384016000526020600020601f840160051c81016020851061178b575b90849392915b601f830160051c8201811061177c575050611381565b60008155859450600101611766565b5080611760565b9e509a50505050505050505050503d806000863e6117b0818661232c565b840190610180858303126101f7576117c785612639565b916020860151906117da60408801612639565b9660608101516001600160401b0381116101f757826117fa91830161264d565b60808201519260a083015160c08401519160e085015190610100860151906001600160401b0382116101f75761183191870161264d565b9061183f6101208701612639565b936101606118506101408901612639565b9701519a989d95979390919294969a998f610b38565b6001600160401b0360206024920151166040519063093cf64560e11b82526004820152fd5b6040853603126101f757604051928360408101106001600160401b036040860111176110c1576040848101905285356001600160a01b03811690036101f75760206040916024958835815282890135838201528152019501949250610a86565b6040516335fdcccd60e21b8152336004820152602490fd5b346101f75760003660031901126101f75761191c612692565b600780546001600160a01b031981169091556000906001600160a01b03167f8be0079c531659141344cd1fd0a4f28419497f9722a3daafe3b4186f6b6457e08280a3005b346101f75760203660031901126101f7576001600160a01b03611981612236565b1680156119a05760005260036020526020604060002054604051908152f35b6040516322718ad960e21b815260006004820152602490fd5b346101f75760203660031901126101f7576119d2612236565b6119da612692565b6001600160a01b03166000908152600a60205260409020805460ff19166001179055005b346101f75760203660031901126101f757611a17612236565b611a1f612692565b6001600160a01b03166000908152600a60205260409020805460ff19169055005b346101f75760203660031901126101f7576020611a5e6004356126be565b6040516001600160a01b039091168152f35b346101f75760203660031901126101f7576001600160401b036004358181116101f757611aa1903690600401612368565b8051810190610140818303126101f757611abd60208201612639565b91604082015193611ad060608401612639565b9260808101518281116101f757611aef9060208086019184010161264d565b60a08201519260c083015160e084015191610100850151936101208601519182116101f757611b39610140611b32611b6f94602080611b929d01918b010161264d565b9701612639565b986040519b8c9b60018060a01b03168c5260208c015260018060a01b031660408b015261014060608b01526101408a01906122ba565b94608089015260a088015260c087015260e08601528482036101008601526122ba565b6001600160a01b039091166101208301520390f35b346101f757610016611bb836612262565b9060405192611bc684612311565b600084526105c4838383612497565b346101f75760203660031901126101f7576001600160a01b03611bf6612236565b16600052600a602052602060ff604060002054166040519015158152f35b346101f75760003660031901126101f757600e546040516001600160a01b039091168152602090f35b346101f75760203660031901126101f757611c56612236565b611c5e612692565b600e80546001600160a01b0319166001600160a01b0392909216919091179055005b346101f757610016611c9136612262565b91612497565b346101f75760003660031901126101f7576020600854604051908152f35b346101f75760203660031901126101f75760006101a0604051611cd7816122f5565b8281528260208201528260408201526060808201528260808201528260a08201528260c08201528260e08201526060610100820152826101208201528261014082015282610160820152826101808201520152600435600052600b602052604060002060ff600c60405192611d4b846122f5565b80546001600160a01b0390811685526001820154602086015260028201541660408086019190915251611d85816103a881600386016123e9565b606085015260048101546080850152600581015460a0850152600681015460c0850152600781015460e0850152604051611dc6816103a881600886016123e9565b61010085015260018060a01b0360098201541661012085015260018060a01b03600a82015416610140850152600b81015461016085015201546001600160401b03811661018084015260401c1615156101a082015260405180916020825260018060a01b0381511660208301526020810151604083015260018060a01b0360408201511660608301526101a0611eb1611e7060608401516101c060808701526101e08601906122ba565b608084015160a086015260a084015160c086015260c084015160e086015260e0840151610100860152610100840151601f19868303016101208701526122ba565b9160018060a01b036101208201511661014085015260018060a01b03610140820151166101608501526101608101516101808501526001600160401b036101808201511682850152015115156101c08301520390f35b346101f75760403660031901126101f757611f20612236565b602435611f2c816126be565b33151580611fdb575b80611fae575b611f96576001600160a01b039283169282918491167f8c5be1e5ebec7d5bd14f71427d1e84f3dd0314c0f7b2291e5b200ac8c7c3b925600080a4600090815260046020526040902080546001600160a01b0319169091179055005b60405163a9fbf51f60e01b8152336004820152602490fd5b5060018060a01b038116600052600560205260406000203360005260205260ff6040600020541615611f3b565b506001600160a01b038116331415611f35565b346101f75760203660031901126101f75760043561200b816126be565b506000526004602052602060018060a01b0360406000205416604051908152f35b346101f75760403660031901126101f7576004356001600160a01b038116908190036101f75760008080809360243590612064612692565b828215612074575bf115610fe557005b506108fc61206c565b346101f75760003660031901126101f7576040516000805490826120a0836123af565b91828252602093600190856001821691826000146108e35750506001146120ce57506108729250038361232c565b6000808052859250907f290decd9548b62a8d60345a988386fc84ba6bc95484008f6362f93160ef3e5635b858310612110575050610872935082010185610865565b805483890185015287945086939092019181016120f9565b346101f75760203660031901126101f75760043563ffffffff60e01b81168091036101f757602090632483248360e11b811490811561216d575b506040519015158152f35b6380ac58cd60e01b81149150811561219f575b811561218e575b5082612162565b6301ffc9a760e01b14905082612187565b635b5e139f60e01b81149150612180565b346101f75761220560206121c336612262565b91906121cd612692565b60405163a9059cbb60e01b81526001600160a01b03909116600482015260248101929092529092839190829060009082906044820190565b03926001600160a01b03165af18015610fe55761221e57005b6100169060203d602011610fde57610fcf818361232c565b600435906001600160a01b03821682036101f757565b602435906001600160a01b03821682036101f757565b60609060031901126101f7576001600160a01b039060043582811681036101f7579160243590811681036101f7579060443590565b60005b8381106122aa5750506000910152565b818101518382015260200161229a565b906020916122d381518092818552858086019101612297565b601f01601f1916010190565b600435906001600160401b03821682036101f757565b6101c081019081106001600160401b038211176110c157604052565b602081019081106001600160401b038211176110c157604052565b90601f801991011681019081106001600160401b038211176110c157604052565b6001600160401b0381116110c157601f01601f191660200190565b81601f820112156101f75780359061237f8261234d565b9261238d604051948561232c565b828452602083830101116101f757816000926020809301838601378301015290565b90600182811c921680156123df575b60208310146123c957565b634e487b7160e01b600052602260045260246000fd5b91607f16916123be565b8054600093926123f8826123af565b91828252602093600191600181169081600014612460575060011461241f575b5050505050565b90939495506000929192528360002092846000945b83861061244c57505050500101903880808080612418565b805485870183015294019385908201612434565b60ff19168685015250505090151560051b010191503880808080612418565b908160209103126101f7575180151581036101f75790565b6001600160a01b03918216929091831561262057600092828452826020956002875260409684888820541696879133151580612587575b509060027fddf252ad1be2c89b69c2b068fc378daa952ba7f163c4a11628f55a4df523b3ef9284612554575b858352600381528b8320805460010190558683525289812080546001600160a01b0319168517905580a416928383036125335750505050565b6064945051926364283d7b60e01b8452600484015260248301526044820152fd5b600087815260046020526040902080546001600160a01b0319169055848352600381528b832080546000190190556124fa565b919394509150806125df575b156125a3578592918791386124ce565b8786886125c0576024915190637e27328960e01b82526004820152fd5b905163177e802f60e01b81523360048201526024810191909152604490fd5b503387148015612604575b806125935750858252600481523385898420541614612593565b5086825260058152878220338352815260ff88832054166125ea565b604051633250574960e11b815260006004820152602490fd5b51906001600160a01b03821682036101f757565b81601f820112156101f75780516126638161234d565b92612671604051948561232c565b818452602082840101116101f75761268f9160208085019101612297565b90565b6007546001600160a01b031633036126a657565b60405163118cdaa760e01b8152336004820152602490fd5b6000818152600260205260409020546001600160a01b03169081156126e1575090565b60249060405190637e27328960e01b82526004820152fd5b909192833b612709575050505050565b604051630a85bd0160e11b8082526001600160a01b0393841660048301529383166024820152604481019190915260806064820152602095919093169390919083906127599060848301906122ba565b039285816000958187895af1849181612803575b506127cd575050503d6000146127c5573d6127878161234d565b90612795604051928361232c565b81528091843d92013e5b805192836127c057604051633250574960e11b815260048101849052602490fd5b019050fd5b50606061279f565b919450915063ffffffff60e01b16036127eb57503880808080612418565b60249060405190633250574960e11b82526004820152fd5b9091508681813d8311612840575b61281b818361232c565b8101031261283c57516001600160e01b03198116810361283c57903861276d565b8480fd5b503d612811565b919360a09361268f9695600180871b0380941685526020850152604084015216606082015281608082015201906122ba565b805182101561288d5760209160051b010190565b634e487b7160e01b600052603260045260246000fd5b600854929160001990818514612cfe576001918286016008556040928351926128cb84612311565b60009283855260018060a01b0394858816978815612ce6578a86526020966002885288872054168b8a8215159283612cb5575b818a5260038b528b8a2080548a019055828a5260028b528b8a2080546001600160a01b031916831790557fddf252ad1be2c89b69c2b068fc378daa952ba7f163c4a11628f55a4df523b3ef8a80a4612c9d573b612b76575b509088959493929181516129b1575b505050906129ab60038484897fcb4d488c9c856f58bf738fd4decd617b237b9923e4ddee8a9dbbd326d4914236979652600b8552200192519282849384528301906123e9565b0390a490565b909195835260068452848320958251926001600160401b038411612b6257908a9695949392916129e189546123af565b601f8111612b09575b508590601f8511600114612a7957938088948188957fcb4d488c9c856f58bf738fd4decd617b237b9923e4ddee8a9dbbd326d49142369c9d956003996129ab9b95612a6e575b50501b92871b1c19161790555b7ff8e1a15aba9398e019f0b49df1a4fde98ee17ae345cb5f6b5e2c27f5033e8ce78583518a8152a193949550612965565b015193503880612a30565b898652868620999492939190601f198416875b818110612af157509a600396938a969386936129ab9a977fcb4d488c9c856f58bf738fd4decd617b237b9923e4ddee8a9dbbd326d49142369e9f10612ada575b50505050811b019055612a3d565b01519060f8848a1b161c1916905538808080612acc565b828401518d559b86019b8f9b50928901928901612a8c565b909192939495969750888652868620601f860160051c810191888710612b58575b90601f8e9a99989796959493920160051c01905b818110612b4b57506129ea565b8681558d99508301612b3e565b9091508190612b2a565b634e487b7160e01b85526041600452602485fd5b988486612bbb8a8a9c989b9d859a9f9b51948580948193630a85bd0160e11b998a845233600485015284602485015260448401526080606484015260848301906122ba565b03925af1899181612c59575b50612c25578b8b8b8b3d15612c1d573d612be08161234d565b90612bed8451928361232c565b81528091853d92013e5b80519384612c17578251633250574960e11b815260048101859052602490fd5b84925001fd5b506060612bf7565b63ffffffff60e09c979b99969a989c1b1603612c415788612956565b8551633250574960e11b815260048101889052602490fd5b9091508c81813d8311612c96575b612c71818361232c565b81010312612c9257516001600160e01b031981168103612c92579038612bc7565b8980fd5b503d612c67565b87516339e3563760e11b815260048101879052602490fd5b600083815260046020526040902080546001600160a01b0319169055808a5260038b528b8a208781540190556128fe565b8751633250574960e11b815260048101879052602490fd5b634e487b7160e01b600052601160045260246000fdfea2646970667358221220949ef06766c1538c21ceeb3a792dfa147205ccd0c508c5096d7e27de0c4f1d6064736f6c63430008180033","opcodes":"PUSH1 0x40 PUSH1 0xA0 DUP2 MSTORE CALLVALUE PUSH3 0x427 JUMPI PUSH3 0x31E8 DUP2 DUP2 CODESIZE SUB SWAP2 DUP3 PUSH3 0x20 DUP2 PUSH3 0x462 JUMP JUMPDEST SWAP4 DUP5 SWAP3 DUP4 CODECOPY DUP2 ADD SUB SLT PUSH3 0x427 JUMPI PUSH3 0x39 DUP2 PUSH3 0x488 JUMP JUMPDEST SWAP2 PUSH3 0x49 PUSH1 0x20 DUP1 SWAP4 ADD PUSH3 0x488 JUMP JUMPDEST SWAP1 PUSH1 0x0 SWAP3 PUSH3 0x57 PUSH3 0x42C JUMP JUMPDEST SWAP3 PUSH1 0x18 DUP5 MSTORE PUSH32 0x41697253706163652043726F73732D436861696E204E46540000000000000000 DUP3 DUP6 ADD MSTORE PUSH3 0x8B PUSH3 0x42C JUMP JUMPDEST PUSH1 0x7 DUP2 MSTORE PUSH7 0x1054D0D0D39195 PUSH1 0xCA SHL DUP4 DUP3 ADD MSTORE PUSH1 0x1 PUSH1 0x1 PUSH1 0xA0 SHL SUB SWAP7 DUP1 DUP9 AND ISZERO PUSH3 0x40F JUMPI PUSH1 0x80 MSTORE DUP5 MLOAD PUSH1 0x1 PUSH1 0x1 PUSH1 0x40 SHL SUB SWAP2 DUP3 DUP3 GT PUSH3 0x319 JUMPI DUP8 SLOAD SWAP2 PUSH1 0x1 SWAP8 DUP9 DUP5 DUP2 SHR SWAP5 AND DUP1 ISZERO PUSH3 0x404 JUMPI JUMPDEST DUP8 DUP6 LT EQ PUSH3 0x3F0 JUMPI DUP2 SWAP1 PUSH1 0x1F SWAP5 DUP6 DUP2 GT PUSH3 0x39D JUMPI JUMPDEST POP DUP8 SWAP1 DUP6 DUP4 GT PUSH1 0x1 EQ PUSH3 0x339 JUMPI DUP12 SWAP3 PUSH3 0x32D JUMPI JUMPDEST POP POP PUSH1 0x0 NOT PUSH1 0x3 DUP4 SWAP1 SHL SHR NOT AND SWAP1 DUP9 SHL OR DUP9 SSTORE JUMPDEST DUP1 MLOAD SWAP3 DUP4 GT PUSH3 0x319 JUMPI DUP7 SLOAD DUP8 DUP2 DUP2 SHR SWAP2 AND DUP1 ISZERO PUSH3 0x30E JUMPI JUMPDEST DUP7 DUP3 LT EQ PUSH3 0x2FA JUMPI SWAP1 DUP2 DUP4 DUP6 SWAP5 SWAP4 GT PUSH3 0x2A5 JUMPI JUMPDEST POP DUP6 SWAP2 DUP4 GT PUSH1 0x1 EQ PUSH3 0x241 JUMPI DUP9 SWAP3 PUSH3 0x235 JUMPI JUMPDEST POP POP PUSH1 0x0 NOT PUSH1 0x3 DUP4 SWAP1 SHL SHR NOT AND SWAP1 DUP6 SHL OR DUP5 SSTORE JUMPDEST CALLER ISZERO PUSH3 0x21D JUMPI PUSH1 0x7 DUP1 SLOAD PUSH1 0x1 PUSH1 0x1 PUSH1 0xA0 SHL SUB NOT DUP1 DUP3 AND CALLER SWAP1 DUP2 OR SWAP1 SWAP4 SSTORE DUP6 MLOAD SWAP9 PUSH1 0x9 SWAP6 SWAP5 SWAP2 SWAP4 SWAP1 SWAP3 DUP4 AND PUSH32 0x8BE0079C531659141344CD1FD0A4F28419497F9722A3DAAFE3B4186F6B6457E0 DUP11 DUP1 LOG3 AND SWAP1 PUSH1 0xE SLOAD AND OR PUSH1 0xE SSTORE DUP4 PUSH1 0x8 SSTORE PUSH8 0xCCF0A31A221F3C9B DUP6 MSTORE MSTORE DUP1 DUP4 KECCAK256 SWAP3 PUSH1 0xFF NOT SWAP4 DUP4 DUP6 DUP3 SLOAD AND OR SWAP1 SSTORE PUSH8 0xDE41BA4FC9D91AD9 DUP2 MSTORE KECCAK256 SWAP2 DUP3 SLOAD AND OR SWAP1 SSTORE PUSH2 0x2D4A SWAP1 DUP2 PUSH3 0x49E DUP3 CODECOPY PUSH1 0x80 MLOAD DUP2 DUP2 DUP2 PUSH2 0x5E0 ADD MSTORE PUSH2 0x95E ADD MSTORE RETURN JUMPDEST DUP3 MLOAD PUSH4 0x1E4FBDF7 PUSH1 0xE0 SHL DUP2 MSTORE PUSH1 0x4 DUP2 ADD DUP7 SWAP1 MSTORE PUSH1 0x24 SWAP1 REVERT JUMPDEST ADD MLOAD SWAP1 POP CODESIZE DUP1 PUSH3 0x160 JUMP JUMPDEST DUP8 DUP10 MSTORE DUP6 DUP10 KECCAK256 DUP9 SWAP5 POP SWAP2 SWAP1 PUSH1 0x1F NOT DUP5 AND DUP11 JUMPDEST DUP9 DUP3 DUP3 LT PUSH3 0x28E JUMPI POP POP DUP5 GT PUSH3 0x274 JUMPI JUMPDEST POP POP POP DUP2 SHL ADD DUP5 SSTORE PUSH3 0x174 JUMP JUMPDEST ADD MLOAD PUSH1 0x0 NOT PUSH1 0xF8 DUP5 PUSH1 0x3 SHL AND SHR NOT AND SWAP1 SSTORE CODESIZE DUP1 DUP1 PUSH3 0x266 JUMP JUMPDEST DUP4 DUP6 ADD MLOAD DUP7 SSTORE DUP12 SWAP8 SWAP1 SWAP6 ADD SWAP5 SWAP4 DUP5 ADD SWAP4 ADD PUSH3 0x253 JUMP JUMPDEST SWAP1 SWAP2 SWAP3 POP DUP8 DUP10 MSTORE DUP6 DUP10 KECCAK256 DUP4 DUP1 DUP7 ADD PUSH1 0x5 SHR DUP3 ADD SWAP3 DUP9 DUP8 LT PUSH3 0x2F0 JUMPI JUMPDEST SWAP2 DUP7 SWAP6 DUP12 SWAP3 SWAP6 SWAP5 SWAP4 ADD PUSH1 0x5 SHR ADD SWAP2 JUMPDEST DUP3 DUP2 LT PUSH3 0x2E1 JUMPI POP POP PUSH3 0x14B JUMP JUMPDEST DUP12 DUP2 SSTORE DUP7 SWAP6 POP DUP11 SWAP2 ADD PUSH3 0x2D1 JUMP JUMPDEST SWAP3 POP DUP2 SWAP3 PUSH3 0x2C2 JUMP JUMPDEST PUSH4 0x4E487B71 PUSH1 0xE0 SHL DUP10 MSTORE PUSH1 0x22 PUSH1 0x4 MSTORE PUSH1 0x24 DUP10 REVERT JUMPDEST SWAP1 PUSH1 0x7F AND SWAP1 PUSH3 0x135 JUMP JUMPDEST PUSH4 0x4E487B71 PUSH1 0xE0 SHL DUP9 MSTORE PUSH1 0x41 PUSH1 0x4 MSTORE PUSH1 0x24 DUP9 REVERT JUMPDEST ADD MLOAD SWAP1 POP CODESIZE DUP1 PUSH3 0x107 JUMP JUMPDEST DUP12 DUP1 MSTORE DUP9 DUP13 KECCAK256 DUP12 SWAP5 POP SWAP2 SWAP1 PUSH1 0x1F NOT DUP5 AND DUP14 JUMPDEST DUP12 DUP3 DUP3 LT PUSH3 0x386 JUMPI POP POP DUP5 GT PUSH3 0x36C JUMPI JUMPDEST POP POP POP DUP2 SHL ADD DUP9 SSTORE PUSH3 0x11B JUMP JUMPDEST ADD MLOAD PUSH1 0x0 NOT PUSH1 0xF8 DUP5 PUSH1 0x3 SHL AND SHR NOT AND SWAP1 SSTORE CODESIZE DUP1 DUP1 PUSH3 0x35E JUMP JUMPDEST DUP4 DUP6 ADD MLOAD DUP7 SSTORE DUP15 SWAP8 SWAP1 SWAP6 ADD SWAP5 SWAP4 DUP5 ADD SWAP4 ADD PUSH3 0x34B JUMP JUMPDEST SWAP1 SWAP2 POP DUP11 DUP1 MSTORE DUP8 DUP12 KECCAK256 DUP6 DUP1 DUP6 ADD PUSH1 0x5 SHR DUP3 ADD SWAP3 DUP11 DUP7 LT PUSH3 0x3E6 JUMPI JUMPDEST SWAP2 DUP13 SWAP2 DUP7 SWAP6 SWAP5 SWAP4 ADD PUSH1 0x5 SHR ADD SWAP2 JUMPDEST DUP3 DUP2 LT PUSH3 0x3D7 JUMPI POP POP PUSH3 0xF1 JUMP JUMPDEST DUP14 DUP2 SSTORE DUP6 SWAP5 POP DUP13 SWAP2 ADD PUSH3 0x3C7 JUMP JUMPDEST SWAP3 POP DUP2 SWAP3 PUSH3 0x3B9 JUMP JUMPDEST PUSH4 0x4E487B71 PUSH1 0xE0 SHL DUP11 MSTORE PUSH1 0x22 PUSH1 0x4 MSTORE PUSH1 0x24 DUP11 REVERT JUMPDEST SWAP4 PUSH1 0x7F AND SWAP4 PUSH3 0xDA JUMP JUMPDEST DUP5 MLOAD PUSH4 0x35FDCCCD PUSH1 0xE2 SHL DUP2 MSTORE PUSH1 0x4 DUP2 ADD DUP9 SWAP1 MSTORE PUSH1 0x24 SWAP1 REVERT JUMPDEST PUSH1 0x0 DUP1 REVERT JUMPDEST PUSH1 0x40 DUP1 MLOAD SWAP2 SWAP1 DUP3 ADD PUSH1 0x1 PUSH1 0x1 PUSH1 0x40 SHL SUB DUP2 GT DUP4 DUP3 LT OR PUSH3 0x44C JUMPI PUSH1 0x40 MSTORE JUMP JUMPDEST PUSH4 0x4E487B71 PUSH1 0xE0 SHL PUSH1 0x0 MSTORE PUSH1 0x41 PUSH1 0x4 MSTORE PUSH1 0x24 PUSH1 0x0 REVERT JUMPDEST PUSH1 0x40 MLOAD SWAP2 SWAP1 PUSH1 0x1F ADD PUSH1 0x1F NOT AND DUP3 ADD PUSH1 0x1 PUSH1 0x1 PUSH1 0x40 SHL SUB DUP2 GT DUP4 DUP3 LT OR PUSH3 0x44C JUMPI PUSH1 0x40 MSTORE JUMP JUMPDEST MLOAD SWAP1 PUSH1 0x1 PUSH1 0x1 PUSH1 0xA0 SHL SUB DUP3 AND DUP3 SUB PUSH3 0x427 JUMPI JUMP INVALID PUSH1 0x80 PUSH1 0x40 MSTORE PUSH1 0x4 CALLDATASIZE LT ISZERO PUSH2 0x18 JUMPI JUMPDEST CALLDATASIZE ISZERO PUSH2 0x16 JUMPI STOP JUMPDEST STOP JUMPDEST PUSH1 0x0 CALLDATALOAD PUSH1 0xE0 SHR DUP1 PUSH4 0x1E33667 EQ PUSH2 0x21B0 JUMPI DUP1 PUSH4 0x1FFC9A7 EQ PUSH2 0x2128 JUMPI DUP1 PUSH4 0x6FDDE03 EQ PUSH2 0x207D JUMPI DUP1 PUSH4 0x7B18BDE EQ PUSH2 0x202C JUMPI DUP1 PUSH4 0x81812FC EQ PUSH2 0x1FEE JUMPI DUP1 PUSH4 0x95EA7B3 EQ PUSH2 0x1F07 JUMPI DUP1 PUSH4 0x1478585A EQ PUSH2 0x1CB5 JUMPI DUP1 PUSH4 0x1F7F31A4 EQ PUSH2 0x1C97 JUMPI DUP1 PUSH4 0x23B872DD EQ PUSH2 0x1C80 JUMPI DUP1 PUSH4 0x2753C73C EQ PUSH2 0x1BD5 JUMPI DUP1 PUSH4 0x2983C4B8 EQ PUSH2 0x1C3D JUMPI DUP1 PUSH4 0x2B1EAF29 EQ PUSH2 0x1C14 JUMPI DUP1 PUSH4 0x38731685 EQ PUSH2 0x1BD5 JUMPI DUP1 PUSH4 0x42842E0E EQ PUSH2 0x1BA7 JUMPI DUP1 PUSH4 0x54FF3C23 EQ PUSH2 0x320 JUMPI DUP1 PUSH4 0x563046CF EQ PUSH2 0x1A70 JUMPI DUP1 PUSH4 0x6352211E EQ PUSH2 0x1A40 JUMPI DUP1 PUSH4 0x652AD8D0 EQ PUSH2 0x7E1 JUMPI DUP1 PUSH4 0x68511549 EQ PUSH2 0x19FE JUMPI DUP1 PUSH4 0x68794FE2 EQ PUSH2 0x19B9 JUMPI DUP1 PUSH4 0x70A08231 EQ PUSH2 0x1960 JUMPI DUP1 PUSH4 0x715018A6 EQ PUSH2 0x1903 JUMPI DUP1 PUSH4 0x85572FFB EQ PUSH2 0x92C JUMPI DUP1 PUSH4 0x8DA5CB5B EQ PUSH2 0x903 JUMPI DUP1 PUSH4 0x95D89B41 EQ PUSH2 0x820 JUMPI DUP1 PUSH4 0x9884C2B0 EQ PUSH2 0x7E1 JUMPI DUP1 PUSH4 0x9EC0F4D4 EQ PUSH2 0x6B4 JUMPI DUP1 PUSH4 0xA22CB465 EQ PUSH2 0x60F JUMPI DUP1 PUSH4 0xB0F479A1 EQ PUSH2 0x5CA JUMPI DUP1 PUSH4 0xB88D4FDE EQ PUSH2 0x570 JUMPI DUP1 PUSH4 0xBA9C81F2 EQ PUSH2 0x1CB JUMPI DUP1 PUSH4 0xC0273D2F EQ PUSH2 0x418 JUMPI DUP1 PUSH4 0xC7EEE0EE EQ PUSH2 0x3D6 JUMPI DUP1 PUSH4 0xC87B56DD EQ PUSH2 0x368 JUMPI DUP1 PUSH4 0xCD32D95A EQ PUSH2 0x320 JUMPI DUP1 PUSH4 0xD1806047 EQ PUSH2 0x2DB JUMPI DUP1 PUSH4 0xE985E9C5 EQ PUSH2 0x285 JUMPI DUP1 PUSH4 0xF2FDE38B EQ PUSH2 0x1FC JUMPI PUSH4 0xF6331015 SUB PUSH2 0xE JUMPI JUMPDEST CALLVALUE PUSH2 0x1F7 JUMPI PUSH1 0x20 CALLDATASIZE PUSH1 0x3 NOT ADD SLT PUSH2 0x1F7 JUMPI PUSH1 0x4 CALLDATALOAD PUSH1 0x0 MSTORE PUSH1 0xD PUSH1 0x20 MSTORE PUSH1 0x20 PUSH1 0x40 PUSH1 0x0 KECCAK256 SLOAD PUSH1 0x40 MLOAD SWAP1 DUP2 MSTORE RETURN JUMPDEST PUSH1 0x0 DUP1 REVERT JUMPDEST CALLVALUE PUSH2 0x1F7 JUMPI PUSH1 0x20 CALLDATASIZE PUSH1 0x3 NOT ADD SLT PUSH2 0x1F7 JUMPI PUSH2 0x215 PUSH2 0x2236 JUMP JUMPDEST PUSH2 0x21D PUSH2 0x2692 JUMP JUMPDEST PUSH1 0x1 PUSH1 0x1 PUSH1 0xA0 SHL SUB SWAP1 DUP2 AND SWAP1 DUP2 ISZERO PUSH2 0x26C JUMPI PUSH1 0x7 SLOAD DUP3 PUSH1 0x1 PUSH1 0x1 PUSH1 0x60 SHL SUB PUSH1 0xA0 SHL DUP3 AND OR PUSH1 0x7 SSTORE AND PUSH32 0x8BE0079C531659141344CD1FD0A4F28419497F9722A3DAAFE3B4186F6B6457E0 PUSH1 0x0 DUP1 LOG3 STOP JUMPDEST PUSH1 0x40 MLOAD PUSH4 0x1E4FBDF7 PUSH1 0xE0 SHL DUP2 MSTORE PUSH1 0x0 PUSH1 0x4 DUP3 ADD MSTORE PUSH1 0x24 SWAP1 REVERT JUMPDEST CALLVALUE PUSH2 0x1F7 JUMPI PUSH1 0x40 CALLDATASIZE PUSH1 0x3 NOT ADD SLT PUSH2 0x1F7 JUMPI PUSH2 0x29E PUSH2 0x2236 JUMP JUMPDEST PUSH2 0x2A6 PUSH2 0x224C JUMP JUMPDEST SWAP1 PUSH1 0x1 DUP1 PUSH1 0xA0 SHL SUB DUP1 SWAP2 AND PUSH1 0x0 MSTORE PUSH1 0x5 PUSH1 0x20 MSTORE PUSH1 0x40 PUSH1 0x0 KECCAK256 SWAP2 AND PUSH1 0x0 MSTORE PUSH1 0x20 MSTORE PUSH1 0x20 PUSH1 0xFF PUSH1 0x40 PUSH1 0x0 KECCAK256 SLOAD AND PUSH1 0x40 MLOAD SWAP1 ISZERO ISZERO DUP2 MSTORE RETURN JUMPDEST CALLVALUE PUSH2 0x1F7 JUMPI PUSH1 0x20 CALLDATASIZE PUSH1 0x3 NOT ADD SLT PUSH2 0x1F7 JUMPI PUSH1 0x1 PUSH1 0x1 PUSH1 0x40 SHL SUB PUSH2 0x2FC PUSH2 0x22DF JUMP JUMPDEST PUSH2 0x304 PUSH2 0x2692 JUMP JUMPDEST AND PUSH1 0x0 SWAP1 DUP2 MSTORE PUSH1 0x9 PUSH1 0x20 MSTORE PUSH1 0x40 SWAP1 KECCAK256 DUP1 SLOAD PUSH1 0xFF NOT AND PUSH1 0x1 OR SWAP1 SSTORE STOP JUMPDEST CALLVALUE PUSH2 0x1F7 JUMPI PUSH1 0x40 CALLDATASIZE PUSH1 0x3 NOT ADD SLT PUSH2 0x1F7 JUMPI PUSH1 0x1 PUSH1 0x1 PUSH1 0x40 SHL SUB PUSH2 0x341 PUSH2 0x22DF JUMP JUMPDEST AND PUSH1 0x0 MSTORE PUSH1 0xC PUSH1 0x20 MSTORE PUSH1 0x40 PUSH1 0x0 KECCAK256 PUSH1 0x24 CALLDATALOAD PUSH1 0x0 MSTORE PUSH1 0x20 MSTORE PUSH1 0x20 PUSH1 0x40 PUSH1 0x0 KECCAK256 SLOAD PUSH1 0x40 MLOAD SWAP1 DUP2 MSTORE RETURN JUMPDEST CALLVALUE PUSH2 0x1F7 JUMPI PUSH1 0x20 CALLDATASIZE PUSH1 0x3 NOT ADD SLT PUSH2 0x1F7 JUMPI PUSH1 0x4 CALLDATALOAD PUSH2 0x385 DUP2 PUSH2 0x26BE JUMP JUMPDEST POP PUSH1 0x0 MSTORE PUSH1 0x6 PUSH1 0x20 MSTORE PUSH2 0x3D2 PUSH2 0x3A8 PUSH2 0x3AF PUSH1 0x40 PUSH1 0x0 KECCAK256 PUSH1 0x40 MLOAD SWAP3 DUP4 DUP1 SWAP3 PUSH2 0x23E9 JUMP JUMPDEST SUB DUP3 PUSH2 0x232C JUMP JUMPDEST PUSH1 0x0 PUSH1 0x40 MLOAD PUSH2 0x3BD DUP2 PUSH2 0x2311 JUMP JUMPDEST MSTORE PUSH1 0x40 MLOAD SWAP2 DUP3 SWAP2 PUSH1 0x20 DUP4 MSTORE PUSH1 0x20 DUP4 ADD SWAP1 PUSH2 0x22BA JUMP JUMPDEST SUB SWAP1 RETURN JUMPDEST CALLVALUE PUSH2 0x1F7 JUMPI PUSH1 0x20 CALLDATASIZE PUSH1 0x3 NOT ADD SLT PUSH2 0x1F7 JUMPI PUSH1 0x1 PUSH1 0x1 PUSH1 0x40 SHL SUB PUSH2 0x3F7 PUSH2 0x22DF JUMP JUMPDEST PUSH2 0x3FF PUSH2 0x2692 JUMP JUMPDEST AND PUSH1 0x0 SWAP1 DUP2 MSTORE PUSH1 0x9 PUSH1 0x20 MSTORE PUSH1 0x40 SWAP1 KECCAK256 DUP1 SLOAD PUSH1 0xFF NOT AND SWAP1 SSTORE STOP JUMPDEST CALLVALUE PUSH2 0x1F7 JUMPI PUSH1 0x20 CALLDATASIZE PUSH1 0x3 NOT ADD SLT PUSH2 0x1F7 JUMPI PUSH1 0x1 PUSH1 0x1 PUSH1 0x40 SHL SUB PUSH1 0x4 CALLDATALOAD DUP2 DUP2 GT PUSH2 0x1F7 JUMPI PUSH2 0x449 SWAP1 CALLDATASIZE SWAP1 PUSH1 0x4 ADD PUSH2 0x2368 JUMP JUMPDEST DUP1 MLOAD DUP2 ADD PUSH2 0x180 DUP3 DUP3 SUB SLT PUSH2 0x1F7 JUMPI PUSH2 0x464 PUSH1 0x20 DUP4 ADD PUSH2 0x2639 JUMP JUMPDEST SWAP2 PUSH1 0x40 DUP2 ADD MLOAD SWAP1 PUSH2 0x477 PUSH1 0x60 DUP3 ADD PUSH2 0x2639 JUMP JUMPDEST SWAP3 PUSH1 0x80 DUP3 ADD MLOAD DUP7 DUP2 GT PUSH2 0x1F7 JUMPI PUSH2 0x496 SWAP1 PUSH1 0x20 DUP1 DUP5 ADD SWAP2 DUP6 ADD ADD PUSH2 0x264D JUMP JUMPDEST PUSH1 0xA0 DUP4 ADD MLOAD SWAP1 PUSH1 0xC0 DUP5 ADD MLOAD PUSH1 0xE0 DUP6 ADD MLOAD PUSH2 0x100 DUP7 ADD MLOAD SWAP2 PUSH2 0x120 DUP8 ADD MLOAD SWAP11 DUP12 GT PUSH2 0x1F7 JUMPI PUSH2 0x52A PUSH2 0x4D3 PUSH1 0x20 SWAP13 DUP14 DUP1 PUSH2 0x54D SWAP11 ADD SWAP2 DUP12 ADD ADD PUSH2 0x264D JUMP JUMPDEST SWAP5 PUSH2 0x4E1 PUSH2 0x140 DUP11 ADD PUSH2 0x2639 JUMP JUMPDEST SWAP11 PUSH2 0x180 PUSH2 0x4F2 PUSH2 0x160 DUP13 ADD PUSH2 0x2639 JUMP JUMPDEST SWAP11 ADD MLOAD SWAP11 PUSH1 0x40 MLOAD SWAP15 DUP16 SWAP15 DUP16 SWAP1 PUSH1 0x1 DUP1 PUSH1 0xA0 SHL SUB AND DUP2 MSTORE ADD MSTORE PUSH1 0x1 DUP1 PUSH1 0xA0 SHL SUB AND PUSH1 0x40 DUP14 ADD MSTORE PUSH2 0x180 PUSH1 0x60 DUP14 ADD MSTORE PUSH2 0x180 DUP13 ADD SWAP1 PUSH2 0x22BA JUMP JUMPDEST SWAP5 PUSH1 0x80 DUP12 ADD MSTORE PUSH1 0xA0 DUP11 ADD MSTORE PUSH1 0xC0 DUP10 ADD MSTORE PUSH1 0xE0 DUP9 ADD MSTORE DUP7 DUP3 SUB PUSH2 0x100 DUP9 ADD MSTORE PUSH2 0x22BA JUMP JUMPDEST PUSH1 0x1 PUSH1 0x1 PUSH1 0xA0 SHL SUB SWAP4 DUP5 AND PUSH2 0x120 DUP7 ADD MSTORE SWAP3 AND PUSH2 0x140 DUP5 ADD MSTORE PUSH2 0x160 DUP4 ADD MSTORE SUB SWAP1 RETURN JUMPDEST CALLVALUE PUSH2 0x1F7 JUMPI PUSH1 0x80 CALLDATASIZE PUSH1 0x3 NOT ADD SLT PUSH2 0x1F7 JUMPI PUSH2 0x589 PUSH2 0x2236 JUMP JUMPDEST PUSH2 0x591 PUSH2 0x224C JUMP JUMPDEST SWAP1 PUSH1 0x44 CALLDATALOAD PUSH1 0x64 CALLDATALOAD SWAP3 PUSH1 0x1 PUSH1 0x1 PUSH1 0x40 SHL SUB DUP5 GT PUSH2 0x1F7 JUMPI PUSH2 0x5B8 PUSH2 0x16 SWAP5 CALLDATASIZE SWAP1 PUSH1 0x4 ADD PUSH2 0x2368 JUMP JUMPDEST SWAP3 PUSH2 0x5C4 DUP4 DUP4 DUP4 PUSH2 0x2497 JUMP JUMPDEST CALLER PUSH2 0x26F9 JUMP JUMPDEST CALLVALUE PUSH2 0x1F7 JUMPI PUSH1 0x0 CALLDATASIZE PUSH1 0x3 NOT ADD SLT PUSH2 0x1F7 JUMPI PUSH1 0x40 MLOAD PUSH32 0x0 PUSH1 0x1 PUSH1 0x1 PUSH1 0xA0 SHL SUB AND DUP2 MSTORE PUSH1 0x20 SWAP1 RETURN JUMPDEST CALLVALUE PUSH2 0x1F7 JUMPI PUSH1 0x40 CALLDATASIZE PUSH1 0x3 NOT ADD SLT PUSH2 0x1F7 JUMPI PUSH2 0x628 PUSH2 0x2236 JUMP JUMPDEST PUSH1 0x24 CALLDATALOAD SWAP1 DUP2 ISZERO ISZERO DUP1 SWAP3 SUB PUSH2 0x1F7 JUMPI PUSH1 0x1 PUSH1 0x1 PUSH1 0xA0 SHL SUB AND SWAP1 DUP2 ISZERO PUSH2 0x69B JUMPI CALLER PUSH1 0x0 MSTORE PUSH1 0x5 PUSH1 0x20 MSTORE PUSH1 0x40 PUSH1 0x0 KECCAK256 DUP3 PUSH1 0x0 MSTORE PUSH1 0x20 MSTORE PUSH1 0x40 PUSH1 0x0 KECCAK256 PUSH1 0xFF NOT DUP2 SLOAD AND PUSH1 0xFF DUP4 AND OR SWAP1 SSTORE PUSH1 0x40 MLOAD SWAP1 DUP2 MSTORE PUSH32 0x17307EAB39AB6107E8899845AD3D59BD9653F200F220920489CA2B5937696C31 PUSH1 0x20 CALLER SWAP3 LOG3 STOP JUMPDEST PUSH1 0x40 MLOAD PUSH4 0xB611743 PUSH1 0xE3 SHL DUP2 MSTORE PUSH1 0x4 DUP2 ADD DUP4 SWAP1 MSTORE PUSH1 0x24 SWAP1 REVERT JUMPDEST CALLVALUE PUSH2 0x1F7 JUMPI PUSH1 0x20 CALLDATASIZE PUSH1 0x3 NOT ADD SLT PUSH2 0x1F7 JUMPI PUSH1 0x4 CALLDATALOAD PUSH1 0x0 MSTORE PUSH1 0xB PUSH1 0x20 MSTORE PUSH1 0x40 PUSH1 0x0 KECCAK256 PUSH1 0x1 PUSH1 0xA0 SHL PUSH1 0x1 SWAP1 SUB DUP1 DUP3 SLOAD AND SWAP1 PUSH1 0x1 DUP4 ADD SLOAD SWAP2 DUP2 PUSH1 0x2 DUP6 ADD SLOAD AND SWAP4 PUSH1 0x40 MLOAD DUP1 DUP1 PUSH1 0x3 DUP5 ADD SWAP1 PUSH2 0x704 SWAP2 PUSH2 0x23E9 JUMP JUMPDEST SUB PUSH2 0x70F SWAP1 DUP3 PUSH2 0x232C JUMP JUMPDEST PUSH1 0x4 DUP3 ADD SLOAD PUSH1 0x5 DUP4 ADD SLOAD SWAP1 PUSH1 0x6 DUP5 ADD SLOAD PUSH1 0x7 DUP6 ADD SLOAD SWAP1 PUSH1 0x40 MLOAD SWAP4 DUP5 DUP1 PUSH1 0x8 DUP10 ADD SWAP1 PUSH2 0x739 SWAP2 PUSH2 0x23E9 JUMP JUMPDEST SUB PUSH2 0x744 SWAP1 DUP7 PUSH2 0x232C JUMP JUMPDEST DUP9 PUSH1 0x9 DUP9 ADD SLOAD AND SWAP9 PUSH1 0xA DUP9 ADD SLOAD AND SWAP6 PUSH1 0xB DUP9 ADD SLOAD SWAP8 PUSH1 0xC ADD SLOAD SWAP9 PUSH1 0x40 MLOAD SWAP13 DUP14 SWAP13 DUP14 PUSH2 0x1C0 SWAP4 DUP2 MSTORE PUSH1 0x20 ADD MSTORE PUSH1 0x40 DUP14 ADD MSTORE DUP1 PUSH1 0x60 DUP14 ADD MSTORE DUP12 ADD PUSH2 0x785 SWAP2 PUSH2 0x22BA JUMP JUMPDEST SWAP4 PUSH1 0x80 DUP12 ADD MSTORE PUSH1 0xA0 DUP11 ADD MSTORE PUSH1 0xC0 DUP10 ADD MSTORE PUSH1 0xE0 DUP9 ADD MSTORE DUP7 DUP2 SUB PUSH2 0x100 DUP9 ADD MSTORE PUSH2 0x7AC SWAP2 PUSH2 0x22BA JUMP JUMPDEST SWAP4 PUSH2 0x120 DUP7 ADD MSTORE PUSH2 0x140 DUP6 ADD MSTORE PUSH2 0x160 DUP5 ADD MSTORE PUSH1 0x1 PUSH1 0x1 PUSH1 0x40 SHL SUB DUP2 AND PUSH2 0x180 DUP5 ADD MSTORE PUSH1 0x40 SHR PUSH1 0xFF AND ISZERO ISZERO PUSH2 0x1A0 DUP4 ADD MSTORE SUB SWAP1 RETURN JUMPDEST CALLVALUE PUSH2 0x1F7 JUMPI PUSH1 0x20 CALLDATASIZE PUSH1 0x3 NOT ADD SLT PUSH2 0x1F7 JUMPI PUSH1 0x1 PUSH1 0x1 PUSH1 0x40 SHL SUB PUSH2 0x802 PUSH2 0x22DF JUMP JUMPDEST AND PUSH1 0x0 MSTORE PUSH1 0x9 PUSH1 0x20 MSTORE PUSH1 0x20 PUSH1 0xFF PUSH1 0x40 PUSH1 0x0 KECCAK256 SLOAD AND PUSH1 0x40 MLOAD SWAP1 ISZERO ISZERO DUP2 MSTORE RETURN JUMPDEST CALLVALUE PUSH2 0x1F7 JUMPI PUSH1 0x0 CALLDATASIZE PUSH1 0x3 NOT ADD SLT PUSH2 0x1F7 JUMPI PUSH1 0x40 MLOAD PUSH1 0x0 PUSH1 0x1 DUP3 PUSH1 0x1 SLOAD SWAP3 PUSH2 0x846 DUP5 PUSH2 0x23AF JUMP JUMPDEST SWAP3 DUP4 DUP4 MSTORE PUSH1 0x20 SWAP5 DUP6 PUSH1 0x1 DUP3 AND SWAP2 DUP3 PUSH1 0x0 EQ PUSH2 0x8E3 JUMPI POP POP PUSH1 0x1 EQ PUSH2 0x886 JUMPI JUMPDEST POP PUSH2 0x872 SWAP3 POP SUB DUP4 PUSH2 0x232C JUMP JUMPDEST PUSH2 0x3D2 PUSH1 0x40 MLOAD SWAP3 DUP3 DUP5 SWAP4 DUP5 MSTORE DUP4 ADD SWAP1 PUSH2 0x22BA JUMP JUMPDEST DUP5 SWAP2 POP PUSH1 0x1 PUSH1 0x0 MSTORE PUSH32 0xB10E2D527612073B26EECDFD717E6A320CF44B4AFAC2B0732D9FCBE2B7FA0CF6 SWAP1 PUSH1 0x0 SWAP2 JUMPDEST DUP6 DUP4 LT PUSH2 0x8CB JUMPI POP POP PUSH2 0x872 SWAP4 POP DUP3 ADD ADD DUP6 PUSH2 0x865 JUMP JUMPDEST DUP1 SLOAD DUP4 DUP10 ADD DUP6 ADD MSTORE DUP8 SWAP5 POP DUP7 SWAP4 SWAP1 SWAP3 ADD SWAP2 DUP2 ADD PUSH2 0x8B4 JUMP JUMPDEST PUSH1 0xFF NOT AND DUP6 DUP3 ADD MSTORE PUSH2 0x872 SWAP6 ISZERO ISZERO PUSH1 0x5 SHL DUP6 ADD ADD SWAP3 POP DUP8 SWAP2 POP PUSH2 0x865 SWAP1 POP JUMP JUMPDEST CALLVALUE PUSH2 0x1F7 JUMPI PUSH1 0x0 CALLDATASIZE PUSH1 0x3 NOT ADD SLT PUSH2 0x1F7 JUMPI PUSH1 0x7 SLOAD PUSH1 0x40 MLOAD PUSH1 0x1 PUSH1 0x1 PUSH1 0xA0 SHL SUB SWAP1 SWAP2 AND DUP2 MSTORE PUSH1 0x20 SWAP1 RETURN JUMPDEST CALLVALUE PUSH2 0x1F7 JUMPI PUSH1 0x3 NOT PUSH1 0x20 CALLDATASIZE DUP3 ADD SLT PUSH2 0x1F7 JUMPI PUSH1 0x4 CALLDATALOAD SWAP1 PUSH1 0x1 PUSH1 0x1 PUSH1 0x40 SHL SUB DUP3 GT PUSH2 0x1F7 JUMPI PUSH1 0xA0 SWAP1 DUP3 CALLDATASIZE SUB ADD SLT PUSH2 0x1F7 JUMPI PUSH32 0x0 PUSH1 0x1 PUSH1 0x1 PUSH1 0xA0 SHL SUB AND CALLER SUB PUSH2 0x18EB JUMPI PUSH1 0x40 MLOAD SWAP1 PUSH1 0xA0 DUP3 ADD DUP3 DUP2 LT PUSH1 0x1 PUSH1 0x1 PUSH1 0x40 SHL SUB DUP3 GT OR PUSH2 0x10C1 JUMPI PUSH1 0x40 MSTORE DUP1 PUSH1 0x4 ADD CALLDATALOAD DUP3 MSTORE PUSH1 0x24 DUP2 ADD CALLDATALOAD PUSH1 0x1 PUSH1 0x1 PUSH1 0x40 SHL SUB DUP2 AND DUP2 SUB PUSH2 0x1F7 JUMPI PUSH1 0x20 DUP4 ADD MSTORE PUSH1 0x44 DUP2 ADD CALLDATALOAD PUSH1 0x1 PUSH1 0x1 PUSH1 0x40 SHL SUB DUP2 GT PUSH2 0x1F7 JUMPI PUSH2 0x9ED SWAP1 PUSH1 0x4 CALLDATASIZE SWAP2 DUP5 ADD ADD PUSH2 0x2368 JUMP JUMPDEST PUSH1 0x40 DUP4 ADD MSTORE PUSH1 0x64 DUP2 ADD CALLDATALOAD PUSH1 0x1 PUSH1 0x1 PUSH1 0x40 SHL SUB DUP2 GT PUSH2 0x1F7 JUMPI PUSH2 0xA15 SWAP1 PUSH1 0x4 CALLDATASIZE SWAP2 DUP5 ADD ADD PUSH2 0x2368 JUMP JUMPDEST PUSH1 0x60 DUP4 ADD MSTORE PUSH1 0x84 DUP2 ADD CALLDATALOAD SWAP1 PUSH1 0x1 PUSH1 0x1 PUSH1 0x40 SHL SUB DUP3 GT PUSH2 0x1F7 JUMPI CALLDATASIZE PUSH1 0x23 DUP4 DUP4 ADD ADD SLT ISZERO PUSH2 0x1F7 JUMPI PUSH1 0x4 DUP3 DUP3 ADD ADD CALLDATALOAD PUSH1 0x1 PUSH1 0x1 PUSH1 0x40 SHL SUB DUP2 GT PUSH2 0x10C1 JUMPI PUSH1 0x40 MLOAD SWAP3 PUSH2 0xA64 PUSH1 0x20 DUP4 PUSH1 0x5 SHL ADD DUP6 PUSH2 0x232C JUMP JUMPDEST DUP2 DUP5 MSTORE PUSH1 0x20 DUP5 ADD SWAP3 CALLDATASIZE PUSH1 0x24 DUP5 PUSH1 0x6 SHL DUP5 DUP5 ADD ADD ADD GT PUSH2 0x1F7 JUMPI DUP1 DUP3 ADD PUSH1 0x24 ADD SWAP4 SWAP2 JUMPDEST PUSH1 0x24 DUP5 PUSH1 0x6 SHL DUP3 DUP5 ADD ADD ADD DUP6 LT PUSH2 0x188B JUMPI DUP7 DUP7 PUSH1 0x80 DUP3 ADD MSTORE PUSH1 0x1 PUSH1 0x1 PUSH1 0x40 SHL SUB PUSH1 0x20 DUP3 ADD MLOAD AND PUSH1 0x0 MSTORE PUSH1 0x9 PUSH1 0x20 MSTORE PUSH1 0xFF PUSH1 0x40 PUSH1 0x0 KECCAK256 SLOAD AND ISZERO PUSH2 0x1866 JUMPI PUSH1 0x40 DUP2 ADD MLOAD PUSH1 0x20 DUP2 DUP1 MLOAD DUP2 ADD SUB SLT PUSH2 0x1F7 JUMPI PUSH1 0x20 PUSH2 0xAE0 SWAP2 ADD PUSH2 0x2639 JUMP JUMPDEST POP PUSH1 0x60 DUP2 ADD MLOAD PUSH1 0x40 MLOAD PUSH4 0xC0273D2F PUSH1 0xE0 SHL DUP2 MSTORE PUSH1 0x20 PUSH1 0x4 DUP3 ADD MSTORE SWAP2 SWAP1 PUSH1 0x0 DUP4 DUP1 PUSH2 0xB0D PUSH1 0x24 DUP3 ADD DUP6 PUSH2 0x22BA JUMP JUMPDEST SUB DUP2 ADDRESS GAS STATICCALL SWAP3 PUSH1 0x0 SWAP4 PUSH1 0x0 SWAP5 PUSH1 0x0 DUP1 PUSH1 0x0 SWAP1 PUSH1 0x0 SWAP2 PUSH1 0x0 SWAP1 PUSH1 0x0 DUP1 SWAP3 PUSH1 0x0 SWAP6 DUP10 PUSH1 0x0 SWAP12 PUSH1 0x0 SWAP12 PUSH2 0x1792 JUMPI JUMPDEST POP PUSH2 0x1265 JUMPI POP POP POP POP POP POP POP POP POP POP POP PUSH2 0xB72 SWAP3 POP PUSH1 0x0 SWAP1 PUSH1 0x40 MLOAD DUP1 SWAP5 DUP2 SWAP3 PUSH4 0x563046CF PUSH1 0xE0 SHL DUP4 MSTORE PUSH1 0x20 PUSH1 0x4 DUP5 ADD MSTORE PUSH1 0x24 DUP4 ADD SWAP1 PUSH2 0x22BA JUMP JUMPDEST SUB DUP2 ADDRESS GAS STATICCALL SWAP2 PUSH1 0x0 DUP1 PUSH1 0x0 SWAP3 PUSH1 0x0 SWAP6 PUSH1 0x0 SWAP1 PUSH1 0x0 SWAP1 PUSH1 0x0 DUP1 DUP3 PUSH1 0x0 SWAP7 PUSH1 0x0 SWAP5 PUSH2 0x11A7 JUMPI JUMPDEST POP PUSH2 0xBE0 JUMPI PUSH1 0x40 MLOAD PUSH3 0x461BCD PUSH1 0xE5 SHL DUP2 MSTORE PUSH1 0x20 PUSH1 0x4 DUP3 ADD MSTORE PUSH1 0x19 PUSH1 0x24 DUP3 ADD MSTORE PUSH32 0x4661696C656420746F206465636F6465204E4654206461746100000000000000 PUSH1 0x44 DUP3 ADD MSTORE PUSH1 0x64 SWAP1 REVERT JUMPDEST PUSH1 0x1 PUSH1 0x1 PUSH1 0x40 SHL SUB PUSH1 0x20 DUP12 ADD MLOAD AND SWAP4 PUSH1 0x40 MLOAD SWAP6 PUSH2 0xBFC DUP8 PUSH2 0x22F5 JUMP JUMPDEST PUSH1 0x1 DUP1 PUSH1 0xA0 SHL SUB DUP11 AND DUP8 MSTORE DUP9 PUSH1 0x20 DUP9 ADD MSTORE PUSH1 0x1 DUP1 PUSH1 0xA0 SHL SUB DUP12 AND PUSH1 0x40 DUP9 ADD MSTORE DUP13 PUSH1 0x60 DUP9 ADD MSTORE PUSH1 0x80 DUP8 ADD MSTORE PUSH1 0xA0 DUP7 ADD MSTORE PUSH1 0xC0 DUP6 ADD MSTORE PUSH1 0xE0 DUP5 ADD MSTORE DUP4 PUSH2 0x100 DUP5 ADD MSTORE PUSH1 0x1 DUP1 PUSH1 0xA0 SHL SUB AND PUSH2 0x120 DUP4 ADD MSTORE PUSH1 0x0 PUSH2 0x140 DUP4 ADD MSTORE PUSH1 0x0 PUSH2 0x160 DUP4 ADD MSTORE PUSH2 0x180 DUP3 ADD MSTORE PUSH1 0x0 PUSH2 0x1A0 DUP3 ADD MSTORE DUP6 MLOAD PUSH1 0x0 MSTORE PUSH1 0xB PUSH1 0x20 MSTORE PUSH1 0x40 PUSH1 0x0 KECCAK256 PUSH1 0x1 DUP1 PUSH1 0xA0 SHL SUB DUP3 MLOAD AND PUSH1 0x1 PUSH1 0x1 PUSH1 0x60 SHL SUB PUSH1 0xA0 SHL DUP3 SLOAD AND OR DUP2 SSTORE PUSH1 0x20 DUP3 ADD MLOAD PUSH1 0x1 DUP3 ADD SSTORE PUSH1 0x2 DUP2 ADD PUSH1 0x1 DUP1 PUSH1 0xA0 SHL SUB PUSH1 0x40 DUP5 ADD MLOAD AND PUSH1 0x1 PUSH1 0x1 PUSH1 0x60 SHL SUB PUSH1 0xA0 SHL DUP3 SLOAD AND OR SWAP1 SSTORE PUSH1 0x60 DUP3 ADD MLOAD DUP1 MLOAD SWAP1 PUSH1 0x1 PUSH1 0x1 PUSH1 0x40 SHL SUB DUP3 GT PUSH2 0x10C1 JUMPI DUP2 SWAP1 PUSH2 0xCE3 PUSH1 0x3 DUP6 ADD SLOAD PUSH2 0x23AF JUMP JUMPDEST PUSH1 0x1F DUP2 GT PUSH2 0x1154 JUMPI JUMPDEST POP PUSH1 0x20 SWAP1 PUSH1 0x1F DUP4 GT PUSH1 0x1 EQ PUSH2 0x10E2 JUMPI PUSH1 0x0 SWAP3 PUSH2 0x10D7 JUMPI JUMPDEST POP POP DUP2 PUSH1 0x1 SHL SWAP2 PUSH1 0x0 NOT SWAP1 PUSH1 0x3 SHL SHR NOT AND OR PUSH1 0x3 DUP3 ADD SSTORE JUMPDEST PUSH1 0x80 DUP3 ADD MLOAD PUSH1 0x4 DUP3 ADD SSTORE PUSH1 0xA0 DUP3 ADD MLOAD PUSH1 0x5 DUP3 ADD SSTORE PUSH1 0xC0 DUP3 ADD MLOAD PUSH1 0x6 DUP3 ADD SSTORE PUSH1 0xE0 DUP3 ADD MLOAD PUSH1 0x7 DUP3 ADD SSTORE PUSH2 0x100 DUP3 ADD MLOAD DUP1 MLOAD SWAP1 PUSH1 0x1 PUSH1 0x1 PUSH1 0x40 SHL SUB DUP3 GT PUSH2 0x10C1 JUMPI PUSH2 0xD67 PUSH1 0x8 DUP5 ADD SLOAD PUSH2 0x23AF JUMP JUMPDEST PUSH1 0x1F DUP2 GT PUSH2 0x107A JUMPI JUMPDEST POP PUSH1 0x20 SWAP1 PUSH1 0x1F DUP4 GT PUSH1 0x1 EQ PUSH2 0xFFC JUMPI PUSH2 0xE35 SWAP4 DUP4 PUSH2 0xE3E SWAP8 SWAP7 SWAP5 PUSH2 0x1A0 SWAP5 PUSH1 0xC SWAP5 PUSH1 0x0 SWAP3 PUSH2 0xFF1 JUMPI JUMPDEST POP POP DUP2 PUSH1 0x1 SHL SWAP2 PUSH1 0x0 NOT SWAP1 PUSH1 0x3 SHL SHR NOT AND OR PUSH1 0x8 DUP3 ADD SSTORE JUMPDEST PUSH2 0x120 DUP5 ADD MLOAD PUSH1 0x9 DUP3 ADD DUP1 SLOAD PUSH1 0x1 PUSH1 0x1 PUSH1 0xA0 SHL SUB NOT SWAP1 DUP2 AND PUSH1 0x1 PUSH1 0x1 PUSH1 0xA0 SHL SUB SWAP4 DUP5 AND OR SWAP1 SWAP2 SSTORE PUSH2 0x140 DUP7 ADD MLOAD PUSH1 0xA DUP5 ADD DUP1 SLOAD SWAP1 SWAP3 AND SWAP3 AND SWAP2 SWAP1 SWAP2 OR SWAP1 SSTORE PUSH2 0x160 DUP5 ADD MLOAD PUSH1 0xB DUP3 ADD SSTORE PUSH2 0x180 DUP5 ADD MLOAD SWAP2 ADD DUP1 SLOAD SWAP3 SWAP1 SWAP4 ADD MLOAD PUSH9 0xFFFFFFFFFFFFFFFFFF NOT SWAP1 SWAP3 AND PUSH1 0x1 PUSH1 0x1 PUSH1 0x40 SHL SUB SWAP2 SWAP1 SWAP2 AND OR SWAP1 ISZERO ISZERO PUSH1 0x40 SHL PUSH1 0xFF PUSH1 0x40 SHL AND OR SWAP1 SSTORE JUMP JUMPDEST DUP6 MLOAD SWAP1 DUP6 PUSH2 0x28A3 JUMP JUMPDEST SWAP3 PUSH1 0x1 PUSH1 0x1 PUSH1 0x40 SHL SUB PUSH1 0x20 DUP7 ADD MLOAD AND PUSH1 0x0 MSTORE PUSH1 0xC PUSH1 0x20 MSTORE PUSH1 0x40 PUSH1 0x0 KECCAK256 DUP3 PUSH1 0x0 MSTORE PUSH1 0x20 MSTORE DUP4 PUSH1 0x40 PUSH1 0x0 KECCAK256 SSTORE DUP5 MLOAD DUP5 PUSH1 0x0 MSTORE PUSH1 0xD PUSH1 0x20 MSTORE PUSH1 0x40 PUSH1 0x0 KECCAK256 SSTORE DUP5 MLOAD SWAP2 PUSH1 0x1 PUSH1 0x1 PUSH1 0x40 SHL SUB PUSH1 0x20 DUP8 ADD MLOAD AND SWAP4 PUSH1 0x40 DUP8 ADD MLOAD PUSH1 0x20 DUP2 DUP1 MLOAD DUP2 ADD SUB SLT PUSH2 0x1F7 JUMPI PUSH1 0x80 SWAP9 PUSH32 0xCDDD5B08FDB6F103D1B4022B24593D484A667789DE0C0C458F396877873F9F0D SWAP5 PUSH2 0xEE9 SWAP3 PUSH1 0x1 PUSH1 0x1 PUSH1 0xA0 SHL SUB SWAP1 PUSH2 0xEDB SWAP1 PUSH1 0x20 ADD PUSH2 0x2639 JUMP JUMPDEST AND SWAP9 PUSH1 0x40 MLOAD SWAP6 DUP7 SWAP6 DUP7 PUSH2 0x2847 JUMP JUMPDEST SUB SWAP1 LOG4 DUP1 MLOAD PUSH1 0x0 MSTORE PUSH1 0xB PUSH1 0x20 MSTORE PUSH1 0xC PUSH1 0x40 PUSH1 0x0 KECCAK256 ADD PUSH1 0x1 PUSH1 0x40 SHL PUSH1 0xFF PUSH1 0x40 SHL NOT DUP3 SLOAD AND OR SWAP1 SSTORE JUMPDEST ADD MLOAD DUP1 MLOAD PUSH2 0xF1A JUMPI STOP JUMPDEST PUSH1 0x0 JUMPDEST DUP2 MLOAD DUP2 LT ISZERO PUSH2 0x16 JUMPI PUSH1 0x1 PUSH1 0x1 PUSH1 0xA0 SHL SUB PUSH2 0xF38 DUP3 DUP5 PUSH2 0x2879 JUMP JUMPDEST MLOAD MLOAD AND SWAP1 PUSH1 0x20 PUSH2 0xF48 DUP3 DUP6 PUSH2 0x2879 JUMP JUMPDEST MLOAD ADD MLOAD PUSH1 0xE SLOAD SWAP1 SWAP3 SWAP1 PUSH1 0x1 PUSH1 0x1 PUSH1 0xA0 SHL SUB AND DUP1 PUSH2 0xF6C JUMPI JUMPDEST POP POP PUSH1 0x1 SWAP2 POP ADD PUSH2 0xF1D JUMP JUMPDEST PUSH1 0x40 MLOAD PUSH4 0xA9059CBB PUSH1 0xE0 SHL DUP2 MSTORE PUSH1 0x1 PUSH1 0x1 PUSH1 0xA0 SHL SUB SWAP2 SWAP1 SWAP2 AND PUSH1 0x4 DUP3 ADD MSTORE PUSH1 0x24 DUP2 ADD SWAP4 SWAP1 SWAP4 MSTORE PUSH1 0x20 SWAP1 DUP4 SWAP1 PUSH1 0x44 SWAP1 DUP3 SWAP1 PUSH1 0x0 SWAP1 GAS CALL SWAP2 DUP3 ISZERO PUSH2 0xFE5 JUMPI PUSH1 0x1 SWAP3 PUSH2 0xFB6 JUMPI JUMPDEST DUP1 PUSH2 0xF60 JUMP JUMPDEST PUSH2 0xFD7 SWAP1 PUSH1 0x20 RETURNDATASIZE PUSH1 0x20 GT PUSH2 0xFDE JUMPI JUMPDEST PUSH2 0xFCF DUP2 DUP4 PUSH2 0x232C JUMP JUMPDEST DUP2 ADD SWAP1 PUSH2 0x247F JUMP JUMPDEST POP DUP4 PUSH2 0xFB0 JUMP JUMPDEST POP RETURNDATASIZE PUSH2 0xFC5 JUMP JUMPDEST PUSH1 0x40 MLOAD RETURNDATASIZE PUSH1 0x0 DUP3 RETURNDATACOPY RETURNDATASIZE SWAP1 REVERT JUMPDEST ADD MLOAD SWAP1 POP DUP15 DUP1 PUSH2 0xD99 JUMP JUMPDEST SWAP1 PUSH1 0x8 DUP5 ADD PUSH1 0x0 MSTORE PUSH1 0x20 PUSH1 0x0 KECCAK256 SWAP2 PUSH1 0x0 JUMPDEST PUSH1 0x1F NOT DUP6 AND DUP2 LT PUSH2 0x1062 JUMPI POP SWAP4 PUSH1 0x1 DUP5 PUSH2 0x1A0 SWAP5 PUSH1 0xC SWAP5 PUSH2 0xE35 SWAP9 PUSH2 0xE3E SWAP12 SWAP11 SWAP9 PUSH1 0x1F NOT DUP2 AND LT PUSH2 0x1049 JUMPI JUMPDEST POP POP POP DUP2 SHL ADD PUSH1 0x8 DUP3 ADD SSTORE PUSH2 0xDB1 JUMP JUMPDEST ADD MLOAD PUSH1 0x0 NOT PUSH1 0xF8 DUP5 PUSH1 0x3 SHL AND SHR NOT AND SWAP1 SSTORE DUP15 DUP1 DUP1 PUSH2 0x1039 JUMP JUMPDEST SWAP2 SWAP3 PUSH1 0x20 PUSH1 0x1 DUP2 SWAP3 DUP7 DUP6 ADD MLOAD DUP2 SSTORE ADD SWAP5 ADD SWAP3 ADD PUSH2 0x100D JUMP JUMPDEST PUSH1 0x8 DUP5 ADD PUSH1 0x0 MSTORE PUSH1 0x20 PUSH1 0x0 KECCAK256 PUSH1 0x1F DUP5 ADD PUSH1 0x5 SHR DUP2 ADD PUSH1 0x20 DUP6 LT PUSH2 0x10BA JUMPI JUMPDEST PUSH1 0x1F DUP4 ADD PUSH1 0x5 SHR DUP3 ADD DUP2 LT PUSH2 0x10AE JUMPI POP POP PUSH2 0xD70 JUMP JUMPDEST PUSH1 0x0 DUP2 SSTORE PUSH1 0x1 ADD PUSH2 0x1098 JUMP JUMPDEST POP DUP1 PUSH2 0x1098 JUMP JUMPDEST PUSH4 0x4E487B71 PUSH1 0xE0 SHL PUSH1 0x0 MSTORE PUSH1 0x41 PUSH1 0x4 MSTORE PUSH1 0x24 PUSH1 0x0 REVERT JUMPDEST ADD MLOAD SWAP1 POP DUP11 DUP1 PUSH2 0xD03 JUMP JUMPDEST SWAP3 POP PUSH1 0x3 DUP5 ADD PUSH1 0x0 MSTORE PUSH1 0x20 PUSH1 0x0 KECCAK256 SWAP1 PUSH1 0x0 SWAP4 JUMPDEST PUSH1 0x1F NOT DUP5 AND DUP6 LT PUSH2 0x1139 JUMPI PUSH1 0x1 SWAP5 POP DUP4 PUSH1 0x1F NOT DUP2 AND LT PUSH2 0x1120 JUMPI JUMPDEST POP POP POP DUP2 SHL ADD PUSH1 0x3 DUP3 ADD SSTORE PUSH2 0xD1B JUMP JUMPDEST ADD MLOAD PUSH1 0x0 NOT PUSH1 0xF8 DUP5 PUSH1 0x3 SHL AND SHR NOT AND SWAP1 SSTORE DUP11 DUP1 DUP1 PUSH2 0x1110 JUMP JUMPDEST DUP2 DUP2 ADD MLOAD DUP4 SSTORE PUSH1 0x20 SWAP5 DUP6 ADD SWAP5 PUSH1 0x1 SWAP1 SWAP4 ADD SWAP3 SWAP1 SWAP2 ADD SWAP1 PUSH2 0x10F5 JUMP JUMPDEST SWAP1 SWAP2 POP PUSH1 0x3 DUP5 ADD PUSH1 0x0 MSTORE PUSH1 0x20 PUSH1 0x0 KECCAK256 PUSH1 0x1F DUP5 ADD PUSH1 0x5 SHR DUP2 ADD PUSH1 0x20 DUP6 LT PUSH2 0x11A0 JUMPI JUMPDEST SWAP1 DUP5 SWAP4 SWAP3 SWAP2 JUMPDEST PUSH1 0x1F DUP4 ADD PUSH1 0x5 SHR DUP3 ADD DUP2 LT PUSH2 0x1191 JUMPI POP POP PUSH2 0xCEC JUMP JUMPDEST PUSH1 0x0 DUP2 SSTORE DUP6 SWAP5 POP PUSH1 0x1 ADD PUSH2 0x117B JUMP JUMPDEST POP DUP1 PUSH2 0x1175 JUMP JUMPDEST SWAP10 POP SWAP11 POP POP POP POP POP POP POP POP POP RETURNDATASIZE DUP1 PUSH1 0x0 DUP4 RETURNDATACOPY PUSH2 0x11C3 DUP2 DUP4 PUSH2 0x232C JUMP JUMPDEST DUP2 ADD SWAP1 PUSH2 0x140 DUP2 DUP4 SUB SLT PUSH2 0x1F7 JUMPI PUSH2 0x11DA DUP2 PUSH2 0x2639 JUMP JUMPDEST SWAP1 PUSH1 0x20 DUP2 ADD MLOAD SWAP2 PUSH2 0x11ED PUSH1 0x40 DUP4 ADD PUSH2 0x2639 JUMP JUMPDEST SWAP2 PUSH1 0x60 DUP2 ADD MLOAD PUSH1 0x1 PUSH1 0x1 PUSH1 0x40 SHL SUB DUP2 GT PUSH2 0x1F7 JUMPI DUP6 PUSH2 0x120D SWAP2 DUP4 ADD PUSH2 0x264D JUMP JUMPDEST SWAP5 PUSH1 0x80 DUP3 ADD MLOAD SWAP8 PUSH1 0xA0 DUP4 ADD MLOAD SWAP3 PUSH1 0xC0 DUP2 ADD MLOAD SWAP3 PUSH1 0xE0 DUP3 ADD MLOAD SWAP1 PUSH2 0x100 DUP4 ADD MLOAD SWAP1 PUSH1 0x1 PUSH1 0x1 PUSH1 0x40 SHL SUB DUP3 GT PUSH2 0x1F7 JUMPI PUSH2 0x124D PUSH2 0x120 SWAP2 PUSH2 0x1254 SWAP4 DUP7 ADD PUSH2 0x264D JUMP JUMPDEST SWAP4 ADD PUSH2 0x2639 JUMP JUMPDEST SWAP6 SWAP8 SWAP7 SWAP9 SWAP11 SWAP5 SWAP4 SWAP1 SWAP2 SWAP6 SWAP3 DUP13 PUSH2 0xB96 JUMP JUMPDEST DUP14 SWAP5 SWAP6 SWAP7 SWAP8 SWAP9 SWAP10 SWAP11 SWAP12 POP PUSH1 0x1 PUSH1 0x1 PUSH1 0x40 SHL SUB PUSH1 0x20 DUP15 ADD MLOAD AND SWAP4 PUSH1 0x40 MLOAD SWAP6 PUSH2 0x128B DUP8 PUSH2 0x22F5 JUMP JUMPDEST PUSH1 0x1 DUP1 PUSH1 0xA0 SHL SUB DUP13 AND DUP8 MSTORE PUSH1 0x20 DUP8 ADD MSTORE PUSH1 0x1 DUP1 PUSH1 0xA0 SHL SUB DUP9 AND PUSH1 0x40 DUP8 ADD MSTORE DUP10 PUSH1 0x60 DUP8 ADD MSTORE PUSH1 0x80 DUP7 ADD MSTORE PUSH1 0xA0 DUP6 ADD MSTORE PUSH1 0xC0 DUP5 ADD MSTORE PUSH1 0xE0 DUP4 ADD MSTORE DUP3 PUSH2 0x100 DUP4 ADD MSTORE PUSH1 0x1 DUP1 PUSH1 0xA0 SHL SUB DUP6 AND PUSH2 0x120 DUP4 ADD MSTORE PUSH1 0x1 DUP1 PUSH1 0xA0 SHL SUB DUP10 AND PUSH2 0x140 DUP4 ADD MSTORE DUP8 PUSH2 0x160 DUP4 ADD MSTORE PUSH2 0x180 DUP3 ADD MSTORE PUSH1 0x0 PUSH2 0x1A0 DUP3 ADD MSTORE DUP9 MLOAD PUSH1 0x0 MSTORE PUSH1 0xB PUSH1 0x20 MSTORE PUSH1 0x40 PUSH1 0x0 KECCAK256 PUSH1 0x1 DUP1 PUSH1 0xA0 SHL SUB DUP3 MLOAD AND PUSH1 0x1 PUSH1 0x1 PUSH1 0x60 SHL SUB PUSH1 0xA0 SHL DUP3 SLOAD AND OR DUP2 SSTORE PUSH1 0x20 DUP3 ADD MLOAD PUSH1 0x1 DUP3 ADD SSTORE PUSH1 0x2 DUP2 ADD PUSH1 0x1 DUP1 PUSH1 0xA0 SHL SUB PUSH1 0x40 DUP5 ADD MLOAD AND PUSH1 0x1 PUSH1 0x1 PUSH1 0x60 SHL SUB PUSH1 0xA0 SHL DUP3 SLOAD AND OR SWAP1 SSTORE PUSH1 0x60 DUP3 ADD MLOAD DUP1 MLOAD SWAP1 PUSH1 0x1 PUSH1 0x1 PUSH1 0x40 SHL SUB DUP3 GT PUSH2 0x10C1 JUMPI DUP2 SWAP1 PUSH2 0x1378 PUSH1 0x3 DUP6 ADD SLOAD PUSH2 0x23AF JUMP JUMPDEST PUSH1 0x1F DUP2 GT PUSH2 0x173F JUMPI JUMPDEST POP PUSH1 0x20 SWAP1 PUSH1 0x1F DUP4 GT PUSH1 0x1 EQ PUSH2 0x16CD JUMPI PUSH1 0x0 SWAP3 PUSH2 0x16C2 JUMPI JUMPDEST POP POP DUP2 PUSH1 0x1 SHL SWAP2 PUSH1 0x0 NOT SWAP1 PUSH1 0x3 SHL SHR NOT AND OR PUSH1 0x3 DUP3 ADD SSTORE JUMPDEST PUSH1 0x80 DUP3 ADD MLOAD PUSH1 0x4 DUP3 ADD SSTORE PUSH1 0xA0 DUP3 ADD MLOAD PUSH1 0x5 DUP3 ADD SSTORE PUSH1 0xC0 DUP3 ADD MLOAD PUSH1 0x6 DUP3 ADD SSTORE PUSH1 0xE0 DUP3 ADD MLOAD PUSH1 0x7 DUP3 ADD SSTORE PUSH2 0x100 DUP3 ADD MLOAD DUP1 MLOAD SWAP1 PUSH1 0x1 PUSH1 0x1 PUSH1 0x40 SHL SUB DUP3 GT PUSH2 0x10C1 JUMPI PUSH2 0x13FC PUSH1 0x8 DUP5 ADD SLOAD PUSH2 0x23AF JUMP JUMPDEST PUSH1 0x1F DUP2 GT PUSH2 0x167B JUMPI JUMPDEST POP PUSH1 0x20 SWAP1 PUSH1 0x1F DUP4 GT PUSH1 0x1 EQ PUSH2 0x15FE JUMPI PUSH2 0x14C8 SWAP4 DUP4 PUSH2 0x14D1 SWAP8 SWAP7 SWAP5 PUSH2 0x1A0 SWAP5 PUSH1 0xC SWAP5 PUSH1 0x0 SWAP3 PUSH2 0x15F3 JUMPI POP POP DUP2 PUSH1 0x1 SHL SWAP2 PUSH1 0x0 NOT SWAP1 PUSH1 0x3 SHL SHR NOT AND OR PUSH1 0x8 DUP3 ADD SSTORE PUSH2 0x120 DUP5 ADD MLOAD PUSH1 0x9 DUP3 ADD DUP1 SLOAD PUSH1 0x1 PUSH1 0x1 PUSH1 0xA0 SHL SUB NOT SWAP1 DUP2 AND PUSH1 0x1 PUSH1 0x1 PUSH1 0xA0 SHL SUB SWAP4 DUP5 AND OR SWAP1 SWAP2 SSTORE PUSH2 0x140 DUP7 ADD MLOAD PUSH1 0xA DUP5 ADD DUP1 SLOAD SWAP1 SWAP3 AND SWAP3 AND SWAP2 SWAP1 SWAP2 OR SWAP1 SSTORE PUSH2 0x160 DUP5 ADD MLOAD PUSH1 0xB DUP3 ADD SSTORE PUSH2 0x180 DUP5 ADD MLOAD SWAP2 ADD DUP1 SLOAD SWAP3 SWAP1 SWAP4 ADD MLOAD PUSH9 0xFFFFFFFFFFFFFFFFFF NOT SWAP1 SWAP3 AND PUSH1 0x1 PUSH1 0x1 PUSH1 0x40 SHL SUB SWAP2 SWAP1 SWAP2 AND OR SWAP1 ISZERO ISZERO PUSH1 0x40 SHL PUSH1 0xFF PUSH1 0x40 SHL AND OR SWAP1 SSTORE JUMP JUMPDEST DUP9 MLOAD SWAP1 DUP5 PUSH2 0x28A3 JUMP JUMPDEST SWAP1 PUSH1 0x1 PUSH1 0x1 PUSH1 0x40 SHL SUB PUSH1 0x20 DUP10 ADD MLOAD AND PUSH1 0x0 MSTORE PUSH1 0xC PUSH1 0x20 MSTORE PUSH1 0x40 PUSH1 0x0 KECCAK256 DUP10 PUSH1 0x0 MSTORE PUSH1 0x20 MSTORE DUP2 PUSH1 0x40 PUSH1 0x0 KECCAK256 SSTORE DUP8 MLOAD DUP3 PUSH1 0x0 MSTORE PUSH1 0xD PUSH1 0x20 MSTORE PUSH1 0x40 PUSH1 0x0 KECCAK256 SSTORE DUP8 MLOAD PUSH1 0x1 PUSH1 0x1 PUSH1 0x40 SHL SUB PUSH1 0x20 DUP11 ADD MLOAD AND SWAP1 PUSH1 0x40 DUP11 ADD MLOAD SWAP6 PUSH1 0x20 DUP8 DUP1 MLOAD DUP2 ADD SUB SLT PUSH2 0x1F7 JUMPI PUSH1 0x80 SWAP12 PUSH32 0xC7A82A501DBAB9B410BA61B497F9D8C4219797EB9EB0FB7007D5736F5D2E2B9F SWAP9 PUSH1 0x60 SWAP9 PUSH32 0xCDDD5B08FDB6F103D1B4022B24593D484A667789DE0C0C458F396877873F9F0D SWAP4 PUSH2 0x15A2 SWAP2 PUSH1 0x1 PUSH1 0x1 PUSH1 0xA0 SHL SUB SWAP1 PUSH2 0x1593 SWAP1 PUSH1 0x20 ADD PUSH2 0x2639 JUMP JUMPDEST AND SWAP8 DUP10 PUSH1 0x40 MLOAD SWAP6 DUP7 SWAP6 DUP7 PUSH2 0x2847 JUMP JUMPDEST SUB SWAP1 LOG4 DUP7 MLOAD PUSH1 0x40 DUP1 MLOAD PUSH1 0x1 PUSH1 0x1 PUSH1 0xA0 SHL SUB SWAP9 DUP10 AND DUP2 MSTORE PUSH1 0x20 DUP2 ADD SWAP8 SWAP1 SWAP8 MSTORE DUP7 ADD SWAP2 SWAP1 SWAP2 MSTORE SWAP5 AND SWAP4 SWAP3 LOG3 DUP1 MLOAD PUSH1 0x0 MSTORE PUSH1 0xB PUSH1 0x20 MSTORE PUSH1 0xC PUSH1 0x40 PUSH1 0x0 KECCAK256 ADD PUSH1 0x1 PUSH1 0x40 SHL PUSH1 0xFF PUSH1 0x40 SHL NOT DUP3 SLOAD AND OR SWAP1 SSTORE PUSH2 0xF10 JUMP JUMPDEST ADD MLOAD SWAP1 POP CODESIZE DUP1 PUSH2 0xD99 JUMP JUMPDEST SWAP1 PUSH1 0x8 DUP5 ADD PUSH1 0x0 MSTORE PUSH1 0x20 PUSH1 0x0 KECCAK256 SWAP2 PUSH1 0x0 JUMPDEST PUSH1 0x1F NOT DUP6 AND DUP2 LT PUSH2 0x1663 JUMPI POP SWAP4 PUSH1 0x1 DUP5 PUSH2 0x1A0 SWAP5 PUSH1 0xC SWAP5 PUSH2 0x14C8 SWAP9 PUSH2 0x14D1 SWAP12 SWAP11 SWAP9 PUSH1 0x1F NOT DUP2 AND LT PUSH2 0x164A JUMPI POP POP POP DUP2 SHL ADD PUSH1 0x8 DUP3 ADD SSTORE PUSH2 0xDB1 JUMP JUMPDEST ADD MLOAD PUSH1 0x0 NOT PUSH1 0xF8 DUP5 PUSH1 0x3 SHL AND SHR NOT AND SWAP1 SSTORE CODESIZE DUP1 DUP1 PUSH2 0x1039 JUMP JUMPDEST SWAP2 SWAP3 PUSH1 0x20 PUSH1 0x1 DUP2 SWAP3 DUP7 DUP6 ADD MLOAD DUP2 SSTORE ADD SWAP5 ADD SWAP3 ADD PUSH2 0x160F JUMP JUMPDEST PUSH1 0x8 DUP5 ADD PUSH1 0x0 MSTORE PUSH1 0x20 PUSH1 0x0 KECCAK256 PUSH1 0x1F DUP5 ADD PUSH1 0x5 SHR DUP2 ADD PUSH1 0x20 DUP6 LT PUSH2 0x16BB JUMPI JUMPDEST PUSH1 0x1F DUP4 ADD PUSH1 0x5 SHR DUP3 ADD DUP2 LT PUSH2 0x16AF JUMPI POP POP PUSH2 0x1405 JUMP JUMPDEST PUSH1 0x0 DUP2 SSTORE PUSH1 0x1 ADD PUSH2 0x1699 JUMP JUMPDEST POP DUP1 PUSH2 0x1699 JUMP JUMPDEST ADD MLOAD SWAP1 POP DUP14 DUP1 PUSH2 0x1398 JUMP JUMPDEST SWAP3 POP PUSH1 0x3 DUP5 ADD PUSH1 0x0 MSTORE PUSH1 0x20 PUSH1 0x0 KECCAK256 SWAP1 PUSH1 0x0 SWAP4 JUMPDEST PUSH1 0x1F NOT DUP5 AND DUP6 LT PUSH2 0x1724 JUMPI PUSH1 0x1 SWAP5 POP DUP4 PUSH1 0x1F NOT DUP2 AND LT PUSH2 0x170B JUMPI JUMPDEST POP POP POP DUP2 SHL ADD PUSH1 0x3 DUP3 ADD SSTORE PUSH2 0x13B0 JUMP JUMPDEST ADD MLOAD PUSH1 0x0 NOT PUSH1 0xF8 DUP5 PUSH1 0x3 SHL AND SHR NOT AND SWAP1 SSTORE DUP14 DUP1 DUP1 PUSH2 0x16FB JUMP JUMPDEST DUP2 DUP2 ADD MLOAD DUP4 SSTORE PUSH1 0x20 SWAP5 DUP6 ADD SWAP5 PUSH1 0x1 SWAP1 SWAP4 ADD SWAP3 SWAP1 SWAP2 ADD SWAP1 PUSH2 0x16E0 JUMP JUMPDEST SWAP1 SWAP2 POP PUSH1 0x3 DUP5 ADD PUSH1 0x0 MSTORE PUSH1 0x20 PUSH1 0x0 KECCAK256 PUSH1 0x1F DUP5 ADD PUSH1 0x5 SHR DUP2 ADD PUSH1 0x20 DUP6 LT PUSH2 0x178B JUMPI JUMPDEST SWAP1 DUP5 SWAP4 SWAP3 SWAP2 JUMPDEST PUSH1 0x1F DUP4 ADD PUSH1 0x5 SHR DUP3 ADD DUP2 LT PUSH2 0x177C JUMPI POP POP PUSH2 0x1381 JUMP JUMPDEST PUSH1 0x0 DUP2 SSTORE DUP6 SWAP5 POP PUSH1 0x1 ADD PUSH2 0x1766 JUMP JUMPDEST POP DUP1 PUSH2 0x1760 JUMP JUMPDEST SWAP15 POP SWAP11 POP POP POP POP POP POP POP POP POP POP POP RETURNDATASIZE DUP1 PUSH1 0x0 DUP7 RETURNDATACOPY PUSH2 0x17B0 DUP2 DUP7 PUSH2 0x232C JUMP JUMPDEST DUP5 ADD SWAP1 PUSH2 0x180 DUP6 DUP4 SUB SLT PUSH2 0x1F7 JUMPI PUSH2 0x17C7 DUP6 PUSH2 0x2639 JUMP JUMPDEST SWAP2 PUSH1 0x20 DUP7 ADD MLOAD SWAP1 PUSH2 0x17DA PUSH1 0x40 DUP9 ADD PUSH2 0x2639 JUMP JUMPDEST SWAP7 PUSH1 0x60 DUP2 ADD MLOAD PUSH1 0x1 PUSH1 0x1 PUSH1 0x40 SHL SUB DUP2 GT PUSH2 0x1F7 JUMPI DUP3 PUSH2 0x17FA SWAP2 DUP4 ADD PUSH2 0x264D JUMP JUMPDEST PUSH1 0x80 DUP3 ADD MLOAD SWAP3 PUSH1 0xA0 DUP4 ADD MLOAD PUSH1 0xC0 DUP5 ADD MLOAD SWAP2 PUSH1 0xE0 DUP6 ADD MLOAD SWAP1 PUSH2 0x100 DUP7 ADD MLOAD SWAP1 PUSH1 0x1 PUSH1 0x1 PUSH1 0x40 SHL SUB DUP3 GT PUSH2 0x1F7 JUMPI PUSH2 0x1831 SWAP2 DUP8 ADD PUSH2 0x264D JUMP JUMPDEST SWAP1 PUSH2 0x183F PUSH2 0x120 DUP8 ADD PUSH2 0x2639 JUMP JUMPDEST SWAP4 PUSH2 0x160 PUSH2 0x1850 PUSH2 0x140 DUP10 ADD PUSH2 0x2639 JUMP JUMPDEST SWAP8 ADD MLOAD SWAP11 SWAP9 SWAP14 SWAP6 SWAP8 SWAP4 SWAP1 SWAP2 SWAP3 SWAP5 SWAP7 SWAP11 SWAP10 DUP16 PUSH2 0xB38 JUMP JUMPDEST PUSH1 0x1 PUSH1 0x1 PUSH1 0x40 SHL SUB PUSH1 0x20 PUSH1 0x24 SWAP3 ADD MLOAD AND PUSH1 0x40 MLOAD SWAP1 PUSH4 0x93CF645 PUSH1 0xE1 SHL DUP3 MSTORE PUSH1 0x4 DUP3 ADD MSTORE REVERT JUMPDEST PUSH1 0x40 DUP6 CALLDATASIZE SUB SLT PUSH2 0x1F7 JUMPI PUSH1 0x40 MLOAD SWAP3 DUP4 PUSH1 0x40 DUP2 ADD LT PUSH1 0x1 PUSH1 0x1 PUSH1 0x40 SHL SUB PUSH1 0x40 DUP7 ADD GT OR PUSH2 0x10C1 JUMPI PUSH1 0x40 DUP5 DUP2 ADD SWAP1 MSTORE DUP6 CALLDATALOAD PUSH1 0x1 PUSH1 0x1 PUSH1 0xA0 SHL SUB DUP2 AND SWAP1 SUB PUSH2 0x1F7 JUMPI PUSH1 0x20 PUSH1 0x40 SWAP2 PUSH1 0x24 SWAP6 DUP9 CALLDATALOAD DUP2 MSTORE DUP3 DUP10 ADD CALLDATALOAD DUP4 DUP3 ADD MSTORE DUP2 MSTORE ADD SWAP6 ADD SWAP5 SWAP3 POP PUSH2 0xA86 JUMP JUMPDEST PUSH1 0x40 MLOAD PUSH4 0x35FDCCCD PUSH1 0xE2 SHL DUP2 MSTORE CALLER PUSH1 0x4 DUP3 ADD MSTORE PUSH1 0x24 SWAP1 REVERT JUMPDEST CALLVALUE PUSH2 0x1F7 JUMPI PUSH1 0x0 CALLDATASIZE PUSH1 0x3 NOT ADD SLT PUSH2 0x1F7 JUMPI PUSH2 0x191C PUSH2 0x2692 JUMP JUMPDEST PUSH1 0x7 DUP1 SLOAD PUSH1 0x1 PUSH1 0x1 PUSH1 0xA0 SHL SUB NOT DUP2 AND SWAP1 SWAP2 SSTORE PUSH1 0x0 SWAP1 PUSH1 0x1 PUSH1 0x1 PUSH1 0xA0 SHL SUB AND PUSH32 0x8BE0079C531659141344CD1FD0A4F28419497F9722A3DAAFE3B4186F6B6457E0 DUP3 DUP1 LOG3 STOP JUMPDEST CALLVALUE PUSH2 0x1F7 JUMPI PUSH1 0x20 CALLDATASIZE PUSH1 0x3 NOT ADD SLT PUSH2 0x1F7 JUMPI PUSH1 0x1 PUSH1 0x1 PUSH1 0xA0 SHL SUB PUSH2 0x1981 PUSH2 0x2236 JUMP JUMPDEST AND DUP1 ISZERO PUSH2 0x19A0 JUMPI PUSH1 0x0 MSTORE PUSH1 0x3 PUSH1 0x20 MSTORE PUSH1 0x20 PUSH1 0x40 PUSH1 0x0 KECCAK256 SLOAD PUSH1 0x40 MLOAD SWAP1 DUP2 MSTORE RETURN JUMPDEST PUSH1 0x40 MLOAD PUSH4 0x22718AD9 PUSH1 0xE2 SHL DUP2 MSTORE PUSH1 0x0 PUSH1 0x4 DUP3 ADD MSTORE PUSH1 0x24 SWAP1 REVERT JUMPDEST CALLVALUE PUSH2 0x1F7 JUMPI PUSH1 0x20 CALLDATASIZE PUSH1 0x3 NOT ADD SLT PUSH2 0x1F7 JUMPI PUSH2 0x19D2 PUSH2 0x2236 JUMP JUMPDEST PUSH2 0x19DA PUSH2 0x2692 JUMP JUMPDEST PUSH1 0x1 PUSH1 0x1 PUSH1 0xA0 SHL SUB AND PUSH1 0x0 SWAP1 DUP2 MSTORE PUSH1 0xA PUSH1 0x20 MSTORE PUSH1 0x40 SWAP1 KECCAK256 DUP1 SLOAD PUSH1 0xFF NOT AND PUSH1 0x1 OR SWAP1 SSTORE STOP JUMPDEST CALLVALUE PUSH2 0x1F7 JUMPI PUSH1 0x20 CALLDATASIZE PUSH1 0x3 NOT ADD SLT PUSH2 0x1F7 JUMPI PUSH2 0x1A17 PUSH2 0x2236 JUMP JUMPDEST PUSH2 0x1A1F PUSH2 0x2692 JUMP JUMPDEST PUSH1 0x1 PUSH1 0x1 PUSH1 0xA0 SHL SUB AND PUSH1 0x0 SWAP1 DUP2 MSTORE PUSH1 0xA PUSH1 0x20 MSTORE PUSH1 0x40 SWAP1 KECCAK256 DUP1 SLOAD PUSH1 0xFF NOT AND SWAP1 SSTORE STOP JUMPDEST CALLVALUE PUSH2 0x1F7 JUMPI PUSH1 0x20 CALLDATASIZE PUSH1 0x3 NOT ADD SLT PUSH2 0x1F7 JUMPI PUSH1 0x20 PUSH2 0x1A5E PUSH1 0x4 CALLDATALOAD PUSH2 0x26BE JUMP JUMPDEST PUSH1 0x40 MLOAD PUSH1 0x1 PUSH1 0x1 PUSH1 0xA0 SHL SUB SWAP1 SWAP2 AND DUP2 MSTORE RETURN JUMPDEST CALLVALUE PUSH2 0x1F7 JUMPI PUSH1 0x20 CALLDATASIZE PUSH1 0x3 NOT ADD SLT PUSH2 0x1F7 JUMPI PUSH1 0x1 PUSH1 0x1 PUSH1 0x40 SHL SUB PUSH1 0x4 CALLDATALOAD DUP2 DUP2 GT PUSH2 0x1F7 JUMPI PUSH2 0x1AA1 SWAP1 CALLDATASIZE SWAP1 PUSH1 0x4 ADD PUSH2 0x2368 JUMP JUMPDEST DUP1 MLOAD DUP2 ADD SWAP1 PUSH2 0x140 DUP2 DUP4 SUB SLT PUSH2 0x1F7 JUMPI PUSH2 0x1ABD PUSH1 0x20 DUP3 ADD PUSH2 0x2639 JUMP JUMPDEST SWAP2 PUSH1 0x40 DUP3 ADD MLOAD SWAP4 PUSH2 0x1AD0 PUSH1 0x60 DUP5 ADD PUSH2 0x2639 JUMP JUMPDEST SWAP3 PUSH1 0x80 DUP2 ADD MLOAD DUP3 DUP2 GT PUSH2 0x1F7 JUMPI PUSH2 0x1AEF SWAP1 PUSH1 0x20 DUP1 DUP7 ADD SWAP2 DUP5 ADD ADD PUSH2 0x264D JUMP JUMPDEST PUSH1 0xA0 DUP3 ADD MLOAD SWAP3 PUSH1 0xC0 DUP4 ADD MLOAD PUSH1 0xE0 DUP5 ADD MLOAD SWAP2 PUSH2 0x100 DUP6 ADD MLOAD SWAP4 PUSH2 0x120 DUP7 ADD MLOAD SWAP2 DUP3 GT PUSH2 0x1F7 JUMPI PUSH2 0x1B39 PUSH2 0x140 PUSH2 0x1B32 PUSH2 0x1B6F SWAP5 PUSH1 0x20 DUP1 PUSH2 0x1B92 SWAP14 ADD SWAP2 DUP12 ADD ADD PUSH2 0x264D JUMP JUMPDEST SWAP8 ADD PUSH2 0x2639 JUMP JUMPDEST SWAP9 PUSH1 0x40 MLOAD SWAP12 DUP13 SWAP12 PUSH1 0x1 DUP1 PUSH1 0xA0 SHL SUB AND DUP13 MSTORE PUSH1 0x20 DUP13 ADD MSTORE PUSH1 0x1 DUP1 PUSH1 0xA0 SHL SUB AND PUSH1 0x40 DUP12 ADD MSTORE PUSH2 0x140 PUSH1 0x60 DUP12 ADD MSTORE PUSH2 0x140 DUP11 ADD SWAP1 PUSH2 0x22BA JUMP JUMPDEST SWAP5 PUSH1 0x80 DUP10 ADD MSTORE PUSH1 0xA0 DUP9 ADD MSTORE PUSH1 0xC0 DUP8 ADD MSTORE PUSH1 0xE0 DUP7 ADD MSTORE DUP5 DUP3 SUB PUSH2 0x100 DUP7 ADD MSTORE PUSH2 0x22BA JUMP JUMPDEST PUSH1 0x1 PUSH1 0x1 PUSH1 0xA0 SHL SUB SWAP1 SWAP2 AND PUSH2 0x120 DUP4 ADD MSTORE SUB SWAP1 RETURN JUMPDEST CALLVALUE PUSH2 0x1F7 JUMPI PUSH2 0x16 PUSH2 0x1BB8 CALLDATASIZE PUSH2 0x2262 JUMP JUMPDEST SWAP1 PUSH1 0x40 MLOAD SWAP3 PUSH2 0x1BC6 DUP5 PUSH2 0x2311 JUMP JUMPDEST PUSH1 0x0 DUP5 MSTORE PUSH2 0x5C4 DUP4 DUP4 DUP4 PUSH2 0x2497 JUMP JUMPDEST CALLVALUE PUSH2 0x1F7 JUMPI PUSH1 0x20 CALLDATASIZE PUSH1 0x3 NOT ADD SLT PUSH2 0x1F7 JUMPI PUSH1 0x1 PUSH1 0x1 PUSH1 0xA0 SHL SUB PUSH2 0x1BF6 PUSH2 0x2236 JUMP JUMPDEST AND PUSH1 0x0 MSTORE PUSH1 0xA PUSH1 0x20 MSTORE PUSH1 0x20 PUSH1 0xFF PUSH1 0x40 PUSH1 0x0 KECCAK256 SLOAD AND PUSH1 0x40 MLOAD SWAP1 ISZERO ISZERO DUP2 MSTORE RETURN JUMPDEST CALLVALUE PUSH2 0x1F7 JUMPI PUSH1 0x0 CALLDATASIZE PUSH1 0x3 NOT ADD SLT PUSH2 0x1F7 JUMPI PUSH1 0xE SLOAD PUSH1 0x40 MLOAD PUSH1 0x1 PUSH1 0x1 PUSH1 0xA0 SHL SUB SWAP1 SWAP2 AND DUP2 MSTORE PUSH1 0x20 SWAP1 RETURN JUMPDEST CALLVALUE PUSH2 0x1F7 JUMPI PUSH1 0x20 CALLDATASIZE PUSH1 0x3 NOT ADD SLT PUSH2 0x1F7 JUMPI PUSH2 0x1C56 PUSH2 0x2236 JUMP JUMPDEST PUSH2 0x1C5E PUSH2 0x2692 JUMP JUMPDEST PUSH1 0xE DUP1 SLOAD PUSH1 0x1 PUSH1 0x1 PUSH1 0xA0 SHL SUB NOT AND PUSH1 0x1 PUSH1 0x1 PUSH1 0xA0 SHL SUB SWAP3 SWAP1 SWAP3 AND SWAP2 SWAP1 SWAP2 OR SWAP1 SSTORE STOP JUMPDEST CALLVALUE PUSH2 0x1F7 JUMPI PUSH2 0x16 PUSH2 0x1C91 CALLDATASIZE PUSH2 0x2262 JUMP JUMPDEST SWAP2 PUSH2 0x2497 JUMP JUMPDEST CALLVALUE PUSH2 0x1F7 JUMPI PUSH1 0x0 CALLDATASIZE PUSH1 0x3 NOT ADD SLT PUSH2 0x1F7 JUMPI PUSH1 0x20 PUSH1 0x8 SLOAD PUSH1 0x40 MLOAD SWAP1 DUP2 MSTORE RETURN JUMPDEST CALLVALUE PUSH2 0x1F7 JUMPI PUSH1 0x20 CALLDATASIZE PUSH1 0x3 NOT ADD SLT PUSH2 0x1F7 JUMPI PUSH1 0x0 PUSH2 0x1A0 PUSH1 0x40 MLOAD PUSH2 0x1CD7 DUP2 PUSH2 0x22F5 JUMP JUMPDEST DUP3 DUP2 MSTORE DUP3 PUSH1 0x20 DUP3 ADD MSTORE DUP3 PUSH1 0x40 DUP3 ADD MSTORE PUSH1 0x60 DUP1 DUP3 ADD MSTORE DUP3 PUSH1 0x80 DUP3 ADD MSTORE DUP3 PUSH1 0xA0 DUP3 ADD MSTORE DUP3 PUSH1 0xC0 DUP3 ADD MSTORE DUP3 PUSH1 0xE0 DUP3 ADD MSTORE PUSH1 0x60 PUSH2 0x100 DUP3 ADD MSTORE DUP3 PUSH2 0x120 DUP3 ADD MSTORE DUP3 PUSH2 0x140 DUP3 ADD MSTORE DUP3 PUSH2 0x160 DUP3 ADD MSTORE DUP3 PUSH2 0x180 DUP3 ADD MSTORE ADD MSTORE PUSH1 0x4 CALLDATALOAD PUSH1 0x0 MSTORE PUSH1 0xB PUSH1 0x20 MSTORE PUSH1 0x40 PUSH1 0x0 KECCAK256 PUSH1 0xFF PUSH1 0xC PUSH1 0x40 MLOAD SWAP3 PUSH2 0x1D4B DUP5 PUSH2 0x22F5 JUMP JUMPDEST DUP1 SLOAD PUSH1 0x1 PUSH1 0x1 PUSH1 0xA0 SHL SUB SWAP1 DUP2 AND DUP6 MSTORE PUSH1 0x1 DUP3 ADD SLOAD PUSH1 0x20 DUP7 ADD MSTORE PUSH1 0x2 DUP3 ADD SLOAD AND PUSH1 0x40 DUP1 DUP7 ADD SWAP2 SWAP1 SWAP2 MSTORE MLOAD PUSH2 0x1D85 DUP2 PUSH2 0x3A8 DUP2 PUSH1 0x3 DUP7 ADD PUSH2 0x23E9 JUMP JUMPDEST PUSH1 0x60 DUP6 ADD MSTORE PUSH1 0x4 DUP2 ADD SLOAD PUSH1 0x80 DUP6 ADD MSTORE PUSH1 0x5 DUP2 ADD SLOAD PUSH1 0xA0 DUP6 ADD MSTORE PUSH1 0x6 DUP2 ADD SLOAD PUSH1 0xC0 DUP6 ADD MSTORE PUSH1 0x7 DUP2 ADD SLOAD PUSH1 0xE0 DUP6 ADD MSTORE PUSH1 0x40 MLOAD PUSH2 0x1DC6 DUP2 PUSH2 0x3A8 DUP2 PUSH1 0x8 DUP7 ADD PUSH2 0x23E9 JUMP JUMPDEST PUSH2 0x100 DUP6 ADD MSTORE PUSH1 0x1 DUP1 PUSH1 0xA0 SHL SUB PUSH1 0x9 DUP3 ADD SLOAD AND PUSH2 0x120 DUP6 ADD MSTORE PUSH1 0x1 DUP1 PUSH1 0xA0 SHL SUB PUSH1 0xA DUP3 ADD SLOAD AND PUSH2 0x140 DUP6 ADD MSTORE PUSH1 0xB DUP2 ADD SLOAD PUSH2 0x160 DUP6 ADD MSTORE ADD SLOAD PUSH1 0x1 PUSH1 0x1 PUSH1 0x40 SHL SUB DUP2 AND PUSH2 0x180 DUP5 ADD MSTORE PUSH1 0x40 SHR AND ISZERO ISZERO PUSH2 0x1A0 DUP3 ADD MSTORE PUSH1 0x40 MLOAD DUP1 SWAP2 PUSH1 0x20 DUP3 MSTORE PUSH1 0x1 DUP1 PUSH1 0xA0 SHL SUB DUP2 MLOAD AND PUSH1 0x20 DUP4 ADD MSTORE PUSH1 0x20 DUP2 ADD MLOAD PUSH1 0x40 DUP4 ADD MSTORE PUSH1 0x1 DUP1 PUSH1 0xA0 SHL SUB PUSH1 0x40 DUP3 ADD MLOAD AND PUSH1 0x60 DUP4 ADD MSTORE PUSH2 0x1A0 PUSH2 0x1EB1 PUSH2 0x1E70 PUSH1 0x60 DUP5 ADD MLOAD PUSH2 0x1C0 PUSH1 0x80 DUP8 ADD MSTORE PUSH2 0x1E0 DUP7 ADD SWAP1 PUSH2 0x22BA JUMP JUMPDEST PUSH1 0x80 DUP5 ADD MLOAD PUSH1 0xA0 DUP7 ADD MSTORE PUSH1 0xA0 DUP5 ADD MLOAD PUSH1 0xC0 DUP7 ADD MSTORE PUSH1 0xC0 DUP5 ADD MLOAD PUSH1 0xE0 DUP7 ADD MSTORE PUSH1 0xE0 DUP5 ADD MLOAD PUSH2 0x100 DUP7 ADD MSTORE PUSH2 0x100 DUP5 ADD MLOAD PUSH1 0x1F NOT DUP7 DUP4 SUB ADD PUSH2 0x120 DUP8 ADD MSTORE PUSH2 0x22BA JUMP JUMPDEST SWAP2 PUSH1 0x1 DUP1 PUSH1 0xA0 SHL SUB PUSH2 0x120 DUP3 ADD MLOAD AND PUSH2 0x140 DUP6 ADD MSTORE PUSH1 0x1 DUP1 PUSH1 0xA0 SHL SUB PUSH2 0x140 DUP3 ADD MLOAD AND PUSH2 0x160 DUP6 ADD MSTORE PUSH2 0x160 DUP2 ADD MLOAD PUSH2 0x180 DUP6 ADD MSTORE PUSH1 0x1 PUSH1 0x1 PUSH1 0x40 SHL SUB PUSH2 0x180 DUP3 ADD MLOAD AND DUP3 DUP6 ADD MSTORE ADD MLOAD ISZERO ISZERO PUSH2 0x1C0 DUP4 ADD MSTORE SUB SWAP1 RETURN JUMPDEST CALLVALUE PUSH2 0x1F7 JUMPI PUSH1 0x40 CALLDATASIZE PUSH1 0x3 NOT ADD SLT PUSH2 0x1F7 JUMPI PUSH2 0x1F20 PUSH2 0x2236 JUMP JUMPDEST PUSH1 0x24 CALLDATALOAD PUSH2 0x1F2C DUP2 PUSH2 0x26BE JUMP JUMPDEST CALLER ISZERO ISZERO DUP1 PUSH2 0x1FDB JUMPI JUMPDEST DUP1 PUSH2 0x1FAE JUMPI JUMPDEST PUSH2 0x1F96 JUMPI PUSH1 0x1 PUSH1 0x1 PUSH1 0xA0 SHL SUB SWAP3 DUP4 AND SWAP3 DUP3 SWAP2 DUP5 SWAP2 AND PUSH32 0x8C5BE1E5EBEC7D5BD14F71427D1E84F3DD0314C0F7B2291E5B200AC8C7C3B925 PUSH1 0x0 DUP1 LOG4 PUSH1 0x0 SWAP1 DUP2 MSTORE PUSH1 0x4 PUSH1 0x20 MSTORE PUSH1 0x40 SWAP1 KECCAK256 DUP1 SLOAD PUSH1 0x1 PUSH1 0x1 PUSH1 0xA0 SHL SUB NOT AND SWAP1 SWAP2 OR SWAP1 SSTORE STOP JUMPDEST PUSH1 0x40 MLOAD PUSH4 0xA9FBF51F PUSH1 0xE0 SHL DUP2 MSTORE CALLER PUSH1 0x4 DUP3 ADD MSTORE PUSH1 0x24 SWAP1 REVERT JUMPDEST POP PUSH1 0x1 DUP1 PUSH1 0xA0 SHL SUB DUP2 AND PUSH1 0x0 MSTORE PUSH1 0x5 PUSH1 0x20 MSTORE PUSH1 0x40 PUSH1 0x0 KECCAK256 CALLER PUSH1 0x0 MSTORE PUSH1 0x20 MSTORE PUSH1 0xFF PUSH1 0x40 PUSH1 0x0 KECCAK256 SLOAD AND ISZERO PUSH2 0x1F3B JUMP JUMPDEST POP PUSH1 0x1 PUSH1 0x1 PUSH1 0xA0 SHL SUB DUP2 AND CALLER EQ ISZERO PUSH2 0x1F35 JUMP JUMPDEST CALLVALUE PUSH2 0x1F7 JUMPI PUSH1 0x20 CALLDATASIZE PUSH1 0x3 NOT ADD SLT PUSH2 0x1F7 JUMPI PUSH1 0x4 CALLDATALOAD PUSH2 0x200B DUP2 PUSH2 0x26BE JUMP JUMPDEST POP PUSH1 0x0 MSTORE PUSH1 0x4 PUSH1 0x20 MSTORE PUSH1 0x20 PUSH1 0x1 DUP1 PUSH1 0xA0 SHL SUB PUSH1 0x40 PUSH1 0x0 KECCAK256 SLOAD AND PUSH1 0x40 MLOAD SWAP1 DUP2 MSTORE RETURN JUMPDEST CALLVALUE PUSH2 0x1F7 JUMPI PUSH1 0x40 CALLDATASIZE PUSH1 0x3 NOT ADD SLT PUSH2 0x1F7 JUMPI PUSH1 0x4 CALLDATALOAD PUSH1 0x1 PUSH1 0x1 PUSH1 0xA0 SHL SUB DUP2 AND SWAP1 DUP2 SWAP1 SUB PUSH2 0x1F7 JUMPI PUSH1 0x0 DUP1 DUP1 DUP1 SWAP4 PUSH1 0x24 CALLDATALOAD SWAP1 PUSH2 0x2064 PUSH2 0x2692 JUMP JUMPDEST DUP3 DUP3 ISZERO PUSH2 0x2074 JUMPI JUMPDEST CALL ISZERO PUSH2 0xFE5 JUMPI STOP JUMPDEST POP PUSH2 0x8FC PUSH2 0x206C JUMP JUMPDEST CALLVALUE PUSH2 0x1F7 JUMPI PUSH1 0x0 CALLDATASIZE PUSH1 0x3 NOT ADD SLT PUSH2 0x1F7 JUMPI PUSH1 0x40 MLOAD PUSH1 0x0 DUP1 SLOAD SWAP1 DUP3 PUSH2 0x20A0 DUP4 PUSH2 0x23AF JUMP JUMPDEST SWAP2 DUP3 DUP3 MSTORE PUSH1 0x20 SWAP4 PUSH1 0x1 SWAP1 DUP6 PUSH1 0x1 DUP3 AND SWAP2 DUP3 PUSH1 0x0 EQ PUSH2 0x8E3 JUMPI POP POP PUSH1 0x1 EQ PUSH2 0x20CE JUMPI POP PUSH2 0x872 SWAP3 POP SUB DUP4 PUSH2 0x232C JUMP JUMPDEST PUSH1 0x0 DUP1 DUP1 MSTORE DUP6 SWAP3 POP SWAP1 PUSH32 0x290DECD9548B62A8D60345A988386FC84BA6BC95484008F6362F93160EF3E563 JUMPDEST DUP6 DUP4 LT PUSH2 0x2110 JUMPI POP POP PUSH2 0x872 SWAP4 POP DUP3 ADD ADD DUP6 PUSH2 0x865 JUMP JUMPDEST DUP1 SLOAD DUP4 DUP10 ADD DUP6 ADD MSTORE DUP8 SWAP5 POP DUP7 SWAP4 SWAP1 SWAP3 ADD SWAP2 DUP2 ADD PUSH2 0x20F9 JUMP JUMPDEST CALLVALUE PUSH2 0x1F7 JUMPI PUSH1 0x20 CALLDATASIZE PUSH1 0x3 NOT ADD SLT PUSH2 0x1F7 JUMPI PUSH1 0x4 CALLDATALOAD PUSH4 0xFFFFFFFF PUSH1 0xE0 SHL DUP2 AND DUP1 SWAP2 SUB PUSH2 0x1F7 JUMPI PUSH1 0x20 SWAP1 PUSH4 0x24832483 PUSH1 0xE1 SHL DUP2 EQ SWAP1 DUP2 ISZERO PUSH2 0x216D JUMPI JUMPDEST POP PUSH1 0x40 MLOAD SWAP1 ISZERO ISZERO DUP2 MSTORE RETURN JUMPDEST PUSH4 0x80AC58CD PUSH1 0xE0 SHL DUP2 EQ SWAP2 POP DUP2 ISZERO PUSH2 0x219F JUMPI JUMPDEST DUP2 ISZERO PUSH2 0x218E JUMPI JUMPDEST POP DUP3 PUSH2 0x2162 JUMP JUMPDEST PUSH4 0x1FFC9A7 PUSH1 0xE0 SHL EQ SWAP1 POP DUP3 PUSH2 0x2187 JUMP JUMPDEST PUSH4 0x5B5E139F PUSH1 0xE0 SHL DUP2 EQ SWAP2 POP PUSH2 0x2180 JUMP JUMPDEST CALLVALUE PUSH2 0x1F7 JUMPI PUSH2 0x2205 PUSH1 0x20 PUSH2 0x21C3 CALLDATASIZE PUSH2 0x2262 JUMP JUMPDEST SWAP2 SWAP1 PUSH2 0x21CD PUSH2 0x2692 JUMP JUMPDEST PUSH1 0x40 MLOAD PUSH4 0xA9059CBB PUSH1 0xE0 SHL DUP2 MSTORE PUSH1 0x1 PUSH1 0x1 PUSH1 0xA0 SHL SUB SWAP1 SWAP2 AND PUSH1 0x4 DUP3 ADD MSTORE PUSH1 0x24 DUP2 ADD SWAP3 SWAP1 SWAP3 MSTORE SWAP1 SWAP3 DUP4 SWAP2 SWAP1 DUP3 SWAP1 PUSH1 0x0 SWAP1 DUP3 SWAP1 PUSH1 0x44 DUP3 ADD SWAP1 JUMP JUMPDEST SUB SWAP3 PUSH1 0x1 PUSH1 0x1 PUSH1 0xA0 SHL SUB AND GAS CALL DUP1 ISZERO PUSH2 0xFE5 JUMPI PUSH2 0x221E JUMPI STOP JUMPDEST PUSH2 0x16 SWAP1 PUSH1 0x20 RETURNDATASIZE PUSH1 0x20 GT PUSH2 0xFDE JUMPI PUSH2 0xFCF DUP2 DUP4 PUSH2 0x232C JUMP JUMPDEST PUSH1 0x4 CALLDATALOAD SWAP1 PUSH1 0x1 PUSH1 0x1 PUSH1 0xA0 SHL SUB DUP3 AND DUP3 SUB PUSH2 0x1F7 JUMPI JUMP JUMPDEST PUSH1 0x24 CALLDATALOAD SWAP1 PUSH1 0x1 PUSH1 0x1 PUSH1 0xA0 SHL SUB DUP3 AND DUP3 SUB PUSH2 0x1F7 JUMPI JUMP JUMPDEST PUSH1 0x60 SWAP1 PUSH1 0x3 NOT ADD SLT PUSH2 0x1F7 JUMPI PUSH1 0x1 PUSH1 0x1 PUSH1 0xA0 SHL SUB SWAP1 PUSH1 0x4 CALLDATALOAD DUP3 DUP2 AND DUP2 SUB PUSH2 0x1F7 JUMPI SWAP2 PUSH1 0x24 CALLDATALOAD SWAP1 DUP2 AND DUP2 SUB PUSH2 0x1F7 JUMPI SWAP1 PUSH1 0x44 CALLDATALOAD SWAP1 JUMP JUMPDEST PUSH1 0x0 JUMPDEST DUP4 DUP2 LT PUSH2 0x22AA JUMPI POP POP PUSH1 0x0 SWAP2 ADD MSTORE JUMP JUMPDEST DUP2 DUP2 ADD MLOAD DUP4 DUP3 ADD MSTORE PUSH1 0x20 ADD PUSH2 0x229A JUMP JUMPDEST SWAP1 PUSH1 0x20 SWAP2 PUSH2 0x22D3 DUP2 MLOAD DUP1 SWAP3 DUP2 DUP6 MSTORE DUP6 DUP1 DUP7 ADD SWAP2 ADD PUSH2 0x2297 JUMP JUMPDEST PUSH1 0x1F ADD PUSH1 0x1F NOT AND ADD ADD SWAP1 JUMP JUMPDEST PUSH1 0x4 CALLDATALOAD SWAP1 PUSH1 0x1 PUSH1 0x1 PUSH1 0x40 SHL SUB DUP3 AND DUP3 SUB PUSH2 0x1F7 JUMPI JUMP JUMPDEST PUSH2 0x1C0 DUP2 ADD SWAP1 DUP2 LT PUSH1 0x1 PUSH1 0x1 PUSH1 0x40 SHL SUB DUP3 GT OR PUSH2 0x10C1 JUMPI PUSH1 0x40 MSTORE JUMP JUMPDEST PUSH1 0x20 DUP2 ADD SWAP1 DUP2 LT PUSH1 0x1 PUSH1 0x1 PUSH1 0x40 SHL SUB DUP3 GT OR PUSH2 0x10C1 JUMPI PUSH1 0x40 MSTORE JUMP JUMPDEST SWAP1 PUSH1 0x1F DUP1 NOT SWAP2 ADD AND DUP2 ADD SWAP1 DUP2 LT PUSH1 0x1 PUSH1 0x1 PUSH1 0x40 SHL SUB DUP3 GT OR PUSH2 0x10C1 JUMPI PUSH1 0x40 MSTORE JUMP JUMPDEST PUSH1 0x1 PUSH1 0x1 PUSH1 0x40 SHL SUB DUP2 GT PUSH2 0x10C1 JUMPI PUSH1 0x1F ADD PUSH1 0x1F NOT AND PUSH1 0x20 ADD SWAP1 JUMP JUMPDEST DUP2 PUSH1 0x1F DUP3 ADD SLT ISZERO PUSH2 0x1F7 JUMPI DUP1 CALLDATALOAD SWAP1 PUSH2 0x237F DUP3 PUSH2 0x234D JUMP JUMPDEST SWAP3 PUSH2 0x238D PUSH1 0x40 MLOAD SWAP5 DUP6 PUSH2 0x232C JUMP JUMPDEST DUP3 DUP5 MSTORE PUSH1 0x20 DUP4 DUP4 ADD ADD GT PUSH2 0x1F7 JUMPI DUP2 PUSH1 0x0 SWAP3 PUSH1 0x20 DUP1 SWAP4 ADD DUP4 DUP7 ADD CALLDATACOPY DUP4 ADD ADD MSTORE SWAP1 JUMP JUMPDEST SWAP1 PUSH1 0x1 DUP3 DUP2 SHR SWAP3 AND DUP1 ISZERO PUSH2 0x23DF JUMPI JUMPDEST PUSH1 0x20 DUP4 LT EQ PUSH2 0x23C9 JUMPI JUMP JUMPDEST PUSH4 0x4E487B71 PUSH1 0xE0 SHL PUSH1 0x0 MSTORE PUSH1 0x22 PUSH1 0x4 MSTORE PUSH1 0x24 PUSH1 0x0 REVERT JUMPDEST SWAP2 PUSH1 0x7F AND SWAP2 PUSH2 0x23BE JUMP JUMPDEST DUP1 SLOAD PUSH1 0x0 SWAP4 SWAP3 PUSH2 0x23F8 DUP3 PUSH2 0x23AF JUMP JUMPDEST SWAP2 DUP3 DUP3 MSTORE PUSH1 0x20 SWAP4 PUSH1 0x1 SWAP2 PUSH1 0x1 DUP2 AND SWAP1 DUP2 PUSH1 0x0 EQ PUSH2 0x2460 JUMPI POP PUSH1 0x1 EQ PUSH2 0x241F JUMPI JUMPDEST POP POP POP POP POP JUMP JUMPDEST SWAP1 SWAP4 SWAP5 SWAP6 POP PUSH1 0x0 SWAP3 SWAP2 SWAP3 MSTORE DUP4 PUSH1 0x0 KECCAK256 SWAP3 DUP5 PUSH1 0x0 SWAP5 JUMPDEST DUP4 DUP7 LT PUSH2 0x244C JUMPI POP POP POP POP ADD ADD SWAP1 CODESIZE DUP1 DUP1 DUP1 DUP1 PUSH2 0x2418 JUMP JUMPDEST DUP1 SLOAD DUP6 DUP8 ADD DUP4 ADD MSTORE SWAP5 ADD SWAP4 DUP6 SWAP1 DUP3 ADD PUSH2 0x2434 JUMP JUMPDEST PUSH1 0xFF NOT AND DUP7 DUP6 ADD MSTORE POP POP POP SWAP1 ISZERO ISZERO PUSH1 0x5 SHL ADD ADD SWAP2 POP CODESIZE DUP1 DUP1 DUP1 DUP1 PUSH2 0x2418 JUMP JUMPDEST SWAP1 DUP2 PUSH1 0x20 SWAP2 SUB SLT PUSH2 0x1F7 JUMPI MLOAD DUP1 ISZERO ISZERO DUP2 SUB PUSH2 0x1F7 JUMPI SWAP1 JUMP JUMPDEST PUSH1 0x1 PUSH1 0x1 PUSH1 0xA0 SHL SUB SWAP2 DUP3 AND SWAP3 SWAP1 SWAP2 DUP4 ISZERO PUSH2 0x2620 JUMPI PUSH1 0x0 SWAP3 DUP3 DUP5 MSTORE DUP3 PUSH1 0x20 SWAP6 PUSH1 0x2 DUP8 MSTORE PUSH1 0x40 SWAP7 DUP5 DUP9 DUP9 KECCAK256 SLOAD AND SWAP7 DUP8 SWAP2 CALLER ISZERO ISZERO DUP1 PUSH2 0x2587 JUMPI JUMPDEST POP SWAP1 PUSH1 0x2 PUSH32 0xDDF252AD1BE2C89B69C2B068FC378DAA952BA7F163C4A11628F55A4DF523B3EF SWAP3 DUP5 PUSH2 0x2554 JUMPI JUMPDEST DUP6 DUP4 MSTORE PUSH1 0x3 DUP2 MSTORE DUP12 DUP4 KECCAK256 DUP1 SLOAD PUSH1 0x1 ADD SWAP1 SSTORE DUP7 DUP4 MSTORE MSTORE DUP10 DUP2 KECCAK256 DUP1 SLOAD PUSH1 0x1 PUSH1 0x1 PUSH1 0xA0 SHL SUB NOT AND DUP6 OR SWAP1 SSTORE DUP1 LOG4 AND SWAP3 DUP4 DUP4 SUB PUSH2 0x2533 JUMPI POP POP POP POP JUMP JUMPDEST PUSH1 0x64 SWAP5 POP MLOAD SWAP3 PUSH4 0x64283D7B PUSH1 0xE0 SHL DUP5 MSTORE PUSH1 0x4 DUP5 ADD MSTORE PUSH1 0x24 DUP4 ADD MSTORE PUSH1 0x44 DUP3 ADD MSTORE REVERT JUMPDEST PUSH1 0x0 DUP8 DUP2 MSTORE PUSH1 0x4 PUSH1 0x20 MSTORE PUSH1 0x40 SWAP1 KECCAK256 DUP1 SLOAD PUSH1 0x1 PUSH1 0x1 PUSH1 0xA0 SHL SUB NOT AND SWAP1 SSTORE DUP5 DUP4 MSTORE PUSH1 0x3 DUP2 MSTORE DUP12 DUP4 KECCAK256 DUP1 SLOAD PUSH1 0x0 NOT ADD SWAP1 SSTORE PUSH2 0x24FA JUMP JUMPDEST SWAP2 SWAP4 SWAP5 POP SWAP2 POP DUP1 PUSH2 0x25DF JUMPI JUMPDEST ISZERO PUSH2 0x25A3 JUMPI DUP6 SWAP3 SWAP2 DUP8 SWAP2 CODESIZE PUSH2 0x24CE JUMP JUMPDEST DUP8 DUP7 DUP9 PUSH2 0x25C0 JUMPI PUSH1 0x24 SWAP2 MLOAD SWAP1 PUSH4 0x7E273289 PUSH1 0xE0 SHL DUP3 MSTORE PUSH1 0x4 DUP3 ADD MSTORE REVERT JUMPDEST SWAP1 MLOAD PUSH4 0x177E802F PUSH1 0xE0 SHL DUP2 MSTORE CALLER PUSH1 0x4 DUP3 ADD MSTORE PUSH1 0x24 DUP2 ADD SWAP2 SWAP1 SWAP2 MSTORE PUSH1 0x44 SWAP1 REVERT JUMPDEST POP CALLER DUP8 EQ DUP1 ISZERO PUSH2 0x2604 JUMPI JUMPDEST DUP1 PUSH2 0x2593 JUMPI POP DUP6 DUP3 MSTORE PUSH1 0x4 DUP2 MSTORE CALLER DUP6 DUP10 DUP5 KECCAK256 SLOAD AND EQ PUSH2 0x2593 JUMP JUMPDEST POP DUP7 DUP3 MSTORE PUSH1 0x5 DUP2 MSTORE DUP8 DUP3 KECCAK256 CALLER DUP4 MSTORE DUP2 MSTORE PUSH1 0xFF DUP9 DUP4 KECCAK256 SLOAD AND PUSH2 0x25EA JUMP JUMPDEST PUSH1 0x40 MLOAD PUSH4 0x32505749 PUSH1 0xE1 SHL DUP2 MSTORE PUSH1 0x0 PUSH1 0x4 DUP3 ADD MSTORE PUSH1 0x24 SWAP1 REVERT JUMPDEST MLOAD SWAP1 PUSH1 0x1 PUSH1 0x1 PUSH1 0xA0 SHL SUB DUP3 AND DUP3 SUB PUSH2 0x1F7 JUMPI JUMP JUMPDEST DUP2 PUSH1 0x1F DUP3 ADD SLT ISZERO PUSH2 0x1F7 JUMPI DUP1 MLOAD PUSH2 0x2663 DUP2 PUSH2 0x234D JUMP JUMPDEST SWAP3 PUSH2 0x2671 PUSH1 0x40 MLOAD SWAP5 DUP6 PUSH2 0x232C JUMP JUMPDEST DUP2 DUP5 MSTORE PUSH1 0x20 DUP3 DUP5 ADD ADD GT PUSH2 0x1F7 JUMPI PUSH2 0x268F SWAP2 PUSH1 0x20 DUP1 DUP6 ADD SWAP2 ADD PUSH2 0x2297 JUMP JUMPDEST SWAP1 JUMP JUMPDEST PUSH1 0x7 SLOAD PUSH1 0x1 PUSH1 0x1 PUSH1 0xA0 SHL SUB AND CALLER SUB PUSH2 0x26A6 JUMPI JUMP JUMPDEST PUSH1 0x40 MLOAD PUSH4 0x118CDAA7 PUSH1 0xE0 SHL DUP2 MSTORE CALLER PUSH1 0x4 DUP3 ADD MSTORE PUSH1 0x24 SWAP1 REVERT JUMPDEST PUSH1 0x0 DUP2 DUP2 MSTORE PUSH1 0x2 PUSH1 0x20 MSTORE PUSH1 0x40 SWAP1 KECCAK256 SLOAD PUSH1 0x1 PUSH1 0x1 PUSH1 0xA0 SHL SUB AND SWAP1 DUP2 ISZERO PUSH2 0x26E1 JUMPI POP SWAP1 JUMP JUMPDEST PUSH1 0x24 SWAP1 PUSH1 0x40 MLOAD SWAP1 PUSH4 0x7E273289 PUSH1 0xE0 SHL DUP3 MSTORE PUSH1 0x4 DUP3 ADD MSTORE REVERT JUMPDEST SWAP1 SWAP2 SWAP3 DUP4 EXTCODESIZE PUSH2 0x2709 JUMPI POP POP POP POP POP JUMP JUMPDEST PUSH1 0x40 MLOAD PUSH4 0xA85BD01 PUSH1 0xE1 SHL DUP1 DUP3 MSTORE PUSH1 0x1 PUSH1 0x1 PUSH1 0xA0 SHL SUB SWAP4 DUP5 AND PUSH1 0x4 DUP4 ADD MSTORE SWAP4 DUP4 AND PUSH1 0x24 DUP3 ADD MSTORE PUSH1 0x44 DUP2 ADD SWAP2 SWAP1 SWAP2 MSTORE PUSH1 0x80 PUSH1 0x64 DUP3 ADD MSTORE PUSH1 0x20 SWAP6 SWAP2 SWAP1 SWAP4 AND SWAP4 SWAP1 SWAP2 SWAP1 DUP4 SWAP1 PUSH2 0x2759 SWAP1 PUSH1 0x84 DUP4 ADD SWAP1 PUSH2 0x22BA JUMP JUMPDEST SUB SWAP3 DUP6 DUP2 PUSH1 0x0 SWAP6 DUP2 DUP8 DUP10 GAS CALL DUP5 SWAP2 DUP2 PUSH2 0x2803 JUMPI JUMPDEST POP PUSH2 0x27CD JUMPI POP POP POP RETURNDATASIZE PUSH1 0x0 EQ PUSH2 0x27C5 JUMPI RETURNDATASIZE PUSH2 0x2787 DUP2 PUSH2 0x234D JUMP JUMPDEST SWAP1 PUSH2 0x2795 PUSH1 0x40 MLOAD SWAP3 DUP4 PUSH2 0x232C JUMP JUMPDEST DUP2 MSTORE DUP1 SWAP2 DUP5 RETURNDATASIZE SWAP3 ADD RETURNDATACOPY JUMPDEST DUP1 MLOAD SWAP3 DUP4 PUSH2 0x27C0 JUMPI PUSH1 0x40 MLOAD PUSH4 0x32505749 PUSH1 0xE1 SHL DUP2 MSTORE PUSH1 0x4 DUP2 ADD DUP5 SWAP1 MSTORE PUSH1 0x24 SWAP1 REVERT JUMPDEST ADD SWAP1 POP REVERT JUMPDEST POP PUSH1 0x60 PUSH2 0x279F JUMP JUMPDEST SWAP2 SWAP5 POP SWAP2 POP PUSH4 0xFFFFFFFF PUSH1 0xE0 SHL AND SUB PUSH2 0x27EB JUMPI POP CODESIZE DUP1 DUP1 DUP1 DUP1 PUSH2 0x2418 JUMP JUMPDEST PUSH1 0x24 SWAP1 PUSH1 0x40 MLOAD SWAP1 PUSH4 0x32505749 PUSH1 0xE1 SHL DUP3 MSTORE PUSH1 0x4 DUP3 ADD MSTORE REVERT JUMPDEST SWAP1 SWAP2 POP DUP7 DUP2 DUP2 RETURNDATASIZE DUP4 GT PUSH2 0x2840 JUMPI JUMPDEST PUSH2 0x281B DUP2 DUP4 PUSH2 0x232C JUMP JUMPDEST DUP2 ADD SUB SLT PUSH2 0x283C JUMPI MLOAD PUSH1 0x1 PUSH1 0x1 PUSH1 0xE0 SHL SUB NOT DUP2 AND DUP2 SUB PUSH2 0x283C JUMPI SWAP1 CODESIZE PUSH2 0x276D JUMP JUMPDEST DUP5 DUP1 REVERT JUMPDEST POP RETURNDATASIZE PUSH2 0x2811 JUMP JUMPDEST SWAP2 SWAP4 PUSH1 0xA0 SWAP4 PUSH2 0x268F SWAP7 SWAP6 PUSH1 0x1 DUP1 DUP8 SHL SUB DUP1 SWAP5 AND DUP6 MSTORE PUSH1 0x20 DUP6 ADD MSTORE PUSH1 0x40 DUP5 ADD MSTORE AND PUSH1 0x60 DUP3 ADD MSTORE DUP2 PUSH1 0x80 DUP3 ADD MSTORE ADD SWAP1 PUSH2 0x22BA JUMP JUMPDEST DUP1 MLOAD DUP3 LT ISZERO PUSH2 0x288D JUMPI PUSH1 0x20 SWAP2 PUSH1 0x5 SHL ADD ADD SWAP1 JUMP JUMPDEST PUSH4 0x4E487B71 PUSH1 0xE0 SHL PUSH1 0x0 MSTORE PUSH1 0x32 PUSH1 0x4 MSTORE PUSH1 0x24 PUSH1 0x0 REVERT JUMPDEST PUSH1 0x8 SLOAD SWAP3 SWAP2 PUSH1 0x0 NOT SWAP1 DUP2 DUP6 EQ PUSH2 0x2CFE JUMPI PUSH1 0x1 SWAP2 DUP3 DUP7 ADD PUSH1 0x8 SSTORE PUSH1 0x40 SWAP3 DUP4 MLOAD SWAP3 PUSH2 0x28CB DUP5 PUSH2 0x2311 JUMP JUMPDEST PUSH1 0x0 SWAP3 DUP4 DUP6 MSTORE PUSH1 0x1 DUP1 PUSH1 0xA0 SHL SUB SWAP5 DUP6 DUP9 AND SWAP8 DUP9 ISZERO PUSH2 0x2CE6 JUMPI DUP11 DUP7 MSTORE PUSH1 0x20 SWAP7 PUSH1 0x2 DUP9 MSTORE DUP9 DUP8 KECCAK256 SLOAD AND DUP12 DUP11 DUP3 ISZERO ISZERO SWAP3 DUP4 PUSH2 0x2CB5 JUMPI JUMPDEST DUP2 DUP11 MSTORE PUSH1 0x3 DUP12 MSTORE DUP12 DUP11 KECCAK256 DUP1 SLOAD DUP11 ADD SWAP1 SSTORE DUP3 DUP11 MSTORE PUSH1 0x2 DUP12 MSTORE DUP12 DUP11 KECCAK256 DUP1 SLOAD PUSH1 0x1 PUSH1 0x1 PUSH1 0xA0 SHL SUB NOT AND DUP4 OR SWAP1 SSTORE PUSH32 0xDDF252AD1BE2C89B69C2B068FC378DAA952BA7F163C4A11628F55A4DF523B3EF DUP11 DUP1 LOG4 PUSH2 0x2C9D JUMPI EXTCODESIZE PUSH2 0x2B76 JUMPI JUMPDEST POP SWAP1 DUP9 SWAP6 SWAP5 SWAP4 SWAP3 SWAP2 DUP2 MLOAD PUSH2 0x29B1 JUMPI JUMPDEST POP POP POP SWAP1 PUSH2 0x29AB PUSH1 0x3 DUP5 DUP5 DUP10 PUSH32 0xCB4D488C9C856F58BF738FD4DECD617B237B9923E4DDEE8A9DBBD326D4914236 SWAP8 SWAP7 MSTORE PUSH1 0xB DUP6 MSTORE KECCAK256 ADD SWAP3 MLOAD SWAP3 DUP3 DUP5 SWAP4 DUP5 MSTORE DUP4 ADD SWAP1 PUSH2 0x23E9 JUMP JUMPDEST SUB SWAP1 LOG4 SWAP1 JUMP JUMPDEST SWAP1 SWAP2 SWAP6 DUP4 MSTORE PUSH1 0x6 DUP5 MSTORE DUP5 DUP4 KECCAK256 SWAP6 DUP3 MLOAD SWAP3 PUSH1 0x1 PUSH1 0x1 PUSH1 0x40 SHL SUB DUP5 GT PUSH2 0x2B62 JUMPI SWAP1 DUP11 SWAP7 SWAP6 SWAP5 SWAP4 SWAP3 SWAP2 PUSH2 0x29E1 DUP10 SLOAD PUSH2 0x23AF JUMP JUMPDEST PUSH1 0x1F DUP2 GT PUSH2 0x2B09 JUMPI JUMPDEST POP DUP6 SWAP1 PUSH1 0x1F DUP6 GT PUSH1 0x1 EQ PUSH2 0x2A79 JUMPI SWAP4 DUP1 DUP9 SWAP5 DUP2 DUP9 SWAP6 PUSH32 0xCB4D488C9C856F58BF738FD4DECD617B237B9923E4DDEE8A9DBBD326D4914236 SWAP13 SWAP14 SWAP6 PUSH1 0x3 SWAP10 PUSH2 0x29AB SWAP12 SWAP6 PUSH2 0x2A6E JUMPI JUMPDEST POP POP SHL SWAP3 DUP8 SHL SHR NOT AND OR SWAP1 SSTORE JUMPDEST PUSH32 0xF8E1A15ABA9398E019F0B49DF1A4FDE98EE17AE345CB5F6B5E2C27F5033E8CE7 DUP6 DUP4 MLOAD DUP11 DUP2 MSTORE LOG1 SWAP4 SWAP5 SWAP6 POP PUSH2 0x2965 JUMP JUMPDEST ADD MLOAD SWAP4 POP CODESIZE DUP1 PUSH2 0x2A30 JUMP JUMPDEST DUP10 DUP7 MSTORE DUP7 DUP7 KECCAK256 SWAP10 SWAP5 SWAP3 SWAP4 SWAP2 SWAP1 PUSH1 0x1F NOT DUP5 AND DUP8 JUMPDEST DUP2 DUP2 LT PUSH2 0x2AF1 JUMPI POP SWAP11 PUSH1 0x3 SWAP7 SWAP4 DUP11 SWAP7 SWAP4 DUP7 SWAP4 PUSH2 0x29AB SWAP11 SWAP8 PUSH32 0xCB4D488C9C856F58BF738FD4DECD617B237B9923E4DDEE8A9DBBD326D4914236 SWAP15 SWAP16 LT PUSH2 0x2ADA JUMPI JUMPDEST POP POP POP POP DUP2 SHL ADD SWAP1 SSTORE PUSH2 0x2A3D JUMP JUMPDEST ADD MLOAD SWAP1 PUSH1 0xF8 DUP5 DUP11 SHL AND SHR NOT AND SWAP1 SSTORE CODESIZE DUP1 DUP1 DUP1 PUSH2 0x2ACC JUMP JUMPDEST DUP3 DUP5 ADD MLOAD DUP14 SSTORE SWAP12 DUP7 ADD SWAP12 DUP16 SWAP12 POP SWAP3 DUP10 ADD SWAP3 DUP10 ADD PUSH2 0x2A8C JUMP JUMPDEST SWAP1 SWAP2 SWAP3 SWAP4 SWAP5 SWAP6 SWAP7 SWAP8 POP DUP9 DUP7 MSTORE DUP7 DUP7 KECCAK256 PUSH1 0x1F DUP7 ADD PUSH1 0x5 SHR DUP2 ADD SWAP2 DUP9 DUP8 LT PUSH2 0x2B58 JUMPI JUMPDEST SWAP1 PUSH1 0x1F DUP15 SWAP11 SWAP10 SWAP9 SWAP8 SWAP7 SWAP6 SWAP5 SWAP4 SWAP3 ADD PUSH1 0x5 SHR ADD SWAP1 JUMPDEST DUP2 DUP2 LT PUSH2 0x2B4B JUMPI POP PUSH2 0x29EA JUMP JUMPDEST DUP7 DUP2 SSTORE DUP14 SWAP10 POP DUP4 ADD PUSH2 0x2B3E JUMP JUMPDEST SWAP1 SWAP2 POP DUP2 SWAP1 PUSH2 0x2B2A JUMP JUMPDEST PUSH4 0x4E487B71 PUSH1 0xE0 SHL DUP6 MSTORE PUSH1 0x41 PUSH1 0x4 MSTORE PUSH1 0x24 DUP6 REVERT JUMPDEST SWAP9 DUP5 DUP7 PUSH2 0x2BBB DUP11 DUP11 SWAP13 SWAP9 SWAP12 SWAP14 DUP6 SWAP11 SWAP16 SWAP12 MLOAD SWAP5 DUP6 DUP1 SWAP5 DUP2 SWAP4 PUSH4 0xA85BD01 PUSH1 0xE1 SHL SWAP10 DUP11 DUP5 MSTORE CALLER PUSH1 0x4 DUP6 ADD MSTORE DUP5 PUSH1 0x24 DUP6 ADD MSTORE PUSH1 0x44 DUP5 ADD MSTORE PUSH1 0x80 PUSH1 0x64 DUP5 ADD MSTORE PUSH1 0x84 DUP4 ADD SWAP1 PUSH2 0x22BA JUMP JUMPDEST SUB SWAP3 GAS CALL DUP10 SWAP2 DUP2 PUSH2 0x2C59 JUMPI JUMPDEST POP PUSH2 0x2C25 JUMPI DUP12 DUP12 DUP12 DUP12 RETURNDATASIZE ISZERO PUSH2 0x2C1D JUMPI RETURNDATASIZE PUSH2 0x2BE0 DUP2 PUSH2 0x234D JUMP JUMPDEST SWAP1 PUSH2 0x2BED DUP5 MLOAD SWAP3 DUP4 PUSH2 0x232C JUMP JUMPDEST DUP2 MSTORE DUP1 SWAP2 DUP6 RETURNDATASIZE SWAP3 ADD RETURNDATACOPY JUMPDEST DUP1 MLOAD SWAP4 DUP5 PUSH2 0x2C17 JUMPI DUP3 MLOAD PUSH4 0x32505749 PUSH1 0xE1 SHL DUP2 MSTORE PUSH1 0x4 DUP2 ADD DUP6 SWAP1 MSTORE PUSH1 0x24 SWAP1 REVERT JUMPDEST DUP5 SWAP3 POP ADD REVERT JUMPDEST POP PUSH1 0x60 PUSH2 0x2BF7 JUMP JUMPDEST PUSH4 0xFFFFFFFF PUSH1 0xE0 SWAP13 SWAP8 SWAP12 SWAP10 SWAP7 SWAP11 SWAP9 SWAP13 SHL AND SUB PUSH2 0x2C41 JUMPI DUP9 PUSH2 0x2956 JUMP JUMPDEST DUP6 MLOAD PUSH4 0x32505749 PUSH1 0xE1 SHL DUP2 MSTORE PUSH1 0x4 DUP2 ADD DUP9 SWAP1 MSTORE PUSH1 0x24 SWAP1 REVERT JUMPDEST SWAP1 SWAP2 POP DUP13 DUP2 DUP2 RETURNDATASIZE DUP4 GT PUSH2 0x2C96 JUMPI JUMPDEST PUSH2 0x2C71 DUP2 DUP4 PUSH2 0x232C JUMP JUMPDEST DUP2 ADD SUB SLT PUSH2 0x2C92 JUMPI MLOAD PUSH1 0x1 PUSH1 0x1 PUSH1 0xE0 SHL SUB NOT DUP2 AND DUP2 SUB PUSH2 0x2C92 JUMPI SWAP1 CODESIZE PUSH2 0x2BC7 JUMP JUMPDEST DUP10 DUP1 REVERT JUMPDEST POP RETURNDATASIZE PUSH2 0x2C67 JUMP JUMPDEST DUP8 MLOAD PUSH4 0x39E35637 PUSH1 0xE1 SHL DUP2 MSTORE PUSH1 0x4 DUP2 ADD DUP8 SWAP1 MSTORE PUSH1 0x24 SWAP1 REVERT JUMPDEST PUSH1 0x0 DUP4 DUP2 MSTORE PUSH1 0x4 PUSH1 0x20 MSTORE PUSH1 0x40 SWAP1 KECCAK256 DUP1 SLOAD PUSH1 0x1 PUSH1 0x1 PUSH1 0xA0 SHL SUB NOT AND SWAP1 SSTORE DUP1 DUP11 MSTORE PUSH1 0x3 DUP12 MSTORE DUP12 DUP11 KECCAK256 DUP8 DUP2 SLOAD ADD SWAP1 SSTORE PUSH2 0x28FE JUMP JUMPDEST DUP8 MLOAD PUSH4 0x32505749 PUSH1 0xE1 SHL DUP2 MSTORE PUSH1 0x4 DUP2 ADD DUP8 SWAP1 MSTORE PUSH1 0x24 SWAP1 REVERT JUMPDEST PUSH4 0x4E487B71 PUSH1 0xE0 SHL PUSH1 0x0 MSTORE PUSH1 0x11 PUSH1 0x4 MSTORE PUSH1 0x24 PUSH1 0x0 REVERT INVALID LOG2 PUSH5 0x6970667358 0x22 SLT KECCAK256 SWAP5 SWAP15 CREATE PUSH8 0x66C1538C21CEEB3A PUSH26 0x2DFA147205CCD0C508C5096D7E27DE0C4F1D6064736F6C634300 ADDMOD XOR STOP CALLER "},"methodIdentifiers":{"addSupportedSender(address)":"68794fe2","addSupportedSourceChain(uint64)":"d1806047","approve(address,uint256)":"095ea7b3","balanceOf(address)":"70a08231","ccipReceive((bytes32,uint64,bytes,bytes,(address,uint256)[]))":"85572ffb","decodeNFTDataOnly(bytes)":"563046cf","decodeNFTDataWithPayment(bytes)":"c0273d2f","getApproved(uint256)":"081812fc","getCurrentTokenCounter()":"1f7f31a4","getLocalTokenId(uint64,uint256)":"54ff3c23","getReceivedNFTData(bytes32)":"1478585a","getRouter()":"b0f479a1","getSourceMessageId(uint256)":"ba9c81f2","isApprovedForAll(address,address)":"e985e9c5","isSenderSupported(address)":"2753c73c","isSourceChainSupported(uint64)":"652ad8d0","localTokenIdToMessageId(uint256)":"f6331015","name()":"06fdde03","owner()":"8da5cb5b","ownerOf(uint256)":"6352211e","paymentRecipient()":"2b1eaf29","receivedNFTData(bytes32)":"9ec0f4d4","removeSupportedSender(address)":"68511549","removeSupportedSourceChain(uint64)":"c7eee0ee","renounceOwnership()":"715018a6","safeTransferFrom(address,address,uint256)":"42842e0e","safeTransferFrom(address,address,uint256,bytes)":"b88d4fde","setApprovalForAll(address,bool)":"a22cb465","setPaymentRecipient(address)":"2983c4b8","sourceToLocalTokenId(uint64,uint256)":"cd32d95a","supportedSenders(address)":"38731685","supportedSourceChains(uint64)":"9884c2b0","supportsInterface(bytes4)":"01ffc9a7","symbol()":"95d89b41","tokenURI(uint256)":"c87b56dd","transferFrom(address,address,uint256)":"23b872dd","transferOwnership(address)":"f2fde38b","withdrawNative(address,uint256)":"07b18bde","withdrawToken(address,address,uint256)":"01e33667"}}}}}