{"@chainlink/contracts-ccip/contracts/libraries/Client.sol":{"Client":{"abi":[{"inputs":[],"name":"EVM_EXTRA_ARGS_V1_TAG","outputs":[{"internalType":"bytes4","name":"","type":"bytes4"}],"stateMutability":"view","type":"function"},{"inputs":[],"name":"GENERIC_EXTRA_ARGS_V2_TAG","outputs":[{"internalType":"bytes4","name":"","type":"bytes4"}],"stateMutability":"view","type":"function"},{"inputs":[],"name":"SVM_ACCOUNT_BYTE_SIZE","outputs":[{"internalType":"uint256","name":"","type":"uint256"}],"stateMutability":"view","type":"function"},{"inputs":[],"name":"SVM_EXTRA_ARGS_MAX_ACCOUNTS","outputs":[{"internalType":"uint256","name":"","type":"uint256"}],"stateMutability":"view","type":"function"},{"inputs":[],"name":"SVM_EXTRA_ARGS_V1_TAG","outputs":[{"internalType":"bytes4","name":"","type":"bytes4"}],"stateMutability":"view","type":"function"},{"inputs":[],"name":"SVM_MESSAGING_ACCOUNTS_OVERHEAD","outputs":[{"internalType":"uint256","name":"","type":"uint256"}],"stateMutability":"view","type":"function"},{"inputs":[],"name":"SVM_TOKEN_TRANSFER_DATA_OVERHEAD","outputs":[{"internalType":"uint256","name":"","type":"uint256"}],"stateMutability":"view","type":"function"}],"evm":{"bytecode":{"linkReferences":{},"object":"6080806040523461001a576101589081610020823930815050f35b600080fdfe60806040818152600436101561001457600080fd5b600091823560e01c9081631ac428f814610108575080633ab8c0d0146100ec5780635dd8ee3e146100d657806371953f60146100c15780637498e355146100a55780639713cbbd1461008e5763a5dd87d81461006f57600080fd5b8160031936011261008a5751630f9d9d5d60e11b8152602090f35b5080fd5b508160031936011261008a576020905161012c8152f35b508160031936011261008a5751630181dcf160e41b8152602090f35b508160031936011261008a5760209051818152f35b508160031936011261008a576020905160028152f35b508160031936011261008a57516397a657c960e01b8152602090f35b9190508260031936011261011e57602092508152f35b8280fdfea26469706673582212204a262853b82f837d576dc97803e52d70e4dbd179f6b3455301be432187c2c34164736f6c63430008180033","opcodes":"PUSH1 0x80 DUP1 PUSH1 0x40 MSTORE CALLVALUE PUSH2 0x1A JUMPI PUSH2 0x158 SWAP1 DUP2 PUSH2 0x20 DUP3 CODECOPY ADDRESS DUP2 POP POP RETURN JUMPDEST PUSH1 0x0 DUP1 REVERT INVALID PUSH1 0x80 PUSH1 0x40 DUP2 DUP2 MSTORE PUSH1 0x4 CALLDATASIZE LT ISZERO PUSH2 0x14 JUMPI PUSH1 0x0 DUP1 REVERT JUMPDEST PUSH1 0x0 SWAP2 DUP3 CALLDATALOAD PUSH1 0xE0 SHR SWAP1 DUP2 PUSH4 0x1AC428F8 EQ PUSH2 0x108 JUMPI POP DUP1 PUSH4 0x3AB8C0D0 EQ PUSH2 0xEC JUMPI DUP1 PUSH4 0x5DD8EE3E EQ PUSH2 0xD6 JUMPI DUP1 PUSH4 0x71953F60 EQ PUSH2 0xC1 JUMPI DUP1 PUSH4 0x7498E355 EQ PUSH2 0xA5 JUMPI DUP1 PUSH4 0x9713CBBD EQ PUSH2 0x8E JUMPI PUSH4 0xA5DD87D8 EQ PUSH2 0x6F JUMPI PUSH1 0x0 DUP1 REVERT JUMPDEST DUP2 PUSH1 0x3 NOT CALLDATASIZE ADD SLT PUSH2 0x8A JUMPI MLOAD PUSH4 0xF9D9D5D PUSH1 0xE1 SHL DUP2 MSTORE PUSH1 0x20 SWAP1 RETURN JUMPDEST POP DUP1 REVERT JUMPDEST POP DUP2 PUSH1 0x3 NOT CALLDATASIZE ADD SLT PUSH2 0x8A JUMPI PUSH1 0x20 SWAP1 MLOAD PUSH2 0x12C DUP2 MSTORE RETURN JUMPDEST POP DUP2 PUSH1 0x3 NOT CALLDATASIZE ADD SLT PUSH2 0x8A JUMPI MLOAD PUSH4 0x181DCF1 PUSH1 0xE4 SHL DUP2 MSTORE PUSH1 0x20 SWAP1 RETURN JUMPDEST POP DUP2 PUSH1 0x3 NOT CALLDATASIZE ADD SLT PUSH2 0x8A JUMPI PUSH1 0x20 SWAP1 MLOAD DUP2 DUP2 MSTORE RETURN JUMPDEST POP DUP2 PUSH1 0x3 NOT CALLDATASIZE ADD SLT PUSH2 0x8A JUMPI PUSH1 0x20 SWAP1 MLOAD PUSH1 0x2 DUP2 MSTORE RETURN JUMPDEST POP DUP2 PUSH1 0x3 NOT CALLDATASIZE ADD SLT PUSH2 0x8A JUMPI MLOAD PUSH4 0x97A657C9 PUSH1 0xE0 SHL DUP2 MSTORE PUSH1 0x20 SWAP1 RETURN JUMPDEST SWAP2 SWAP1 POP DUP3 PUSH1 0x3 NOT CALLDATASIZE ADD SLT PUSH2 0x11E JUMPI PUSH1 0x20 SWAP3 POP DUP2 MSTORE RETURN JUMPDEST DUP3 DUP1 REVERT INVALID LOG2 PUSH5 0x6970667358 0x22 SLT KECCAK256 BLOBBASEFEE 0x26 0x28 MSTORE8 0xB8 0x2F DUP4 PUSH30 0x576DC97803E52D70E4DBD179F6B3455301BE432187C2C34164736F6C6343 STOP ADDMOD XOR STOP CALLER "},"methodIdentifiers":{"EVM_EXTRA_ARGS_V1_TAG()":"3ab8c0d0","GENERIC_EXTRA_ARGS_V2_TAG()":"7498e355","SVM_ACCOUNT_BYTE_SIZE()":"71953f60","SVM_EXTRA_ARGS_MAX_ACCOUNTS()":"1ac428f8","SVM_EXTRA_ARGS_V1_TAG()":"a5dd87d8","SVM_MESSAGING_ACCOUNTS_OVERHEAD()":"5dd8ee3e","SVM_TOKEN_TRANSFER_DATA_OVERHEAD()":"9713cbbd"}}}}}