{
  "_format": "hh-sol-artifact-1",
  "contractName": "AirSpaceCCIPSender",
  "sourceName": "src/contracts/AirSpaceCCIPSender.sol",
  "abi": [
    {
      "inputs": [
        {
          "internalType": "address",
          "name": "_router",
          "type": "address"
        },
        {
          "internalType": "address",
          "name": "_link",
          "type": "address"
        }
      ],
      "stateMutability": "nonpayable",
      "type": "constructor"
    },
    {
      "inputs": [
        {
          "internalType": "uint64",
          "name": "destinationChainSelector",
          "type": "uint64"
        }
      ],
      "name": "InvalidDestinationChain",
      "type": "error"
    },
    {
      "inputs": [
        {
          "internalType": "address",
          "name": "nftContract",
          "type": "address"
        }
      ],
      "name": "InvalidNFTContract",
      "type": "error"
    },
    {
      "inputs": [
        {
          "internalType": "address",
          "name": "caller",
          "type": "address"
        },
        {
          "internalType": "address",
          "name": "owner",
          "type": "address"
        }
      ],
      "name": "InvalidNFTOwner",
      "type": "error"
    },
    {
      "inputs": [
        {
          "internalType": "uint256",
          "name": "currentBalance",
          "type": "uint256"
        },
        {
          "internalType": "uint256",
          "name": "calculatedFees",
          "type": "uint256"
        }
      ],
      "name": "NotEnoughBalance",
      "type": "error"
    },
    {
      "anonymous": false,
      "inputs": [
        {
          "indexed": true,
          "internalType": "bytes32",
          "name": "messageId",
          "type": "bytes32"
        },
        {
          "indexed": true,
          "internalType": "uint64",
          "name": "sourceChainSelector",
          "type": "uint64"
        },
        {
          "indexed": true,
          "internalType": "address",
          "name": "sender",
          "type": "address"
        },
        {
          "indexed": false,
          "internalType": "address",
          "name": "paymentToken",
          "type": "address"
        },
        {
          "indexed": false,
          "internalType": "uint256",
          "name": "amount",
          "type": "uint256"
        },
        {
          "indexed": false,
          "internalType": "uint256",
          "name": "nftTokenId",
          "type": "uint256"
        }
      ],
      "name": "CrossChainPaymentReceived",
      "type": "event"
    },
    {
      "anonymous": false,
      "inputs": [
        {
          "indexed": true,
          "internalType": "bytes32",
          "name": "messageId",
          "type": "bytes32"
        },
        {
          "indexed": true,
          "internalType": "uint64",
          "name": "destinationChainSelector",
          "type": "uint64"
        },
        {
          "indexed": true,
          "internalType": "address",
          "name": "receiver",
          "type": "address"
        },
        {
          "indexed": false,
          "internalType": "address",
          "name": "nftContract",
          "type": "address"
        },
        {
          "indexed": false,
          "internalType": "uint256",
          "name": "tokenId",
          "type": "uint256"
        },
        {
          "indexed": false,
          "internalType": "address",
          "name": "originalOwner",
          "type": "address"
        },
        {
          "indexed": false,
          "internalType": "string",
          "name": "propertyAddress",
          "type": "string"
        },
        {
          "indexed": false,
          "internalType": "address",
          "name": "feeToken",
          "type": "address"
        },
        {
          "indexed": false,
          "internalType": "uint256",
          "name": "fees",
          "type": "uint256"
        }
      ],
      "name": "NFTDataSent",
      "type": "event"
    },
    {
      "anonymous": false,
      "inputs": [
        {
          "indexed": true,
          "internalType": "address",
          "name": "from",
          "type": "address"
        },
        {
          "indexed": true,
          "internalType": "address",
          "name": "to",
          "type": "address"
        }
      ],
      "name": "OwnershipTransferRequested",
      "type": "event"
    },
    {
      "anonymous": false,
      "inputs": [
        {
          "indexed": true,
          "internalType": "address",
          "name": "from",
          "type": "address"
        },
        {
          "indexed": true,
          "internalType": "address",
          "name": "to",
          "type": "address"
        }
      ],
      "name": "OwnershipTransferred",
      "type": "event"
    },
    {
      "stateMutability": "payable",
      "type": "fallback"
    },
    {
      "inputs": [],
      "name": "acceptOwnership",
      "outputs": [],
      "stateMutability": "nonpayable",
      "type": "function"
    },
    {
      "inputs": [
        {
          "internalType": "uint64",
          "name": "destinationChainSelector",
          "type": "uint64"
        }
      ],
      "name": "addSupportedChain",
      "outputs": [],
      "stateMutability": "nonpayable",
      "type": "function"
    },
    {
      "inputs": [
        {
          "internalType": "address",
          "name": "nftContract",
          "type": "address"
        }
      ],
      "name": "addSupportedNFTContract",
      "outputs": [],
      "stateMutability": "nonpayable",
      "type": "function"
    },
    {
      "inputs": [
        {
          "internalType": "uint64",
          "name": "destinationChainSelector",
          "type": "uint64"
        },
        {
          "components": [
            {
              "internalType": "address",
              "name": "nftContract",
              "type": "address"
            },
            {
              "internalType": "uint256",
              "name": "tokenId",
              "type": "uint256"
            },
            {
              "internalType": "address",
              "name": "originalOwner",
              "type": "address"
            },
            {
              "internalType": "string",
              "name": "propertyAddress",
              "type": "string"
            },
            {
              "internalType": "uint256",
              "name": "currentHeight",
              "type": "uint256"
            },
            {
              "internalType": "uint256",
              "name": "maximumHeight",
              "type": "uint256"
            },
            {
              "internalType": "uint256",
              "name": "availableFloors",
              "type": "uint256"
            },
            {
              "internalType": "uint256",
              "name": "price",
              "type": "uint256"
            },
            {
              "internalType": "string",
              "name": "metadataURI",
              "type": "string"
            }
          ],
          "internalType": "struct AirSpaceCCIPSender.NFTData",
          "name": "nftData",
          "type": "tuple"
        }
      ],
      "name": "getFee",
      "outputs": [
        {
          "internalType": "uint256",
          "name": "fee",
          "type": "uint256"
        }
      ],
      "stateMutability": "view",
      "type": "function"
    },
    {
      "inputs": [
        {
          "internalType": "bytes32",
          "name": "messageId",
          "type": "bytes32"
        }
      ],
      "name": "getPendingTransfer",
      "outputs": [
        {
          "components": [
            {
              "internalType": "address",
              "name": "nftContract",
              "type": "address"
            },
            {
              "internalType": "uint256",
              "name": "tokenId",
              "type": "uint256"
            },
            {
              "internalType": "address",
              "name": "originalOwner",
              "type": "address"
            },
            {
              "internalType": "string",
              "name": "propertyAddress",
              "type": "string"
            },
            {
              "internalType": "uint256",
              "name": "currentHeight",
              "type": "uint256"
            },
            {
              "internalType": "uint256",
              "name": "maximumHeight",
              "type": "uint256"
            },
            {
              "internalType": "uint256",
              "name": "availableFloors",
              "type": "uint256"
            },
            {
              "internalType": "uint256",
              "name": "price",
              "type": "uint256"
            },
            {
              "internalType": "string",
              "name": "metadataURI",
              "type": "string"
            }
          ],
          "internalType": "struct AirSpaceCCIPSender.NFTData",
          "name": "nftData",
          "type": "tuple"
        }
      ],
      "stateMutability": "view",
      "type": "function"
    },
    {
      "inputs": [
        {
          "internalType": "uint64",
          "name": "destinationChainSelector",
          "type": "uint64"
        }
      ],
      "name": "isChainSupported",
      "outputs": [
        {
          "internalType": "bool",
          "name": "supported",
          "type": "bool"
        }
      ],
      "stateMutability": "view",
      "type": "function"
    },
    {
      "inputs": [
        {
          "internalType": "address",
          "name": "nftContract",
          "type": "address"
        }
      ],
      "name": "isNFTContractSupported",
      "outputs": [
        {
          "internalType": "bool",
          "name": "supported",
          "type": "bool"
        }
      ],
      "stateMutability": "view",
      "type": "function"
    },
    {
      "inputs": [
        {
          "internalType": "uint256",
          "name": "",
          "type": "uint256"
        }
      ],
      "name": "nftPrices",
      "outputs": [
        {
          "internalType": "uint256",
          "name": "",
          "type": "uint256"
        }
      ],
      "stateMutability": "view",
      "type": "function"
    },
    {
      "inputs": [],
      "name": "owner",
      "outputs": [
        {
          "internalType": "address",
          "name": "",
          "type": "address"
        }
      ],
      "stateMutability": "view",
      "type": "function"
    },
    {
      "inputs": [
        {
          "internalType": "bytes32",
          "name": "",
          "type": "bytes32"
        }
      ],
      "name": "pendingNFTTransfers",
      "outputs": [
        {
          "internalType": "address",
          "name": "nftContract",
          "type": "address"
        },
        {
          "internalType": "uint256",
          "name": "tokenId",
          "type": "uint256"
        },
        {
          "internalType": "address",
          "name": "originalOwner",
          "type": "address"
        },
        {
          "internalType": "string",
          "name": "propertyAddress",
          "type": "string"
        },
        {
          "internalType": "uint256",
          "name": "currentHeight",
          "type": "uint256"
        },
        {
          "internalType": "uint256",
          "name": "maximumHeight",
          "type": "uint256"
        },
        {
          "internalType": "uint256",
          "name": "availableFloors",
          "type": "uint256"
        },
        {
          "internalType": "uint256",
          "name": "price",
          "type": "uint256"
        },
        {
          "internalType": "string",
          "name": "metadataURI",
          "type": "string"
        }
      ],
      "stateMutability": "view",
      "type": "function"
    },
    {
      "inputs": [
        {
          "internalType": "uint64",
          "name": "destinationChainSelector",
          "type": "uint64"
        }
      ],
      "name": "removeSupportedChain",
      "outputs": [],
      "stateMutability": "nonpayable",
      "type": "function"
    },
    {
      "inputs": [
        {
          "internalType": "address",
          "name": "nftContract",
          "type": "address"
        }
      ],
      "name": "removeSupportedNFTContract",
      "outputs": [],
      "stateMutability": "nonpayable",
      "type": "function"
    },
    {
      "inputs": [
        {
          "internalType": "uint64",
          "name": "destinationChainSelector",
          "type": "uint64"
        },
        {
          "internalType": "address",
          "name": "receiver",
          "type": "address"
        },
        {
          "components": [
            {
              "internalType": "address",
              "name": "nftContract",
              "type": "address"
            },
            {
              "internalType": "uint256",
              "name": "tokenId",
              "type": "uint256"
            },
            {
              "internalType": "address",
              "name": "originalOwner",
              "type": "address"
            },
            {
              "internalType": "string",
              "name": "propertyAddress",
              "type": "string"
            },
            {
              "internalType": "uint256",
              "name": "currentHeight",
              "type": "uint256"
            },
            {
              "internalType": "uint256",
              "name": "maximumHeight",
              "type": "uint256"
            },
            {
              "internalType": "uint256",
              "name": "availableFloors",
              "type": "uint256"
            },
            {
              "internalType": "uint256",
              "name": "price",
              "type": "uint256"
            },
            {
              "internalType": "string",
              "name": "metadataURI",
              "type": "string"
            }
          ],
          "internalType": "struct AirSpaceCCIPSender.NFTData",
          "name": "nftData",
          "type": "tuple"
        }
      ],
      "name": "sendNFTData",
      "outputs": [
        {
          "internalType": "bytes32",
          "name": "messageId",
          "type": "bytes32"
        }
      ],
      "stateMutability": "nonpayable",
      "type": "function"
    },
    {
      "inputs": [
        {
          "internalType": "uint64",
          "name": "destinationChainSelector",
          "type": "uint64"
        },
        {
          "internalType": "address",
          "name": "receiver",
          "type": "address"
        },
        {
          "components": [
            {
              "internalType": "address",
              "name": "nftContract",
              "type": "address"
            },
            {
              "internalType": "uint256",
              "name": "tokenId",
              "type": "uint256"
            },
            {
              "internalType": "address",
              "name": "originalOwner",
              "type": "address"
            },
            {
              "internalType": "string",
              "name": "propertyAddress",
              "type": "string"
            },
            {
              "internalType": "uint256",
              "name": "currentHeight",
              "type": "uint256"
            },
            {
              "internalType": "uint256",
              "name": "maximumHeight",
              "type": "uint256"
            },
            {
              "internalType": "uint256",
              "name": "availableFloors",
              "type": "uint256"
            },
            {
              "internalType": "uint256",
              "name": "price",
              "type": "uint256"
            },
            {
              "internalType": "string",
              "name": "metadataURI",
              "type": "string"
            }
          ],
          "internalType": "struct AirSpaceCCIPSender.NFTData",
          "name": "nftData",
          "type": "tuple"
        },
        {
          "internalType": "address",
          "name": "paymentToken",
          "type": "address"
        },
        {
          "internalType": "uint256",
          "name": "paymentAmount",
          "type": "uint256"
        }
      ],
      "name": "sendNFTDataWithPayment",
      "outputs": [
        {
          "internalType": "bytes32",
          "name": "messageId",
          "type": "bytes32"
        }
      ],
      "stateMutability": "payable",
      "type": "function"
    },
    {
      "inputs": [
        {
          "internalType": "uint256",
          "name": "tokenId",
          "type": "uint256"
        },
        {
          "internalType": "uint256",
          "name": "priceInWei",
          "type": "uint256"
        }
      ],
      "name": "setNFTPrice",
      "outputs": [],
      "stateMutability": "nonpayable",
      "type": "function"
    },
    {
      "inputs": [
        {
          "internalType": "uint64",
          "name": "",
          "type": "uint64"
        }
      ],
      "name": "supportedDestinationChains",
      "outputs": [
        {
          "internalType": "bool",
          "name": "",
          "type": "bool"
        }
      ],
      "stateMutability": "view",
      "type": "function"
    },
    {
      "inputs": [
        {
          "internalType": "address",
          "name": "",
          "type": "address"
        }
      ],
      "name": "supportedNFTContracts",
      "outputs": [
        {
          "internalType": "bool",
          "name": "",
          "type": "bool"
        }
      ],
      "stateMutability": "view",
      "type": "function"
    },
    {
      "inputs": [
        {
          "internalType": "address",
          "name": "to",
          "type": "address"
        }
      ],
      "name": "transferOwnership",
      "outputs": [],
      "stateMutability": "nonpayable",
      "type": "function"
    },
    {
      "inputs": [
        {
          "internalType": "address",
          "name": "to",
          "type": "address"
        },
        {
          "internalType": "uint256",
          "name": "amount",
          "type": "uint256"
        }
      ],
      "name": "withdrawLink",
      "outputs": [],
      "stateMutability": "nonpayable",
      "type": "function"
    },
    {
      "inputs": [
        {
          "internalType": "address payable",
          "name": "to",
          "type": "address"
        },
        {
          "internalType": "uint256",
          "name": "amount",
          "type": "uint256"
        }
      ],
      "name": "withdrawNative",
      "outputs": [],
      "stateMutability": "nonpayable",
      "type": "function"
    },
    {
      "inputs": [
        {
          "internalType": "address",
          "name": "token",
          "type": "address"
        },
        {
          "internalType": "address",
          "name": "to",
          "type": "address"
        },
        {
          "internalType": "uint256",
          "name": "amount",
          "type": "uint256"
        }
      ],
      "name": "withdrawToken",
      "outputs": [],
      "stateMutability": "nonpayable",
      "type": "function"
    },
    {
      "stateMutability": "payable",
      "type": "receive"
    }
  ],
  "bytecode": "0x6080346200011e57620020af90601f38839003908101601f19168201906001600160401b038211838310176200012357808391604095869485528339810103126200011e576200005d6020620000558362000139565b920162000139565b903315620000da5760018060a01b031990600092338385541617845560018060a01b038092168360025416176002551690600354161760035567de41ba4fc9d91ad9815260046020526001828083209260ff1993838582541617905567ccf0a31a221f3c9b8152209182541617905551611f6090816200014f8239f35b825162461bcd60e51b815260206004820152601860248201527f43616e6e6f7420736574206f776e657220746f207a65726f00000000000000006044820152606490fd5b600080fd5b634e487b7160e01b600052604160045260246000fd5b51906001600160a01b03821682036200011e5756fe60806040526004361015610018575b361561001657005b005b60003560e01c806301e336671461193557806305a2730a146117d057806307b18bde1461177f5780633380a2f414610c1b5780633c1d31d6146116215780634d9fb4f6146115df5780634ec99ba71461145a57806354b7faae1461155457806366c8dbb314611499578063730a28f41461145a57806379ba5097146113b15780638c27f0d814610c835780638da5cb5b14610c5a578063a48a905814610c1b578063a80a57ff14610bd6578063d365c7c614610b94578063d9f10a2b14610b68578063e740655814610b36578063f2fde38b14610a7e578063f702146a1461014e5763fb5c33120361000e5734610149576020366003190112610149576001600160401b036101256119f2565b61012d611e76565b166000908152600460205260409020805460ff19166001179055005b600080fd5b60a0366003190112610149576101626119f2565b61016a6119c8565b906044356001600160401b0381116101495761018a903690600401611ad1565b60643591906001600160a01b0383168303610149576001600160401b038216600052600460205260ff6040600020541615610a5d576001600160a01b0383166109175760843534106108d2576101de611d20565b925b6102a960018060a01b0383511660208401519261027a60018060a01b0360408701511660608701519060808801519160a089015160c08a01519061025260e08c0151936101008d0151956040519c8d9b60208d015260408c015260608b015261018060808b01526101a08a0190611b7f565b9460a089015260c088015260e0870152610100860152601f1985830301610120860152611b7f565b336101408401526001600160a01b0390911661016083015260843561018083015203601f198101835282611a5a565b6040516001600160a01b0386166020808301919091528152936102cb85611a08565b6102ec6040516102da81611a08565b620927c0815260016020820152611ec8565b9060018060a01b0360035416926040519661030688611a23565b875260208701526040860152816060860152608085015260018060a01b036002541690604051916320487ded60e01b835260208380610349898960048401611d43565b0381845afa9283156107b45760009361089e575b506040516370a0823160e01b8152306004820152602081602481865afa9081156107b45760009161086c575b5083116107ed5760405163095ea7b360e01b81526001600160a01b039190911660048201526024810183905290602090829060449082906000905af180156107b457600095602092610408926107c0575b506002546040516396f4e9f960e01b81529788936001600160a01b0390921692849283918a60048401611d43565b03925af19384156107b457600094610780575b50836000526006602052604060002060018060a01b038351166001600160601b0360a01b908183541617825560208401516001830155600282019060018060a01b036040860151169082541617905560608301518051906001600160401b03821161069a57819061048f6003850154611bbf565b601f811161072d575b50602090601f83116001146106bb576000926106b0575b50508160011b916000199060031b1c19161760038201555b6080830151600482015560a0830151600582015560c0830151600682015560e083015160078201556101008301518051906001600160401b03821161069a576105136008840154611bbf565b601f8111610653575b5091869391602098938990601f83116001146105c557926008836105af946001600160401b039794600080516020611f0b83398151915299976000926105ba575b50508160011b916000199060031b1c1916179101555b86518a8801516040808a01516060909a015160035491516001600160a01b039788169c9098169a88979283169491939083169290911687611e12565b0390a4604051908152f35b015190508e8061055d565b90600884016000528a6000209160005b601f198516811061063957506001846001600160401b039794600080516020611f0b8339815191529997946008946105af98601f19811610610620575b505050811b01910155610573565b015160001960f88460031b161c191690558e8080610612565b8183015184558b9850600190930192918c01918c016105d5565b600884016000526020600020601f840160051c810160208510610693575b601f830160051c8201811061068757505061051c565b60008155600101610671565b5080610671565b634e487b7160e01b600052604160045260246000fd5b0151905088806104af565b9250600384016000526020600020906000935b601f1984168510610712576001945083601f198116106106f9575b505050811b0160038201556104c7565b015160001960f88460031b161c191690558880806106e9565b818101518355602094850194600190930192909101906106ce565b909150600384016000526020600020601f840160051c810160208510610779575b90849392915b601f830160051c8201811061076a575050610498565b60008155859450600101610754565b508061074e565b9093506020813d6020116107ac575b8161079c60209383611a5a565b810103126101495751928561041b565b3d915061078f565b6040513d6000823e3d90fd5b6107df90843d86116107e6575b6107d78183611a5a565b810190611c9e565b50886103da565b503d6107cd565b6040516370a0823160e01b815230600482015283602082602481875afa9081156107b457600091610837575b6044925060405191634787a10360e11b835260048301526024820152fd5b90506020823d602011610864575b8161085260209383611a5a565b81010312610149576044915190610819565b3d9150610845565b90506020813d602011610896575b8161088760209383611a5a565b81010312610149575188610389565b3d915061087a565b9092506020813d6020116108ca575b816108ba60209383611a5a565b810103126101495751918761035d565b3d91506108ad565b60405162461bcd60e51b815260206004820152601e60248201527f496e73756666696369656e74206e617469766520746f6b656e2073656e7400006044820152606490fd5b6040519261092484611a08565b6001845260005b60208110610a3857506109678460405161094481611a08565b6001600160a01b0384168152608435602082015261096182611e53565b52611e53565b506040516323b872dd60e01b8152336004820152306024820152608435604482015260208160648160006001600160a01b0387165af180156107b457610a19575b5060025460405163095ea7b360e01b81526001600160a01b03909116600482015260843560248201526020818060448101038160006001600160a01b0387165af180156107b4576109fa575b506101e0565b610a129060203d6020116107e6576107d78183611a5a565b50856109f4565b610a319060203d6020116107e6576107d78183611a5a565b50856109a8565b602090604051610a4781611a08565b600081526000838201528282880101520161092b565b60405163b70edb6160e01b81526001600160401b0383166004820152602490fd5b3461014957602036600319011261014957610a976119b2565b610a9f611e76565b6001600160a01b0390811690338214610af157816001600160601b0360a01b6001541617600155600054167fed8889f560326eb138920d842192f0eb3dd22b4f139c87a2c57538e05bae1278600080a3005b60405162461bcd60e51b815260206004820152601760248201527f43616e6e6f74207472616e7366657220746f2073656c660000000000000000006044820152606490fd5b3461014957604036600319011261014957610b4f611e76565b6004356000526007602052602435604060002055600080f35b346101495760203660031901126101495760043560005260076020526020604060002054604051908152f35b3461014957602036600319011261014957610bad6119b2565b610bb5611e76565b6001600160a01b03166000908152600560205260409020805460ff19169055005b3461014957602036600319011261014957610bef6119b2565b610bf7611e76565b6001600160a01b03166000908152600560205260409020805460ff19166001179055005b34610149576020366003190112610149576001600160401b03610c3c6119f2565b166000526004602052602060ff604060002054166040519015158152f35b34610149576000366003190112610149576000546040516001600160a01b039091168152602090f35b3461014957606036600319011261014957610c9c6119f2565b610ca46119c8565b906044356001600160401b03811161014957610cc4903690600401611ad1565b906001600160401b038116600052600460205260ff604060002054161561138f5781516001600160a01b031660009081526005602052604090205460ff161561136b5781516020808401516040516331a9108f60e11b8152600481019190915291829060249082906001600160a01b03165afa9081156107b457600091611329575b506001600160a01b03163381141580611312575b6112f4575060018060a01b0382511691610dc46020820151610db660018060a01b03604085015116956060850151608086015160a087015160c08801519060e0890151926101008a0151946040519c8d99339860208c01611cb6565b03601f198101855284611a5a565b6040516001600160a01b038516602080830191909152815292610de684611a08565b610dee611d20565b610e0f604051610dfd81611a08565b6207a120815260016020820152611ec8565b9060018060a01b03600354169260405196610e2988611a23565b875260208701526040860152816060860152608085015260018060a01b036002541690604051916320487ded60e01b835260208380610e6c898960048401611d43565b0381845afa9283156107b4576000936112c0575b506040516370a0823160e01b8152306004820152602081602481865afa9081156107b45760009161128e575b5083116107ed5760405163095ea7b360e01b81526001600160a01b039190911660048201526024810183905290602090829060449082906000905af180156107b457600095602092610f2a926107c057506002546040516396f4e9f960e01b81529788936001600160a01b0390921692849283918a60048401611d43565b03925af19384156107b45760009461125a575b50836000526006602052604060002060018060a01b038351166001600160601b0360a01b908183541617825560208401516001830155600282019060018060a01b036040860151169082541617905560608301518051906001600160401b03821161069a578190610fb16003850154611bbf565b601f8111611207575b50602090601f83116001146111955760009261118a575b50508160011b916000199060031b1c19161760038201555b6080830151600482015560a0830151600582015560c0830151600682015560e083015160078201556101008301518051906001600160401b03821161069a576110356008840154611bbf565b601f8111611143575b5091869391602098938990601f83116001146110cf57926008836105af946001600160401b039794600080516020611f0b83398151915299976000926105ba5750508160011b916000199060031b1c19161791015586518a8801516040808a01516060909a015160035491516001600160a01b039788169c9098169a88979283169491939083169290911687611e12565b90600884016000528a6000209160005b601f198516811061112957506001846001600160401b039794600080516020611f0b8339815191529997946008946105af98601f1981161061062057505050811b01910155610573565b8183015184558b9850600190930192918c01918c016110df565b600884016000526020600020601f840160051c810160208510611183575b601f830160051c8201811061117757505061103e565b60008155600101611161565b5080611161565b015190508880610fd1565b9250600384016000526020600020906000935b601f19841685106111ec576001945083601f198116106111d3575b505050811b016003820155610fe9565b015160001960f88460031b161c191690558880806111c3565b818101518355602094850194600190930192909101906111a8565b909150600384016000526020600020601f840160051c810160208510611253575b90849392915b601f830160051c82018110611244575050610fba565b6000815585945060010161122e565b5080611228565b9093506020813d602011611286575b8161127660209383611a5a565b8101031261014957519285610f3d565b3d9150611269565b90506020813d6020116112b8575b816112a960209383611a5a565b81010312610149575188610eac565b3d915061129c565b9092506020813d6020116112ec575b816112dc60209383611a5a565b8101031261014957519187610e80565b3d91506112cf565b604490604051906362bac6ef60e01b82523360048301526024820152fd5b5060408301516001600160a01b0316811415610d5a565b90506020813d602011611363575b8161134460209383611a5a565b8101031261014957516001600160a01b03811681036101495784610d46565b3d9150611337565b815160405163071463f960e01b81526001600160a01b039091166004820152602490fd5b60405163b70edb6160e01b81526001600160401b039091166004820152602490fd5b34610149576000366003190112610149576001546001600160a01b03808216330361141c57600054916001600160601b0360a01b903382851617600055166001553391167f8be0079c531659141344cd1fd0a4f28419497f9722a3daafe3b4186f6b6457e0600080a3005b60405162461bcd60e51b815260206004820152601660248201527526bab9ba10313290383937b837b9b2b21037bbb732b960511b6044820152606490fd5b34610149576020366003190112610149576001600160a01b0361147b6119b2565b166000526005602052602060ff604060002054166040519015158152f35b34610149576020366003190112610149576004356000526006602052604060002060018060a01b036115508183541692600181015492600282015416936114e260038301611bf9565b91600481015492600582015461152d600684015492611508600860078701549601611bf9565b956040519a8b9a610120928c5260208c015260408b01528060608b0152890190611b7f565b94608088015260a087015260c086015260e0850152838203610100850152611b7f565b0390f35b3461014957604036600319011261014957600060206115b76115746119b2565b61157c611e76565b60035460405163a9059cbb60e01b81526001600160a01b03928316600482015260248035908201529485939190921691839182906044820190565b03925af180156107b4576115c757005b6100169060203d6020116107e6576107d78183611a5a565b34610149576020366003190112610149576001600160401b036116006119f2565b611608611e76565b166000908152600460205260409020805460ff19169055005b3461014957602080600319360112610149576040519061164082611a3e565b600082526000818301526000604083015260608083015260006080830152600060a0830152600060c0830152600060e0830152606061010080930152600435600052600681526115506040600020926040519361169c85611a3e565b60018060a01b0391828254168652600182015490858701918252868460028501541693604082019485526116d260038201611bf9565b606083019081526004820154966080840197885260058301549660a08501978852611717600860068601549560c0880196875260e06007820154980197885201611bf9565b96868d019788528b836040519e8f9e8f525116908d01525160408c0152511660608a01525194611755610120968760808c01526101408b0190611b7f565b965160a08a01525160c08901525160e088015251908601525190601f198584030190850152611b7f565b34610149576040366003190112610149576004356001600160a01b0381169081900361014957600080808093602435906117b7611e76565b8282156117c7575bf1156107b457005b506108fc6117bf565b34610149576040366003190112610149576117e96119f2565b6024356001600160401b038111610149576118639161180f6118ec923690600401611ad1565b60018060a01b039182825116926020958694610db686808701519685604082015116906060810151608082015160a08301519060c08401519261010060e0860151950151956040519d8e9a33998c01611cb6565b6040519260008585015284845261187984611a08565b611881611d20565b906118a260405161189181611a08565b6207a1208152600188820152611ec8565b91836003541691604051966118b688611a23565b87528787015260408601526060850152608084015260025416906040518095819482936320487ded60e01b845260048401611d43565b03915afa9081156107b457600091611908575b50604051908152f35b90508181813d831161192e575b61191f8183611a5a565b810103126101495751826118ff565b503d611915565b3461014957606036600319011261014957600060206119996119556119b2565b61195d6119c8565b611965611e76565b60405163a9059cbb60e01b81526001600160a01b039091166004820152604480356024830152909485938492839190820190565b03926001600160a01b03165af180156107b4576115c757005b600435906001600160a01b038216820361014957565b602435906001600160a01b038216820361014957565b35906001600160a01b038216820361014957565b600435906001600160401b038216820361014957565b604081019081106001600160401b0382111761069a57604052565b60a081019081106001600160401b0382111761069a57604052565b61012081019081106001600160401b0382111761069a57604052565b90601f801991011681019081106001600160401b0382111761069a57604052565b81601f82011215610149578035906001600160401b03821161069a5760405192611aaf601f8401601f191660200185611a5a565b8284526020838301011161014957816000926020809301838601378301015290565b9190610120838203126101495760405190611aeb82611a3e565b8193611af6816119de565b835260208101356020840152611b0e604082016119de565b60408401526001600160401b039160608201358381116101495781611b34918401611a7b565b60608501526080820135608085015260a082013560a085015260c082013560c085015260e082013560e0850152610100928383013590811161014957611b7a9201611a7b565b910152565b919082519283825260005b848110611bab575050826000602080949584010152601f8019910116010190565b602081830181015184830182015201611b8a565b90600182811c92168015611bef575b6020831014611bd957565b634e487b7160e01b600052602260045260246000fd5b91607f1691611bce565b90604051918260008254611c0c81611bbf565b90818452602094600191600181169081600014611c7c5750600114611c3d575b505050611c3b92500383611a5a565b565b600090815285812095935091905b818310611c64575050611c3b9350820101388080611c2c565b85548884018501529485019487945091830191611c4b565b92505050611c3b94925060ff191682840152151560051b820101388080611c2c565b90816020910312610149575180151581036101495790565b9893611cf6908a9893611d1998936101209b969e9d9e61014092602060018060a01b039d8e809516815201521660408d01528060608d01528b0190611b7f565b9460808a015260a089015260c088015260e0870152858203610100870152611b7f565b9416910152565b604051602081018181106001600160401b0382111761069a576040526000815290565b909291926001600160401b03604091168252602091604083820152611d74855160a0604084015260e0830190611b7f565b91611d908487015193603f199485858303016060860152611b7f565b604087015194848483030160808501528080875193848152019601926000905b838210611de957505050505060c06080611de6959660018060a01b0360608201511660a085015201519282850301910152611b7f565b90565b845180516001600160a01b03168952830151888401529687019693820193600190910190611db0565b9293611e489160a09598979698600180881b0394858093168752602087015216604085015260c0606085015260c0840190611b7f565b951660808201520152565b805115611e605760200190565b634e487b7160e01b600052603260045260246000fd5b6000546001600160a01b03163303611e8a57565b60405162461bcd60e51b815260206004820152601660248201527527b7363c9031b0b63630b1363290313c9037bbb732b960511b6044820152606490fd5b602060405191630181dcf160e41b828401528051602484015201511515604482015260448152608081018181106001600160401b0382111761069a576040529056fe711051a1045106448ca14e0beffa136ead2a5654e5c5159a956799daea8793eca26469706673582212200bfc0f05d60e8dc792373f9a3b54bfceb423ba7c577ea6f66d1347ed30de796164736f6c63430008180033",
  "linkReferences": {},
  "deployedLinkReferences": {}
}