{
  "_format": "hh-sol-artifact-1",
  "contractName": "PolkadotAirSpaceNFT",
  "sourceName": "src/contracts/PolkadotAirSpaceNFT.sol",
  "abi": [
    {
      "inputs": [
        {
          "internalType": "address",
          "name": "_treasury",
          "type": "address"
        }
      ],
      "stateMutability": "nonpayable",
      "type": "constructor"
    },
    {
      "inputs": [],
      "name": "ERC721EnumerableForbiddenBatchMint",
      "type": "error"
    },
    {
      "inputs": [
        {
          "internalType": "address",
          "name": "sender",
          "type": "address"
        },
        {
          "internalType": "uint256",
          "name": "tokenId",
          "type": "uint256"
        },
        {
          "internalType": "address",
          "name": "owner",
          "type": "address"
        }
      ],
      "name": "ERC721IncorrectOwner",
      "type": "error"
    },
    {
      "inputs": [
        {
          "internalType": "address",
          "name": "operator",
          "type": "address"
        },
        {
          "internalType": "uint256",
          "name": "tokenId",
          "type": "uint256"
        }
      ],
      "name": "ERC721InsufficientApproval",
      "type": "error"
    },
    {
      "inputs": [
        {
          "internalType": "address",
          "name": "approver",
          "type": "address"
        }
      ],
      "name": "ERC721InvalidApprover",
      "type": "error"
    },
    {
      "inputs": [
        {
          "internalType": "address",
          "name": "operator",
          "type": "address"
        }
      ],
      "name": "ERC721InvalidOperator",
      "type": "error"
    },
    {
      "inputs": [
        {
          "internalType": "address",
          "name": "owner",
          "type": "address"
        }
      ],
      "name": "ERC721InvalidOwner",
      "type": "error"
    },
    {
      "inputs": [
        {
          "internalType": "address",
          "name": "receiver",
          "type": "address"
        }
      ],
      "name": "ERC721InvalidReceiver",
      "type": "error"
    },
    {
      "inputs": [
        {
          "internalType": "address",
          "name": "sender",
          "type": "address"
        }
      ],
      "name": "ERC721InvalidSender",
      "type": "error"
    },
    {
      "inputs": [
        {
          "internalType": "uint256",
          "name": "tokenId",
          "type": "uint256"
        }
      ],
      "name": "ERC721NonexistentToken",
      "type": "error"
    },
    {
      "inputs": [
        {
          "internalType": "address",
          "name": "owner",
          "type": "address"
        },
        {
          "internalType": "uint256",
          "name": "index",
          "type": "uint256"
        }
      ],
      "name": "ERC721OutOfBoundsIndex",
      "type": "error"
    },
    {
      "inputs": [
        {
          "internalType": "address",
          "name": "minter",
          "type": "address"
        }
      ],
      "name": "InvalidMinter",
      "type": "error"
    },
    {
      "inputs": [
        {
          "internalType": "uint256",
          "name": "provided",
          "type": "uint256"
        },
        {
          "internalType": "uint256",
          "name": "required",
          "type": "uint256"
        }
      ],
      "name": "InvalidPrice",
      "type": "error"
    },
    {
      "inputs": [],
      "name": "InvalidPropertyData",
      "type": "error"
    },
    {
      "inputs": [
        {
          "internalType": "address",
          "name": "caller",
          "type": "address"
        }
      ],
      "name": "NotAuthorized",
      "type": "error"
    },
    {
      "inputs": [
        {
          "internalType": "address",
          "name": "owner",
          "type": "address"
        }
      ],
      "name": "OwnableInvalidOwner",
      "type": "error"
    },
    {
      "inputs": [
        {
          "internalType": "address",
          "name": "account",
          "type": "address"
        }
      ],
      "name": "OwnableUnauthorizedAccount",
      "type": "error"
    },
    {
      "inputs": [
        {
          "internalType": "string",
          "name": "propertyAddress",
          "type": "string"
        }
      ],
      "name": "PropertyAlreadyExists",
      "type": "error"
    },
    {
      "inputs": [],
      "name": "ReentrancyGuardReentrantCall",
      "type": "error"
    },
    {
      "inputs": [],
      "name": "TransferFailed",
      "type": "error"
    },
    {
      "anonymous": false,
      "inputs": [
        {
          "indexed": true,
          "internalType": "uint256",
          "name": "tokenId",
          "type": "uint256"
        },
        {
          "indexed": true,
          "internalType": "address",
          "name": "owner",
          "type": "address"
        },
        {
          "indexed": false,
          "internalType": "string",
          "name": "propertyAddress",
          "type": "string"
        },
        {
          "indexed": false,
          "internalType": "uint256",
          "name": "currentHeight",
          "type": "uint256"
        },
        {
          "indexed": false,
          "internalType": "uint256",
          "name": "maximumHeight",
          "type": "uint256"
        },
        {
          "indexed": false,
          "internalType": "uint256",
          "name": "availableFloors",
          "type": "uint256"
        },
        {
          "indexed": false,
          "internalType": "uint256",
          "name": "price",
          "type": "uint256"
        },
        {
          "indexed": false,
          "internalType": "string",
          "name": "metadataURI",
          "type": "string"
        }
      ],
      "name": "AirRightsNFTMinted",
      "type": "event"
    },
    {
      "anonymous": false,
      "inputs": [
        {
          "indexed": true,
          "internalType": "address",
          "name": "owner",
          "type": "address"
        },
        {
          "indexed": true,
          "internalType": "address",
          "name": "approved",
          "type": "address"
        },
        {
          "indexed": true,
          "internalType": "uint256",
          "name": "tokenId",
          "type": "uint256"
        }
      ],
      "name": "Approval",
      "type": "event"
    },
    {
      "anonymous": false,
      "inputs": [
        {
          "indexed": true,
          "internalType": "address",
          "name": "owner",
          "type": "address"
        },
        {
          "indexed": true,
          "internalType": "address",
          "name": "operator",
          "type": "address"
        },
        {
          "indexed": false,
          "internalType": "bool",
          "name": "approved",
          "type": "bool"
        }
      ],
      "name": "ApprovalForAll",
      "type": "event"
    },
    {
      "anonymous": false,
      "inputs": [
        {
          "indexed": false,
          "internalType": "uint256",
          "name": "_fromTokenId",
          "type": "uint256"
        },
        {
          "indexed": false,
          "internalType": "uint256",
          "name": "_toTokenId",
          "type": "uint256"
        }
      ],
      "name": "BatchMetadataUpdate",
      "type": "event"
    },
    {
      "anonymous": false,
      "inputs": [
        {
          "indexed": true,
          "internalType": "uint256",
          "name": "tokenId",
          "type": "uint256"
        },
        {
          "indexed": true,
          "internalType": "address",
          "name": "recipient",
          "type": "address"
        },
        {
          "indexed": false,
          "internalType": "uint64",
          "name": "sourceChainSelector",
          "type": "uint64"
        },
        {
          "indexed": false,
          "internalType": "bytes32",
          "name": "sourceMessageId",
          "type": "bytes32"
        },
        {
          "indexed": false,
          "internalType": "string",
          "name": "propertyAddress",
          "type": "string"
        }
      ],
      "name": "CrossChainNFTReceived",
      "type": "event"
    },
    {
      "anonymous": false,
      "inputs": [
        {
          "indexed": false,
          "internalType": "uint256",
          "name": "_tokenId",
          "type": "uint256"
        }
      ],
      "name": "MetadataUpdate",
      "type": "event"
    },
    {
      "anonymous": false,
      "inputs": [
        {
          "indexed": true,
          "internalType": "address",
          "name": "previousOwner",
          "type": "address"
        },
        {
          "indexed": true,
          "internalType": "address",
          "name": "newOwner",
          "type": "address"
        }
      ],
      "name": "OwnershipTransferred",
      "type": "event"
    },
    {
      "anonymous": false,
      "inputs": [
        {
          "indexed": true,
          "internalType": "address",
          "name": "payer",
          "type": "address"
        },
        {
          "indexed": false,
          "internalType": "uint256",
          "name": "amount",
          "type": "uint256"
        },
        {
          "indexed": true,
          "internalType": "uint256",
          "name": "tokenId",
          "type": "uint256"
        },
        {
          "indexed": false,
          "internalType": "string",
          "name": "paymentType",
          "type": "string"
        }
      ],
      "name": "PaymentReceived",
      "type": "event"
    },
    {
      "anonymous": false,
      "inputs": [
        {
          "indexed": true,
          "internalType": "uint256",
          "name": "tokenId",
          "type": "uint256"
        },
        {
          "indexed": false,
          "internalType": "uint256",
          "name": "oldPrice",
          "type": "uint256"
        },
        {
          "indexed": false,
          "internalType": "uint256",
          "name": "newPrice",
          "type": "uint256"
        }
      ],
      "name": "PropertyPriceUpdated",
      "type": "event"
    },
    {
      "anonymous": false,
      "inputs": [
        {
          "indexed": true,
          "internalType": "address",
          "name": "from",
          "type": "address"
        },
        {
          "indexed": true,
          "internalType": "address",
          "name": "to",
          "type": "address"
        },
        {
          "indexed": true,
          "internalType": "uint256",
          "name": "tokenId",
          "type": "uint256"
        }
      ],
      "name": "Transfer",
      "type": "event"
    },
    {
      "stateMutability": "payable",
      "type": "fallback"
    },
    {
      "inputs": [
        {
          "internalType": "address",
          "name": "minter",
          "type": "address"
        }
      ],
      "name": "addAuthorizedMinter",
      "outputs": [],
      "stateMutability": "nonpayable",
      "type": "function"
    },
    {
      "inputs": [
        {
          "internalType": "address",
          "name": "to",
          "type": "address"
        },
        {
          "internalType": "uint256",
          "name": "tokenId",
          "type": "uint256"
        }
      ],
      "name": "approve",
      "outputs": [],
      "stateMutability": "nonpayable",
      "type": "function"
    },
    {
      "inputs": [
        {
          "internalType": "address",
          "name": "",
          "type": "address"
        }
      ],
      "name": "authorizedMinters",
      "outputs": [
        {
          "internalType": "bool",
          "name": "",
          "type": "bool"
        }
      ],
      "stateMutability": "view",
      "type": "function"
    },
    {
      "inputs": [
        {
          "internalType": "address",
          "name": "owner",
          "type": "address"
        }
      ],
      "name": "balanceOf",
      "outputs": [
        {
          "internalType": "uint256",
          "name": "",
          "type": "uint256"
        }
      ],
      "stateMutability": "view",
      "type": "function"
    },
    {
      "inputs": [
        {
          "internalType": "bytes32",
          "name": "",
          "type": "bytes32"
        }
      ],
      "name": "ccipMessageToTokenId",
      "outputs": [
        {
          "internalType": "uint256",
          "name": "",
          "type": "uint256"
        }
      ],
      "stateMutability": "view",
      "type": "function"
    },
    {
      "inputs": [],
      "name": "emergencyWithdraw",
      "outputs": [],
      "stateMutability": "nonpayable",
      "type": "function"
    },
    {
      "inputs": [
        {
          "internalType": "uint256",
          "name": "tokenId",
          "type": "uint256"
        }
      ],
      "name": "getApproved",
      "outputs": [
        {
          "internalType": "address",
          "name": "",
          "type": "address"
        }
      ],
      "stateMutability": "view",
      "type": "function"
    },
    {
      "inputs": [
        {
          "internalType": "uint256",
          "name": "tokenId",
          "type": "uint256"
        }
      ],
      "name": "getCrossChainInfo",
      "outputs": [
        {
          "internalType": "uint64",
          "name": "sourceChainSelector",
          "type": "uint64"
        },
        {
          "internalType": "bytes32",
          "name": "sourceMessageId",
          "type": "bytes32"
        }
      ],
      "stateMutability": "view",
      "type": "function"
    },
    {
      "inputs": [],
      "name": "getCurrentTokenCounter",
      "outputs": [
        {
          "internalType": "uint256",
          "name": "counter",
          "type": "uint256"
        }
      ],
      "stateMutability": "view",
      "type": "function"
    },
    {
      "inputs": [
        {
          "internalType": "uint256",
          "name": "tokenId",
          "type": "uint256"
        }
      ],
      "name": "getPropertyData",
      "outputs": [
        {
          "components": [
            {
              "internalType": "string",
              "name": "propertyAddress",
              "type": "string"
            },
            {
              "internalType": "uint256",
              "name": "currentHeight",
              "type": "uint256"
            },
            {
              "internalType": "uint256",
              "name": "maximumHeight",
              "type": "uint256"
            },
            {
              "internalType": "uint256",
              "name": "availableFloors",
              "type": "uint256"
            },
            {
              "internalType": "uint256",
              "name": "price",
              "type": "uint256"
            },
            {
              "internalType": "string",
              "name": "metadataURI",
              "type": "string"
            },
            {
              "internalType": "bool",
              "name": "exists",
              "type": "bool"
            },
            {
              "internalType": "uint64",
              "name": "sourceChainSelector",
              "type": "uint64"
            },
            {
              "internalType": "bytes32",
              "name": "sourceMessageId",
              "type": "bytes32"
            }
          ],
          "internalType": "struct PolkadotAirSpaceNFT.PropertyData",
          "name": "property",
          "type": "tuple"
        }
      ],
      "stateMutability": "view",
      "type": "function"
    },
    {
      "inputs": [
        {
          "internalType": "string",
          "name": "propertyAddress",
          "type": "string"
        }
      ],
      "name": "getTokenIdByProperty",
      "outputs": [
        {
          "internalType": "uint256",
          "name": "tokenId",
          "type": "uint256"
        }
      ],
      "stateMutability": "view",
      "type": "function"
    },
    {
      "inputs": [
        {
          "internalType": "address",
          "name": "owner",
          "type": "address"
        }
      ],
      "name": "getTokensByOwner",
      "outputs": [
        {
          "internalType": "uint256[]",
          "name": "tokenIds",
          "type": "uint256[]"
        }
      ],
      "stateMutability": "view",
      "type": "function"
    },
    {
      "inputs": [
        {
          "internalType": "address",
          "name": "owner",
          "type": "address"
        },
        {
          "internalType": "address",
          "name": "operator",
          "type": "address"
        }
      ],
      "name": "isApprovedForAll",
      "outputs": [
        {
          "internalType": "bool",
          "name": "",
          "type": "bool"
        }
      ],
      "stateMutability": "view",
      "type": "function"
    },
    {
      "inputs": [
        {
          "internalType": "address",
          "name": "to",
          "type": "address"
        },
        {
          "internalType": "string",
          "name": "propertyAddress",
          "type": "string"
        },
        {
          "internalType": "uint256",
          "name": "currentHeight",
          "type": "uint256"
        },
        {
          "internalType": "uint256",
          "name": "maximumHeight",
          "type": "uint256"
        },
        {
          "internalType": "uint256",
          "name": "price",
          "type": "uint256"
        },
        {
          "internalType": "string",
          "name": "metadataURI",
          "type": "string"
        }
      ],
      "name": "mintAirRightsNFT",
      "outputs": [
        {
          "internalType": "uint256",
          "name": "tokenId",
          "type": "uint256"
        }
      ],
      "stateMutability": "nonpayable",
      "type": "function"
    },
    {
      "inputs": [
        {
          "internalType": "address",
          "name": "to",
          "type": "address"
        },
        {
          "internalType": "string",
          "name": "propertyAddress",
          "type": "string"
        },
        {
          "internalType": "uint256",
          "name": "currentHeight",
          "type": "uint256"
        },
        {
          "internalType": "uint256",
          "name": "maximumHeight",
          "type": "uint256"
        },
        {
          "internalType": "uint256",
          "name": "price",
          "type": "uint256"
        },
        {
          "internalType": "string",
          "name": "metadataURI",
          "type": "string"
        },
        {
          "internalType": "uint64",
          "name": "sourceChainSelector",
          "type": "uint64"
        },
        {
          "internalType": "bytes32",
          "name": "sourceMessageId",
          "type": "bytes32"
        }
      ],
      "name": "mintCrossChainNFT",
      "outputs": [
        {
          "internalType": "uint256",
          "name": "tokenId",
          "type": "uint256"
        }
      ],
      "stateMutability": "nonpayable",
      "type": "function"
    },
    {
      "inputs": [],
      "name": "name",
      "outputs": [
        {
          "internalType": "string",
          "name": "",
          "type": "string"
        }
      ],
      "stateMutability": "view",
      "type": "function"
    },
    {
      "inputs": [],
      "name": "owner",
      "outputs": [
        {
          "internalType": "address",
          "name": "",
          "type": "address"
        }
      ],
      "stateMutability": "view",
      "type": "function"
    },
    {
      "inputs": [
        {
          "internalType": "uint256",
          "name": "tokenId",
          "type": "uint256"
        }
      ],
      "name": "ownerOf",
      "outputs": [
        {
          "internalType": "address",
          "name": "",
          "type": "address"
        }
      ],
      "stateMutability": "view",
      "type": "function"
    },
    {
      "inputs": [],
      "name": "platformFeePercent",
      "outputs": [
        {
          "internalType": "uint256",
          "name": "",
          "type": "uint256"
        }
      ],
      "stateMutability": "view",
      "type": "function"
    },
    {
      "inputs": [
        {
          "internalType": "string",
          "name": "propertyAddress",
          "type": "string"
        }
      ],
      "name": "propertyExists",
      "outputs": [
        {
          "internalType": "bool",
          "name": "exists",
          "type": "bool"
        }
      ],
      "stateMutability": "view",
      "type": "function"
    },
    {
      "inputs": [
        {
          "internalType": "string",
          "name": "",
          "type": "string"
        }
      ],
      "name": "propertyToTokenId",
      "outputs": [
        {
          "internalType": "uint256",
          "name": "",
          "type": "uint256"
        }
      ],
      "stateMutability": "view",
      "type": "function"
    },
    {
      "inputs": [
        {
          "internalType": "uint256",
          "name": "tokenId",
          "type": "uint256"
        }
      ],
      "name": "purchaseWithNativeToken",
      "outputs": [],
      "stateMutability": "payable",
      "type": "function"
    },
    {
      "inputs": [
        {
          "internalType": "address",
          "name": "minter",
          "type": "address"
        }
      ],
      "name": "removeAuthorizedMinter",
      "outputs": [],
      "stateMutability": "nonpayable",
      "type": "function"
    },
    {
      "inputs": [],
      "name": "renounceOwnership",
      "outputs": [],
      "stateMutability": "nonpayable",
      "type": "function"
    },
    {
      "inputs": [
        {
          "internalType": "address",
          "name": "from",
          "type": "address"
        },
        {
          "internalType": "address",
          "name": "to",
          "type": "address"
        },
        {
          "internalType": "uint256",
          "name": "tokenId",
          "type": "uint256"
        }
      ],
      "name": "safeTransferFrom",
      "outputs": [],
      "stateMutability": "nonpayable",
      "type": "function"
    },
    {
      "inputs": [
        {
          "internalType": "address",
          "name": "from",
          "type": "address"
        },
        {
          "internalType": "address",
          "name": "to",
          "type": "address"
        },
        {
          "internalType": "uint256",
          "name": "tokenId",
          "type": "uint256"
        },
        {
          "internalType": "bytes",
          "name": "data",
          "type": "bytes"
        }
      ],
      "name": "safeTransferFrom",
      "outputs": [],
      "stateMutability": "nonpayable",
      "type": "function"
    },
    {
      "inputs": [
        {
          "internalType": "address",
          "name": "operator",
          "type": "address"
        },
        {
          "internalType": "bool",
          "name": "approved",
          "type": "bool"
        }
      ],
      "name": "setApprovalForAll",
      "outputs": [],
      "stateMutability": "nonpayable",
      "type": "function"
    },
    {
      "inputs": [
        {
          "internalType": "uint256",
          "name": "_feePercent",
          "type": "uint256"
        }
      ],
      "name": "setPlatformFeePercent",
      "outputs": [],
      "stateMutability": "nonpayable",
      "type": "function"
    },
    {
      "inputs": [
        {
          "internalType": "address",
          "name": "_treasury",
          "type": "address"
        }
      ],
      "name": "setTreasury",
      "outputs": [],
      "stateMutability": "nonpayable",
      "type": "function"
    },
    {
      "inputs": [
        {
          "internalType": "bytes4",
          "name": "interfaceId",
          "type": "bytes4"
        }
      ],
      "name": "supportsInterface",
      "outputs": [
        {
          "internalType": "bool",
          "name": "",
          "type": "bool"
        }
      ],
      "stateMutability": "view",
      "type": "function"
    },
    {
      "inputs": [],
      "name": "symbol",
      "outputs": [
        {
          "internalType": "string",
          "name": "",
          "type": "string"
        }
      ],
      "stateMutability": "view",
      "type": "function"
    },
    {
      "inputs": [
        {
          "internalType": "uint256",
          "name": "index",
          "type": "uint256"
        }
      ],
      "name": "tokenByIndex",
      "outputs": [
        {
          "internalType": "uint256",
          "name": "",
          "type": "uint256"
        }
      ],
      "stateMutability": "view",
      "type": "function"
    },
    {
      "inputs": [
        {
          "internalType": "uint256",
          "name": "",
          "type": "uint256"
        }
      ],
      "name": "tokenIdToProperty",
      "outputs": [
        {
          "internalType": "string",
          "name": "propertyAddress",
          "type": "string"
        },
        {
          "internalType": "uint256",
          "name": "currentHeight",
          "type": "uint256"
        },
        {
          "internalType": "uint256",
          "name": "maximumHeight",
          "type": "uint256"
        },
        {
          "internalType": "uint256",
          "name": "availableFloors",
          "type": "uint256"
        },
        {
          "internalType": "uint256",
          "name": "price",
          "type": "uint256"
        },
        {
          "internalType": "string",
          "name": "metadataURI",
          "type": "string"
        },
        {
          "internalType": "bool",
          "name": "exists",
          "type": "bool"
        },
        {
          "internalType": "uint64",
          "name": "sourceChainSelector",
          "type": "uint64"
        },
        {
          "internalType": "bytes32",
          "name": "sourceMessageId",
          "type": "bytes32"
        }
      ],
      "stateMutability": "view",
      "type": "function"
    },
    {
      "inputs": [
        {
          "internalType": "address",
          "name": "owner",
          "type": "address"
        },
        {
          "internalType": "uint256",
          "name": "index",
          "type": "uint256"
        }
      ],
      "name": "tokenOfOwnerByIndex",
      "outputs": [
        {
          "internalType": "uint256",
          "name": "",
          "type": "uint256"
        }
      ],
      "stateMutability": "view",
      "type": "function"
    },
    {
      "inputs": [
        {
          "internalType": "uint256",
          "name": "tokenId",
          "type": "uint256"
        }
      ],
      "name": "tokenURI",
      "outputs": [
        {
          "internalType": "string",
          "name": "",
          "type": "string"
        }
      ],
      "stateMutability": "view",
      "type": "function"
    },
    {
      "inputs": [
        {
          "internalType": "uint256",
          "name": "",
          "type": "uint256"
        }
      ],
      "name": "totalPaymentsReceived",
      "outputs": [
        {
          "internalType": "uint256",
          "name": "",
          "type": "uint256"
        }
      ],
      "stateMutability": "view",
      "type": "function"
    },
    {
      "inputs": [],
      "name": "totalSupply",
      "outputs": [
        {
          "internalType": "uint256",
          "name": "",
          "type": "uint256"
        }
      ],
      "stateMutability": "view",
      "type": "function"
    },
    {
      "inputs": [
        {
          "internalType": "address",
          "name": "from",
          "type": "address"
        },
        {
          "internalType": "address",
          "name": "to",
          "type": "address"
        },
        {
          "internalType": "uint256",
          "name": "tokenId",
          "type": "uint256"
        }
      ],
      "name": "transferFrom",
      "outputs": [],
      "stateMutability": "nonpayable",
      "type": "function"
    },
    {
      "inputs": [
        {
          "internalType": "address",
          "name": "newOwner",
          "type": "address"
        }
      ],
      "name": "transferOwnership",
      "outputs": [],
      "stateMutability": "nonpayable",
      "type": "function"
    },
    {
      "inputs": [],
      "name": "treasury",
      "outputs": [
        {
          "internalType": "address",
          "name": "",
          "type": "address"
        }
      ],
      "stateMutability": "view",
      "type": "function"
    },
    {
      "inputs": [
        {
          "internalType": "uint256",
          "name": "tokenId",
          "type": "uint256"
        },
        {
          "internalType": "uint256",
          "name": "newPrice",
          "type": "uint256"
        }
      ],
      "name": "updatePropertyPrice",
      "outputs": [],
      "stateMutability": "nonpayable",
      "type": "function"
    },
    {
      "stateMutability": "payable",
      "type": "receive"
    }
  ],
  "bytecode": "0x608034620003de57601f906001600160401b03601f1962002e7c388190038581018316850184811186821017620003c857859282916040528339602094859181010312620003de57516001600160a01b03948582169391849003620003de5762000068620003e3565b94601586527f506f6c6b61646f74204169725370616365204e46540000000000000000000000818701526200009c620003e3565b906006825265141054d3919560d21b81830152865194848611620003c8576000958654986001998a81811c91168015620003bd575b85821014620003a95790818784931162000356575b508490878311600114620002f5578992620002e9575b5050600019600383901b1c191690891b1786555b8251948511620002d55787548881811c91168015620002ca575b83821014620002b6579081858796959493116200025d575b5081938511600114620001f85750508492620001ec575b5050600019600383901b1c191690841b1783555b3315620001d457600b5460018060a01b0319913383831617600b557f8be0079c531659141344cd1fd0a4f28419497f9722a3daafe3b4186f6b6457e0604051963393169180a382600c5560fa600f55600e541617600e55600d55612a789081620004048239f35b60249060405190631e4fbdf760e01b82526004820152fd5b01519050388062000159565b889593929193168587528387209387905b82821062000243575050841162000229575b505050811b0183556200016d565b015160001960f88460031b161c191690553880806200021b565b8484015186558a9790950194938401939081019062000209565b9091929394508887528287208580880160051c820192858910620002ac575b9188978c9297969594930160051c01915b8281106200029d57505062000142565b8981558897508b91016200028d565b925081926200027c565b634e487b7160e01b87526022600452602487fd5b90607f16906200012a565b634e487b7160e01b86526041600452602486fd5b015190503880620000fc565b90848c9416918a8052868b20928b5b888282106200033f575050841162000325575b505050811b01865562000110565b015160001960f88460031b161c1916905538808062000317565b8385015186558f9790950194938401930162000304565b9091508880528489208780850160051c8201928786106200039f575b918d91869594930160051c01915b82811062000390575050620000e6565b8b81558594508d910162000380565b9250819262000372565b634e487b7160e01b89526022600452602489fd5b90607f1690620000d1565b634e487b7160e01b600052604160045260246000fd5b600080fd5b60408051919082016001600160401b03811183821017620003c85760405256fe608080604052600436101561001a575b50361561001857005b005b60003560e01c90816301ffc9a714611c6d5750806306fdde0314611bc2578063081812fc14611b84578063095ea7b314611a9d5780630c9b6f8b14611595578063118b47e5146114ea57806318160ddd146114cc5780631f7f31a4146114ae57806323b872dd14611497578063287283f11461144c5780632f745c591461142557806340398d671461134957806342842e0e1461131b578063475ae039146112d95780634f6ccce7146112835780635f710f5c1461123e57806361d027b3146112155780636352211e146111e557806370a08231146111ba578063715018a61461115d57806388fe0395146111315780638c639a85146111135780638da5cb5b146110ea57806395d89b41146110075780639972c82014610fdb578063a22cb46514610f2d578063aa2fe91b14610eee578063b88d4fde14610e83578063bb632ab814610d14578063c87b56dd14610cb7578063cab230d214610c50578063db2e21bc14610c08578063de050c4b14610bac578063de92c92614610bac578063e674a85114610af1578063e985e9c514610a9b578063f069f7f0146105ad578063f0f442601461056a578063f2fde38b146104dc578063fb66f25a1461027f5763fce401b2146101ea573861000f565b3461027a57604036600319011261027a5760043560243561020a82612346565b336001600160a01b03909116036102625760407fefc9487f4db026cf5f98bdd0a8207c757b77021fa330023425d46b0a65eecd04918360005260126020526004826000200190808254925582519182526020820152a2005b604051634a0bfec160e01b8152336004820152602490fd5b600080fd5b602036600319011261027a576004356002600c54146104ca576002600c55806000526012602052604060002060ff600682015416156104b857600401805480341061049a576102cd83612346565b90600f54808202908282041482151715610427576127106102f091048092611f6b565b60018060a01b0391600080808086881695865af161030c612316565b501561045a578015158061048d575b61046c575b5061032c845434611f6b565b8061043d575b508354856000526014602052604060002080549182018092116104275755331561040e5761036085336127bd565b9182168061038157604051637e27328960e01b815260048101879052602490fd5b036103d9575050546040519081526040602082015260066040820152654e415449564560d01b60608201527f237b94339b1dc667f5a951cf2ee33f00228f658a6ab811cc6afa6caaa4b80cfa60803392a36001600c55005b6040516364283d7b60e01b81526001600160a01b039283166004820152602481019490945216604483015250606490fd5b0390fd5b604051633250574960e11b815260006004820152602490fd5b634e487b7160e01b600052601160045260246000fd5b600080808093335af161044e612316565b501561045a5785610332565b6040516312171d8360e31b8152600490fd5b60008080809386600e54165af1610481612316565b501561045a5785610320565b5082600e5416151561031b565b6044906040519063af608abb60e01b82523460048301526024820152fd5b6040516336dc35e560e11b8152600490fd5b604051633ee5aeb560e01b8152600490fd5b3461027a57602036600319011261027a576104f5611d54565b6104fd612675565b6001600160a01b0390811690811561055157600b54826bffffffffffffffffffffffff60a01b821617600b55167f8be0079c531659141344cd1fd0a4f28419497f9722a3daafe3b4186f6b6457e0600080a3005b604051631e4fbdf760e01b815260006004820152602490fd5b3461027a57602036600319011261027a57610583611d54565b61058b612675565b600e80546001600160a01b0319166001600160a01b0392909216919091179055005b3461027a5761010036600319011261027a576105c7611d54565b6024356001600160401b03811161027a576105e6903690600401611e2a565b60a4356001600160401b03811161027a57610605903690600401611e2a565b9060c435926001600160401b038416840361027a5733600052601060205260ff604060002054161580610a86575b610a6f578151158015610a61575b6104b857600d549261065284611f5c565b600d55610663604435606435611f6b565b6040519061067082611d80565b84825260443560208301526064356040830152606082015260843560808201528160a0820152600160c08201526001600160401b03861660e082015260e43561010082015284600052601260205260406000209080518051906001600160401b03821161098a5781906106e38554611e7d565b601f8111610a11575b50602090601f83116001146109ab576000926109a0575b50508160011b916000199060031b1c19161782555b6020810151600183015560408101516002830155606081015160038301556080810151600483015560a08101518051906001600160401b03821161098a576107636005850154611e7d565b601f8111610943575b50918795939160209995938a90601f831160011461089c576101006001600160401b039794847f60eab9e5fcd5e416d1e880f64696e924c94cc67e1323d4e8b38ef949f8592c909a98956108769895600795600092610891575b50508160011b916000199060031b1c19161760058501555b600684016107fe60c08301511515829060ff801983541691151516179055565b60e082015168ffffffffffffffff0082549160081b169068ffffffffffffffff001916179055015191015560e43560005260138a52866040600020556108448783612381565b8051610881575b5060405193849316835260e435898401526060604084015260018060a01b0316956060830190611d2f565b0390a3604051908152f35b61088b9087612500565b8961084b565b0151905038806107c6565b90600585016000528b6000209160005b601f198516811061092957506001600160401b0397946001856108769895600795610100957f60eab9e5fcd5e416d1e880f64696e924c94cc67e1323d4e8b38ef949f8592c909e9c99601f19811610610910575b505050811b0160058501556107de565b015160001960f88460031b161c19169055388080610900565b8183015184558c9a50600190930192918d01918d016108ac565b600585016000526020600020601f840160051c810160208510610983575b601f830160051c8201811061097757505061076c565b60008155600101610961565b5080610961565b634e487b7160e01b600052604160045260246000fd5b015190508980610703565b6000868152602081209350601f198516905b8181106109f957509084600195949392106109e0575b505050811b018255610718565b015160001960f88460031b161c191690558980806109d3565b929360206001819287860151815501950193016109bd565b909150846000526020600020601f840160051c810160208510610a5a575b90849392915b601f830160051c82018110610a4b5750506106ec565b60008155859450600101610a35565b5080610a2f565b506044356064351115610641565b60405162f78d2360e81b8152336004820152602490fd5b50600b546001600160a01b0316331415610633565b3461027a57604036600319011261027a57610ab4611d54565b610abc611d6a565b9060018060a01b03809116600052600560205260406000209116600052602052602060ff604060002054166040519015158152f35b3461027a57602036600319011261027a576004356000526012602052610b6b6040600020610b1e81611eb7565b9060018101546001600160401b03610b8d60028401549260038501546004860154610b4b60058801611eb7565b9160076006890154980154966040519a8b9a610120808d528c0190611d2f565b9460208b015260408a01526060890152608088015286820360a0880152611d2f565b9260ff8116151560c086015260081c1660e08401526101008301520390f35b3461027a57602036600319011261027a576004356001600160401b03811161027a57610bf56020610be281933690600401611e2a565b8160405193828580945193849201611d0c565b8101601181520301902054604051908152f35b3461027a57600036600319011261027a57610c21612675565b4780610c2957005b600b546000918291829182916001600160a01b03165af1610c48612316565b501561045a57005b3461027a57602036600319011261027a57600435610c6c612675565b6103e88111610c7a57600f55005b60405162461bcd60e51b81526020600482015260156024820152744665652063616e6e6f74206578636565642031302560581b6044820152606490fd5b3461027a57602036600319011261027a57600435610cd481612346565b506000526006602052610d10610ced6040600020611eb7565b6000604051610cfb81611d9c565b52604051918291602083526020830190611d2f565b0390f35b3461027a5760208060031936011261027a5760405190610d3382611d80565b606082528082016000905260408201600090526060820160009052608082016000905260a082016060905260c082016000905260e08201600090526101008092016000905260043560005260128152604060002060405191610d9483611d80565b610d9d82611eb7565b835260018201549181840192835260028101549460408501958652600382015491606086019283526004810154946080870195865260058201610ddf90611eb7565b9060a0880191825260068301549160c089019760ff8416151589526001600160401b03948560e08c019560081c1685526007015496868b019788526040519b8c9b8a8d52518c6101209b8c9101526101408d01610e3b91611d2f565b945160408d01525160608c01525160808b01525160a08a015251888203601f190160c08a0152610e6b9190611d2f565b9551151560e088015251169085015251908301520390f35b3461027a57608036600319011261027a57610e9c611d54565b610ea4611d6a565b90604435606435926001600160401b03841161027a573660238501121561027a57610edc610018943690602481600401359101611df3565b92610ee8838383611f78565b336126a1565b3461027a57602036600319011261027a576001600160a01b03610f0f611d54565b166000526010602052602060ff604060002054166040519015158152f35b3461027a57604036600319011261027a57610f46611d54565b602435908115159081830361027a576001600160a01b0316918215610fc257610f949033600052600560205260406000208460005260205260406000209060ff801983541691151516179055565b6040519081527f17307eab39ab6107e8899845ad3d59bd9653f200f220920489ca2b5937696c3160203392a3005b604051630b61174360e31b815260048101849052602490fd5b3461027a57602036600319011261027a5760043560005260146020526020604060002054604051908152f35b3461027a57600036600319011261027a5760405160006001826001549261102d84611e7d565b92838352602094856001821691826000146110ca57505060011461106d575b5061105992500383611db7565b610d10604051928284938452830190611d2f565b84915060016000527fb10e2d527612073b26eecdfd717e6a320cf44b4afac2b0732d9fcbe2b7fa0cf6906000915b8583106110b257505061105993508201018561104c565b8054838901850152879450869390920191810161109b565b60ff19168582015261105995151560051b850101925087915061104c9050565b3461027a57600036600319011261027a57600b546040516001600160a01b039091168152602090f35b3461027a57600036600319011261027a576020600f54604051908152f35b3461027a57602036600319011261027a5760043560005260136020526020604060002054604051908152f35b3461027a57600036600319011261027a57611176612675565b600b80546001600160a01b031981169091556000906001600160a01b03167f8be0079c531659141344cd1fd0a4f28419497f9722a3daafe3b4186f6b6457e08280a3005b3461027a57602036600319011261027a5760206111dd6111d8611d54565b6122dd565b604051908152f35b3461027a57602036600319011261027a576020611203600435612346565b6040516001600160a01b039091168152f35b3461027a57600036600319011261027a57600e546040516001600160a01b039091168152602090f35b3461027a57602036600319011261027a57611257611d54565b61125f612675565b6001600160a01b03166000908152601060205260409020805460ff19166001179055005b3461027a57602036600319011261027a576004356009548110156112ba576112ac6020916122a6565b90546040519160031b1c8152f35b6044906040519063295f44f760e21b8252600060048301526024820152fd5b3461027a57602036600319011261027a576112f2611d54565b6112fa612675565b6001600160a01b03166000908152601060205260409020805460ff19169055005b3461027a5761001861132c36611e48565b906040519261133a84611d9c565b60008452610ee8838383611f78565b3461027a5760208060031936011261027a57611363611d54565b61136c816122dd565b6113758161228f565b906113836040519283611db7565b80825261138f8161228f565b8285019390601f190136853760005b8281106113e95750505090604051928392818401908285525180915260408401929160005b8281106113d257505050500390f35b8351855286955093810193928101926001016113c3565b6113f3818361222f565b90845181101561140f57600191878260051b870101520161139e565b634e487b7160e01b600052603260045260246000fd5b3461027a57604036600319011261027a5760206111dd611443611d54565b6024359061222f565b3461027a57602036600319011261027a576004356001600160401b03811161027a576114826020610be281933690600401611e2a565b81016011815203019020541515604051908152f35b3461027a576100186114a836611e48565b91611f78565b3461027a57600036600319011261027a576020600d54604051908152f35b3461027a57600036600319011261027a576020600954604051908152f35b3461027a57602036600319011261027a576004356000526012602052604080600020610100825161151a81611d80565b61152383611eb7565b815260018301546020820152600283015484820152600383015460608201526004830154608082015261155860058401611eb7565b60a082015260076001600160401b03600685015460ff8116151560c085015260081c16938460e08401520154918291015282519182526020820152f35b3461027a5760c036600319011261027a576115ae611d54565b6024356001600160401b03811161027a576115cd903690600401611e2a565b9060a4356001600160401b03811161027a576115ed903690600401611e2a565b33600052601060205260ff604060002054161580611a88575b610a6f578251158015611a7a575b6104b857604051602081855161162d8183858a01611d0c565b8101601181520301902054611a5857600d549161164983611f5c565b600d5561165a604435606435611f6b565b9060405161166781611d80565b8581526044356020820152606435604082015282606082015260843560808201528360a0820152600160c0820152600060e0820152600061010082015284600052601260205260406000209080518051906001600160401b03821161098a5781906116d28554611e7d565b601f8111611a08575b50602090601f831160011461199c57600092611991575b50508160011b916000199060031b1c19161782555b6020810151600183015560408101516002830155606081015160038301556080810151600483015560a08101518051906001600160401b03821161098a576117526005850154611e7d565b601f811161194a575b50918795939160209995938a90601f83116001146118a8576101006118589794847f1e46276e28486f32a881a8c30ab460add73ee6190a3abe384ef873462b9b71039a9895610876989560079560009261189d575b50508160011b916000199060031b1c19161760058501555b600684016117e860c08301511515829060ff801983541691151516179055565b60e082015168ffffffffffffffff0082549160081b169068ffffffffffffffff0019161790550151910155866040518b8187516118288183858c01611d0c565b810160118152030190205561183d8782612381565b875161188e575b60405194859460c0865260c0860190611d2f565b604435858c015260643560408601526060850192909252608435608085015283820360a08501526001600160a01b031696611d2f565b6118988888612500565b611844565b0151905038806117b0565b90600585016000528b6000209160005b601f1985168110611930575061185897946001856108769895600795610100957f1e46276e28486f32a881a8c30ab460add73ee6190a3abe384ef873462b9b71039e9c99601f19811610611917575b505050811b0160058501556117c8565b015160001960f88460031b161c19169055388080611907565b8183015184558c9a50600190930192918d01918d016118b8565b600585016000526020600020601f840160051c81016020851061198a575b601f830160051c8201811061197e57505061175b565b60008155600101611968565b5080611968565b0151905089806116f2565b9250846000526020600020906000935b601f19841685106119ed576001945083601f198116106119d4575b505050811b018255611707565b015160001960f88460031b161c191690558980806119c7565b818101518355602094850194600190930192909101906119ac565b909150846000526020600020601f840160051c810160208510611a51575b90849392915b601f830160051c82018110611a425750506116db565b60008155859450600101611a2c565b5080611a26565b604051636abeed4960e11b8152602060048201528061040a6024820186611d2f565b506044356064351115611614565b50600b546001600160a01b0316331415611606565b3461027a57604036600319011261027a57611ab6611d54565b602435611ac281612346565b33151580611b71575b80611b44575b611b2c576001600160a01b039283169282918491167f8c5be1e5ebec7d5bd14f71427d1e84f3dd0314c0f7b2291e5b200ac8c7c3b925600080a4600090815260046020526040902080546001600160a01b0319169091179055005b60405163a9fbf51f60e01b8152336004820152602490fd5b5060018060a01b038116600052600560205260406000203360005260205260ff6040600020541615611ad1565b506001600160a01b038116331415611acb565b3461027a57602036600319011261027a57600435611ba181612346565b506000526004602052602060018060a01b0360406000205416604051908152f35b3461027a57600036600319011261027a57604051600080549082611be583611e7d565b91828252602093600190856001821691826000146110ca575050600114611c13575061105992500383611db7565b6000808052859250907f290decd9548b62a8d60345a988386fc84ba6bc95484008f6362f93160ef3e5635b858310611c5557505061105993508201018561104c565b80548389018501528794508693909201918101611c3e565b3461027a57602036600319011261027a576004359063ffffffff60e01b821680920361027a5760209163780e9d6360e01b8114908115611caf575b5015158152f35b632483248360e11b811491508115611cc9575b5083611ca8565b6380ac58cd60e01b811491508115611cfb575b8115611cea575b5083611cc2565b6301ffc9a760e01b14905083611ce3565b635b5e139f60e01b81149150611cdc565b60005b838110611d1f5750506000910152565b8181015183820152602001611d0f565b90602091611d4881518092818552858086019101611d0c565b601f01601f1916010190565b600435906001600160a01b038216820361027a57565b602435906001600160a01b038216820361027a57565b61012081019081106001600160401b0382111761098a57604052565b602081019081106001600160401b0382111761098a57604052565b90601f801991011681019081106001600160401b0382111761098a57604052565b6001600160401b03811161098a57601f01601f191660200190565b929192611dff82611dd8565b91611e0d6040519384611db7565b82948184528183011161027a578281602093846000960137010152565b9080601f8301121561027a57816020611e4593359101611df3565b90565b606090600319011261027a576001600160a01b0390600435828116810361027a5791602435908116810361027a579060443590565b90600182811c92168015611ead575b6020831014611e9757565b634e487b7160e01b600052602260045260246000fd5b91607f1691611e8c565b90604051918260008254611eca81611e7d565b90818452602094600191600181169081600014611f3a5750600114611efb575b505050611ef992500383611db7565b565b600090815285812095935091905b818310611f22575050611ef99350820101388080611eea565b85548884018501529485019487945091830191611f09565b92505050611ef994925060ff191682840152151560051b820101388080611eea565b60001981146104275760010190565b9190820391821161042757565b906001600160a01b0380821690811561040e576000918583526020926002845260409383858320541695331515806121a1575b508615801561216e575b84845260038352868420805460010190558984526002835286842080546001600160a01b031916861790558985897fddf252ad1be2c89b69c2b068fc378daa952ba7f163c4a11628f55a4df523b3ef8780a41561210257600954898452600a83528087852055600160401b8110156120ee578961203b82600161205494016009556122a6565b90919082549060031b91821b91600019901b1916179055565b83870361209c575b505050508316820361206e5750505050565b516364283d7b60e01b81526001600160a01b0392831660048201526024810193909352166044820152606490fd5b6120a5906122dd565b6000198101939084116120da57829160089187945260078152838320858452815289848420558983525220553880808061205c565b634e487b7160e01b83526011600452602483fd5b634e487b7160e01b84526041600452602484fd5b86841461205457612112876122dd565b898452600883528684205490888552600784528785209181810361214c575b508a8552600884528488812055845282528286812055612054565b81865282855288862054818752808a8820558652600885528886205538612131565b60008a815260046020526040902080546001600160a01b0319169055878452600383528684208054600019019055611fb5565b806121ee575b156121b25738611fab565b8589886121cf576024915190637e27328960e01b82526004820152fd5b905163177e802f60e01b81523360048201526024810191909152604490fd5b503387148015612213575b806121a757508883526004825233858785205416146121a7565b5086835260058252858320338452825260ff86842054166121f9565b612238816122dd565b8210156122645760018060a01b0316600052600760205260406000209060005260205260406000205490565b60405163295f44f760e21b81526001600160a01b039190911660048201526024810191909152604490fd5b6001600160401b03811161098a5760051b60200190565b60095481101561140f5760096000527f6e1540171b6c0c960b71a7020d9f60077f6af931a8bbf590da0223dacf75c7af0190600090565b6001600160a01b031680156122fd57600052600360205260406000205490565b6040516322718ad960e21b815260006004820152602490fd5b3d15612341573d9061232782611dd8565b916123356040519384611db7565b82523d6000602084013e565b606090565b6000818152600260205260409020546001600160a01b0316908115612369575090565b60249060405190637e27328960e01b82526004820152fd5b604091825161238f81611d9c565b60008082526001600160a01b03848116949192919085156124e8576123b485836127bd565b166124d0573b6123c6575b5050505050565b602061240391869795965180938192630a85bd0160e11b978884523360048501528760248501526044840152608060648401526084830190611d2f565b038185895af190829082612480575b505061244b57505050612423612316565b8051929083612444578151633250574960e11b815260048101849052602490fd5b8390602001fd5b9193916001600160e01b0319160361246957505038808080806123bf565b602492505190633250574960e11b82526004820152fd5b909192506020813d6020116124c8575b8161249d60209383611db7565b810103126124c45751906001600160e01b0319821682036124c15750903880612412565b80fd5b5080fd5b3d9150612490565b85516339e3563760e11b815260048101849052602490fd5b8651633250574960e11b815260048101859052602490fd5b9190916000908082526020916006835260408120908551906001600160401b038211612661576125308354611e7d565b601f811161261e575b508490601f831160011461259a57907ff8e1a15aba9398e019f0b49df1a4fde98ee17ae345cb5f6b5e2c27f5033e8ce796978361258f575b50508160011b916000199060031b1c19161790555b604051908152a1565b015190503880612571565b9196601f198816848452868420935b81811061260757509160019391897ff8e1a15aba9398e019f0b49df1a4fde98ee17ae345cb5f6b5e2c27f5033e8ce7999a94106125ee575b505050811b019055612586565b015160001960f88460031b161c191690553880806125e1565b9293876001819287860151815501950193016125a9565b838252858220601f840160051c810191878510612657575b601f0160051c01905b81811061264c5750612539565b82815560010161263f565b9091508190612636565b634e487b7160e01b81526041600452602490fd5b600b546001600160a01b0316330361268957565b60405163118cdaa760e01b8152336004820152602490fd5b9293823b6126b0575050505050565b6126f49060018060a01b038094169560405194859481630a85bd0160e11b988988521660048701521660248501526044840152608060648401526084830190611d2f565b03906020816000938185885af190829082612774575b50506127425782612719612316565b805191908261273b57604051633250574960e11b815260048101839052602490fd5b9050602001fd5b6001600160e01b0319160361275c575038808080806123bf565b60249060405190633250574960e11b82526004820152fd5b909192506020813d6020116127b5575b8161279160209383611db7565b810103126124c45751906001600160e01b0319821682036124c1575090388061270a565b3d9150612784565b6000828152600260209081526040808320546001600160a01b039081169592949192918615918215612a0f575b81169182159081156129f9575b8487526002885285872080546001600160a01b0319168517905584848a7fddf252ad1be2c89b69c2b068fc378daa952ba7f163c4a11628f55a4df523b3ef8a80a41561298d57600954848752600a88528086882055600160401b811015612979578461203b82600161286c94016009556122a6565b15612910575050600954600019948582019182116128fc5790600a8392869594865281815261289e85872054936122a6565b90549060031b1c6128b28161203b866122a6565b8652528284205582528120556009549081156128e857508101906128d5826122a6565b909182549160031b1b1916905560095590565b634e487b7160e01b81526031600452602490fd5b634e487b7160e01b85526011600452602485fd5b81879693929695949503612928575b50505050505090565b612931906122dd565b600019810195908611612965578352600782528383208584528252838320819055825260089052205538808080808061291f565b634e487b7160e01b84526011600452602484fd5b634e487b7160e01b87526041600452602487fd5b87831461286c5761299d886122dd565b84875260088852858720549089885260078952868820918181036129d7575b5085885260088952878781205587528752858581205561286c565b818952828a5287892054818a5280898b2055895260088a5287892055386129bc565b83875260038852858720600181540190556127f7565b600084815260046020526040902080546001600160a01b03191690558786526003875284862080546000190190556127ea56fea26469706673582212202a8053ba180d1a2361c1280bed3a2e6d0dff378fd49284df2cdaafbbb971e00464736f6c63430008180033",
  "linkReferences": {},
  "deployedLinkReferences": {}
}