{
  "_format": "hh-sol-artifact-1",
  "contractName": "ZkSyncETHTransfer",
  "sourceName": "src/contracts/ZkSyncETHTransfer.sol",
  "abi": [
    {
      "anonymous": false,
      "inputs": [
        {
          "indexed": true,
          "internalType": "address",
          "name": "from",
          "type": "address"
        },
        {
          "indexed": true,
          "internalType": "address",
          "name": "to",
          "type": "address"
        },
        {
          "indexed": false,
          "internalType": "uint256",
          "name": "amount",
          "type": "uint256"
        }
      ],
      "name": "ETHTransferred",
      "type": "event"
    },
    {
      "inputs": [],
      "name": "RECIPIENT",
      "outputs": [
        {
          "internalType": "address",
          "name": "",
          "type": "address"
        }
      ],
      "stateMutability": "view",
      "type": "function"
    },
    {
      "inputs": [],
      "name": "TRANSFER_AMOUNT",
      "outputs": [
        {
          "internalType": "uint256",
          "name": "",
          "type": "uint256"
        }
      ],
      "stateMutability": "view",
      "type": "function"
    },
    {
      "inputs": [],
      "name": "checkTransactionStatus",
      "outputs": [
        {
          "internalType": "bool",
          "name": "status",
          "type": "bool"
        }
      ],
      "stateMutability": "pure",
      "type": "function"
    },
    {
      "inputs": [],
      "name": "transferETH",
      "outputs": [
        {
          "internalType": "bool",
          "name": "success",
          "type": "bool"
        }
      ],
      "stateMutability": "payable",
      "type": "function"
    }
  ],
  "bytecode": "0x60808060405234610016576102ce908161001c8239f35b600080fdfe60806040818152600436101561001457600080fd5b600091823560e01c9081630d4142281461021c575080630d9019e1146101ee57806375b3d573146101ce5763e28d717b1461004e57600080fd5b816003193601126101ca57655af3107a40009182341061018e5773ba23cfbaa92b5cc853cb57e1521aa99ee9b117b9908080808087865af161008e610237565b501561015557655af3107a3fff19340134811161014157806100e1575b505060209282519081527f8dec4e7cfc87eced5c05eafa206697292193ede25a52287bf5fc6cbb0fd84cfa843392a35160018152f35b81808092335af16100f0610237565b50156100fd5738806100ab565b815162461bcd60e51b815260206004820152601b60248201527f4661696c656420746f20726566756e64206578636573732045544800000000006044820152606490fd5b634e487b7160e01b82526011600452602482fd5b825162461bcd60e51b815260206004820152601260248201527108cc2d2d8cac840e8de40e6cadcc8408aa8960731b6044820152606490fd5b815162461bcd60e51b8152602060048201526015602482015274125b9cdd59999a58da595b9d08115512081cd95b9d605a1b6044820152606490fd5b5080fd5b50346101ca57816003193601126101ca5760209051655af3107a40008152f35b50346101ca57816003193601126101ca576020905173ba23cfbaa92b5cc853cb57e1521aa99ee9b117b98152f35b8390346101ca57816003193601126101ca5780600160209252f35b3d156102935767ffffffffffffffff903d82811161027d5760405192601f8201601f19908116603f011684019081118482101761027d5760405282523d6000602084013e565b634e487b7160e01b600052604160045260246000fd5b60609056fea26469706673582212208d1b3097181673fada01dc2e8920753340597d59ba31a7fe8b135037ed8f7db264736f6c63430008180033",
  "linkReferences": {},
  "deployedLinkReferences": {}
}