{
  "_format": "hh-sol-artifact-1",
  "contractName": "AirSpaceCCIPReceiver",
  "sourceName": "src/contracts/AirSpaceCCIPReceiver.sol",
  "abi": [
    {
      "inputs": [
        {
          "internalType": "address",
          "name": "router",
          "type": "address"
        },
        {
          "internalType": "address",
          "name": "_paymentRecipient",
          "type": "address"
        }
      ],
      "stateMutability": "nonpayable",
      "type": "constructor"
    },
    {
      "inputs": [
        {
          "internalType": "address",
          "name": "sender",
          "type": "address"
        },
        {
          "internalType": "uint256",
          "name": "tokenId",
          "type": "uint256"
        },
        {
          "internalType": "address",
          "name": "owner",
          "type": "address"
        }
      ],
      "name": "ERC721IncorrectOwner",
      "type": "error"
    },
    {
      "inputs": [
        {
          "internalType": "address",
          "name": "operator",
          "type": "address"
        },
        {
          "internalType": "uint256",
          "name": "tokenId",
          "type": "uint256"
        }
      ],
      "name": "ERC721InsufficientApproval",
      "type": "error"
    },
    {
      "inputs": [
        {
          "internalType": "address",
          "name": "approver",
          "type": "address"
        }
      ],
      "name": "ERC721InvalidApprover",
      "type": "error"
    },
    {
      "inputs": [
        {
          "internalType": "address",
          "name": "operator",
          "type": "address"
        }
      ],
      "name": "ERC721InvalidOperator",
      "type": "error"
    },
    {
      "inputs": [
        {
          "internalType": "address",
          "name": "owner",
          "type": "address"
        }
      ],
      "name": "ERC721InvalidOwner",
      "type": "error"
    },
    {
      "inputs": [
        {
          "internalType": "address",
          "name": "receiver",
          "type": "address"
        }
      ],
      "name": "ERC721InvalidReceiver",
      "type": "error"
    },
    {
      "inputs": [
        {
          "internalType": "address",
          "name": "sender",
          "type": "address"
        }
      ],
      "name": "ERC721InvalidSender",
      "type": "error"
    },
    {
      "inputs": [
        {
          "internalType": "uint256",
          "name": "tokenId",
          "type": "uint256"
        }
      ],
      "name": "ERC721NonexistentToken",
      "type": "error"
    },
    {
      "inputs": [
        {
          "internalType": "address",
          "name": "router",
          "type": "address"
        }
      ],
      "name": "InvalidRouter",
      "type": "error"
    },
    {
      "inputs": [
        {
          "internalType": "address",
          "name": "sender",
          "type": "address"
        }
      ],
      "name": "InvalidSender",
      "type": "error"
    },
    {
      "inputs": [
        {
          "internalType": "uint64",
          "name": "sourceChainSelector",
          "type": "uint64"
        }
      ],
      "name": "InvalidSourceChain",
      "type": "error"
    },
    {
      "inputs": [
        {
          "internalType": "address",
          "name": "to",
          "type": "address"
        },
        {
          "internalType": "uint256",
          "name": "tokenId",
          "type": "uint256"
        }
      ],
      "name": "NFTMintingFailed",
      "type": "error"
    },
    {
      "inputs": [
        {
          "internalType": "address",
          "name": "owner",
          "type": "address"
        }
      ],
      "name": "OwnableInvalidOwner",
      "type": "error"
    },
    {
      "inputs": [
        {
          "internalType": "address",
          "name": "account",
          "type": "address"
        }
      ],
      "name": "OwnableUnauthorizedAccount",
      "type": "error"
    },
    {
      "inputs": [
        {
          "internalType": "address",
          "name": "token",
          "type": "address"
        },
        {
          "internalType": "uint256",
          "name": "amount",
          "type": "uint256"
        }
      ],
      "name": "PaymentProcessingFailed",
      "type": "error"
    },
    {
      "anonymous": false,
      "inputs": [
        {
          "indexed": true,
          "internalType": "address",
          "name": "owner",
          "type": "address"
        },
        {
          "indexed": true,
          "internalType": "address",
          "name": "approved",
          "type": "address"
        },
        {
          "indexed": true,
          "internalType": "uint256",
          "name": "tokenId",
          "type": "uint256"
        }
      ],
      "name": "Approval",
      "type": "event"
    },
    {
      "anonymous": false,
      "inputs": [
        {
          "indexed": true,
          "internalType": "address",
          "name": "owner",
          "type": "address"
        },
        {
          "indexed": true,
          "internalType": "address",
          "name": "operator",
          "type": "address"
        },
        {
          "indexed": false,
          "internalType": "bool",
          "name": "approved",
          "type": "bool"
        }
      ],
      "name": "ApprovalForAll",
      "type": "event"
    },
    {
      "anonymous": false,
      "inputs": [
        {
          "indexed": false,
          "internalType": "uint256",
          "name": "_fromTokenId",
          "type": "uint256"
        },
        {
          "indexed": false,
          "internalType": "uint256",
          "name": "_toTokenId",
          "type": "uint256"
        }
      ],
      "name": "BatchMetadataUpdate",
      "type": "event"
    },
    {
      "anonymous": false,
      "inputs": [
        {
          "indexed": true,
          "internalType": "bytes32",
          "name": "messageId",
          "type": "bytes32"
        },
        {
          "indexed": true,
          "internalType": "address",
          "name": "buyer",
          "type": "address"
        },
        {
          "indexed": false,
          "internalType": "address",
          "name": "paymentToken",
          "type": "address"
        },
        {
          "indexed": false,
          "internalType": "uint256",
          "name": "amount",
          "type": "uint256"
        },
        {
          "indexed": false,
          "internalType": "uint256",
          "name": "nftTokenId",
          "type": "uint256"
        }
      ],
      "name": "CrossChainPaymentProcessed",
      "type": "event"
    },
    {
      "anonymous": false,
      "inputs": [
        {
          "indexed": false,
          "internalType": "uint256",
          "name": "_tokenId",
          "type": "uint256"
        }
      ],
      "name": "MetadataUpdate",
      "type": "event"
    },
    {
      "anonymous": false,
      "inputs": [
        {
          "indexed": true,
          "internalType": "bytes32",
          "name": "messageId",
          "type": "bytes32"
        },
        {
          "indexed": true,
          "internalType": "uint64",
          "name": "sourceChainSelector",
          "type": "uint64"
        },
        {
          "indexed": true,
          "internalType": "address",
          "name": "sender",
          "type": "address"
        },
        {
          "indexed": false,
          "internalType": "address",
          "name": "nftContract",
          "type": "address"
        },
        {
          "indexed": false,
          "internalType": "uint256",
          "name": "sourceTokenId",
          "type": "uint256"
        },
        {
          "indexed": false,
          "internalType": "uint256",
          "name": "newTokenId",
          "type": "uint256"
        },
        {
          "indexed": false,
          "internalType": "address",
          "name": "originalOwner",
          "type": "address"
        },
        {
          "indexed": false,
          "internalType": "string",
          "name": "propertyAddress",
          "type": "string"
        }
      ],
      "name": "NFTDataReceived",
      "type": "event"
    },
    {
      "anonymous": false,
      "inputs": [
        {
          "indexed": true,
          "internalType": "uint256",
          "name": "tokenId",
          "type": "uint256"
        },
        {
          "indexed": true,
          "internalType": "address",
          "name": "to",
          "type": "address"
        },
        {
          "indexed": false,
          "internalType": "string",
          "name": "propertyAddress",
          "type": "string"
        },
        {
          "indexed": true,
          "internalType": "bytes32",
          "name": "sourceMessageId",
          "type": "bytes32"
        }
      ],
      "name": "NFTMinted",
      "type": "event"
    },
    {
      "anonymous": false,
      "inputs": [
        {
          "indexed": true,
          "internalType": "address",
          "name": "previousOwner",
          "type": "address"
        },
        {
          "indexed": true,
          "internalType": "address",
          "name": "newOwner",
          "type": "address"
        }
      ],
      "name": "OwnershipTransferred",
      "type": "event"
    },
    {
      "anonymous": false,
      "inputs": [
        {
          "indexed": true,
          "internalType": "address",
          "name": "from",
          "type": "address"
        },
        {
          "indexed": true,
          "internalType": "address",
          "name": "to",
          "type": "address"
        },
        {
          "indexed": true,
          "internalType": "uint256",
          "name": "tokenId",
          "type": "uint256"
        }
      ],
      "name": "Transfer",
      "type": "event"
    },
    {
      "stateMutability": "payable",
      "type": "fallback"
    },
    {
      "inputs": [
        {
          "internalType": "address",
          "name": "sender",
          "type": "address"
        }
      ],
      "name": "addSupportedSender",
      "outputs": [],
      "stateMutability": "nonpayable",
      "type": "function"
    },
    {
      "inputs": [
        {
          "internalType": "uint64",
          "name": "sourceChainSelector",
          "type": "uint64"
        }
      ],
      "name": "addSupportedSourceChain",
      "outputs": [],
      "stateMutability": "nonpayable",
      "type": "function"
    },
    {
      "inputs": [
        {
          "internalType": "address",
          "name": "to",
          "type": "address"
        },
        {
          "internalType": "uint256",
          "name": "tokenId",
          "type": "uint256"
        }
      ],
      "name": "approve",
      "outputs": [],
      "stateMutability": "nonpayable",
      "type": "function"
    },
    {
      "inputs": [
        {
          "internalType": "address",
          "name": "owner",
          "type": "address"
        }
      ],
      "name": "balanceOf",
      "outputs": [
        {
          "internalType": "uint256",
          "name": "",
          "type": "uint256"
        }
      ],
      "stateMutability": "view",
      "type": "function"
    },
    {
      "inputs": [
        {
          "components": [
            {
              "internalType": "bytes32",
              "name": "messageId",
              "type": "bytes32"
            },
            {
              "internalType": "uint64",
              "name": "sourceChainSelector",
              "type": "uint64"
            },
            {
              "internalType": "bytes",
              "name": "sender",
              "type": "bytes"
            },
            {
              "internalType": "bytes",
              "name": "data",
              "type": "bytes"
            },
            {
              "components": [
                {
                  "internalType": "address",
                  "name": "token",
                  "type": "address"
                },
                {
                  "internalType": "uint256",
                  "name": "amount",
                  "type": "uint256"
                }
              ],
              "internalType": "struct Client.EVMTokenAmount[]",
              "name": "destTokenAmounts",
              "type": "tuple[]"
            }
          ],
          "internalType": "struct Client.Any2EVMMessage",
          "name": "message",
          "type": "tuple"
        }
      ],
      "name": "ccipReceive",
      "outputs": [],
      "stateMutability": "nonpayable",
      "type": "function"
    },
    {
      "inputs": [
        {
          "internalType": "bytes",
          "name": "data",
          "type": "bytes"
        }
      ],
      "name": "decodeNFTDataOnly",
      "outputs": [
        {
          "internalType": "address",
          "name": "sourceNftContract",
          "type": "address"
        },
        {
          "internalType": "uint256",
          "name": "sourceTokenId",
          "type": "uint256"
        },
        {
          "internalType": "address",
          "name": "originalOwner",
          "type": "address"
        },
        {
          "internalType": "string",
          "name": "propertyAddress",
          "type": "string"
        },
        {
          "internalType": "uint256",
          "name": "currentHeight",
          "type": "uint256"
        },
        {
          "internalType": "uint256",
          "name": "maximumHeight",
          "type": "uint256"
        },
        {
          "internalType": "uint256",
          "name": "availableFloors",
          "type": "uint256"
        },
        {
          "internalType": "uint256",
          "name": "price",
          "type": "uint256"
        },
        {
          "internalType": "string",
          "name": "metadataURI",
          "type": "string"
        },
        {
          "internalType": "address",
          "name": "caller",
          "type": "address"
        }
      ],
      "stateMutability": "pure",
      "type": "function"
    },
    {
      "inputs": [
        {
          "internalType": "bytes",
          "name": "data",
          "type": "bytes"
        }
      ],
      "name": "decodeNFTDataWithPayment",
      "outputs": [
        {
          "internalType": "address",
          "name": "sourceNftContract",
          "type": "address"
        },
        {
          "internalType": "uint256",
          "name": "sourceTokenId",
          "type": "uint256"
        },
        {
          "internalType": "address",
          "name": "originalOwner",
          "type": "address"
        },
        {
          "internalType": "string",
          "name": "propertyAddress",
          "type": "string"
        },
        {
          "internalType": "uint256",
          "name": "currentHeight",
          "type": "uint256"
        },
        {
          "internalType": "uint256",
          "name": "maximumHeight",
          "type": "uint256"
        },
        {
          "internalType": "uint256",
          "name": "availableFloors",
          "type": "uint256"
        },
        {
          "internalType": "uint256",
          "name": "price",
          "type": "uint256"
        },
        {
          "internalType": "string",
          "name": "metadataURI",
          "type": "string"
        },
        {
          "internalType": "address",
          "name": "caller",
          "type": "address"
        },
        {
          "internalType": "address",
          "name": "paymentToken",
          "type": "address"
        },
        {
          "internalType": "uint256",
          "name": "paymentAmount",
          "type": "uint256"
        }
      ],
      "stateMutability": "pure",
      "type": "function"
    },
    {
      "inputs": [
        {
          "internalType": "uint256",
          "name": "tokenId",
          "type": "uint256"
        }
      ],
      "name": "getApproved",
      "outputs": [
        {
          "internalType": "address",
          "name": "",
          "type": "address"
        }
      ],
      "stateMutability": "view",
      "type": "function"
    },
    {
      "inputs": [],
      "name": "getCurrentTokenCounter",
      "outputs": [
        {
          "internalType": "uint256",
          "name": "counter",
          "type": "uint256"
        }
      ],
      "stateMutability": "view",
      "type": "function"
    },
    {
      "inputs": [
        {
          "internalType": "uint64",
          "name": "sourceChainSelector",
          "type": "uint64"
        },
        {
          "internalType": "uint256",
          "name": "sourceTokenId",
          "type": "uint256"
        }
      ],
      "name": "getLocalTokenId",
      "outputs": [
        {
          "internalType": "uint256",
          "name": "localTokenId",
          "type": "uint256"
        }
      ],
      "stateMutability": "view",
      "type": "function"
    },
    {
      "inputs": [
        {
          "internalType": "bytes32",
          "name": "messageId",
          "type": "bytes32"
        }
      ],
      "name": "getReceivedNFTData",
      "outputs": [
        {
          "components": [
            {
              "internalType": "address",
              "name": "sourceNftContract",
              "type": "address"
            },
            {
              "internalType": "uint256",
              "name": "sourceTokenId",
              "type": "uint256"
            },
            {
              "internalType": "address",
              "name": "originalOwner",
              "type": "address"
            },
            {
              "internalType": "string",
              "name": "propertyAddress",
              "type": "string"
            },
            {
              "internalType": "uint256",
              "name": "currentHeight",
              "type": "uint256"
            },
            {
              "internalType": "uint256",
              "name": "maximumHeight",
              "type": "uint256"
            },
            {
              "internalType": "uint256",
              "name": "availableFloors",
              "type": "uint256"
            },
            {
              "internalType": "uint256",
              "name": "price",
              "type": "uint256"
            },
            {
              "internalType": "string",
              "name": "metadataURI",
              "type": "string"
            },
            {
              "internalType": "address",
              "name": "caller",
              "type": "address"
            },
            {
              "internalType": "address",
              "name": "paymentToken",
              "type": "address"
            },
            {
              "internalType": "uint256",
              "name": "paymentAmount",
              "type": "uint256"
            },
            {
              "internalType": "uint64",
              "name": "sourceChainSelector",
              "type": "uint64"
            },
            {
              "internalType": "bool",
              "name": "processed",
              "type": "bool"
            }
          ],
          "internalType": "struct AirSpaceCCIPReceiver.ReceivedNFTData",
          "name": "nftData",
          "type": "tuple"
        }
      ],
      "stateMutability": "view",
      "type": "function"
    },
    {
      "inputs": [],
      "name": "getRouter",
      "outputs": [
        {
          "internalType": "address",
          "name": "",
          "type": "address"
        }
      ],
      "stateMutability": "view",
      "type": "function"
    },
    {
      "inputs": [
        {
          "internalType": "uint256",
          "name": "localTokenId",
          "type": "uint256"
        }
      ],
      "name": "getSourceMessageId",
      "outputs": [
        {
          "internalType": "bytes32",
          "name": "messageId",
          "type": "bytes32"
        }
      ],
      "stateMutability": "view",
      "type": "function"
    },
    {
      "inputs": [
        {
          "internalType": "address",
          "name": "owner",
          "type": "address"
        },
        {
          "internalType": "address",
          "name": "operator",
          "type": "address"
        }
      ],
      "name": "isApprovedForAll",
      "outputs": [
        {
          "internalType": "bool",
          "name": "",
          "type": "bool"
        }
      ],
      "stateMutability": "view",
      "type": "function"
    },
    {
      "inputs": [
        {
          "internalType": "address",
          "name": "sender",
          "type": "address"
        }
      ],
      "name": "isSenderSupported",
      "outputs": [
        {
          "internalType": "bool",
          "name": "supported",
          "type": "bool"
        }
      ],
      "stateMutability": "view",
      "type": "function"
    },
    {
      "inputs": [
        {
          "internalType": "uint64",
          "name": "sourceChainSelector",
          "type": "uint64"
        }
      ],
      "name": "isSourceChainSupported",
      "outputs": [
        {
          "internalType": "bool",
          "name": "supported",
          "type": "bool"
        }
      ],
      "stateMutability": "view",
      "type": "function"
    },
    {
      "inputs": [
        {
          "internalType": "uint256",
          "name": "",
          "type": "uint256"
        }
      ],
      "name": "localTokenIdToMessageId",
      "outputs": [
        {
          "internalType": "bytes32",
          "name": "",
          "type": "bytes32"
        }
      ],
      "stateMutability": "view",
      "type": "function"
    },
    {
      "inputs": [],
      "name": "name",
      "outputs": [
        {
          "internalType": "string",
          "name": "",
          "type": "string"
        }
      ],
      "stateMutability": "view",
      "type": "function"
    },
    {
      "inputs": [],
      "name": "owner",
      "outputs": [
        {
          "internalType": "address",
          "name": "",
          "type": "address"
        }
      ],
      "stateMutability": "view",
      "type": "function"
    },
    {
      "inputs": [
        {
          "internalType": "uint256",
          "name": "tokenId",
          "type": "uint256"
        }
      ],
      "name": "ownerOf",
      "outputs": [
        {
          "internalType": "address",
          "name": "",
          "type": "address"
        }
      ],
      "stateMutability": "view",
      "type": "function"
    },
    {
      "inputs": [],
      "name": "paymentRecipient",
      "outputs": [
        {
          "internalType": "address",
          "name": "",
          "type": "address"
        }
      ],
      "stateMutability": "view",
      "type": "function"
    },
    {
      "inputs": [
        {
          "internalType": "bytes32",
          "name": "",
          "type": "bytes32"
        }
      ],
      "name": "receivedNFTData",
      "outputs": [
        {
          "internalType": "address",
          "name": "sourceNftContract",
          "type": "address"
        },
        {
          "internalType": "uint256",
          "name": "sourceTokenId",
          "type": "uint256"
        },
        {
          "internalType": "address",
          "name": "originalOwner",
          "type": "address"
        },
        {
          "internalType": "string",
          "name": "propertyAddress",
          "type": "string"
        },
        {
          "internalType": "uint256",
          "name": "currentHeight",
          "type": "uint256"
        },
        {
          "internalType": "uint256",
          "name": "maximumHeight",
          "type": "uint256"
        },
        {
          "internalType": "uint256",
          "name": "availableFloors",
          "type": "uint256"
        },
        {
          "internalType": "uint256",
          "name": "price",
          "type": "uint256"
        },
        {
          "internalType": "string",
          "name": "metadataURI",
          "type": "string"
        },
        {
          "internalType": "address",
          "name": "caller",
          "type": "address"
        },
        {
          "internalType": "address",
          "name": "paymentToken",
          "type": "address"
        },
        {
          "internalType": "uint256",
          "name": "paymentAmount",
          "type": "uint256"
        },
        {
          "internalType": "uint64",
          "name": "sourceChainSelector",
          "type": "uint64"
        },
        {
          "internalType": "bool",
          "name": "processed",
          "type": "bool"
        }
      ],
      "stateMutability": "view",
      "type": "function"
    },
    {
      "inputs": [
        {
          "internalType": "address",
          "name": "sender",
          "type": "address"
        }
      ],
      "name": "removeSupportedSender",
      "outputs": [],
      "stateMutability": "nonpayable",
      "type": "function"
    },
    {
      "inputs": [
        {
          "internalType": "uint64",
          "name": "sourceChainSelector",
          "type": "uint64"
        }
      ],
      "name": "removeSupportedSourceChain",
      "outputs": [],
      "stateMutability": "nonpayable",
      "type": "function"
    },
    {
      "inputs": [],
      "name": "renounceOwnership",
      "outputs": [],
      "stateMutability": "nonpayable",
      "type": "function"
    },
    {
      "inputs": [
        {
          "internalType": "address",
          "name": "from",
          "type": "address"
        },
        {
          "internalType": "address",
          "name": "to",
          "type": "address"
        },
        {
          "internalType": "uint256",
          "name": "tokenId",
          "type": "uint256"
        }
      ],
      "name": "safeTransferFrom",
      "outputs": [],
      "stateMutability": "nonpayable",
      "type": "function"
    },
    {
      "inputs": [
        {
          "internalType": "address",
          "name": "from",
          "type": "address"
        },
        {
          "internalType": "address",
          "name": "to",
          "type": "address"
        },
        {
          "internalType": "uint256",
          "name": "tokenId",
          "type": "uint256"
        },
        {
          "internalType": "bytes",
          "name": "data",
          "type": "bytes"
        }
      ],
      "name": "safeTransferFrom",
      "outputs": [],
      "stateMutability": "nonpayable",
      "type": "function"
    },
    {
      "inputs": [
        {
          "internalType": "address",
          "name": "operator",
          "type": "address"
        },
        {
          "internalType": "bool",
          "name": "approved",
          "type": "bool"
        }
      ],
      "name": "setApprovalForAll",
      "outputs": [],
      "stateMutability": "nonpayable",
      "type": "function"
    },
    {
      "inputs": [
        {
          "internalType": "address",
          "name": "_paymentRecipient",
          "type": "address"
        }
      ],
      "name": "setPaymentRecipient",
      "outputs": [],
      "stateMutability": "nonpayable",
      "type": "function"
    },
    {
      "inputs": [
        {
          "internalType": "uint64",
          "name": "",
          "type": "uint64"
        },
        {
          "internalType": "uint256",
          "name": "",
          "type": "uint256"
        }
      ],
      "name": "sourceToLocalTokenId",
      "outputs": [
        {
          "internalType": "uint256",
          "name": "",
          "type": "uint256"
        }
      ],
      "stateMutability": "view",
      "type": "function"
    },
    {
      "inputs": [
        {
          "internalType": "address",
          "name": "",
          "type": "address"
        }
      ],
      "name": "supportedSenders",
      "outputs": [
        {
          "internalType": "bool",
          "name": "",
          "type": "bool"
        }
      ],
      "stateMutability": "view",
      "type": "function"
    },
    {
      "inputs": [
        {
          "internalType": "uint64",
          "name": "",
          "type": "uint64"
        }
      ],
      "name": "supportedSourceChains",
      "outputs": [
        {
          "internalType": "bool",
          "name": "",
          "type": "bool"
        }
      ],
      "stateMutability": "view",
      "type": "function"
    },
    {
      "inputs": [
        {
          "internalType": "bytes4",
          "name": "interfaceId",
          "type": "bytes4"
        }
      ],
      "name": "supportsInterface",
      "outputs": [
        {
          "internalType": "bool",
          "name": "",
          "type": "bool"
        }
      ],
      "stateMutability": "view",
      "type": "function"
    },
    {
      "inputs": [],
      "name": "symbol",
      "outputs": [
        {
          "internalType": "string",
          "name": "",
          "type": "string"
        }
      ],
      "stateMutability": "view",
      "type": "function"
    },
    {
      "inputs": [
        {
          "internalType": "uint256",
          "name": "tokenId",
          "type": "uint256"
        }
      ],
      "name": "tokenURI",
      "outputs": [
        {
          "internalType": "string",
          "name": "",
          "type": "string"
        }
      ],
      "stateMutability": "view",
      "type": "function"
    },
    {
      "inputs": [
        {
          "internalType": "address",
          "name": "from",
          "type": "address"
        },
        {
          "internalType": "address",
          "name": "to",
          "type": "address"
        },
        {
          "internalType": "uint256",
          "name": "tokenId",
          "type": "uint256"
        }
      ],
      "name": "transferFrom",
      "outputs": [],
      "stateMutability": "nonpayable",
      "type": "function"
    },
    {
      "inputs": [
        {
          "internalType": "address",
          "name": "newOwner",
          "type": "address"
        }
      ],
      "name": "transferOwnership",
      "outputs": [],
      "stateMutability": "nonpayable",
      "type": "function"
    },
    {
      "inputs": [
        {
          "internalType": "address payable",
          "name": "to",
          "type": "address"
        },
        {
          "internalType": "uint256",
          "name": "amount",
          "type": "uint256"
        }
      ],
      "name": "withdrawNative",
      "outputs": [],
      "stateMutability": "nonpayable",
      "type": "function"
    },
    {
      "inputs": [
        {
          "internalType": "address",
          "name": "token",
          "type": "address"
        },
        {
          "internalType": "address",
          "name": "to",
          "type": "address"
        },
        {
          "internalType": "uint256",
          "name": "amount",
          "type": "uint256"
        }
      ],
      "name": "withdrawToken",
      "outputs": [],
      "stateMutability": "nonpayable",
      "type": "function"
    },
    {
      "stateMutability": "payable",
      "type": "receive"
    }
  ],
  "bytecode": "0x604060a08152346200042757620031e8818138039182620000208162000462565b9384928339810103126200042757620000398162000488565b9162000049602080930162000488565b90600092620000576200042c565b92601884527f41697253706163652043726f73732d436861696e204e46540000000000000000828501526200008b6200042c565b60078152661054d0d0d3919560ca1b838201526001600160a01b0396808816156200040f5760805284516001600160401b039182821162000319578754916001978884811c9416801562000404575b87851014620003f0578190601f948581116200039d575b50879085831160011462000339578b926200032d575b5050600019600383901b1c191690881b1788555b8051928311620003195786548781811c911680156200030e575b86821014620002fa5790818385949311620002a5575b50859183116001146200024157889262000235575b5050600019600383901b1c191690851b1784555b33156200021d57600780546001600160a01b031980821633908117909355855198600995949193909283167f8be0079c531659141344cd1fd0a4f28419497f9722a3daafe3b4186f6b6457e08a80a31690600e541617600e558360085567ccf0a31a221f3c9b8552528083209260ff1993838582541617905567de41ba4fc9d91ad981522091825416179055612d4a90816200049e82396080518181816105e0015261095e0152f35b8251631e4fbdf760e01b815260048101869052602490fd5b01519050388062000160565b8789528589208894509190601f1984168a5b888282106200028e575050841162000274575b505050811b01845562000174565b015160001960f88460031b161c1916905538808062000266565b8385015186558b9790950194938401930162000253565b909192508789528589208380860160051c820192888710620002f0575b9186958b929594930160051c01915b828110620002e15750506200014b565b8b81558695508a9101620002d1565b92508192620002c2565b634e487b7160e01b89526022600452602489fd5b90607f169062000135565b634e487b7160e01b88526041600452602488fd5b01519050388062000107565b8b8052888c208b94509190601f1984168d5b8b8282106200038657505084116200036c575b505050811b0188556200011b565b015160001960f88460031b161c191690553880806200035e565b8385015186558e979095019493840193016200034b565b9091508a8052878b208580850160051c8201928a8610620003e6575b918c91869594930160051c01915b828110620003d7575050620000f1565b8d81558594508c9101620003c7565b92508192620003b9565b634e487b7160e01b8a52602260045260248afd5b93607f1693620000da565b84516335fdcccd60e21b815260048101889052602490fd5b600080fd5b60408051919082016001600160401b038111838210176200044c57604052565b634e487b7160e01b600052604160045260246000fd5b6040519190601f01601f191682016001600160401b038111838210176200044c57604052565b51906001600160a01b0382168203620004275756fe60806040526004361015610018575b361561001657005b005b60003560e01c806301e33667146121b057806301ffc9a71461212857806306fdde031461207d57806307b18bde1461202c578063081812fc14611fee578063095ea7b314611f075780631478585a14611cb55780631f7f31a414611c9757806323b872dd14611c805780632753c73c14611bd55780632983c4b814611c3d5780632b1eaf2914611c145780633873168514611bd557806342842e0e14611ba757806354ff3c2314610320578063563046cf14611a705780636352211e14611a40578063652ad8d0146107e157806368511549146119fe57806368794fe2146119b957806370a0823114611960578063715018a61461190357806385572ffb1461092c5780638da5cb5b1461090357806395d89b41146108205780639884c2b0146107e15780639ec0f4d4146106b4578063a22cb4651461060f578063b0f479a1146105ca578063b88d4fde14610570578063ba9c81f2146101cb578063c0273d2f14610418578063c7eee0ee146103d6578063c87b56dd14610368578063cd32d95a14610320578063d1806047146102db578063e985e9c514610285578063f2fde38b146101fc5763f63310150361000e575b346101f75760203660031901126101f757600435600052600d6020526020604060002054604051908152f35b600080fd5b346101f75760203660031901126101f757610215612236565b61021d612692565b6001600160a01b0390811690811561026c57600754826001600160601b0360a01b821617600755167f8be0079c531659141344cd1fd0a4f28419497f9722a3daafe3b4186f6b6457e0600080a3005b604051631e4fbdf760e01b815260006004820152602490fd5b346101f75760403660031901126101f75761029e612236565b6102a661224c565b9060018060a01b03809116600052600560205260406000209116600052602052602060ff604060002054166040519015158152f35b346101f75760203660031901126101f7576001600160401b036102fc6122df565b610304612692565b166000908152600960205260409020805460ff19166001179055005b346101f75760403660031901126101f7576001600160401b036103416122df565b16600052600c60205260406000206024356000526020526020604060002054604051908152f35b346101f75760203660031901126101f757600435610385816126be565b5060005260066020526103d26103a86103af6040600020604051928380926123e9565b038261232c565b60006040516103bd81612311565b526040519182916020835260208301906122ba565b0390f35b346101f75760203660031901126101f7576001600160401b036103f76122df565b6103ff612692565b166000908152600960205260409020805460ff19169055005b346101f75760203660031901126101f7576001600160401b036004358181116101f757610449903690600401612368565b80518101610180828203126101f75761046460208301612639565b9160408101519061047760608201612639565b9260808201518681116101f7576104969060208084019185010161264d565b60a08301519060c084015160e0850151610100860151916101208701519a8b116101f75761052a6104d360209c8d8061054d9a01918b010161264d565b946104e16101408a01612639565b9a6101806104f26101608c01612639565b9a01519a6040519e8f9e8f9060018060a01b03168152015260018060a01b031660408d015261018060608d01526101808c01906122ba565b9460808b015260a08a015260c089015260e08801528682036101008801526122ba565b6001600160a01b0393841661012086015292166101408401526101608301520390f35b346101f75760803660031901126101f757610589612236565b61059161224c565b90604435606435926001600160401b0384116101f7576105b8610016943690600401612368565b926105c4838383612497565b336126f9565b346101f75760003660031901126101f7576040517f00000000000000000000000000000000000000000000000000000000000000006001600160a01b03168152602090f35b346101f75760403660031901126101f757610628612236565b602435908115158092036101f7576001600160a01b031690811561069b57336000526005602052604060002082600052602052604060002060ff1981541660ff83161790556040519081527f17307eab39ab6107e8899845ad3d59bd9653f200f220920489ca2b5937696c3160203392a3005b604051630b61174360e31b815260048101839052602490fd5b346101f75760203660031901126101f757600435600052600b6020526040600020600160a01b600190038082541690600183015491816002850154169360405180806003840190610704916123e9565b0361070f908261232c565b600482015460058301549060068401546007850154906040519384806008890190610739916123e9565b03610744908661232c565b8860098801541698600a8801541695600b88015497600c0154986040519c8d9c8d6101c09381526020015260408d01528060608d01528b01610785916122ba565b9360808b015260a08a015260c089015260e08801528681036101008801526107ac916122ba565b936101208601526101408501526101608401526001600160401b03811661018084015260401c60ff1615156101a08301520390f35b346101f75760203660031901126101f7576001600160401b036108026122df565b166000526009602052602060ff604060002054166040519015158152f35b346101f75760003660031901126101f757604051600060018260015492610846846123af565b92838352602094856001821691826000146108e3575050600114610886575b506108729250038361232c565b6103d26040519282849384528301906122ba565b84915060016000527fb10e2d527612073b26eecdfd717e6a320cf44b4afac2b0732d9fcbe2b7fa0cf6906000915b8583106108cb575050610872935082010185610865565b805483890185015287945086939092019181016108b4565b60ff19168582015261087295151560051b85010192508791506108659050565b346101f75760003660031901126101f7576007546040516001600160a01b039091168152602090f35b346101f7576003196020368201126101f757600435906001600160401b0382116101f75760a09082360301126101f7577f00000000000000000000000000000000000000000000000000000000000000006001600160a01b031633036118eb576040519060a082018281106001600160401b038211176110c1576040528060040135825260248101356001600160401b03811681036101f757602083015260448101356001600160401b0381116101f7576109ed9060043691840101612368565b604083015260648101356001600160401b0381116101f757610a159060043691840101612368565b60608301526084810135906001600160401b0382116101f7573660238383010112156101f757600482820101356001600160401b0381116110c15760405192610a6460208360051b018561232c565b81845260208401923660248460061b8484010101116101f75780820160240193915b60248460061b8284010101851061188b57868660808201526001600160401b03602082015116600052600960205260ff60406000205416156118665760408101516020818051810103126101f7576020610ae09101612639565b50606081015160405163c0273d2f60e01b815260206004820152919060008380610b0d60248201856122ba565b0381305afa92600093600094600080600090600091600090600080926000958960009b60009b611792575b50611265575050505050505050505050610b7292506000906040518094819263563046cf60e01b83526020600484015260248301906122ba565b0381305afa91600080600092600095600090600090600080826000966000946111a7575b50610be05760405162461bcd60e51b815260206004820152601960248201527f4661696c656420746f206465636f6465204e46542064617461000000000000006044820152606490fd5b6001600160401b0360208b0151169360405195610bfc876122f5565b60018060a01b038a16875288602088015260018060a01b038b1660408801528c6060880152608087015260a086015260c085015260e08401528361010084015260018060a01b03166101208301526000610140830152600061016083015261018082015260006101a08201528551600052600b602052604060002060018060a01b038251166001600160601b0360a01b825416178155602082015160018201556002810160018060a01b036040840151166001600160601b0360a01b82541617905560608201518051906001600160401b0382116110c1578190610ce360038501546123af565b601f8111611154575b50602090601f83116001146110e2576000926110d7575b50508160011b916000199060031b1c19161760038201555b6080820151600482015560a0820151600582015560c0820151600682015560e082015160078201556101008201518051906001600160401b0382116110c157610d6760088401546123af565b601f811161107a575b50602090601f8311600114610ffc57610e359383610e3e9796946101a094600c94600092610ff1575b50508160011b916000199060031b1c19161760088201555b6101208401516009820180546001600160a01b03199081166001600160a01b0393841617909155610140860151600a840180549092169216919091179055610160840151600b82015561018084015191018054929093015168ffffffffffffffffff199092166001600160401b03919091161790151560401b60ff60401b16179055565b855190856128a3565b926001600160401b03602086015116600052600c60205260406000208260005260205283604060002055845184600052600d6020526040600020558451916001600160401b036020870151169360408701516020818051810103126101f7576080987fcddd5b08fdb6f103d1b4022b24593d484a667789de0c0c458f396877873f9f0d94610ee9926001600160a01b0390610edb90602001612639565b169860405195869586612847565b0390a48051600052600b602052600c604060002001600160401b60ff60401b198254161790555b01518051610f1a57005b60005b8151811015610016576001600160a01b03610f388284612879565b515116906020610f488285612879565b510151600e549092906001600160a01b031680610f6c575b50506001915001610f1d565b60405163a9059cbb60e01b81526001600160a01b039190911660048201526024810193909352602090839060449082906000905af1918215610fe557600192610fb6575b80610f60565b610fd79060203d602011610fde575b610fcf818361232c565b81019061247f565b5083610fb0565b503d610fc5565b6040513d6000823e3d90fd5b015190508e80610d99565b906008840160005260206000209160005b601f19851681106110625750936001846101a094600c94610e3598610e3e9b9a98601f19811610611049575b505050811b016008820155610db1565b015160001960f88460031b161c191690558e8080611039565b9192602060018192868501518155019401920161100d565b600884016000526020600020601f840160051c8101602085106110ba575b601f830160051c820181106110ae575050610d70565b60008155600101611098565b5080611098565b634e487b7160e01b600052604160045260246000fd5b015190508a80610d03565b9250600384016000526020600020906000935b601f1984168510611139576001945083601f19811610611120575b505050811b016003820155610d1b565b015160001960f88460031b161c191690558a8080611110565b818101518355602094850194600190930192909101906110f5565b909150600384016000526020600020601f840160051c8101602085106111a0575b90849392915b601f830160051c82018110611191575050610cec565b6000815585945060010161117b565b5080611175565b99509a5050505050505050503d806000833e6111c3818361232c565b810190610140818303126101f7576111da81612639565b906020810151916111ed60408301612639565b9160608101516001600160401b0381116101f7578561120d91830161264d565b9460808201519760a08301519260c08101519260e082015190610100830151906001600160401b0382116101f75761124d6101209161125493860161264d565b9301612639565b959796989a9493909195928c610b96565b8d9495969798999a9b506001600160401b0360208e015116936040519561128b876122f5565b60018060a01b038c168752602087015260018060a01b0388166040870152896060870152608086015260a085015260c084015260e08301528261010083015260018060a01b03851661012083015260018060a01b0389166101408301528761016083015261018082015260006101a08201528851600052600b602052604060002060018060a01b038251166001600160601b0360a01b825416178155602082015160018201556002810160018060a01b036040840151166001600160601b0360a01b82541617905560608201518051906001600160401b0382116110c157819061137860038501546123af565b601f811161173f575b50602090601f83116001146116cd576000926116c2575b50508160011b916000199060031b1c19161760038201555b6080820151600482015560a0820151600582015560c0820151600682015560e082015160078201556101008201518051906001600160401b0382116110c1576113fc60088401546123af565b601f811161167b575b50602090601f83116001146115fe576114c893836114d19796946101a094600c946000926115f35750508160011b916000199060031b1c19161760088201556101208401516009820180546001600160a01b03199081166001600160a01b0393841617909155610140860151600a840180549092169216919091179055610160840151600b82015561018084015191018054929093015168ffffffffffffffffff199092166001600160401b03919091161790151560401b60ff60401b16179055565b885190846128a3565b906001600160401b03602089015116600052600c60205260406000208960005260205281604060002055875182600052600d60205260406000205587516001600160401b0360208a0151169060408a0151956020878051810103126101f75760809b7fc7a82a501dbab9b410ba61b497f9d8c4219797eb9eb0fb7007d5736f5d2e2b9f986060987fcddd5b08fdb6f103d1b4022b24593d484a667789de0c0c458f396877873f9f0d936115a2916001600160a01b039061159390602001612639565b16978960405195869586612847565b0390a48651604080516001600160a01b039889168152602081019790975286019190915294169392a38051600052600b602052600c604060002001600160401b60ff60401b19825416179055610f10565b015190503880610d99565b906008840160005260206000209160005b601f19851681106116635750936001846101a094600c946114c8986114d19b9a98601f1981161061164a57505050811b016008820155610db1565b015160001960f88460031b161c19169055388080611039565b9192602060018192868501518155019401920161160f565b600884016000526020600020601f840160051c8101602085106116bb575b601f830160051c820181106116af575050611405565b60008155600101611699565b5080611699565b015190508d80611398565b9250600384016000526020600020906000935b601f1984168510611724576001945083601f1981161061170b575b505050811b0160038201556113b0565b015160001960f88460031b161c191690558d80806116fb565b818101518355602094850194600190930192909101906116e0565b909150600384016000526020600020601f840160051c81016020851061178b575b90849392915b601f830160051c8201811061177c575050611381565b60008155859450600101611766565b5080611760565b9e509a50505050505050505050503d806000863e6117b0818661232c565b840190610180858303126101f7576117c785612639565b916020860151906117da60408801612639565b9660608101516001600160401b0381116101f757826117fa91830161264d565b60808201519260a083015160c08401519160e085015190610100860151906001600160401b0382116101f75761183191870161264d565b9061183f6101208701612639565b936101606118506101408901612639565b9701519a989d95979390919294969a998f610b38565b6001600160401b0360206024920151166040519063093cf64560e11b82526004820152fd5b6040853603126101f757604051928360408101106001600160401b036040860111176110c1576040848101905285356001600160a01b03811690036101f75760206040916024958835815282890135838201528152019501949250610a86565b6040516335fdcccd60e21b8152336004820152602490fd5b346101f75760003660031901126101f75761191c612692565b600780546001600160a01b031981169091556000906001600160a01b03167f8be0079c531659141344cd1fd0a4f28419497f9722a3daafe3b4186f6b6457e08280a3005b346101f75760203660031901126101f7576001600160a01b03611981612236565b1680156119a05760005260036020526020604060002054604051908152f35b6040516322718ad960e21b815260006004820152602490fd5b346101f75760203660031901126101f7576119d2612236565b6119da612692565b6001600160a01b03166000908152600a60205260409020805460ff19166001179055005b346101f75760203660031901126101f757611a17612236565b611a1f612692565b6001600160a01b03166000908152600a60205260409020805460ff19169055005b346101f75760203660031901126101f7576020611a5e6004356126be565b6040516001600160a01b039091168152f35b346101f75760203660031901126101f7576001600160401b036004358181116101f757611aa1903690600401612368565b8051810190610140818303126101f757611abd60208201612639565b91604082015193611ad060608401612639565b9260808101518281116101f757611aef9060208086019184010161264d565b60a08201519260c083015160e084015191610100850151936101208601519182116101f757611b39610140611b32611b6f94602080611b929d01918b010161264d565b9701612639565b986040519b8c9b60018060a01b03168c5260208c015260018060a01b031660408b015261014060608b01526101408a01906122ba565b94608089015260a088015260c087015260e08601528482036101008601526122ba565b6001600160a01b039091166101208301520390f35b346101f757610016611bb836612262565b9060405192611bc684612311565b600084526105c4838383612497565b346101f75760203660031901126101f7576001600160a01b03611bf6612236565b16600052600a602052602060ff604060002054166040519015158152f35b346101f75760003660031901126101f757600e546040516001600160a01b039091168152602090f35b346101f75760203660031901126101f757611c56612236565b611c5e612692565b600e80546001600160a01b0319166001600160a01b0392909216919091179055005b346101f757610016611c9136612262565b91612497565b346101f75760003660031901126101f7576020600854604051908152f35b346101f75760203660031901126101f75760006101a0604051611cd7816122f5565b8281528260208201528260408201526060808201528260808201528260a08201528260c08201528260e08201526060610100820152826101208201528261014082015282610160820152826101808201520152600435600052600b602052604060002060ff600c60405192611d4b846122f5565b80546001600160a01b0390811685526001820154602086015260028201541660408086019190915251611d85816103a881600386016123e9565b606085015260048101546080850152600581015460a0850152600681015460c0850152600781015460e0850152604051611dc6816103a881600886016123e9565b61010085015260018060a01b0360098201541661012085015260018060a01b03600a82015416610140850152600b81015461016085015201546001600160401b03811661018084015260401c1615156101a082015260405180916020825260018060a01b0381511660208301526020810151604083015260018060a01b0360408201511660608301526101a0611eb1611e7060608401516101c060808701526101e08601906122ba565b608084015160a086015260a084015160c086015260c084015160e086015260e0840151610100860152610100840151601f19868303016101208701526122ba565b9160018060a01b036101208201511661014085015260018060a01b03610140820151166101608501526101608101516101808501526001600160401b036101808201511682850152015115156101c08301520390f35b346101f75760403660031901126101f757611f20612236565b602435611f2c816126be565b33151580611fdb575b80611fae575b611f96576001600160a01b039283169282918491167f8c5be1e5ebec7d5bd14f71427d1e84f3dd0314c0f7b2291e5b200ac8c7c3b925600080a4600090815260046020526040902080546001600160a01b0319169091179055005b60405163a9fbf51f60e01b8152336004820152602490fd5b5060018060a01b038116600052600560205260406000203360005260205260ff6040600020541615611f3b565b506001600160a01b038116331415611f35565b346101f75760203660031901126101f75760043561200b816126be565b506000526004602052602060018060a01b0360406000205416604051908152f35b346101f75760403660031901126101f7576004356001600160a01b038116908190036101f75760008080809360243590612064612692565b828215612074575bf115610fe557005b506108fc61206c565b346101f75760003660031901126101f7576040516000805490826120a0836123af565b91828252602093600190856001821691826000146108e35750506001146120ce57506108729250038361232c565b6000808052859250907f290decd9548b62a8d60345a988386fc84ba6bc95484008f6362f93160ef3e5635b858310612110575050610872935082010185610865565b805483890185015287945086939092019181016120f9565b346101f75760203660031901126101f75760043563ffffffff60e01b81168091036101f757602090632483248360e11b811490811561216d575b506040519015158152f35b6380ac58cd60e01b81149150811561219f575b811561218e575b5082612162565b6301ffc9a760e01b14905082612187565b635b5e139f60e01b81149150612180565b346101f75761220560206121c336612262565b91906121cd612692565b60405163a9059cbb60e01b81526001600160a01b03909116600482015260248101929092529092839190829060009082906044820190565b03926001600160a01b03165af18015610fe55761221e57005b6100169060203d602011610fde57610fcf818361232c565b600435906001600160a01b03821682036101f757565b602435906001600160a01b03821682036101f757565b60609060031901126101f7576001600160a01b039060043582811681036101f7579160243590811681036101f7579060443590565b60005b8381106122aa5750506000910152565b818101518382015260200161229a565b906020916122d381518092818552858086019101612297565b601f01601f1916010190565b600435906001600160401b03821682036101f757565b6101c081019081106001600160401b038211176110c157604052565b602081019081106001600160401b038211176110c157604052565b90601f801991011681019081106001600160401b038211176110c157604052565b6001600160401b0381116110c157601f01601f191660200190565b81601f820112156101f75780359061237f8261234d565b9261238d604051948561232c565b828452602083830101116101f757816000926020809301838601378301015290565b90600182811c921680156123df575b60208310146123c957565b634e487b7160e01b600052602260045260246000fd5b91607f16916123be565b8054600093926123f8826123af565b91828252602093600191600181169081600014612460575060011461241f575b5050505050565b90939495506000929192528360002092846000945b83861061244c57505050500101903880808080612418565b805485870183015294019385908201612434565b60ff19168685015250505090151560051b010191503880808080612418565b908160209103126101f7575180151581036101f75790565b6001600160a01b03918216929091831561262057600092828452826020956002875260409684888820541696879133151580612587575b509060027fddf252ad1be2c89b69c2b068fc378daa952ba7f163c4a11628f55a4df523b3ef9284612554575b858352600381528b8320805460010190558683525289812080546001600160a01b0319168517905580a416928383036125335750505050565b6064945051926364283d7b60e01b8452600484015260248301526044820152fd5b600087815260046020526040902080546001600160a01b0319169055848352600381528b832080546000190190556124fa565b919394509150806125df575b156125a3578592918791386124ce565b8786886125c0576024915190637e27328960e01b82526004820152fd5b905163177e802f60e01b81523360048201526024810191909152604490fd5b503387148015612604575b806125935750858252600481523385898420541614612593565b5086825260058152878220338352815260ff88832054166125ea565b604051633250574960e11b815260006004820152602490fd5b51906001600160a01b03821682036101f757565b81601f820112156101f75780516126638161234d565b92612671604051948561232c565b818452602082840101116101f75761268f9160208085019101612297565b90565b6007546001600160a01b031633036126a657565b60405163118cdaa760e01b8152336004820152602490fd5b6000818152600260205260409020546001600160a01b03169081156126e1575090565b60249060405190637e27328960e01b82526004820152fd5b909192833b612709575050505050565b604051630a85bd0160e11b8082526001600160a01b0393841660048301529383166024820152604481019190915260806064820152602095919093169390919083906127599060848301906122ba565b039285816000958187895af1849181612803575b506127cd575050503d6000146127c5573d6127878161234d565b90612795604051928361232c565b81528091843d92013e5b805192836127c057604051633250574960e11b815260048101849052602490fd5b019050fd5b50606061279f565b919450915063ffffffff60e01b16036127eb57503880808080612418565b60249060405190633250574960e11b82526004820152fd5b9091508681813d8311612840575b61281b818361232c565b8101031261283c57516001600160e01b03198116810361283c57903861276d565b8480fd5b503d612811565b919360a09361268f9695600180871b0380941685526020850152604084015216606082015281608082015201906122ba565b805182101561288d5760209160051b010190565b634e487b7160e01b600052603260045260246000fd5b600854929160001990818514612cfe576001918286016008556040928351926128cb84612311565b60009283855260018060a01b0394858816978815612ce6578a86526020966002885288872054168b8a8215159283612cb5575b818a5260038b528b8a2080548a019055828a5260028b528b8a2080546001600160a01b031916831790557fddf252ad1be2c89b69c2b068fc378daa952ba7f163c4a11628f55a4df523b3ef8a80a4612c9d573b612b76575b509088959493929181516129b1575b505050906129ab60038484897fcb4d488c9c856f58bf738fd4decd617b237b9923e4ddee8a9dbbd326d4914236979652600b8552200192519282849384528301906123e9565b0390a490565b909195835260068452848320958251926001600160401b038411612b6257908a9695949392916129e189546123af565b601f8111612b09575b508590601f8511600114612a7957938088948188957fcb4d488c9c856f58bf738fd4decd617b237b9923e4ddee8a9dbbd326d49142369c9d956003996129ab9b95612a6e575b50501b92871b1c19161790555b7ff8e1a15aba9398e019f0b49df1a4fde98ee17ae345cb5f6b5e2c27f5033e8ce78583518a8152a193949550612965565b015193503880612a30565b898652868620999492939190601f198416875b818110612af157509a600396938a969386936129ab9a977fcb4d488c9c856f58bf738fd4decd617b237b9923e4ddee8a9dbbd326d49142369e9f10612ada575b50505050811b019055612a3d565b01519060f8848a1b161c1916905538808080612acc565b828401518d559b86019b8f9b50928901928901612a8c565b909192939495969750888652868620601f860160051c810191888710612b58575b90601f8e9a99989796959493920160051c01905b818110612b4b57506129ea565b8681558d99508301612b3e565b9091508190612b2a565b634e487b7160e01b85526041600452602485fd5b988486612bbb8a8a9c989b9d859a9f9b51948580948193630a85bd0160e11b998a845233600485015284602485015260448401526080606484015260848301906122ba565b03925af1899181612c59575b50612c25578b8b8b8b3d15612c1d573d612be08161234d565b90612bed8451928361232c565b81528091853d92013e5b80519384612c17578251633250574960e11b815260048101859052602490fd5b84925001fd5b506060612bf7565b63ffffffff60e09c979b99969a989c1b1603612c415788612956565b8551633250574960e11b815260048101889052602490fd5b9091508c81813d8311612c96575b612c71818361232c565b81010312612c9257516001600160e01b031981168103612c92579038612bc7565b8980fd5b503d612c67565b87516339e3563760e11b815260048101879052602490fd5b600083815260046020526040902080546001600160a01b0319169055808a5260038b528b8a208781540190556128fe565b8751633250574960e11b815260048101879052602490fd5b634e487b7160e01b600052601160045260246000fdfea2646970667358221220949ef06766c1538c21ceeb3a792dfa147205ccd0c508c5096d7e27de0c4f1d6064736f6c63430008180033",
  "linkReferences": {},
  "deployedLinkReferences": {}
}