{
  "_format": "hh-sol-artifact-1",
  "contractName": "Client",
  "sourceName": "@chainlink/contracts-ccip/contracts/libraries/Client.sol",
  "abi": [
    {
      "inputs": [],
      "name": "EVM_EXTRA_ARGS_V1_TAG",
      "outputs": [
        {
          "internalType": "bytes4",
          "name": "",
          "type": "bytes4"
        }
      ],
      "stateMutability": "view",
      "type": "function"
    },
    {
      "inputs": [],
      "name": "GENERIC_EXTRA_ARGS_V2_TAG",
      "outputs": [
        {
          "internalType": "bytes4",
          "name": "",
          "type": "bytes4"
        }
      ],
      "stateMutability": "view",
      "type": "function"
    },
    {
      "inputs": [],
      "name": "SVM_ACCOUNT_BYTE_SIZE",
      "outputs": [
        {
          "internalType": "uint256",
          "name": "",
          "type": "uint256"
        }
      ],
      "stateMutability": "view",
      "type": "function"
    },
    {
      "inputs": [],
      "name": "SVM_EXTRA_ARGS_MAX_ACCOUNTS",
      "outputs": [
        {
          "internalType": "uint256",
          "name": "",
          "type": "uint256"
        }
      ],
      "stateMutability": "view",
      "type": "function"
    },
    {
      "inputs": [],
      "name": "SVM_EXTRA_ARGS_V1_TAG",
      "outputs": [
        {
          "internalType": "bytes4",
          "name": "",
          "type": "bytes4"
        }
      ],
      "stateMutability": "view",
      "type": "function"
    },
    {
      "inputs": [],
      "name": "SVM_MESSAGING_ACCOUNTS_OVERHEAD",
      "outputs": [
        {
          "internalType": "uint256",
          "name": "",
          "type": "uint256"
        }
      ],
      "stateMutability": "view",
      "type": "function"
    },
    {
      "inputs": [],
      "name": "SVM_TOKEN_TRANSFER_DATA_OVERHEAD",
      "outputs": [
        {
          "internalType": "uint256",
          "name": "",
          "type": "uint256"
        }
      ],
      "stateMutability": "view",
      "type": "function"
    }
  ],
  "bytecode": "0x6080806040523461001a576101589081610020823930815050f35b600080fdfe60806040818152600436101561001457600080fd5b600091823560e01c9081631ac428f814610108575080633ab8c0d0146100ec5780635dd8ee3e146100d657806371953f60146100c15780637498e355146100a55780639713cbbd1461008e5763a5dd87d81461006f57600080fd5b8160031936011261008a5751630f9d9d5d60e11b8152602090f35b5080fd5b508160031936011261008a576020905161012c8152f35b508160031936011261008a5751630181dcf160e41b8152602090f35b508160031936011261008a5760209051818152f35b508160031936011261008a576020905160028152f35b508160031936011261008a57516397a657c960e01b8152602090f35b9190508260031936011261011e57602092508152f35b8280fdfea26469706673582212204a262853b82f837d576dc97803e52d70e4dbd179f6b3455301be432187c2c34164736f6c63430008180033",
  "linkReferences": {},
  "deployedLinkReferences": {}
}